{
	"Miras.sol": {
		"Miras": {
			"abi": [
				{
					"inputs": [
						{
							"internalType": "address payable[]",
							"name": "_inheritorAddresses",
							"type": "address[]"
						},
						{
							"internalType": "uint256[]",
							"name": "_percentages",
							"type": "uint256[]"
						}
					],
					"stateMutability": "nonpayable",
					"type": "constructor"
				},
				{
					"stateMutability": "payable",
					"type": "fallback"
				},
				{
					"inputs": [
						{
							"internalType": "address payable",
							"name": "_inheritorAddress",
							"type": "address"
						},
						{
							"internalType": "uint256",
							"name": "_percentage",
							"type": "uint256"
						}
					],
					"name": "addInheritor",
					"outputs": [],
					"stateMutability": "nonpayable",
					"type": "function"
				},
				{
					"inputs": [],
					"name": "contractAddress",
					"outputs": [
						{
							"internalType": "address",
							"name": "",
							"type": "address"
						}
					],
					"stateMutability": "view",
					"type": "function"
				},
				{
					"inputs": [],
					"name": "fund",
					"outputs": [],
					"stateMutability": "payable",
					"type": "function"
				},
				{
					"inputs": [],
					"name": "getContractBalance",
					"outputs": [
						{
							"internalType": "uint256",
							"name": "",
							"type": "uint256"
						}
					],
					"stateMutability": "view",
					"type": "function"
				},
				{
					"inputs": [
						{
							"internalType": "uint256",
							"name": "",
							"type": "uint256"
						}
					],
					"name": "inheritorAddresses",
					"outputs": [
						{
							"internalType": "address",
							"name": "",
							"type": "address"
						}
					],
					"stateMutability": "view",
					"type": "function"
				},
				{
					"inputs": [
						{
							"internalType": "address",
							"name": "",
							"type": "address"
						}
					],
					"name": "inheritors",
					"outputs": [
						{
							"internalType": "address payable",
							"name": "inheritorAddress",
							"type": "address"
						},
						{
							"internalType": "uint256",
							"name": "percentage",
							"type": "uint256"
						}
					],
					"stateMutability": "view",
					"type": "function"
				},
				{
					"inputs": [],
					"name": "owner",
					"outputs": [
						{
							"internalType": "address payable",
							"name": "",
							"type": "address"
						}
					],
					"stateMutability": "view",
					"type": "function"
				},
				{
					"inputs": [],
					"name": "senEth",
					"outputs": [],
					"stateMutability": "nonpayable",
					"type": "function"
				},
				{
					"inputs": [
						{
							"internalType": "uint256",
							"name": "amount",
							"type": "uint256"
						}
					],
					"name": "withdraw",
					"outputs": [],
					"stateMutability": "nonpayable",
					"type": "function"
				},
				{
					"stateMutability": "payable",
					"type": "receive"
				}
			],
			"devdoc": {
				"kind": "dev",
				"methods": {},
				"version": 1
			},
			"evm": {
				"assembly": "    /* \"Miras.sol\":59:4241  contract Miras {... */\n  mstore(0x40, 0x80)\n    /* \"Miras.sol\":410:1341  constructor(address payable[] memory _inheritorAddresses, uint[] memory _percentages) {... */\n  callvalue\n  dup1\n  iszero\n  tag_1\n  jumpi\n  0x00\n  dup1\n  revert\ntag_1:\n  pop\n  mload(0x40)\n  sub(codesize, bytecodeSize)\n  dup1\n  bytecodeSize\n  dup4\n  codecopy\n  dup2\n  dup2\n  add\n  0x40\n  mstore\n  dup2\n  add\n  swap1\n  tag_2\n  swap2\n  swap1\n  tag_3\n  jump\t// in\ntag_2:\n    /* \"Miras.sol\":545:557  _percentages */\n  dup1\n    /* \"Miras.sol\":545:564  _percentages.length */\n  mload\n    /* \"Miras.sol\":515:534  _inheritorAddresses */\n  dup3\n    /* \"Miras.sol\":515:541  _inheritorAddresses.length */\n  mload\n    /* \"Miras.sol\":515:564  _inheritorAddresses.length == _percentages.length */\n  eq\n    /* \"Miras.sol\":507:591  require(_inheritorAddresses.length == _percentages.length, \"Invalid input lengths.\") */\n  tag_6\n  jumpi\n  mload(0x40)\n  0x08c379a000000000000000000000000000000000000000000000000000000000\n  dup2\n  mstore\n  0x04\n  add\n  tag_7\n  swap1\n  tag_8\n  jump\t// in\ntag_7:\n  mload(0x40)\n  dup1\n  swap2\n  sub\n  swap1\n  revert\ntag_6:\n    /* \"Miras.sol\":628:632  this */\n  address\n    /* \"Miras.sol\":602:617  contractAddress */\n  0x03\n  0x00\n    /* \"Miras.sol\":602:633  contractAddress = address(this) */\n  0x0100\n  exp\n  dup2\n  sload\n  dup2\n  0xffffffffffffffffffffffffffffffffffffffff\n  mul\n  not\n  and\n  swap1\n  dup4\n  0xffffffffffffffffffffffffffffffffffffffff\n  and\n  mul\n  or\n  swap1\n  sstore\n  pop\n    /* \"Miras.sol\":660:670  msg.sender */\n  caller\n    /* \"Miras.sol\":644:649  owner */\n  0x02\n  0x00\n    /* \"Miras.sol\":644:671  owner = payable(msg.sender) */\n  0x0100\n  exp\n  dup2\n  sload\n  dup2\n  0xffffffffffffffffffffffffffffffffffffffff\n  mul\n  not\n  and\n  swap1\n  dup4\n  0xffffffffffffffffffffffffffffffffffffffff\n  and\n  mul\n  or\n  swap1\n  sstore\n  pop\n    /* \"Miras.sol\":684:704  uint totalPercentage */\n  0x00\n    /* \"Miras.sol\":726:732  uint i */\n  dup1\n    /* \"Miras.sol\":721:1243  for (uint i = 0; i < _inheritorAddresses.length; i++) {... */\ntag_9:\n    /* \"Miras.sol\":742:761  _inheritorAddresses */\n  dup4\n    /* \"Miras.sol\":742:768  _inheritorAddresses.length */\n  mload\n    /* \"Miras.sol\":738:739  i */\n  dup2\n    /* \"Miras.sol\":738:768  i < _inheritorAddresses.length */\n  lt\n    /* \"Miras.sol\":721:1243  for (uint i = 0; i < _inheritorAddresses.length; i++) {... */\n  iszero\n  tag_10\n  jumpi\n    /* \"Miras.sol\":816:817  0 */\n  0x00\n    /* \"Miras.sol\":798:810  _percentages */\n  dup4\n    /* \"Miras.sol\":811:812  i */\n  dup3\n    /* \"Miras.sol\":798:813  _percentages[i] */\n  dup2\n  mload\n  dup2\n  lt\n  tag_12\n  jumpi\n  tag_13\n  tag_14\n  jump\t// in\ntag_13:\ntag_12:\n  0x20\n  mul\n  0x20\n  add\n  add\n  mload\n    /* \"Miras.sol\":798:817  _percentages[i] > 0 */\n  gt\n    /* \"Miras.sol\":798:843  _percentages[i] > 0 && _percentages[i] <= 100 */\n  dup1\n  iszero\n  tag_15\n  jumpi\n  pop\n    /* \"Miras.sol\":840:843  100 */\n  0x64\n    /* \"Miras.sol\":821:833  _percentages */\n  dup4\n    /* \"Miras.sol\":834:835  i */\n  dup3\n    /* \"Miras.sol\":821:836  _percentages[i] */\n  dup2\n  mload\n  dup2\n  lt\n  tag_16\n  jumpi\n  tag_17\n  tag_14\n  jump\t// in\ntag_17:\ntag_16:\n  0x20\n  mul\n  0x20\n  add\n  add\n  mload\n    /* \"Miras.sol\":821:843  _percentages[i] <= 100 */\n  gt\n  iszero\n    /* \"Miras.sol\":798:843  _percentages[i] > 0 && _percentages[i] <= 100 */\ntag_15:\n    /* \"Miras.sol\":790:885  require(_percentages[i] > 0 && _percentages[i] <= 100, \"Percentage must be between 1 and 100.\") */\n  tag_18\n  jumpi\n  mload(0x40)\n  0x08c379a000000000000000000000000000000000000000000000000000000000\n  dup2\n  mstore\n  0x04\n  add\n  tag_19\n  swap1\n  tag_20\n  jump\t// in\ntag_19:\n  mload(0x40)\n  dup1\n  swap2\n  sub\n  swap1\n  revert\ntag_18:\n    /* \"Miras.sol\":971:972  0 */\n  0x00\n    /* \"Miras.sol\":908:973  inheritors[_inheritorAddresses[i]].inheritorAddress == address(0) */\n  0xffffffffffffffffffffffffffffffffffffffff\n  and\n    /* \"Miras.sol\":908:918  inheritors */\n  0x00\n    /* \"Miras.sol\":908:942  inheritors[_inheritorAddresses[i]] */\n  dup1\n    /* \"Miras.sol\":919:938  _inheritorAddresses */\n  dup7\n    /* \"Miras.sol\":939:940  i */\n  dup5\n    /* \"Miras.sol\":919:941  _inheritorAddresses[i] */\n  dup2\n  mload\n  dup2\n  lt\n  tag_21\n  jumpi\n  tag_22\n  tag_14\n  jump\t// in\ntag_22:\ntag_21:\n  0x20\n  mul\n  0x20\n  add\n  add\n  mload\n    /* \"Miras.sol\":908:942  inheritors[_inheritorAddresses[i]] */\n  0xffffffffffffffffffffffffffffffffffffffff\n  and\n  0xffffffffffffffffffffffffffffffffffffffff\n  and\n  dup2\n  mstore\n  0x20\n  add\n  swap1\n  dup2\n  mstore\n  0x20\n  add\n  0x00\n  keccak256\n    /* \"Miras.sol\":908:959  inheritors[_inheritorAddresses[i]].inheritorAddress */\n  0x00\n  add\n  0x00\n  swap1\n  sload\n  swap1\n  0x0100\n  exp\n  swap1\n  div\n  0xffffffffffffffffffffffffffffffffffffffff\n  and\n    /* \"Miras.sol\":908:973  inheritors[_inheritorAddresses[i]].inheritorAddress == address(0) */\n  0xffffffffffffffffffffffffffffffffffffffff\n  and\n  eq\n    /* \"Miras.sol\":900:1005  require(inheritors[_inheritorAddresses[i]].inheritorAddress == address(0), \"Beneficiary already exists.\") */\n  tag_23\n  jumpi\n  mload(0x40)\n  0x08c379a000000000000000000000000000000000000000000000000000000000\n  dup2\n  mstore\n  0x04\n  add\n  tag_24\n  swap1\n  tag_25\n  jump\t// in\ntag_24:\n  mload(0x40)\n  dup1\n  swap2\n  sub\n  swap1\n  revert\ntag_23:\n    /* \"Miras.sol\":1059:1118  inheritor(payable(_inheritorAddresses[i]), _percentages[i]) */\n  mload(0x40)\n  dup1\n  0x40\n  add\n  0x40\n  mstore\n  dup1\n    /* \"Miras.sol\":1077:1096  _inheritorAddresses */\n  dup6\n    /* \"Miras.sol\":1097:1098  i */\n  dup4\n    /* \"Miras.sol\":1077:1099  _inheritorAddresses[i] */\n  dup2\n  mload\n  dup2\n  lt\n  tag_26\n  jumpi\n  tag_27\n  tag_14\n  jump\t// in\ntag_27:\ntag_26:\n  0x20\n  mul\n  0x20\n  add\n  add\n  mload\n    /* \"Miras.sol\":1059:1118  inheritor(payable(_inheritorAddresses[i]), _percentages[i]) */\n  0xffffffffffffffffffffffffffffffffffffffff\n  and\n  dup2\n  mstore\n  0x20\n  add\n    /* \"Miras.sol\":1102:1114  _percentages */\n  dup5\n    /* \"Miras.sol\":1115:1116  i */\n  dup4\n    /* \"Miras.sol\":1102:1117  _percentages[i] */\n  dup2\n  mload\n  dup2\n  lt\n  tag_28\n  jumpi\n  tag_29\n  tag_14\n  jump\t// in\ntag_29:\ntag_28:\n  0x20\n  mul\n  0x20\n  add\n  add\n  mload\n    /* \"Miras.sol\":1059:1118  inheritor(payable(_inheritorAddresses[i]), _percentages[i]) */\n  dup2\n  mstore\n  pop\n    /* \"Miras.sol\":1022:1032  inheritors */\n  0x00\n    /* \"Miras.sol\":1022:1056  inheritors[_inheritorAddresses[i]] */\n  dup1\n    /* \"Miras.sol\":1033:1052  _inheritorAddresses */\n  dup7\n    /* \"Miras.sol\":1053:1054  i */\n  dup5\n    /* \"Miras.sol\":1033:1055  _inheritorAddresses[i] */\n  dup2\n  mload\n  dup2\n  lt\n  tag_30\n  jumpi\n  tag_31\n  tag_14\n  jump\t// in\ntag_31:\ntag_30:\n  0x20\n  mul\n  0x20\n  add\n  add\n  mload\n    /* \"Miras.sol\":1022:1056  inheritors[_inheritorAddresses[i]] */\n  0xffffffffffffffffffffffffffffffffffffffff\n  and\n  0xffffffffffffffffffffffffffffffffffffffff\n  and\n  dup2\n  mstore\n  0x20\n  add\n  swap1\n  dup2\n  mstore\n  0x20\n  add\n  0x00\n  keccak256\n    /* \"Miras.sol\":1022:1118  inheritors[_inheritorAddresses[i]] = inheritor(payable(_inheritorAddresses[i]), _percentages[i]) */\n  0x00\n  dup3\n  add\n  mload\n  dup2\n  0x00\n  add\n  exp(0x0100, 0x00)\n  dup2\n  sload\n  dup2\n  0xffffffffffffffffffffffffffffffffffffffff\n  mul\n  not\n  and\n  swap1\n  dup4\n  0xffffffffffffffffffffffffffffffffffffffff\n  and\n  mul\n  or\n  swap1\n  sstore\n  pop\n  0x20\n  dup3\n  add\n  mload\n  dup2\n  0x01\n  add\n  sstore\n  swap1\n  pop\n  pop\n    /* \"Miras.sol\":1133:1151  inheritorAddresses */\n  0x01\n    /* \"Miras.sol\":1157:1176  _inheritorAddresses */\n  dup5\n    /* \"Miras.sol\":1177:1178  i */\n  dup3\n    /* \"Miras.sol\":1157:1179  _inheritorAddresses[i] */\n  dup2\n  mload\n  dup2\n  lt\n  tag_32\n  jumpi\n  tag_33\n  tag_14\n  jump\t// in\ntag_33:\ntag_32:\n  0x20\n  mul\n  0x20\n  add\n  add\n  mload\n    /* \"Miras.sol\":1133:1180  inheritorAddresses.push(_inheritorAddresses[i]) */\n  swap1\n  dup1\n  0x01\n  dup2\n  sload\n  add\n  dup1\n  dup3\n  sstore\n  dup1\n  swap2\n  pop\n  pop\n  0x01\n  swap1\n  sub\n  swap1\n  0x00\n  mstore\n  keccak256(0x00, 0x20)\n  add\n  0x00\n  swap1\n  swap2\n  swap1\n  swap2\n  swap1\n  swap2\n  0x0100\n  exp\n  dup2\n  sload\n  dup2\n  0xffffffffffffffffffffffffffffffffffffffff\n  mul\n  not\n  and\n  swap1\n  dup4\n  0xffffffffffffffffffffffffffffffffffffffff\n  and\n  mul\n  or\n  swap1\n  sstore\n  pop\n    /* \"Miras.sol\":1216:1228  _percentages */\n  dup3\n    /* \"Miras.sol\":1229:1230  i */\n  dup2\n    /* \"Miras.sol\":1216:1231  _percentages[i] */\n  dup2\n  mload\n  dup2\n  lt\n  tag_35\n  jumpi\n  tag_36\n  tag_14\n  jump\t// in\ntag_36:\ntag_35:\n  0x20\n  mul\n  0x20\n  add\n  add\n  mload\n    /* \"Miras.sol\":1197:1231  totalPercentage += _percentages[i] */\n  dup3\n  tag_37\n  swap2\n  swap1\n  tag_38\n  jump\t// in\ntag_37:\n  swap2\n  pop\n    /* \"Miras.sol\":770:773  i++ */\n  dup1\n  dup1\n  tag_39\n  swap1\n  tag_40\n  jump\t// in\ntag_39:\n  swap2\n  pop\n  pop\n    /* \"Miras.sol\":721:1243  for (uint i = 0; i < _inheritorAddresses.length; i++) {... */\n  jump(tag_9)\ntag_10:\n  pop\n    /* \"Miras.sol\":1282:1285  100 */\n  0x64\n    /* \"Miras.sol\":1263:1278  totalPercentage */\n  dup2\n    /* \"Miras.sol\":1263:1285  totalPercentage == 100 */\n  eq\n    /* \"Miras.sol\":1255:1333  require(totalPercentage == 100, \"Total percentage of inheritors must be 100.\") */\n  tag_41\n  jumpi\n  mload(0x40)\n  0x08c379a000000000000000000000000000000000000000000000000000000000\n  dup2\n  mstore\n  0x04\n  add\n  tag_42\n  swap1\n  tag_43\n  jump\t// in\ntag_42:\n  mload(0x40)\n  dup1\n  swap2\n  sub\n  swap1\n  revert\ntag_41:\n    /* \"Miras.sol\":496:1341  {... */\n  pop\n    /* \"Miras.sol\":410:1341  constructor(address payable[] memory _inheritorAddresses, uint[] memory _percentages) {... */\n  pop\n  pop\n    /* \"Miras.sol\":59:4241  contract Miras {... */\n  jump(tag_44)\n    /* \"#utility.yul\":7:82   */\ntag_45:\n    /* \"#utility.yul\":40:46   */\n  0x00\n    /* \"#utility.yul\":73:75   */\n  0x40\n    /* \"#utility.yul\":67:76   */\n  mload\n    /* \"#utility.yul\":57:76   */\n  swap1\n  pop\n    /* \"#utility.yul\":7:82   */\n  swap1\n  jump\t// out\n    /* \"#utility.yul\":88:205   */\ntag_46:\n    /* \"#utility.yul\":197:198   */\n  0x00\n    /* \"#utility.yul\":194:195   */\n  dup1\n    /* \"#utility.yul\":187:199   */\n  revert\n    /* \"#utility.yul\":211:328   */\ntag_47:\n    /* \"#utility.yul\":320:321   */\n  0x00\n    /* \"#utility.yul\":317:318   */\n  dup1\n    /* \"#utility.yul\":310:322   */\n  revert\n    /* \"#utility.yul\":334:451   */\ntag_48:\n    /* \"#utility.yul\":443:444   */\n  0x00\n    /* \"#utility.yul\":440:441   */\n  dup1\n    /* \"#utility.yul\":433:445   */\n  revert\n    /* \"#utility.yul\":457:559   */\ntag_49:\n    /* \"#utility.yul\":498:504   */\n  0x00\n    /* \"#utility.yul\":549:551   */\n  0x1f\n    /* \"#utility.yul\":545:552   */\n  not\n    /* \"#utility.yul\":540:542   */\n  0x1f\n    /* \"#utility.yul\":533:538   */\n  dup4\n    /* \"#utility.yul\":529:543   */\n  add\n    /* \"#utility.yul\":525:553   */\n  and\n    /* \"#utility.yul\":515:553   */\n  swap1\n  pop\n    /* \"#utility.yul\":457:559   */\n  swap2\n  swap1\n  pop\n  jump\t// out\n    /* \"#utility.yul\":565:745   */\ntag_50:\n    /* \"#utility.yul\":613:690   */\n  0x4e487b7100000000000000000000000000000000000000000000000000000000\n    /* \"#utility.yul\":610:611   */\n  0x00\n    /* \"#utility.yul\":603:691   */\n  mstore\n    /* \"#utility.yul\":710:714   */\n  0x41\n    /* \"#utility.yul\":707:708   */\n  0x04\n    /* \"#utility.yul\":700:715   */\n  mstore\n    /* \"#utility.yul\":734:738   */\n  0x24\n    /* \"#utility.yul\":731:732   */\n  0x00\n    /* \"#utility.yul\":724:739   */\n  revert\n    /* \"#utility.yul\":751:1032   */\ntag_51:\n    /* \"#utility.yul\":834:861   */\n  tag_85\n    /* \"#utility.yul\":856:860   */\n  dup3\n    /* \"#utility.yul\":834:861   */\n  tag_49\n  jump\t// in\ntag_85:\n    /* \"#utility.yul\":826:832   */\n  dup2\n    /* \"#utility.yul\":822:862   */\n  add\n    /* \"#utility.yul\":964:970   */\n  dup2\n    /* \"#utility.yul\":952:962   */\n  dup2\n    /* \"#utility.yul\":949:971   */\n  lt\n    /* \"#utility.yul\":928:946   */\n  0xffffffffffffffff\n    /* \"#utility.yul\":916:926   */\n  dup3\n    /* \"#utility.yul\":913:947   */\n  gt\n    /* \"#utility.yul\":910:972   */\n  or\n    /* \"#utility.yul\":907:995   */\n  iszero\n  tag_86\n  jumpi\n    /* \"#utility.yul\":975:993   */\n  tag_87\n  tag_50\n  jump\t// in\ntag_87:\n    /* \"#utility.yul\":907:995   */\ntag_86:\n    /* \"#utility.yul\":1015:1025   */\n  dup1\n    /* \"#utility.yul\":1011:1013   */\n  0x40\n    /* \"#utility.yul\":1004:1026   */\n  mstore\n    /* \"#utility.yul\":794:1032   */\n  pop\n    /* \"#utility.yul\":751:1032   */\n  pop\n  pop\n  jump\t// out\n    /* \"#utility.yul\":1038:1167   */\ntag_52:\n    /* \"#utility.yul\":1072:1078   */\n  0x00\n    /* \"#utility.yul\":1099:1119   */\n  tag_89\n  tag_45\n  jump\t// in\ntag_89:\n    /* \"#utility.yul\":1089:1119   */\n  swap1\n  pop\n    /* \"#utility.yul\":1128:1161   */\n  tag_90\n    /* \"#utility.yul\":1156:1160   */\n  dup3\n    /* \"#utility.yul\":1148:1154   */\n  dup3\n    /* \"#utility.yul\":1128:1161   */\n  tag_51\n  jump\t// in\ntag_90:\n    /* \"#utility.yul\":1038:1167   */\n  swap2\n  swap1\n  pop\n  jump\t// out\n    /* \"#utility.yul\":1173:1492   */\ntag_53:\n    /* \"#utility.yul\":1258:1262   */\n  0x00\n    /* \"#utility.yul\":1348:1366   */\n  0xffffffffffffffff\n    /* \"#utility.yul\":1340:1346   */\n  dup3\n    /* \"#utility.yul\":1337:1367   */\n  gt\n    /* \"#utility.yul\":1334:1390   */\n  iszero\n  tag_92\n  jumpi\n    /* \"#utility.yul\":1370:1388   */\n  tag_93\n  tag_50\n  jump\t// in\ntag_93:\n    /* \"#utility.yul\":1334:1390   */\ntag_92:\n    /* \"#utility.yul\":1420:1424   */\n  0x20\n    /* \"#utility.yul\":1412:1418   */\n  dup3\n    /* \"#utility.yul\":1408:1425   */\n  mul\n    /* \"#utility.yul\":1400:1425   */\n  swap1\n  pop\n    /* \"#utility.yul\":1480:1484   */\n  0x20\n    /* \"#utility.yul\":1474:1478   */\n  dup2\n    /* \"#utility.yul\":1470:1485   */\n  add\n    /* \"#utility.yul\":1462:1485   */\n  swap1\n  pop\n    /* \"#utility.yul\":1173:1492   */\n  swap2\n  swap1\n  pop\n  jump\t// out\n    /* \"#utility.yul\":1498:1615   */\ntag_54:\n    /* \"#utility.yul\":1607:1608   */\n  0x00\n    /* \"#utility.yul\":1604:1605   */\n  dup1\n    /* \"#utility.yul\":1597:1609   */\n  revert\n    /* \"#utility.yul\":1621:1747   */\ntag_55:\n    /* \"#utility.yul\":1658:1665   */\n  0x00\n    /* \"#utility.yul\":1698:1740   */\n  0xffffffffffffffffffffffffffffffffffffffff\n    /* \"#utility.yul\":1691:1696   */\n  dup3\n    /* \"#utility.yul\":1687:1741   */\n  and\n    /* \"#utility.yul\":1676:1741   */\n  swap1\n  pop\n    /* \"#utility.yul\":1621:1747   */\n  swap2\n  swap1\n  pop\n  jump\t// out\n    /* \"#utility.yul\":1753:1857   */\ntag_56:\n    /* \"#utility.yul\":1798:1805   */\n  0x00\n    /* \"#utility.yul\":1827:1851   */\n  tag_97\n    /* \"#utility.yul\":1845:1850   */\n  dup3\n    /* \"#utility.yul\":1827:1851   */\n  tag_55\n  jump\t// in\ntag_97:\n    /* \"#utility.yul\":1816:1851   */\n  swap1\n  pop\n    /* \"#utility.yul\":1753:1857   */\n  swap2\n  swap1\n  pop\n  jump\t// out\n    /* \"#utility.yul\":1863:2001   */\ntag_57:\n    /* \"#utility.yul\":1944:1976   */\n  tag_99\n    /* \"#utility.yul\":1970:1975   */\n  dup2\n    /* \"#utility.yul\":1944:1976   */\n  tag_56\n  jump\t// in\ntag_99:\n    /* \"#utility.yul\":1937:1942   */\n  dup2\n    /* \"#utility.yul\":1934:1977   */\n  eq\n    /* \"#utility.yul\":1924:1995   */\n  tag_100\n  jumpi\n    /* \"#utility.yul\":1991:1992   */\n  0x00\n    /* \"#utility.yul\":1988:1989   */\n  dup1\n    /* \"#utility.yul\":1981:1993   */\n  revert\n    /* \"#utility.yul\":1924:1995   */\ntag_100:\n    /* \"#utility.yul\":1863:2001   */\n  pop\n  jump\t// out\n    /* \"#utility.yul\":2007:2166   */\ntag_58:\n    /* \"#utility.yul\":2072:2077   */\n  0x00\n    /* \"#utility.yul\":2103:2109   */\n  dup2\n    /* \"#utility.yul\":2097:2110   */\n  mload\n    /* \"#utility.yul\":2088:2110   */\n  swap1\n  pop\n    /* \"#utility.yul\":2119:2160   */\n  tag_102\n    /* \"#utility.yul\":2154:2159   */\n  dup2\n    /* \"#utility.yul\":2119:2160   */\n  tag_57\n  jump\t// in\ntag_102:\n    /* \"#utility.yul\":2007:2166   */\n  swap3\n  swap2\n  pop\n  pop\n  jump\t// out\n    /* \"#utility.yul\":2197:2953   */\ntag_59:\n    /* \"#utility.yul\":2312:2317   */\n  0x00\n    /* \"#utility.yul\":2337:2426   */\n  tag_104\n    /* \"#utility.yul\":2353:2425   */\n  tag_105\n    /* \"#utility.yul\":2418:2424   */\n  dup5\n    /* \"#utility.yul\":2353:2425   */\n  tag_53\n  jump\t// in\ntag_105:\n    /* \"#utility.yul\":2337:2426   */\n  tag_52\n  jump\t// in\ntag_104:\n    /* \"#utility.yul\":2328:2426   */\n  swap1\n  pop\n    /* \"#utility.yul\":2446:2451   */\n  dup1\n    /* \"#utility.yul\":2475:2481   */\n  dup4\n    /* \"#utility.yul\":2468:2473   */\n  dup3\n    /* \"#utility.yul\":2461:2482   */\n  mstore\n    /* \"#utility.yul\":2509:2513   */\n  0x20\n    /* \"#utility.yul\":2502:2507   */\n  dup3\n    /* \"#utility.yul\":2498:2514   */\n  add\n    /* \"#utility.yul\":2491:2514   */\n  swap1\n  pop\n    /* \"#utility.yul\":2562:2566   */\n  0x20\n    /* \"#utility.yul\":2554:2560   */\n  dup5\n    /* \"#utility.yul\":2550:2567   */\n  mul\n    /* \"#utility.yul\":2542:2548   */\n  dup4\n    /* \"#utility.yul\":2538:2568   */\n  add\n    /* \"#utility.yul\":2591:2594   */\n  dup6\n    /* \"#utility.yul\":2583:2589   */\n  dup2\n    /* \"#utility.yul\":2580:2595   */\n  gt\n    /* \"#utility.yul\":2577:2699   */\n  iszero\n  tag_106\n  jumpi\n    /* \"#utility.yul\":2610:2689   */\n  tag_107\n  tag_54\n  jump\t// in\ntag_107:\n    /* \"#utility.yul\":2577:2699   */\ntag_106:\n    /* \"#utility.yul\":2725:2731   */\n  dup4\n    /* \"#utility.yul\":2708:2947   */\ntag_108:\n    /* \"#utility.yul\":2742:2748   */\n  dup2\n    /* \"#utility.yul\":2737:2740   */\n  dup2\n    /* \"#utility.yul\":2734:2749   */\n  lt\n    /* \"#utility.yul\":2708:2947   */\n  iszero\n  tag_110\n  jumpi\n    /* \"#utility.yul\":2817:2820   */\n  dup1\n    /* \"#utility.yul\":2846:2902   */\n  tag_111\n    /* \"#utility.yul\":2898:2901   */\n  dup9\n    /* \"#utility.yul\":2886:2896   */\n  dup3\n    /* \"#utility.yul\":2846:2902   */\n  tag_58\n  jump\t// in\ntag_111:\n    /* \"#utility.yul\":2841:2844   */\n  dup5\n    /* \"#utility.yul\":2834:2903   */\n  mstore\n    /* \"#utility.yul\":2932:2936   */\n  0x20\n    /* \"#utility.yul\":2927:2930   */\n  dup5\n    /* \"#utility.yul\":2923:2937   */\n  add\n    /* \"#utility.yul\":2916:2937   */\n  swap4\n  pop\n    /* \"#utility.yul\":2784:2947   */\n  pop\n    /* \"#utility.yul\":2768:2772   */\n  0x20\n    /* \"#utility.yul\":2763:2766   */\n  dup2\n    /* \"#utility.yul\":2759:2773   */\n  add\n    /* \"#utility.yul\":2752:2773   */\n  swap1\n  pop\n    /* \"#utility.yul\":2708:2947   */\n  jump(tag_108)\ntag_110:\n    /* \"#utility.yul\":2712:2733   */\n  pop\n    /* \"#utility.yul\":2318:2953   */\n  pop\n  pop\n    /* \"#utility.yul\":2197:2953   */\n  swap4\n  swap3\n  pop\n  pop\n  pop\n  jump\t// out\n    /* \"#utility.yul\":2984:3385   */\ntag_60:\n    /* \"#utility.yul\":3074:3079   */\n  0x00\n    /* \"#utility.yul\":3123:3126   */\n  dup3\n    /* \"#utility.yul\":3116:3120   */\n  0x1f\n    /* \"#utility.yul\":3108:3114   */\n  dup4\n    /* \"#utility.yul\":3104:3121   */\n  add\n    /* \"#utility.yul\":3100:3127   */\n  slt\n    /* \"#utility.yul\":3090:3212   */\n  tag_113\n  jumpi\n    /* \"#utility.yul\":3131:3210   */\n  tag_114\n  tag_48\n  jump\t// in\ntag_114:\n    /* \"#utility.yul\":3090:3212   */\ntag_113:\n    /* \"#utility.yul\":3241:3247   */\n  dup2\n    /* \"#utility.yul\":3235:3248   */\n  mload\n    /* \"#utility.yul\":3266:3379   */\n  tag_115\n    /* \"#utility.yul\":3375:3378   */\n  dup5\n    /* \"#utility.yul\":3367:3373   */\n  dup3\n    /* \"#utility.yul\":3360:3364   */\n  0x20\n    /* \"#utility.yul\":3352:3358   */\n  dup7\n    /* \"#utility.yul\":3348:3365   */\n  add\n    /* \"#utility.yul\":3266:3379   */\n  tag_59\n  jump\t// in\ntag_115:\n    /* \"#utility.yul\":3257:3379   */\n  swap2\n  pop\n    /* \"#utility.yul\":3080:3385   */\n  pop\n    /* \"#utility.yul\":2984:3385   */\n  swap3\n  swap2\n  pop\n  pop\n  jump\t// out\n    /* \"#utility.yul\":3391:3702   */\ntag_61:\n    /* \"#utility.yul\":3468:3472   */\n  0x00\n    /* \"#utility.yul\":3558:3576   */\n  0xffffffffffffffff\n    /* \"#utility.yul\":3550:3556   */\n  dup3\n    /* \"#utility.yul\":3547:3577   */\n  gt\n    /* \"#utility.yul\":3544:3600   */\n  iszero\n  tag_117\n  jumpi\n    /* \"#utility.yul\":3580:3598   */\n  tag_118\n  tag_50\n  jump\t// in\ntag_118:\n    /* \"#utility.yul\":3544:3600   */\ntag_117:\n    /* \"#utility.yul\":3630:3634   */\n  0x20\n    /* \"#utility.yul\":3622:3628   */\n  dup3\n    /* \"#utility.yul\":3618:3635   */\n  mul\n    /* \"#utility.yul\":3610:3635   */\n  swap1\n  pop\n    /* \"#utility.yul\":3690:3694   */\n  0x20\n    /* \"#utility.yul\":3684:3688   */\n  dup2\n    /* \"#utility.yul\":3680:3695   */\n  add\n    /* \"#utility.yul\":3672:3695   */\n  swap1\n  pop\n    /* \"#utility.yul\":3391:3702   */\n  swap2\n  swap1\n  pop\n  jump\t// out\n    /* \"#utility.yul\":3708:3785   */\ntag_62:\n    /* \"#utility.yul\":3745:3752   */\n  0x00\n    /* \"#utility.yul\":3774:3779   */\n  dup2\n    /* \"#utility.yul\":3763:3779   */\n  swap1\n  pop\n    /* \"#utility.yul\":3708:3785   */\n  swap2\n  swap1\n  pop\n  jump\t// out\n    /* \"#utility.yul\":3791:3913   */\ntag_63:\n    /* \"#utility.yul\":3864:3888   */\n  tag_121\n    /* \"#utility.yul\":3882:3887   */\n  dup2\n    /* \"#utility.yul\":3864:3888   */\n  tag_62\n  jump\t// in\ntag_121:\n    /* \"#utility.yul\":3857:3862   */\n  dup2\n    /* \"#utility.yul\":3854:3889   */\n  eq\n    /* \"#utility.yul\":3844:3907   */\n  tag_122\n  jumpi\n    /* \"#utility.yul\":3903:3904   */\n  0x00\n    /* \"#utility.yul\":3900:3901   */\n  dup1\n    /* \"#utility.yul\":3893:3905   */\n  revert\n    /* \"#utility.yul\":3844:3907   */\ntag_122:\n    /* \"#utility.yul\":3791:3913   */\n  pop\n  jump\t// out\n    /* \"#utility.yul\":3919:4062   */\ntag_64:\n    /* \"#utility.yul\":3976:3981   */\n  0x00\n    /* \"#utility.yul\":4007:4013   */\n  dup2\n    /* \"#utility.yul\":4001:4014   */\n  mload\n    /* \"#utility.yul\":3992:4014   */\n  swap1\n  pop\n    /* \"#utility.yul\":4023:4056   */\n  tag_124\n    /* \"#utility.yul\":4050:4055   */\n  dup2\n    /* \"#utility.yul\":4023:4056   */\n  tag_63\n  jump\t// in\ntag_124:\n    /* \"#utility.yul\":3919:4062   */\n  swap3\n  swap2\n  pop\n  pop\n  jump\t// out\n    /* \"#utility.yul\":4085:4817   */\ntag_65:\n    /* \"#utility.yul\":4192:4197   */\n  0x00\n    /* \"#utility.yul\":4217:4298   */\n  tag_126\n    /* \"#utility.yul\":4233:4297   */\n  tag_127\n    /* \"#utility.yul\":4290:4296   */\n  dup5\n    /* \"#utility.yul\":4233:4297   */\n  tag_61\n  jump\t// in\ntag_127:\n    /* \"#utility.yul\":4217:4298   */\n  tag_52\n  jump\t// in\ntag_126:\n    /* \"#utility.yul\":4208:4298   */\n  swap1\n  pop\n    /* \"#utility.yul\":4318:4323   */\n  dup1\n    /* \"#utility.yul\":4347:4353   */\n  dup4\n    /* \"#utility.yul\":4340:4345   */\n  dup3\n    /* \"#utility.yul\":4333:4354   */\n  mstore\n    /* \"#utility.yul\":4381:4385   */\n  0x20\n    /* \"#utility.yul\":4374:4379   */\n  dup3\n    /* \"#utility.yul\":4370:4386   */\n  add\n    /* \"#utility.yul\":4363:4386   */\n  swap1\n  pop\n    /* \"#utility.yul\":4434:4438   */\n  0x20\n    /* \"#utility.yul\":4426:4432   */\n  dup5\n    /* \"#utility.yul\":4422:4439   */\n  mul\n    /* \"#utility.yul\":4414:4420   */\n  dup4\n    /* \"#utility.yul\":4410:4440   */\n  add\n    /* \"#utility.yul\":4463:4466   */\n  dup6\n    /* \"#utility.yul\":4455:4461   */\n  dup2\n    /* \"#utility.yul\":4452:4467   */\n  gt\n    /* \"#utility.yul\":4449:4571   */\n  iszero\n  tag_128\n  jumpi\n    /* \"#utility.yul\":4482:4561   */\n  tag_129\n  tag_54\n  jump\t// in\ntag_129:\n    /* \"#utility.yul\":4449:4571   */\ntag_128:\n    /* \"#utility.yul\":4597:4603   */\n  dup4\n    /* \"#utility.yul\":4580:4811   */\ntag_130:\n    /* \"#utility.yul\":4614:4620   */\n  dup2\n    /* \"#utility.yul\":4609:4612   */\n  dup2\n    /* \"#utility.yul\":4606:4621   */\n  lt\n    /* \"#utility.yul\":4580:4811   */\n  iszero\n  tag_132\n  jumpi\n    /* \"#utility.yul\":4689:4692   */\n  dup1\n    /* \"#utility.yul\":4718:4766   */\n  tag_133\n    /* \"#utility.yul\":4762:4765   */\n  dup9\n    /* \"#utility.yul\":4750:4760   */\n  dup3\n    /* \"#utility.yul\":4718:4766   */\n  tag_64\n  jump\t// in\ntag_133:\n    /* \"#utility.yul\":4713:4716   */\n  dup5\n    /* \"#utility.yul\":4706:4767   */\n  mstore\n    /* \"#utility.yul\":4796:4800   */\n  0x20\n    /* \"#utility.yul\":4791:4794   */\n  dup5\n    /* \"#utility.yul\":4787:4801   */\n  add\n    /* \"#utility.yul\":4780:4801   */\n  swap4\n  pop\n    /* \"#utility.yul\":4656:4811   */\n  pop\n    /* \"#utility.yul\":4640:4644   */\n  0x20\n    /* \"#utility.yul\":4635:4638   */\n  dup2\n    /* \"#utility.yul\":4631:4645   */\n  add\n    /* \"#utility.yul\":4624:4645   */\n  swap1\n  pop\n    /* \"#utility.yul\":4580:4811   */\n  jump(tag_130)\ntag_132:\n    /* \"#utility.yul\":4584:4605   */\n  pop\n    /* \"#utility.yul\":4198:4817   */\n  pop\n  pop\n    /* \"#utility.yul\":4085:4817   */\n  swap4\n  swap3\n  pop\n  pop\n  pop\n  jump\t// out\n    /* \"#utility.yul\":4840:5225   */\ntag_66:\n    /* \"#utility.yul\":4922:4927   */\n  0x00\n    /* \"#utility.yul\":4971:4974   */\n  dup3\n    /* \"#utility.yul\":4964:4968   */\n  0x1f\n    /* \"#utility.yul\":4956:4962   */\n  dup4\n    /* \"#utility.yul\":4952:4969   */\n  add\n    /* \"#utility.yul\":4948:4975   */\n  slt\n    /* \"#utility.yul\":4938:5060   */\n  tag_135\n  jumpi\n    /* \"#utility.yul\":4979:5058   */\n  tag_136\n  tag_48\n  jump\t// in\ntag_136:\n    /* \"#utility.yul\":4938:5060   */\ntag_135:\n    /* \"#utility.yul\":5089:5095   */\n  dup2\n    /* \"#utility.yul\":5083:5096   */\n  mload\n    /* \"#utility.yul\":5114:5219   */\n  tag_137\n    /* \"#utility.yul\":5215:5218   */\n  dup5\n    /* \"#utility.yul\":5207:5213   */\n  dup3\n    /* \"#utility.yul\":5200:5204   */\n  0x20\n    /* \"#utility.yul\":5192:5198   */\n  dup7\n    /* \"#utility.yul\":5188:5205   */\n  add\n    /* \"#utility.yul\":5114:5219   */\n  tag_65\n  jump\t// in\ntag_137:\n    /* \"#utility.yul\":5105:5219   */\n  swap2\n  pop\n    /* \"#utility.yul\":4928:5225   */\n  pop\n    /* \"#utility.yul\":4840:5225   */\n  swap3\n  swap2\n  pop\n  pop\n  jump\t// out\n    /* \"#utility.yul\":5231:6160   */\ntag_3:\n    /* \"#utility.yul\":5368:5374   */\n  0x00\n    /* \"#utility.yul\":5376:5382   */\n  dup1\n    /* \"#utility.yul\":5425:5427   */\n  0x40\n    /* \"#utility.yul\":5413:5422   */\n  dup4\n    /* \"#utility.yul\":5404:5411   */\n  dup6\n    /* \"#utility.yul\":5400:5423   */\n  sub\n    /* \"#utility.yul\":5396:5428   */\n  slt\n    /* \"#utility.yul\":5393:5512   */\n  iszero\n  tag_139\n  jumpi\n    /* \"#utility.yul\":5431:5510   */\n  tag_140\n  tag_46\n  jump\t// in\ntag_140:\n    /* \"#utility.yul\":5393:5512   */\ntag_139:\n    /* \"#utility.yul\":5572:5573   */\n  0x00\n    /* \"#utility.yul\":5561:5570   */\n  dup4\n    /* \"#utility.yul\":5557:5574   */\n  add\n    /* \"#utility.yul\":5551:5575   */\n  mload\n    /* \"#utility.yul\":5602:5620   */\n  0xffffffffffffffff\n    /* \"#utility.yul\":5594:5600   */\n  dup2\n    /* \"#utility.yul\":5591:5621   */\n  gt\n    /* \"#utility.yul\":5588:5705   */\n  iszero\n  tag_141\n  jumpi\n    /* \"#utility.yul\":5624:5703   */\n  tag_142\n  tag_47\n  jump\t// in\ntag_142:\n    /* \"#utility.yul\":5588:5705   */\ntag_141:\n    /* \"#utility.yul\":5729:5826   */\n  tag_143\n    /* \"#utility.yul\":5818:5825   */\n  dup6\n    /* \"#utility.yul\":5809:5815   */\n  dup3\n    /* \"#utility.yul\":5798:5807   */\n  dup7\n    /* \"#utility.yul\":5794:5816   */\n  add\n    /* \"#utility.yul\":5729:5826   */\n  tag_60\n  jump\t// in\ntag_143:\n    /* \"#utility.yul\":5719:5826   */\n  swap3\n  pop\n    /* \"#utility.yul\":5522:5836   */\n  pop\n    /* \"#utility.yul\":5896:5898   */\n  0x20\n    /* \"#utility.yul\":5885:5894   */\n  dup4\n    /* \"#utility.yul\":5881:5899   */\n  add\n    /* \"#utility.yul\":5875:5900   */\n  mload\n    /* \"#utility.yul\":5927:5945   */\n  0xffffffffffffffff\n    /* \"#utility.yul\":5919:5925   */\n  dup2\n    /* \"#utility.yul\":5916:5946   */\n  gt\n    /* \"#utility.yul\":5913:6030   */\n  iszero\n  tag_144\n  jumpi\n    /* \"#utility.yul\":5949:6028   */\n  tag_145\n  tag_47\n  jump\t// in\ntag_145:\n    /* \"#utility.yul\":5913:6030   */\ntag_144:\n    /* \"#utility.yul\":6054:6143   */\n  tag_146\n    /* \"#utility.yul\":6135:6142   */\n  dup6\n    /* \"#utility.yul\":6126:6132   */\n  dup3\n    /* \"#utility.yul\":6115:6124   */\n  dup7\n    /* \"#utility.yul\":6111:6133   */\n  add\n    /* \"#utility.yul\":6054:6143   */\n  tag_66\n  jump\t// in\ntag_146:\n    /* \"#utility.yul\":6044:6143   */\n  swap2\n  pop\n    /* \"#utility.yul\":5846:6153   */\n  pop\n    /* \"#utility.yul\":5231:6160   */\n  swap3\n  pop\n  swap3\n  swap1\n  pop\n  jump\t// out\n    /* \"#utility.yul\":6166:6335   */\ntag_67:\n    /* \"#utility.yul\":6250:6261   */\n  0x00\n    /* \"#utility.yul\":6284:6290   */\n  dup3\n    /* \"#utility.yul\":6279:6282   */\n  dup3\n    /* \"#utility.yul\":6272:6291   */\n  mstore\n    /* \"#utility.yul\":6324:6328   */\n  0x20\n    /* \"#utility.yul\":6319:6322   */\n  dup3\n    /* \"#utility.yul\":6315:6329   */\n  add\n    /* \"#utility.yul\":6300:6329   */\n  swap1\n  pop\n    /* \"#utility.yul\":6166:6335   */\n  swap3\n  swap2\n  pop\n  pop\n  jump\t// out\n    /* \"#utility.yul\":6341:6513   */\ntag_68:\n    /* \"#utility.yul\":6481:6505   */\n  0x496e76616c696420696e707574206c656e677468732e00000000000000000000\n    /* \"#utility.yul\":6477:6478   */\n  0x00\n    /* \"#utility.yul\":6469:6475   */\n  dup3\n    /* \"#utility.yul\":6465:6479   */\n  add\n    /* \"#utility.yul\":6458:6506   */\n  mstore\n    /* \"#utility.yul\":6341:6513   */\n  pop\n  jump\t// out\n    /* \"#utility.yul\":6519:6885   */\ntag_69:\n    /* \"#utility.yul\":6661:6664   */\n  0x00\n    /* \"#utility.yul\":6682:6749   */\n  tag_150\n    /* \"#utility.yul\":6746:6748   */\n  0x16\n    /* \"#utility.yul\":6741:6744   */\n  dup4\n    /* \"#utility.yul\":6682:6749   */\n  tag_67\n  jump\t// in\ntag_150:\n    /* \"#utility.yul\":6675:6749   */\n  swap2\n  pop\n    /* \"#utility.yul\":6758:6851   */\n  tag_151\n    /* \"#utility.yul\":6847:6850   */\n  dup3\n    /* \"#utility.yul\":6758:6851   */\n  tag_68\n  jump\t// in\ntag_151:\n    /* \"#utility.yul\":6876:6878   */\n  0x20\n    /* \"#utility.yul\":6871:6874   */\n  dup3\n    /* \"#utility.yul\":6867:6879   */\n  add\n    /* \"#utility.yul\":6860:6879   */\n  swap1\n  pop\n    /* \"#utility.yul\":6519:6885   */\n  swap2\n  swap1\n  pop\n  jump\t// out\n    /* \"#utility.yul\":6891:7310   */\ntag_8:\n    /* \"#utility.yul\":7057:7061   */\n  0x00\n    /* \"#utility.yul\":7095:7097   */\n  0x20\n    /* \"#utility.yul\":7084:7093   */\n  dup3\n    /* \"#utility.yul\":7080:7098   */\n  add\n    /* \"#utility.yul\":7072:7098   */\n  swap1\n  pop\n    /* \"#utility.yul\":7144:7153   */\n  dup2\n    /* \"#utility.yul\":7138:7142   */\n  dup2\n    /* \"#utility.yul\":7134:7154   */\n  sub\n    /* \"#utility.yul\":7130:7131   */\n  0x00\n    /* \"#utility.yul\":7119:7128   */\n  dup4\n    /* \"#utility.yul\":7115:7132   */\n  add\n    /* \"#utility.yul\":7108:7155   */\n  mstore\n    /* \"#utility.yul\":7172:7303   */\n  tag_153\n    /* \"#utility.yul\":7298:7302   */\n  dup2\n    /* \"#utility.yul\":7172:7303   */\n  tag_69\n  jump\t// in\ntag_153:\n    /* \"#utility.yul\":7164:7303   */\n  swap1\n  pop\n    /* \"#utility.yul\":6891:7310   */\n  swap2\n  swap1\n  pop\n  jump\t// out\n    /* \"#utility.yul\":7316:7496   */\ntag_14:\n    /* \"#utility.yul\":7364:7441   */\n  0x4e487b7100000000000000000000000000000000000000000000000000000000\n    /* \"#utility.yul\":7361:7362   */\n  0x00\n    /* \"#utility.yul\":7354:7442   */\n  mstore\n    /* \"#utility.yul\":7461:7465   */\n  0x32\n    /* \"#utility.yul\":7458:7459   */\n  0x04\n    /* \"#utility.yul\":7451:7466   */\n  mstore\n    /* \"#utility.yul\":7485:7489   */\n  0x24\n    /* \"#utility.yul\":7482:7483   */\n  0x00\n    /* \"#utility.yul\":7475:7490   */\n  revert\n    /* \"#utility.yul\":7502:7726   */\ntag_70:\n    /* \"#utility.yul\":7642:7676   */\n  0x50657263656e74616765206d757374206265206265747765656e203120616e64\n    /* \"#utility.yul\":7638:7639   */\n  0x00\n    /* \"#utility.yul\":7630:7636   */\n  dup3\n    /* \"#utility.yul\":7626:7640   */\n  add\n    /* \"#utility.yul\":7619:7677   */\n  mstore\n    /* \"#utility.yul\":7711:7718   */\n  0x203130302e000000000000000000000000000000000000000000000000000000\n    /* \"#utility.yul\":7706:7708   */\n  0x20\n    /* \"#utility.yul\":7698:7704   */\n  dup3\n    /* \"#utility.yul\":7694:7709   */\n  add\n    /* \"#utility.yul\":7687:7719   */\n  mstore\n    /* \"#utility.yul\":7502:7726   */\n  pop\n  jump\t// out\n    /* \"#utility.yul\":7732:8098   */\ntag_71:\n    /* \"#utility.yul\":7874:7877   */\n  0x00\n    /* \"#utility.yul\":7895:7962   */\n  tag_157\n    /* \"#utility.yul\":7959:7961   */\n  0x25\n    /* \"#utility.yul\":7954:7957   */\n  dup4\n    /* \"#utility.yul\":7895:7962   */\n  tag_67\n  jump\t// in\ntag_157:\n    /* \"#utility.yul\":7888:7962   */\n  swap2\n  pop\n    /* \"#utility.yul\":7971:8064   */\n  tag_158\n    /* \"#utility.yul\":8060:8063   */\n  dup3\n    /* \"#utility.yul\":7971:8064   */\n  tag_70\n  jump\t// in\ntag_158:\n    /* \"#utility.yul\":8089:8091   */\n  0x40\n    /* \"#utility.yul\":8084:8087   */\n  dup3\n    /* \"#utility.yul\":8080:8092   */\n  add\n    /* \"#utility.yul\":8073:8092   */\n  swap1\n  pop\n    /* \"#utility.yul\":7732:8098   */\n  swap2\n  swap1\n  pop\n  jump\t// out\n    /* \"#utility.yul\":8104:8523   */\ntag_20:\n    /* \"#utility.yul\":8270:8274   */\n  0x00\n    /* \"#utility.yul\":8308:8310   */\n  0x20\n    /* \"#utility.yul\":8297:8306   */\n  dup3\n    /* \"#utility.yul\":8293:8311   */\n  add\n    /* \"#utility.yul\":8285:8311   */\n  swap1\n  pop\n    /* \"#utility.yul\":8357:8366   */\n  dup2\n    /* \"#utility.yul\":8351:8355   */\n  dup2\n    /* \"#utility.yul\":8347:8367   */\n  sub\n    /* \"#utility.yul\":8343:8344   */\n  0x00\n    /* \"#utility.yul\":8332:8341   */\n  dup4\n    /* \"#utility.yul\":8328:8345   */\n  add\n    /* \"#utility.yul\":8321:8368   */\n  mstore\n    /* \"#utility.yul\":8385:8516   */\n  tag_160\n    /* \"#utility.yul\":8511:8515   */\n  dup2\n    /* \"#utility.yul\":8385:8516   */\n  tag_71\n  jump\t// in\ntag_160:\n    /* \"#utility.yul\":8377:8516   */\n  swap1\n  pop\n    /* \"#utility.yul\":8104:8523   */\n  swap2\n  swap1\n  pop\n  jump\t// out\n    /* \"#utility.yul\":8529:8706   */\ntag_72:\n    /* \"#utility.yul\":8669:8698   */\n  0x42656e656669636961727920616c7265616479206578697374732e0000000000\n    /* \"#utility.yul\":8665:8666   */\n  0x00\n    /* \"#utility.yul\":8657:8663   */\n  dup3\n    /* \"#utility.yul\":8653:8667   */\n  add\n    /* \"#utility.yul\":8646:8699   */\n  mstore\n    /* \"#utility.yul\":8529:8706   */\n  pop\n  jump\t// out\n    /* \"#utility.yul\":8712:9078   */\ntag_73:\n    /* \"#utility.yul\":8854:8857   */\n  0x00\n    /* \"#utility.yul\":8875:8942   */\n  tag_163\n    /* \"#utility.yul\":8939:8941   */\n  0x1b\n    /* \"#utility.yul\":8934:8937   */\n  dup4\n    /* \"#utility.yul\":8875:8942   */\n  tag_67\n  jump\t// in\ntag_163:\n    /* \"#utility.yul\":8868:8942   */\n  swap2\n  pop\n    /* \"#utility.yul\":8951:9044   */\n  tag_164\n    /* \"#utility.yul\":9040:9043   */\n  dup3\n    /* \"#utility.yul\":8951:9044   */\n  tag_72\n  jump\t// in\ntag_164:\n    /* \"#utility.yul\":9069:9071   */\n  0x20\n    /* \"#utility.yul\":9064:9067   */\n  dup3\n    /* \"#utility.yul\":9060:9072   */\n  add\n    /* \"#utility.yul\":9053:9072   */\n  swap1\n  pop\n    /* \"#utility.yul\":8712:9078   */\n  swap2\n  swap1\n  pop\n  jump\t// out\n    /* \"#utility.yul\":9084:9503   */\ntag_25:\n    /* \"#utility.yul\":9250:9254   */\n  0x00\n    /* \"#utility.yul\":9288:9290   */\n  0x20\n    /* \"#utility.yul\":9277:9286   */\n  dup3\n    /* \"#utility.yul\":9273:9291   */\n  add\n    /* \"#utility.yul\":9265:9291   */\n  swap1\n  pop\n    /* \"#utility.yul\":9337:9346   */\n  dup2\n    /* \"#utility.yul\":9331:9335   */\n  dup2\n    /* \"#utility.yul\":9327:9347   */\n  sub\n    /* \"#utility.yul\":9323:9324   */\n  0x00\n    /* \"#utility.yul\":9312:9321   */\n  dup4\n    /* \"#utility.yul\":9308:9325   */\n  add\n    /* \"#utility.yul\":9301:9348   */\n  mstore\n    /* \"#utility.yul\":9365:9496   */\n  tag_166\n    /* \"#utility.yul\":9491:9495   */\n  dup2\n    /* \"#utility.yul\":9365:9496   */\n  tag_73\n  jump\t// in\ntag_166:\n    /* \"#utility.yul\":9357:9496   */\n  swap1\n  pop\n    /* \"#utility.yul\":9084:9503   */\n  swap2\n  swap1\n  pop\n  jump\t// out\n    /* \"#utility.yul\":9509:9689   */\ntag_74:\n    /* \"#utility.yul\":9557:9634   */\n  0x4e487b7100000000000000000000000000000000000000000000000000000000\n    /* \"#utility.yul\":9554:9555   */\n  0x00\n    /* \"#utility.yul\":9547:9635   */\n  mstore\n    /* \"#utility.yul\":9654:9658   */\n  0x11\n    /* \"#utility.yul\":9651:9652   */\n  0x04\n    /* \"#utility.yul\":9644:9659   */\n  mstore\n    /* \"#utility.yul\":9678:9682   */\n  0x24\n    /* \"#utility.yul\":9675:9676   */\n  0x00\n    /* \"#utility.yul\":9668:9683   */\n  revert\n    /* \"#utility.yul\":9695:9886   */\ntag_38:\n    /* \"#utility.yul\":9735:9738   */\n  0x00\n    /* \"#utility.yul\":9754:9774   */\n  tag_169\n    /* \"#utility.yul\":9772:9773   */\n  dup3\n    /* \"#utility.yul\":9754:9774   */\n  tag_62\n  jump\t// in\ntag_169:\n    /* \"#utility.yul\":9749:9774   */\n  swap2\n  pop\n    /* \"#utility.yul\":9788:9808   */\n  tag_170\n    /* \"#utility.yul\":9806:9807   */\n  dup4\n    /* \"#utility.yul\":9788:9808   */\n  tag_62\n  jump\t// in\ntag_170:\n    /* \"#utility.yul\":9783:9808   */\n  swap3\n  pop\n    /* \"#utility.yul\":9831:9832   */\n  dup3\n    /* \"#utility.yul\":9828:9829   */\n  dup3\n    /* \"#utility.yul\":9824:9833   */\n  add\n    /* \"#utility.yul\":9817:9833   */\n  swap1\n  pop\n    /* \"#utility.yul\":9852:9855   */\n  dup1\n    /* \"#utility.yul\":9849:9850   */\n  dup3\n    /* \"#utility.yul\":9846:9856   */\n  gt\n    /* \"#utility.yul\":9843:9879   */\n  iszero\n  tag_171\n  jumpi\n    /* \"#utility.yul\":9859:9877   */\n  tag_172\n  tag_74\n  jump\t// in\ntag_172:\n    /* \"#utility.yul\":9843:9879   */\ntag_171:\n    /* \"#utility.yul\":9695:9886   */\n  swap3\n  swap2\n  pop\n  pop\n  jump\t// out\n    /* \"#utility.yul\":9892:10125   */\ntag_40:\n    /* \"#utility.yul\":9931:9934   */\n  0x00\n    /* \"#utility.yul\":9954:9978   */\n  tag_174\n    /* \"#utility.yul\":9972:9977   */\n  dup3\n    /* \"#utility.yul\":9954:9978   */\n  tag_62\n  jump\t// in\ntag_174:\n    /* \"#utility.yul\":9945:9978   */\n  swap2\n  pop\n    /* \"#utility.yul\":10000:10066   */\n  0xffffffffffffffffffffffffffffffffffffffffffffffffffffffffffffffff\n    /* \"#utility.yul\":9993:9998   */\n  dup3\n    /* \"#utility.yul\":9990:10067   */\n  sub\n    /* \"#utility.yul\":9987:10090   */\n  tag_175\n  jumpi\n    /* \"#utility.yul\":10070:10088   */\n  tag_176\n  tag_74\n  jump\t// in\ntag_176:\n    /* \"#utility.yul\":9987:10090   */\ntag_175:\n    /* \"#utility.yul\":10117:10118   */\n  0x01\n    /* \"#utility.yul\":10110:10115   */\n  dup3\n    /* \"#utility.yul\":10106:10119   */\n  add\n    /* \"#utility.yul\":10099:10119   */\n  swap1\n  pop\n    /* \"#utility.yul\":9892:10125   */\n  swap2\n  swap1\n  pop\n  jump\t// out\n    /* \"#utility.yul\":10131:10361   */\ntag_75:\n    /* \"#utility.yul\":10271:10305   */\n  0x546f74616c2070657263656e74616765206f6620696e68657269746f7273206d\n    /* \"#utility.yul\":10267:10268   */\n  0x00\n    /* \"#utility.yul\":10259:10265   */\n  dup3\n    /* \"#utility.yul\":10255:10269   */\n  add\n    /* \"#utility.yul\":10248:10306   */\n  mstore\n    /* \"#utility.yul\":10340:10353   */\n  0x757374206265203130302e000000000000000000000000000000000000000000\n    /* \"#utility.yul\":10335:10337   */\n  0x20\n    /* \"#utility.yul\":10327:10333   */\n  dup3\n    /* \"#utility.yul\":10323:10338   */\n  add\n    /* \"#utility.yul\":10316:10354   */\n  mstore\n    /* \"#utility.yul\":10131:10361   */\n  pop\n  jump\t// out\n    /* \"#utility.yul\":10367:10733   */\ntag_76:\n    /* \"#utility.yul\":10509:10512   */\n  0x00\n    /* \"#utility.yul\":10530:10597   */\n  tag_179\n    /* \"#utility.yul\":10594:10596   */\n  0x2b\n    /* \"#utility.yul\":10589:10592   */\n  dup4\n    /* \"#utility.yul\":10530:10597   */\n  tag_67\n  jump\t// in\ntag_179:\n    /* \"#utility.yul\":10523:10597   */\n  swap2\n  pop\n    /* \"#utility.yul\":10606:10699   */\n  tag_180\n    /* \"#utility.yul\":10695:10698   */\n  dup3\n    /* \"#utility.yul\":10606:10699   */\n  tag_75\n  jump\t// in\ntag_180:\n    /* \"#utility.yul\":10724:10726   */\n  0x40\n    /* \"#utility.yul\":10719:10722   */\n  dup3\n    /* \"#utility.yul\":10715:10727   */\n  add\n    /* \"#utility.yul\":10708:10727   */\n  swap1\n  pop\n    /* \"#utility.yul\":10367:10733   */\n  swap2\n  swap1\n  pop\n  jump\t// out\n    /* \"#utility.yul\":10739:11158   */\ntag_43:\n    /* \"#utility.yul\":10905:10909   */\n  0x00\n    /* \"#utility.yul\":10943:10945   */\n  0x20\n    /* \"#utility.yul\":10932:10941   */\n  dup3\n    /* \"#utility.yul\":10928:10946   */\n  add\n    /* \"#utility.yul\":10920:10946   */\n  swap1\n  pop\n    /* \"#utility.yul\":10992:11001   */\n  dup2\n    /* \"#utility.yul\":10986:10990   */\n  dup2\n    /* \"#utility.yul\":10982:11002   */\n  sub\n    /* \"#utility.yul\":10978:10979   */\n  0x00\n    /* \"#utility.yul\":10967:10976   */\n  dup4\n    /* \"#utility.yul\":10963:10980   */\n  add\n    /* \"#utility.yul\":10956:11003   */\n  mstore\n    /* \"#utility.yul\":11020:11151   */\n  tag_182\n    /* \"#utility.yul\":11146:11150   */\n  dup2\n    /* \"#utility.yul\":11020:11151   */\n  tag_76\n  jump\t// in\ntag_182:\n    /* \"#utility.yul\":11012:11151   */\n  swap1\n  pop\n    /* \"#utility.yul\":10739:11158   */\n  swap2\n  swap1\n  pop\n  jump\t// out\n    /* \"Miras.sol\":59:4241  contract Miras {... */\ntag_44:\n  dataSize(sub_0)\n  dup1\n  dataOffset(sub_0)\n  0x00\n  codecopy\n  0x00\n  return\nstop\n\nsub_0: assembly {\n        /* \"Miras.sol\":59:4241  contract Miras {... */\n      mstore(0x40, 0x80)\n      jumpi(tag_1, lt(calldatasize, 0x04))\n      shr(0xe0, calldataload(0x00))\n      dup1\n      0x8da5cb5b\n      gt\n      tag_12\n      jumpi\n      dup1\n      0x8da5cb5b\n      eq\n      tag_7\n      jumpi\n      dup1\n      0x9c21ef0b\n      eq\n      tag_8\n      jumpi\n      dup1\n      0xb60d4288\n      eq\n      tag_9\n      jumpi\n      dup1\n      0xc00835dd\n      eq\n      tag_10\n      jumpi\n      dup1\n      0xf6b4dfb4\n      eq\n      tag_11\n      jumpi\n      jump(tag_2)\n    tag_12:\n      dup1\n      0x215bbc8f\n      eq\n      tag_3\n      jumpi\n      dup1\n      0x2e1a7d4d\n      eq\n      tag_4\n      jumpi\n      dup1\n      0x3c390ff7\n      eq\n      tag_5\n      jumpi\n      dup1\n      0x6f9fb98a\n      eq\n      tag_6\n      jumpi\n      jump(tag_2)\n    tag_1:\n      jumpi(tag_2, calldatasize)\n        /* \"Miras.sol\":4182:4188  fund() */\n      tag_15\n        /* \"Miras.sol\":4182:4186  fund */\n      tag_16\n        /* \"Miras.sol\":4182:4188  fund() */\n      jump\t// in\n    tag_15:\n        /* \"Miras.sol\":59:4241  contract Miras {... */\n      stop\n    tag_2:\n        /* \"Miras.sol\":4228:4234  fund() */\n      tag_19\n        /* \"Miras.sol\":4228:4232  fund */\n      tag_16\n        /* \"Miras.sol\":4228:4234  fund() */\n      jump\t// in\n    tag_19:\n        /* \"Miras.sol\":59:4241  contract Miras {... */\n      stop\n        /* \"Miras.sol\":187:234  mapping(address => inheritor) public inheritors */\n    tag_3:\n      callvalue\n      dup1\n      iszero\n      tag_20\n      jumpi\n      0x00\n      dup1\n      revert\n    tag_20:\n      pop\n      tag_21\n      0x04\n      dup1\n      calldatasize\n      sub\n      dup2\n      add\n      swap1\n      tag_22\n      swap2\n      swap1\n      tag_23\n      jump\t// in\n    tag_22:\n      tag_24\n      jump\t// in\n    tag_21:\n      mload(0x40)\n      tag_25\n      swap3\n      swap2\n      swap1\n      tag_26\n      jump\t// in\n    tag_25:\n      mload(0x40)\n      dup1\n      swap2\n      sub\n      swap1\n      return\n        /* \"Miras.sol\":3992:4145  function withdraw(uint amount) public {... */\n    tag_4:\n      callvalue\n      dup1\n      iszero\n      tag_27\n      jumpi\n      0x00\n      dup1\n      revert\n    tag_27:\n      pop\n      tag_28\n      0x04\n      dup1\n      calldatasize\n      sub\n      dup2\n      add\n      swap1\n      tag_29\n      swap2\n      swap1\n      tag_30\n      jump\t// in\n    tag_29:\n      tag_31\n      jump\t// in\n    tag_28:\n      stop\n        /* \"Miras.sol\":2832:3912  function senEth() public  {... */\n    tag_5:\n      callvalue\n      dup1\n      iszero\n      tag_32\n      jumpi\n      0x00\n      dup1\n      revert\n    tag_32:\n      pop\n      tag_33\n      tag_34\n      jump\t// in\n    tag_33:\n      stop\n        /* \"Miras.sol\":2720:2824  function getContractBalance() public view returns (uint) {... */\n    tag_6:\n      callvalue\n      dup1\n      iszero\n      tag_35\n      jumpi\n      0x00\n      dup1\n      revert\n    tag_35:\n      pop\n      tag_36\n      tag_37\n      jump\t// in\n    tag_36:\n      mload(0x40)\n      tag_38\n      swap2\n      swap1\n      tag_39\n      jump\t// in\n    tag_38:\n      mload(0x40)\n      dup1\n      swap2\n      sub\n      swap1\n      return\n        /* \"Miras.sol\":283:311  address payable public owner */\n    tag_7:\n      callvalue\n      dup1\n      iszero\n      tag_40\n      jumpi\n      0x00\n      dup1\n      revert\n    tag_40:\n      pop\n      tag_41\n      tag_42\n      jump\t// in\n    tag_41:\n      mload(0x40)\n      tag_43\n      swap2\n      swap1\n      tag_44\n      jump\t// in\n    tag_43:\n      mload(0x40)\n      dup1\n      swap2\n      sub\n      swap1\n      return\n        /* \"Miras.sol\":1349:1880  function addInheritor(address payable _inheritorAddress, uint _percentage) public {... */\n    tag_8:\n      callvalue\n      dup1\n      iszero\n      tag_45\n      jumpi\n      0x00\n      dup1\n      revert\n    tag_45:\n      pop\n      tag_46\n      0x04\n      dup1\n      calldatasize\n      sub\n      dup2\n      add\n      swap1\n      tag_47\n      swap2\n      swap1\n      tag_48\n      jump\t// in\n    tag_47:\n      tag_49\n      jump\t// in\n    tag_46:\n      stop\n        /* \"Miras.sol\":2567:2669  function fund() public payable{... */\n    tag_9:\n      tag_50\n      tag_16\n      jump\t// in\n    tag_50:\n      stop\n        /* \"Miras.sol\":241:276  address[] public inheritorAddresses */\n    tag_10:\n      callvalue\n      dup1\n      iszero\n      tag_51\n      jumpi\n      0x00\n      dup1\n      revert\n    tag_51:\n      pop\n      tag_52\n      0x04\n      dup1\n      calldatasize\n      sub\n      dup2\n      add\n      swap1\n      tag_53\n      swap2\n      swap1\n      tag_30\n      jump\t// in\n    tag_53:\n      tag_54\n      jump\t// in\n    tag_52:\n      mload(0x40)\n      tag_55\n      swap2\n      swap1\n      tag_56\n      jump\t// in\n    tag_55:\n      mload(0x40)\n      dup1\n      swap2\n      sub\n      swap1\n      return\n        /* \"Miras.sol\":318:349  address  public contractAddress */\n    tag_11:\n      callvalue\n      dup1\n      iszero\n      tag_57\n      jumpi\n      0x00\n      dup1\n      revert\n    tag_57:\n      pop\n      tag_58\n      tag_59\n      jump\t// in\n    tag_58:\n      mload(0x40)\n      tag_60\n      swap2\n      swap1\n      tag_56\n      jump\t// in\n    tag_60:\n      mload(0x40)\n      dup1\n      swap2\n      sub\n      swap1\n      return\n        /* \"Miras.sol\":2567:2669  function fund() public payable{... */\n    tag_16:\n        /* \"Miras.sol\":2629:2633  1e18 */\n      0x0de0b6b3a7640000\n        /* \"Miras.sol\":2616:2625  msg.value */\n      callvalue\n        /* \"Miras.sol\":2616:2633  msg.value >= 1e18 */\n      lt\n      iszero\n        /* \"Miras.sol\":2608:2659  require(msg.value >= 1e18 ,\"Did not send enough\"  ) */\n      tag_62\n      jumpi\n      mload(0x40)\n      0x08c379a000000000000000000000000000000000000000000000000000000000\n      dup2\n      mstore\n      0x04\n      add\n      tag_63\n      swap1\n      tag_64\n      jump\t// in\n    tag_63:\n      mload(0x40)\n      dup1\n      swap2\n      sub\n      swap1\n      revert\n    tag_62:\n        /* \"Miras.sol\":2567:2669  function fund() public payable{... */\n      jump\t// out\n        /* \"Miras.sol\":187:234  mapping(address => inheritor) public inheritors */\n    tag_24:\n      mstore(0x20, 0x00)\n      dup1\n      0x00\n      mstore\n      keccak256(0x00, 0x40)\n      0x00\n      swap2\n      pop\n      swap1\n      pop\n      dup1\n      0x00\n      add\n      0x00\n      swap1\n      sload\n      swap1\n      0x0100\n      exp\n      swap1\n      div\n      0xffffffffffffffffffffffffffffffffffffffff\n      and\n      swap1\n      dup1\n      0x01\n      add\n      sload\n      swap1\n      pop\n      dup3\n      jump\t// out\n        /* \"Miras.sol\":3992:4145  function withdraw(uint amount) public {... */\n    tag_31:\n        /* \"Miras.sol\":4043:4058  bool callSucces */\n      0x00\n        /* \"Miras.sol\":4063:4068  owner */\n      0x02\n      0x00\n      swap1\n      sload\n      swap1\n      0x0100\n      exp\n      swap1\n      div\n      0xffffffffffffffffffffffffffffffffffffffff\n      and\n        /* \"Miras.sol\":4063:4073  owner.call */\n      0xffffffffffffffffffffffffffffffffffffffff\n      and\n        /* \"Miras.sol\":4081:4087  amount */\n      dup3\n        /* \"Miras.sol\":4063:4092  owner.call{value: amount}(\"\") */\n      mload(0x40)\n      tag_66\n      swap1\n      tag_67\n      jump\t// in\n    tag_66:\n      0x00\n      mload(0x40)\n      dup1\n      dup4\n      sub\n      dup2\n      dup6\n      dup8\n      gas\n      call\n      swap3\n      pop\n      pop\n      pop\n      returndatasize\n      dup1\n      0x00\n      dup2\n      eq\n      tag_70\n      jumpi\n      mload(0x40)\n      swap2\n      pop\n      and(add(returndatasize, 0x3f), not(0x1f))\n      dup3\n      add\n      0x40\n      mstore\n      returndatasize\n      dup3\n      mstore\n      returndatasize\n      0x00\n      0x20\n      dup5\n      add\n      returndatacopy\n      jump(tag_69)\n    tag_70:\n      0x60\n      swap2\n      pop\n    tag_69:\n      pop\n        /* \"Miras.sol\":4042:4092  (bool callSucces, ) =owner.call{value: amount}(\"\") */\n      pop\n      swap1\n      pop\n        /* \"Miras.sol\":4112:4122  callSucces */\n      dup1\n        /* \"Miras.sol\":4104:4137  require(callSucces,\"Call Failed\") */\n      tag_71\n      jumpi\n      mload(0x40)\n      0x08c379a000000000000000000000000000000000000000000000000000000000\n      dup2\n      mstore\n      0x04\n      add\n      tag_72\n      swap1\n      tag_73\n      jump\t// in\n    tag_72:\n      mload(0x40)\n      dup1\n      swap2\n      sub\n      swap1\n      revert\n    tag_71:\n        /* \"Miras.sol\":4030:4145  {... */\n      pop\n        /* \"Miras.sol\":3992:4145  function withdraw(uint amount) public {... */\n      pop\n      jump\t// out\n        /* \"Miras.sol\":2832:3912  function senEth() public  {... */\n    tag_34:\n        /* \"Miras.sol\":2891:2896  owner */\n      0x02\n      0x00\n      swap1\n      sload\n      swap1\n      0x0100\n      exp\n      swap1\n      div\n      0xffffffffffffffffffffffffffffffffffffffff\n      and\n        /* \"Miras.sol\":2877:2896  msg.sender == owner */\n      0xffffffffffffffffffffffffffffffffffffffff\n      and\n        /* \"Miras.sol\":2877:2887  msg.sender */\n      caller\n        /* \"Miras.sol\":2877:2896  msg.sender == owner */\n      0xffffffffffffffffffffffffffffffffffffffff\n      and\n      eq\n        /* \"Miras.sol\":2869:2952  require(msg.sender == owner, \"Only the contract owner can distribute inheritance.\") */\n      tag_75\n      jumpi\n      mload(0x40)\n      0x08c379a000000000000000000000000000000000000000000000000000000000\n      dup2\n      mstore\n      0x04\n      add\n      tag_76\n      swap1\n      tag_77\n      jump\t// in\n    tag_76:\n      mload(0x40)\n      dup1\n      swap2\n      sub\n      swap1\n      revert\n    tag_75:\n        /* \"Miras.sol\":2999:3000  0 */\n      0x00\n        /* \"Miras.sol\":2971:2989  inheritorAddresses */\n      0x01\n        /* \"Miras.sol\":2971:2996  inheritorAddresses.length */\n      dup1\n      sload\n      swap1\n      pop\n        /* \"Miras.sol\":2971:3000  inheritorAddresses.length > 0 */\n      gt\n        /* \"Miras.sol\":2963:3025  require(inheritorAddresses.length > 0, \"No inheritors added.\") */\n      tag_78\n      jumpi\n      mload(0x40)\n      0x08c379a000000000000000000000000000000000000000000000000000000000\n      dup2\n      mstore\n      0x04\n      add\n      tag_79\n      swap1\n      tag_80\n      jump\t// in\n    tag_79:\n      mload(0x40)\n      dup1\n      swap2\n      sub\n      swap1\n      revert\n    tag_78:\n        /* \"Miras.sol\":3068:3069  0 */\n      0x00\n        /* \"Miras.sol\":3044:3065  address(this).balance */\n      selfbalance\n        /* \"Miras.sol\":3044:3069  address(this).balance > 0 */\n      gt\n        /* \"Miras.sol\":3036:3105  require(address(this).balance > 0, \"No inheritance amount provided.\") */\n      tag_81\n      jumpi\n      mload(0x40)\n      0x08c379a000000000000000000000000000000000000000000000000000000000\n      dup2\n      mstore\n      0x04\n      add\n      tag_82\n      swap1\n      tag_83\n      jump\t// in\n    tag_82:\n      mload(0x40)\n      dup1\n      swap2\n      sub\n      swap1\n      revert\n    tag_81:\n        /* \"Miras.sol\":3431:3437  uint i */\n      0x00\n        /* \"Miras.sol\":3426:3883  for (uint i = 0; i < inheritorAddresses.length; i++) {... */\n    tag_84:\n        /* \"Miras.sol\":3447:3465  inheritorAddresses */\n      0x01\n        /* \"Miras.sol\":3447:3472  inheritorAddresses.length */\n      dup1\n      sload\n      swap1\n      pop\n        /* \"Miras.sol\":3443:3444  i */\n      dup2\n        /* \"Miras.sol\":3443:3472  i < inheritorAddresses.length */\n      lt\n        /* \"Miras.sol\":3426:3883  for (uint i = 0; i < inheritorAddresses.length; i++) {... */\n      iszero\n      tag_85\n      jumpi\n        /* \"Miras.sol\":3494:3514  uint inheritorAmount */\n      0x00\n        /* \"Miras.sol\":3590:3593  100 */\n      0x64\n        /* \"Miras.sol\":3542:3552  inheritors */\n      0x00\n        /* \"Miras.sol\":3542:3575  inheritors[inheritorAddresses[i]] */\n      dup1\n        /* \"Miras.sol\":3553:3571  inheritorAddresses */\n      0x01\n        /* \"Miras.sol\":3572:3573  i */\n      dup6\n        /* \"Miras.sol\":3553:3574  inheritorAddresses[i] */\n      dup2\n      sload\n      dup2\n      lt\n      tag_87\n      jumpi\n      tag_88\n      tag_89\n      jump\t// in\n    tag_88:\n    tag_87:\n      swap1\n      0x00\n      mstore\n      keccak256(0x00, 0x20)\n      add\n      0x00\n      swap1\n      sload\n      swap1\n      0x0100\n      exp\n      swap1\n      div\n      0xffffffffffffffffffffffffffffffffffffffff\n      and\n        /* \"Miras.sol\":3542:3575  inheritors[inheritorAddresses[i]] */\n      0xffffffffffffffffffffffffffffffffffffffff\n      and\n      0xffffffffffffffffffffffffffffffffffffffff\n      and\n      dup2\n      mstore\n      0x20\n      add\n      swap1\n      dup2\n      mstore\n      0x20\n      add\n      0x00\n      keccak256\n        /* \"Miras.sol\":3542:3586  inheritors[inheritorAddresses[i]].percentage */\n      0x01\n      add\n      sload\n        /* \"Miras.sol\":3518:3539  address(this).balance */\n      selfbalance\n        /* \"Miras.sol\":3518:3586  address(this).balance * inheritors[inheritorAddresses[i]].percentage */\n      tag_91\n      swap2\n      swap1\n      tag_92\n      jump\t// in\n    tag_91:\n        /* \"Miras.sol\":3517:3593  (address(this).balance * inheritors[inheritorAddresses[i]].percentage) / 100 */\n      tag_93\n      swap2\n      swap1\n      tag_94\n      jump\t// in\n    tag_93:\n        /* \"Miras.sol\":3494:3593  uint inheritorAmount = (address(this).balance * inheritors[inheritorAddresses[i]].percentage) / 100 */\n      swap1\n      pop\n        /* \"Miras.sol\":3703:3719  bool callSuccess */\n      0x00\n        /* \"Miras.sol\":3725:3735  inheritors */\n      dup1\n        /* \"Miras.sol\":3725:3758  inheritors[inheritorAddresses[i]] */\n      0x00\n        /* \"Miras.sol\":3736:3754  inheritorAddresses */\n      0x01\n        /* \"Miras.sol\":3755:3756  i */\n      dup6\n        /* \"Miras.sol\":3736:3757  inheritorAddresses[i] */\n      dup2\n      sload\n      dup2\n      lt\n      tag_95\n      jumpi\n      tag_96\n      tag_89\n      jump\t// in\n    tag_96:\n    tag_95:\n      swap1\n      0x00\n      mstore\n      keccak256(0x00, 0x20)\n      add\n      0x00\n      swap1\n      sload\n      swap1\n      0x0100\n      exp\n      swap1\n      div\n      0xffffffffffffffffffffffffffffffffffffffff\n      and\n        /* \"Miras.sol\":3725:3758  inheritors[inheritorAddresses[i]] */\n      0xffffffffffffffffffffffffffffffffffffffff\n      and\n      0xffffffffffffffffffffffffffffffffffffffff\n      and\n      dup2\n      mstore\n      0x20\n      add\n      swap1\n      dup2\n      mstore\n      0x20\n      add\n      0x00\n      keccak256\n        /* \"Miras.sol\":3725:3775  inheritors[inheritorAddresses[i]].inheritorAddress */\n      0x00\n      add\n      0x00\n      swap1\n      sload\n      swap1\n      0x0100\n      exp\n      swap1\n      div\n      0xffffffffffffffffffffffffffffffffffffffff\n      and\n        /* \"Miras.sol\":3725:3780  inheritors[inheritorAddresses[i]].inheritorAddress.call */\n      0xffffffffffffffffffffffffffffffffffffffff\n      and\n        /* \"Miras.sol\":3788:3803  inheritorAmount */\n      dup3\n        /* \"Miras.sol\":3725:3808  inheritors[inheritorAddresses[i]].inheritorAddress.call{value: inheritorAmount}(\"\") */\n      mload(0x40)\n      tag_98\n      swap1\n      tag_67\n      jump\t// in\n    tag_98:\n      0x00\n      mload(0x40)\n      dup1\n      dup4\n      sub\n      dup2\n      dup6\n      dup8\n      gas\n      call\n      swap3\n      pop\n      pop\n      pop\n      returndatasize\n      dup1\n      0x00\n      dup2\n      eq\n      tag_101\n      jumpi\n      mload(0x40)\n      swap2\n      pop\n      and(add(returndatasize, 0x3f), not(0x1f))\n      dup3\n      add\n      0x40\n      mstore\n      returndatasize\n      dup3\n      mstore\n      returndatasize\n      0x00\n      0x20\n      dup5\n      add\n      returndatacopy\n      jump(tag_100)\n    tag_101:\n      0x60\n      swap2\n      pop\n    tag_100:\n      pop\n        /* \"Miras.sol\":3702:3808  (bool callSuccess, ) = inheritors[inheritorAddresses[i]].inheritorAddress.call{value: inheritorAmount}(\"\") */\n      pop\n      swap1\n      pop\n        /* \"Miras.sol\":3831:3842  callSuccess */\n      dup1\n        /* \"Miras.sol\":3823:3857  require(callSuccess,\"Call Failed\") */\n      tag_102\n      jumpi\n      mload(0x40)\n      0x08c379a000000000000000000000000000000000000000000000000000000000\n      dup2\n      mstore\n      0x04\n      add\n      tag_103\n      swap1\n      tag_73\n      jump\t// in\n    tag_103:\n      mload(0x40)\n      dup1\n      swap2\n      sub\n      swap1\n      revert\n    tag_102:\n        /* \"Miras.sol\":3479:3883  {... */\n      pop\n      pop\n        /* \"Miras.sol\":3474:3477  i++ */\n      dup1\n      dup1\n      tag_104\n      swap1\n      tag_105\n      jump\t// in\n    tag_104:\n      swap2\n      pop\n      pop\n        /* \"Miras.sol\":3426:3883  for (uint i = 0; i < inheritorAddresses.length; i++) {... */\n      jump(tag_84)\n    tag_85:\n      pop\n        /* \"Miras.sol\":2832:3912  function senEth() public  {... */\n      jump\t// out\n        /* \"Miras.sol\":2720:2824  function getContractBalance() public view returns (uint) {... */\n    tag_37:\n        /* \"Miras.sol\":2771:2775  uint */\n      0x00\n        /* \"Miras.sol\":2795:2816  address(this).balance */\n      selfbalance\n        /* \"Miras.sol\":2788:2816  return address(this).balance */\n      swap1\n      pop\n        /* \"Miras.sol\":2720:2824  function getContractBalance() public view returns (uint) {... */\n      swap1\n      jump\t// out\n        /* \"Miras.sol\":283:311  address payable public owner */\n    tag_42:\n      0x02\n      0x00\n      swap1\n      sload\n      swap1\n      0x0100\n      exp\n      swap1\n      div\n      0xffffffffffffffffffffffffffffffffffffffff\n      and\n      dup2\n      jump\t// out\n        /* \"Miras.sol\":1349:1880  function addInheritor(address payable _inheritorAddress, uint _percentage) public {... */\n    tag_49:\n        /* \"Miras.sol\":1464:1469  owner */\n      0x02\n      0x00\n      swap1\n      sload\n      swap1\n      0x0100\n      exp\n      swap1\n      div\n      0xffffffffffffffffffffffffffffffffffffffff\n      and\n        /* \"Miras.sol\":1450:1469  msg.sender == owner */\n      0xffffffffffffffffffffffffffffffffffffffff\n      and\n        /* \"Miras.sol\":1450:1460  msg.sender */\n      caller\n        /* \"Miras.sol\":1450:1469  msg.sender == owner */\n      0xffffffffffffffffffffffffffffffffffffffff\n      and\n      eq\n        /* \"Miras.sol\":1442:1517  require(msg.sender == owner, \"Only the contract owner can add inheritors.\") */\n      tag_108\n      jumpi\n      mload(0x40)\n      0x08c379a000000000000000000000000000000000000000000000000000000000\n      dup2\n      mstore\n      0x04\n      add\n      tag_109\n      swap1\n      tag_110\n      jump\t// in\n    tag_109:\n      mload(0x40)\n      dup1\n      swap2\n      sub\n      swap1\n      revert\n    tag_108:\n        /* \"Miras.sol\":1550:1551  0 */\n      0x00\n        /* \"Miras.sol\":1536:1547  _percentage */\n      dup2\n        /* \"Miras.sol\":1536:1551  _percentage > 0 */\n      gt\n        /* \"Miras.sol\":1536:1573  _percentage > 0 && _percentage <= 100 */\n      dup1\n      iszero\n      tag_111\n      jumpi\n      pop\n        /* \"Miras.sol\":1570:1573  100 */\n      0x64\n        /* \"Miras.sol\":1555:1566  _percentage */\n      dup2\n        /* \"Miras.sol\":1555:1573  _percentage <= 100 */\n      gt\n      iszero\n        /* \"Miras.sol\":1536:1573  _percentage > 0 && _percentage <= 100 */\n    tag_111:\n        /* \"Miras.sol\":1528:1615  require(_percentage > 0 && _percentage <= 100, \"Percentage must be between 1 and 100.\") */\n      tag_112\n      jumpi\n      mload(0x40)\n      0x08c379a000000000000000000000000000000000000000000000000000000000\n      dup2\n      mstore\n      0x04\n      add\n      tag_113\n      swap1\n      tag_114\n      jump\t// in\n    tag_113:\n      mload(0x40)\n      dup1\n      swap2\n      sub\n      swap1\n      revert\n    tag_112:\n        /* \"Miras.sol\":1692:1693  0 */\n      0x00\n        /* \"Miras.sol\":1634:1694  inheritors[_inheritorAddress].inheritorAddress == address(0) */\n      0xffffffffffffffffffffffffffffffffffffffff\n      and\n        /* \"Miras.sol\":1634:1644  inheritors */\n      0x00\n        /* \"Miras.sol\":1634:1663  inheritors[_inheritorAddress] */\n      dup1\n        /* \"Miras.sol\":1645:1662  _inheritorAddress */\n      dup5\n        /* \"Miras.sol\":1634:1663  inheritors[_inheritorAddress] */\n      0xffffffffffffffffffffffffffffffffffffffff\n      and\n      0xffffffffffffffffffffffffffffffffffffffff\n      and\n      dup2\n      mstore\n      0x20\n      add\n      swap1\n      dup2\n      mstore\n      0x20\n      add\n      0x00\n      keccak256\n        /* \"Miras.sol\":1634:1680  inheritors[_inheritorAddress].inheritorAddress */\n      0x00\n      add\n      0x00\n      swap1\n      sload\n      swap1\n      0x0100\n      exp\n      swap1\n      div\n      0xffffffffffffffffffffffffffffffffffffffff\n      and\n        /* \"Miras.sol\":1634:1694  inheritors[_inheritorAddress].inheritorAddress == address(0) */\n      0xffffffffffffffffffffffffffffffffffffffff\n      and\n      eq\n        /* \"Miras.sol\":1626:1724  require(inheritors[_inheritorAddress].inheritorAddress == address(0), \"inheritor already exists.\") */\n      tag_115\n      jumpi\n      mload(0x40)\n      0x08c379a000000000000000000000000000000000000000000000000000000000\n      dup2\n      mstore\n      0x04\n      add\n      tag_116\n      swap1\n      tag_117\n      jump\t// in\n    tag_116:\n      mload(0x40)\n      dup1\n      swap2\n      sub\n      swap1\n      revert\n    tag_115:\n        /* \"Miras.sol\":1769:1819  inheritor(payable(_inheritorAddress), _percentage) */\n      mload(0x40)\n      dup1\n      0x40\n      add\n      0x40\n      mstore\n      dup1\n        /* \"Miras.sol\":1787:1804  _inheritorAddress */\n      dup4\n        /* \"Miras.sol\":1769:1819  inheritor(payable(_inheritorAddress), _percentage) */\n      0xffffffffffffffffffffffffffffffffffffffff\n      and\n      dup2\n      mstore\n      0x20\n      add\n        /* \"Miras.sol\":1807:1818  _percentage */\n      dup3\n        /* \"Miras.sol\":1769:1819  inheritor(payable(_inheritorAddress), _percentage) */\n      dup2\n      mstore\n      pop\n        /* \"Miras.sol\":1737:1747  inheritors */\n      0x00\n        /* \"Miras.sol\":1737:1766  inheritors[_inheritorAddress] */\n      dup1\n        /* \"Miras.sol\":1748:1765  _inheritorAddress */\n      dup5\n        /* \"Miras.sol\":1737:1766  inheritors[_inheritorAddress] */\n      0xffffffffffffffffffffffffffffffffffffffff\n      and\n      0xffffffffffffffffffffffffffffffffffffffff\n      and\n      dup2\n      mstore\n      0x20\n      add\n      swap1\n      dup2\n      mstore\n      0x20\n      add\n      0x00\n      keccak256\n        /* \"Miras.sol\":1737:1819  inheritors[_inheritorAddress] = inheritor(payable(_inheritorAddress), _percentage) */\n      0x00\n      dup3\n      add\n      mload\n      dup2\n      0x00\n      add\n      exp(0x0100, 0x00)\n      dup2\n      sload\n      dup2\n      0xffffffffffffffffffffffffffffffffffffffff\n      mul\n      not\n      and\n      swap1\n      dup4\n      0xffffffffffffffffffffffffffffffffffffffff\n      and\n      mul\n      or\n      swap1\n      sstore\n      pop\n      0x20\n      dup3\n      add\n      mload\n      dup2\n      0x01\n      add\n      sstore\n      swap1\n      pop\n      pop\n        /* \"Miras.sol\":1830:1848  inheritorAddresses */\n      0x01\n        /* \"Miras.sol\":1854:1871  _inheritorAddress */\n      dup3\n        /* \"Miras.sol\":1830:1872  inheritorAddresses.push(_inheritorAddress) */\n      swap1\n      dup1\n      0x01\n      dup2\n      sload\n      add\n      dup1\n      dup3\n      sstore\n      dup1\n      swap2\n      pop\n      pop\n      0x01\n      swap1\n      sub\n      swap1\n      0x00\n      mstore\n      keccak256(0x00, 0x20)\n      add\n      0x00\n      swap1\n      swap2\n      swap1\n      swap2\n      swap1\n      swap2\n      0x0100\n      exp\n      dup2\n      sload\n      dup2\n      0xffffffffffffffffffffffffffffffffffffffff\n      mul\n      not\n      and\n      swap1\n      dup4\n      0xffffffffffffffffffffffffffffffffffffffff\n      and\n      mul\n      or\n      swap1\n      sstore\n      pop\n        /* \"Miras.sol\":1349:1880  function addInheritor(address payable _inheritorAddress, uint _percentage) public {... */\n      pop\n      pop\n      jump\t// out\n        /* \"Miras.sol\":241:276  address[] public inheritorAddresses */\n    tag_54:\n      0x01\n      dup2\n      dup2\n      sload\n      dup2\n      lt\n      tag_119\n      jumpi\n      0x00\n      dup1\n      revert\n    tag_119:\n      swap1\n      0x00\n      mstore\n      keccak256(0x00, 0x20)\n      add\n      0x00\n      swap2\n      pop\n      sload\n      swap1\n      0x0100\n      exp\n      swap1\n      div\n      0xffffffffffffffffffffffffffffffffffffffff\n      and\n      dup2\n      jump\t// out\n        /* \"Miras.sol\":318:349  address  public contractAddress */\n    tag_59:\n      0x03\n      0x00\n      swap1\n      sload\n      swap1\n      0x0100\n      exp\n      swap1\n      div\n      0xffffffffffffffffffffffffffffffffffffffff\n      and\n      dup2\n      jump\t// out\n        /* \"#utility.yul\":88:205   */\n    tag_122:\n        /* \"#utility.yul\":197:198   */\n      0x00\n        /* \"#utility.yul\":194:195   */\n      dup1\n        /* \"#utility.yul\":187:199   */\n      revert\n        /* \"#utility.yul\":334:460   */\n    tag_124:\n        /* \"#utility.yul\":371:378   */\n      0x00\n        /* \"#utility.yul\":411:453   */\n      0xffffffffffffffffffffffffffffffffffffffff\n        /* \"#utility.yul\":404:409   */\n      dup3\n        /* \"#utility.yul\":400:454   */\n      and\n        /* \"#utility.yul\":389:454   */\n      swap1\n      pop\n        /* \"#utility.yul\":334:460   */\n      swap2\n      swap1\n      pop\n      jump\t// out\n        /* \"#utility.yul\":466:562   */\n    tag_125:\n        /* \"#utility.yul\":503:510   */\n      0x00\n        /* \"#utility.yul\":532:556   */\n      tag_165\n        /* \"#utility.yul\":550:555   */\n      dup3\n        /* \"#utility.yul\":532:556   */\n      tag_124\n      jump\t// in\n    tag_165:\n        /* \"#utility.yul\":521:556   */\n      swap1\n      pop\n        /* \"#utility.yul\":466:562   */\n      swap2\n      swap1\n      pop\n      jump\t// out\n        /* \"#utility.yul\":568:690   */\n    tag_126:\n        /* \"#utility.yul\":641:665   */\n      tag_167\n        /* \"#utility.yul\":659:664   */\n      dup2\n        /* \"#utility.yul\":641:665   */\n      tag_125\n      jump\t// in\n    tag_167:\n        /* \"#utility.yul\":634:639   */\n      dup2\n        /* \"#utility.yul\":631:666   */\n      eq\n        /* \"#utility.yul\":621:684   */\n      tag_168\n      jumpi\n        /* \"#utility.yul\":680:681   */\n      0x00\n        /* \"#utility.yul\":677:678   */\n      dup1\n        /* \"#utility.yul\":670:682   */\n      revert\n        /* \"#utility.yul\":621:684   */\n    tag_168:\n        /* \"#utility.yul\":568:690   */\n      pop\n      jump\t// out\n        /* \"#utility.yul\":696:835   */\n    tag_127:\n        /* \"#utility.yul\":742:747   */\n      0x00\n        /* \"#utility.yul\":780:786   */\n      dup2\n        /* \"#utility.yul\":767:787   */\n      calldataload\n        /* \"#utility.yul\":758:787   */\n      swap1\n      pop\n        /* \"#utility.yul\":796:829   */\n      tag_170\n        /* \"#utility.yul\":823:828   */\n      dup2\n        /* \"#utility.yul\":796:829   */\n      tag_126\n      jump\t// in\n    tag_170:\n        /* \"#utility.yul\":696:835   */\n      swap3\n      swap2\n      pop\n      pop\n      jump\t// out\n        /* \"#utility.yul\":841:1170   */\n    tag_23:\n        /* \"#utility.yul\":900:906   */\n      0x00\n        /* \"#utility.yul\":949:951   */\n      0x20\n        /* \"#utility.yul\":937:946   */\n      dup3\n        /* \"#utility.yul\":928:935   */\n      dup5\n        /* \"#utility.yul\":924:947   */\n      sub\n        /* \"#utility.yul\":920:952   */\n      slt\n        /* \"#utility.yul\":917:1036   */\n      iszero\n      tag_172\n      jumpi\n        /* \"#utility.yul\":955:1034   */\n      tag_173\n      tag_122\n      jump\t// in\n    tag_173:\n        /* \"#utility.yul\":917:1036   */\n    tag_172:\n        /* \"#utility.yul\":1075:1076   */\n      0x00\n        /* \"#utility.yul\":1100:1153   */\n      tag_174\n        /* \"#utility.yul\":1145:1152   */\n      dup5\n        /* \"#utility.yul\":1136:1142   */\n      dup3\n        /* \"#utility.yul\":1125:1134   */\n      dup6\n        /* \"#utility.yul\":1121:1143   */\n      add\n        /* \"#utility.yul\":1100:1153   */\n      tag_127\n      jump\t// in\n    tag_174:\n        /* \"#utility.yul\":1090:1153   */\n      swap2\n      pop\n        /* \"#utility.yul\":1046:1163   */\n      pop\n        /* \"#utility.yul\":841:1170   */\n      swap3\n      swap2\n      pop\n      pop\n      jump\t// out\n        /* \"#utility.yul\":1176:1280   */\n    tag_128:\n        /* \"#utility.yul\":1221:1228   */\n      0x00\n        /* \"#utility.yul\":1250:1274   */\n      tag_176\n        /* \"#utility.yul\":1268:1273   */\n      dup3\n        /* \"#utility.yul\":1250:1274   */\n      tag_124\n      jump\t// in\n    tag_176:\n        /* \"#utility.yul\":1239:1274   */\n      swap1\n      pop\n        /* \"#utility.yul\":1176:1280   */\n      swap2\n      swap1\n      pop\n      jump\t// out\n        /* \"#utility.yul\":1286:1428   */\n    tag_129:\n        /* \"#utility.yul\":1389:1421   */\n      tag_178\n        /* \"#utility.yul\":1415:1420   */\n      dup2\n        /* \"#utility.yul\":1389:1421   */\n      tag_128\n      jump\t// in\n    tag_178:\n        /* \"#utility.yul\":1384:1387   */\n      dup3\n        /* \"#utility.yul\":1377:1422   */\n      mstore\n        /* \"#utility.yul\":1286:1428   */\n      pop\n      pop\n      jump\t// out\n        /* \"#utility.yul\":1434:1511   */\n    tag_130:\n        /* \"#utility.yul\":1471:1478   */\n      0x00\n        /* \"#utility.yul\":1500:1505   */\n      dup2\n        /* \"#utility.yul\":1489:1505   */\n      swap1\n      pop\n        /* \"#utility.yul\":1434:1511   */\n      swap2\n      swap1\n      pop\n      jump\t// out\n        /* \"#utility.yul\":1517:1635   */\n    tag_131:\n        /* \"#utility.yul\":1604:1628   */\n      tag_181\n        /* \"#utility.yul\":1622:1627   */\n      dup2\n        /* \"#utility.yul\":1604:1628   */\n      tag_130\n      jump\t// in\n    tag_181:\n        /* \"#utility.yul\":1599:1602   */\n      dup3\n        /* \"#utility.yul\":1592:1629   */\n      mstore\n        /* \"#utility.yul\":1517:1635   */\n      pop\n      pop\n      jump\t// out\n        /* \"#utility.yul\":1641:2005   */\n    tag_26:\n        /* \"#utility.yul\":1778:1782   */\n      0x00\n        /* \"#utility.yul\":1816:1818   */\n      0x40\n        /* \"#utility.yul\":1805:1814   */\n      dup3\n        /* \"#utility.yul\":1801:1819   */\n      add\n        /* \"#utility.yul\":1793:1819   */\n      swap1\n      pop\n        /* \"#utility.yul\":1829:1916   */\n      tag_183\n        /* \"#utility.yul\":1913:1914   */\n      0x00\n        /* \"#utility.yul\":1902:1911   */\n      dup4\n        /* \"#utility.yul\":1898:1915   */\n      add\n        /* \"#utility.yul\":1889:1895   */\n      dup6\n        /* \"#utility.yul\":1829:1916   */\n      tag_129\n      jump\t// in\n    tag_183:\n        /* \"#utility.yul\":1926:1998   */\n      tag_184\n        /* \"#utility.yul\":1994:1996   */\n      0x20\n        /* \"#utility.yul\":1983:1992   */\n      dup4\n        /* \"#utility.yul\":1979:1997   */\n      add\n        /* \"#utility.yul\":1970:1976   */\n      dup5\n        /* \"#utility.yul\":1926:1998   */\n      tag_131\n      jump\t// in\n    tag_184:\n        /* \"#utility.yul\":1641:2005   */\n      swap4\n      swap3\n      pop\n      pop\n      pop\n      jump\t// out\n        /* \"#utility.yul\":2011:2133   */\n    tag_132:\n        /* \"#utility.yul\":2084:2108   */\n      tag_186\n        /* \"#utility.yul\":2102:2107   */\n      dup2\n        /* \"#utility.yul\":2084:2108   */\n      tag_130\n      jump\t// in\n    tag_186:\n        /* \"#utility.yul\":2077:2082   */\n      dup2\n        /* \"#utility.yul\":2074:2109   */\n      eq\n        /* \"#utility.yul\":2064:2127   */\n      tag_187\n      jumpi\n        /* \"#utility.yul\":2123:2124   */\n      0x00\n        /* \"#utility.yul\":2120:2121   */\n      dup1\n        /* \"#utility.yul\":2113:2125   */\n      revert\n        /* \"#utility.yul\":2064:2127   */\n    tag_187:\n        /* \"#utility.yul\":2011:2133   */\n      pop\n      jump\t// out\n        /* \"#utility.yul\":2139:2278   */\n    tag_133:\n        /* \"#utility.yul\":2185:2190   */\n      0x00\n        /* \"#utility.yul\":2223:2229   */\n      dup2\n        /* \"#utility.yul\":2210:2230   */\n      calldataload\n        /* \"#utility.yul\":2201:2230   */\n      swap1\n      pop\n        /* \"#utility.yul\":2239:2272   */\n      tag_189\n        /* \"#utility.yul\":2266:2271   */\n      dup2\n        /* \"#utility.yul\":2239:2272   */\n      tag_132\n      jump\t// in\n    tag_189:\n        /* \"#utility.yul\":2139:2278   */\n      swap3\n      swap2\n      pop\n      pop\n      jump\t// out\n        /* \"#utility.yul\":2284:2613   */\n    tag_30:\n        /* \"#utility.yul\":2343:2349   */\n      0x00\n        /* \"#utility.yul\":2392:2394   */\n      0x20\n        /* \"#utility.yul\":2380:2389   */\n      dup3\n        /* \"#utility.yul\":2371:2378   */\n      dup5\n        /* \"#utility.yul\":2367:2390   */\n      sub\n        /* \"#utility.yul\":2363:2395   */\n      slt\n        /* \"#utility.yul\":2360:2479   */\n      iszero\n      tag_191\n      jumpi\n        /* \"#utility.yul\":2398:2477   */\n      tag_192\n      tag_122\n      jump\t// in\n    tag_192:\n        /* \"#utility.yul\":2360:2479   */\n    tag_191:\n        /* \"#utility.yul\":2518:2519   */\n      0x00\n        /* \"#utility.yul\":2543:2596   */\n      tag_193\n        /* \"#utility.yul\":2588:2595   */\n      dup5\n        /* \"#utility.yul\":2579:2585   */\n      dup3\n        /* \"#utility.yul\":2568:2577   */\n      dup6\n        /* \"#utility.yul\":2564:2586   */\n      add\n        /* \"#utility.yul\":2543:2596   */\n      tag_133\n      jump\t// in\n    tag_193:\n        /* \"#utility.yul\":2533:2596   */\n      swap2\n      pop\n        /* \"#utility.yul\":2489:2606   */\n      pop\n        /* \"#utility.yul\":2284:2613   */\n      swap3\n      swap2\n      pop\n      pop\n      jump\t// out\n        /* \"#utility.yul\":2619:2841   */\n    tag_39:\n        /* \"#utility.yul\":2712:2716   */\n      0x00\n        /* \"#utility.yul\":2750:2752   */\n      0x20\n        /* \"#utility.yul\":2739:2748   */\n      dup3\n        /* \"#utility.yul\":2735:2753   */\n      add\n        /* \"#utility.yul\":2727:2753   */\n      swap1\n      pop\n        /* \"#utility.yul\":2763:2834   */\n      tag_195\n        /* \"#utility.yul\":2831:2832   */\n      0x00\n        /* \"#utility.yul\":2820:2829   */\n      dup4\n        /* \"#utility.yul\":2816:2833   */\n      add\n        /* \"#utility.yul\":2807:2813   */\n      dup5\n        /* \"#utility.yul\":2763:2834   */\n      tag_131\n      jump\t// in\n    tag_195:\n        /* \"#utility.yul\":2619:2841   */\n      swap3\n      swap2\n      pop\n      pop\n      jump\t// out\n        /* \"#utility.yul\":2847:3101   */\n    tag_44:\n        /* \"#utility.yul\":2956:2960   */\n      0x00\n        /* \"#utility.yul\":2994:2996   */\n      0x20\n        /* \"#utility.yul\":2983:2992   */\n      dup3\n        /* \"#utility.yul\":2979:2997   */\n      add\n        /* \"#utility.yul\":2971:2997   */\n      swap1\n      pop\n        /* \"#utility.yul\":3007:3094   */\n      tag_197\n        /* \"#utility.yul\":3091:3092   */\n      0x00\n        /* \"#utility.yul\":3080:3089   */\n      dup4\n        /* \"#utility.yul\":3076:3093   */\n      add\n        /* \"#utility.yul\":3067:3073   */\n      dup5\n        /* \"#utility.yul\":3007:3094   */\n      tag_129\n      jump\t// in\n    tag_197:\n        /* \"#utility.yul\":2847:3101   */\n      swap3\n      swap2\n      pop\n      pop\n      jump\t// out\n        /* \"#utility.yul\":3107:3245   */\n    tag_134:\n        /* \"#utility.yul\":3188:3220   */\n      tag_199\n        /* \"#utility.yul\":3214:3219   */\n      dup2\n        /* \"#utility.yul\":3188:3220   */\n      tag_128\n      jump\t// in\n    tag_199:\n        /* \"#utility.yul\":3181:3186   */\n      dup2\n        /* \"#utility.yul\":3178:3221   */\n      eq\n        /* \"#utility.yul\":3168:3239   */\n      tag_200\n      jumpi\n        /* \"#utility.yul\":3235:3236   */\n      0x00\n        /* \"#utility.yul\":3232:3233   */\n      dup1\n        /* \"#utility.yul\":3225:3237   */\n      revert\n        /* \"#utility.yul\":3168:3239   */\n    tag_200:\n        /* \"#utility.yul\":3107:3245   */\n      pop\n      jump\t// out\n        /* \"#utility.yul\":3251:3406   */\n    tag_135:\n        /* \"#utility.yul\":3305:3310   */\n      0x00\n        /* \"#utility.yul\":3343:3349   */\n      dup2\n        /* \"#utility.yul\":3330:3350   */\n      calldataload\n        /* \"#utility.yul\":3321:3350   */\n      swap1\n      pop\n        /* \"#utility.yul\":3359:3400   */\n      tag_202\n        /* \"#utility.yul\":3394:3399   */\n      dup2\n        /* \"#utility.yul\":3359:3400   */\n      tag_134\n      jump\t// in\n    tag_202:\n        /* \"#utility.yul\":3251:3406   */\n      swap3\n      swap2\n      pop\n      pop\n      jump\t// out\n        /* \"#utility.yul\":3412:3902   */\n    tag_48:\n        /* \"#utility.yul\":3488:3494   */\n      0x00\n        /* \"#utility.yul\":3496:3502   */\n      dup1\n        /* \"#utility.yul\":3545:3547   */\n      0x40\n        /* \"#utility.yul\":3533:3542   */\n      dup4\n        /* \"#utility.yul\":3524:3531   */\n      dup6\n        /* \"#utility.yul\":3520:3543   */\n      sub\n        /* \"#utility.yul\":3516:3548   */\n      slt\n        /* \"#utility.yul\":3513:3632   */\n      iszero\n      tag_204\n      jumpi\n        /* \"#utility.yul\":3551:3630   */\n      tag_205\n      tag_122\n      jump\t// in\n    tag_205:\n        /* \"#utility.yul\":3513:3632   */\n    tag_204:\n        /* \"#utility.yul\":3671:3672   */\n      0x00\n        /* \"#utility.yul\":3696:3757   */\n      tag_206\n        /* \"#utility.yul\":3749:3756   */\n      dup6\n        /* \"#utility.yul\":3740:3746   */\n      dup3\n        /* \"#utility.yul\":3729:3738   */\n      dup7\n        /* \"#utility.yul\":3725:3747   */\n      add\n        /* \"#utility.yul\":3696:3757   */\n      tag_135\n      jump\t// in\n    tag_206:\n        /* \"#utility.yul\":3686:3757   */\n      swap3\n      pop\n        /* \"#utility.yul\":3642:3767   */\n      pop\n        /* \"#utility.yul\":3806:3808   */\n      0x20\n        /* \"#utility.yul\":3832:3885   */\n      tag_207\n        /* \"#utility.yul\":3877:3884   */\n      dup6\n        /* \"#utility.yul\":3868:3874   */\n      dup3\n        /* \"#utility.yul\":3857:3866   */\n      dup7\n        /* \"#utility.yul\":3853:3875   */\n      add\n        /* \"#utility.yul\":3832:3885   */\n      tag_133\n      jump\t// in\n    tag_207:\n        /* \"#utility.yul\":3822:3885   */\n      swap2\n      pop\n        /* \"#utility.yul\":3777:3895   */\n      pop\n        /* \"#utility.yul\":3412:3902   */\n      swap3\n      pop\n      swap3\n      swap1\n      pop\n      jump\t// out\n        /* \"#utility.yul\":3908:4026   */\n    tag_136:\n        /* \"#utility.yul\":3995:4019   */\n      tag_209\n        /* \"#utility.yul\":4013:4018   */\n      dup2\n        /* \"#utility.yul\":3995:4019   */\n      tag_125\n      jump\t// in\n    tag_209:\n        /* \"#utility.yul\":3990:3993   */\n      dup3\n        /* \"#utility.yul\":3983:4020   */\n      mstore\n        /* \"#utility.yul\":3908:4026   */\n      pop\n      pop\n      jump\t// out\n        /* \"#utility.yul\":4032:4254   */\n    tag_56:\n        /* \"#utility.yul\":4125:4129   */\n      0x00\n        /* \"#utility.yul\":4163:4165   */\n      0x20\n        /* \"#utility.yul\":4152:4161   */\n      dup3\n        /* \"#utility.yul\":4148:4166   */\n      add\n        /* \"#utility.yul\":4140:4166   */\n      swap1\n      pop\n        /* \"#utility.yul\":4176:4247   */\n      tag_211\n        /* \"#utility.yul\":4244:4245   */\n      0x00\n        /* \"#utility.yul\":4233:4242   */\n      dup4\n        /* \"#utility.yul\":4229:4246   */\n      add\n        /* \"#utility.yul\":4220:4226   */\n      dup5\n        /* \"#utility.yul\":4176:4247   */\n      tag_136\n      jump\t// in\n    tag_211:\n        /* \"#utility.yul\":4032:4254   */\n      swap3\n      swap2\n      pop\n      pop\n      jump\t// out\n        /* \"#utility.yul\":4260:4429   */\n    tag_137:\n        /* \"#utility.yul\":4344:4355   */\n      0x00\n        /* \"#utility.yul\":4378:4384   */\n      dup3\n        /* \"#utility.yul\":4373:4376   */\n      dup3\n        /* \"#utility.yul\":4366:4385   */\n      mstore\n        /* \"#utility.yul\":4418:4422   */\n      0x20\n        /* \"#utility.yul\":4413:4416   */\n      dup3\n        /* \"#utility.yul\":4409:4423   */\n      add\n        /* \"#utility.yul\":4394:4423   */\n      swap1\n      pop\n        /* \"#utility.yul\":4260:4429   */\n      swap3\n      swap2\n      pop\n      pop\n      jump\t// out\n        /* \"#utility.yul\":4435:4604   */\n    tag_138:\n        /* \"#utility.yul\":4575:4596   */\n      0x446964206e6f742073656e6420656e6f75676800000000000000000000000000\n        /* \"#utility.yul\":4571:4572   */\n      0x00\n        /* \"#utility.yul\":4563:4569   */\n      dup3\n        /* \"#utility.yul\":4559:4573   */\n      add\n        /* \"#utility.yul\":4552:4597   */\n      mstore\n        /* \"#utility.yul\":4435:4604   */\n      pop\n      jump\t// out\n        /* \"#utility.yul\":4610:4976   */\n    tag_139:\n        /* \"#utility.yul\":4752:4755   */\n      0x00\n        /* \"#utility.yul\":4773:4840   */\n      tag_215\n        /* \"#utility.yul\":4837:4839   */\n      0x13\n        /* \"#utility.yul\":4832:4835   */\n      dup4\n        /* \"#utility.yul\":4773:4840   */\n      tag_137\n      jump\t// in\n    tag_215:\n        /* \"#utility.yul\":4766:4840   */\n      swap2\n      pop\n        /* \"#utility.yul\":4849:4942   */\n      tag_216\n        /* \"#utility.yul\":4938:4941   */\n      dup3\n        /* \"#utility.yul\":4849:4942   */\n      tag_138\n      jump\t// in\n    tag_216:\n        /* \"#utility.yul\":4967:4969   */\n      0x20\n        /* \"#utility.yul\":4962:4965   */\n      dup3\n        /* \"#utility.yul\":4958:4970   */\n      add\n        /* \"#utility.yul\":4951:4970   */\n      swap1\n      pop\n        /* \"#utility.yul\":4610:4976   */\n      swap2\n      swap1\n      pop\n      jump\t// out\n        /* \"#utility.yul\":4982:5401   */\n    tag_64:\n        /* \"#utility.yul\":5148:5152   */\n      0x00\n        /* \"#utility.yul\":5186:5188   */\n      0x20\n        /* \"#utility.yul\":5175:5184   */\n      dup3\n        /* \"#utility.yul\":5171:5189   */\n      add\n        /* \"#utility.yul\":5163:5189   */\n      swap1\n      pop\n        /* \"#utility.yul\":5235:5244   */\n      dup2\n        /* \"#utility.yul\":5229:5233   */\n      dup2\n        /* \"#utility.yul\":5225:5245   */\n      sub\n        /* \"#utility.yul\":5221:5222   */\n      0x00\n        /* \"#utility.yul\":5210:5219   */\n      dup4\n        /* \"#utility.yul\":5206:5223   */\n      add\n        /* \"#utility.yul\":5199:5246   */\n      mstore\n        /* \"#utility.yul\":5263:5394   */\n      tag_218\n        /* \"#utility.yul\":5389:5393   */\n      dup2\n        /* \"#utility.yul\":5263:5394   */\n      tag_139\n      jump\t// in\n    tag_218:\n        /* \"#utility.yul\":5255:5394   */\n      swap1\n      pop\n        /* \"#utility.yul\":4982:5401   */\n      swap2\n      swap1\n      pop\n      jump\t// out\n        /* \"#utility.yul\":5407:5554   */\n    tag_140:\n        /* \"#utility.yul\":5508:5519   */\n      0x00\n        /* \"#utility.yul\":5545:5548   */\n      dup2\n        /* \"#utility.yul\":5530:5548   */\n      swap1\n      pop\n        /* \"#utility.yul\":5407:5554   */\n      swap3\n      swap2\n      pop\n      pop\n      jump\t// out\n        /* \"#utility.yul\":5560:5674   */\n    tag_141:\n      pop\n      jump\t// out\n        /* \"#utility.yul\":5680:6078   */\n    tag_142:\n        /* \"#utility.yul\":5839:5842   */\n      0x00\n        /* \"#utility.yul\":5860:5943   */\n      tag_222\n        /* \"#utility.yul\":5941:5942   */\n      0x00\n        /* \"#utility.yul\":5936:5939   */\n      dup4\n        /* \"#utility.yul\":5860:5943   */\n      tag_140\n      jump\t// in\n    tag_222:\n        /* \"#utility.yul\":5853:5943   */\n      swap2\n      pop\n        /* \"#utility.yul\":5952:6045   */\n      tag_223\n        /* \"#utility.yul\":6041:6044   */\n      dup3\n        /* \"#utility.yul\":5952:6045   */\n      tag_141\n      jump\t// in\n    tag_223:\n        /* \"#utility.yul\":6070:6071   */\n      0x00\n        /* \"#utility.yul\":6065:6068   */\n      dup3\n        /* \"#utility.yul\":6061:6072   */\n      add\n        /* \"#utility.yul\":6054:6072   */\n      swap1\n      pop\n        /* \"#utility.yul\":5680:6078   */\n      swap2\n      swap1\n      pop\n      jump\t// out\n        /* \"#utility.yul\":6084:6463   */\n    tag_67:\n        /* \"#utility.yul\":6268:6271   */\n      0x00\n        /* \"#utility.yul\":6290:6437   */\n      tag_225\n        /* \"#utility.yul\":6433:6436   */\n      dup3\n        /* \"#utility.yul\":6290:6437   */\n      tag_142\n      jump\t// in\n    tag_225:\n        /* \"#utility.yul\":6283:6437   */\n      swap2\n      pop\n        /* \"#utility.yul\":6454:6457   */\n      dup2\n        /* \"#utility.yul\":6447:6457   */\n      swap1\n      pop\n        /* \"#utility.yul\":6084:6463   */\n      swap2\n      swap1\n      pop\n      jump\t// out\n        /* \"#utility.yul\":6469:6630   */\n    tag_143:\n        /* \"#utility.yul\":6609:6622   */\n      0x43616c6c204661696c6564000000000000000000000000000000000000000000\n        /* \"#utility.yul\":6605:6606   */\n      0x00\n        /* \"#utility.yul\":6597:6603   */\n      dup3\n        /* \"#utility.yul\":6593:6607   */\n      add\n        /* \"#utility.yul\":6586:6623   */\n      mstore\n        /* \"#utility.yul\":6469:6630   */\n      pop\n      jump\t// out\n        /* \"#utility.yul\":6636:7002   */\n    tag_144:\n        /* \"#utility.yul\":6778:6781   */\n      0x00\n        /* \"#utility.yul\":6799:6866   */\n      tag_228\n        /* \"#utility.yul\":6863:6865   */\n      0x0b\n        /* \"#utility.yul\":6858:6861   */\n      dup4\n        /* \"#utility.yul\":6799:6866   */\n      tag_137\n      jump\t// in\n    tag_228:\n        /* \"#utility.yul\":6792:6866   */\n      swap2\n      pop\n        /* \"#utility.yul\":6875:6968   */\n      tag_229\n        /* \"#utility.yul\":6964:6967   */\n      dup3\n        /* \"#utility.yul\":6875:6968   */\n      tag_143\n      jump\t// in\n    tag_229:\n        /* \"#utility.yul\":6993:6995   */\n      0x20\n        /* \"#utility.yul\":6988:6991   */\n      dup3\n        /* \"#utility.yul\":6984:6996   */\n      add\n        /* \"#utility.yul\":6977:6996   */\n      swap1\n      pop\n        /* \"#utility.yul\":6636:7002   */\n      swap2\n      swap1\n      pop\n      jump\t// out\n        /* \"#utility.yul\":7008:7427   */\n    tag_73:\n        /* \"#utility.yul\":7174:7178   */\n      0x00\n        /* \"#utility.yul\":7212:7214   */\n      0x20\n        /* \"#utility.yul\":7201:7210   */\n      dup3\n        /* \"#utility.yul\":7197:7215   */\n      add\n        /* \"#utility.yul\":7189:7215   */\n      swap1\n      pop\n        /* \"#utility.yul\":7261:7270   */\n      dup2\n        /* \"#utility.yul\":7255:7259   */\n      dup2\n        /* \"#utility.yul\":7251:7271   */\n      sub\n        /* \"#utility.yul\":7247:7248   */\n      0x00\n        /* \"#utility.yul\":7236:7245   */\n      dup4\n        /* \"#utility.yul\":7232:7249   */\n      add\n        /* \"#utility.yul\":7225:7272   */\n      mstore\n        /* \"#utility.yul\":7289:7420   */\n      tag_231\n        /* \"#utility.yul\":7415:7419   */\n      dup2\n        /* \"#utility.yul\":7289:7420   */\n      tag_144\n      jump\t// in\n    tag_231:\n        /* \"#utility.yul\":7281:7420   */\n      swap1\n      pop\n        /* \"#utility.yul\":7008:7427   */\n      swap2\n      swap1\n      pop\n      jump\t// out\n        /* \"#utility.yul\":7433:7671   */\n    tag_145:\n        /* \"#utility.yul\":7573:7607   */\n      0x4f6e6c792074686520636f6e7472616374206f776e65722063616e2064697374\n        /* \"#utility.yul\":7569:7570   */\n      0x00\n        /* \"#utility.yul\":7561:7567   */\n      dup3\n        /* \"#utility.yul\":7557:7571   */\n      add\n        /* \"#utility.yul\":7550:7608   */\n      mstore\n        /* \"#utility.yul\":7642:7663   */\n      0x72696275746520696e6865726974616e63652e00000000000000000000000000\n        /* \"#utility.yul\":7637:7639   */\n      0x20\n        /* \"#utility.yul\":7629:7635   */\n      dup3\n        /* \"#utility.yul\":7625:7640   */\n      add\n        /* \"#utility.yul\":7618:7664   */\n      mstore\n        /* \"#utility.yul\":7433:7671   */\n      pop\n      jump\t// out\n        /* \"#utility.yul\":7677:8043   */\n    tag_146:\n        /* \"#utility.yul\":7819:7822   */\n      0x00\n        /* \"#utility.yul\":7840:7907   */\n      tag_234\n        /* \"#utility.yul\":7904:7906   */\n      0x33\n        /* \"#utility.yul\":7899:7902   */\n      dup4\n        /* \"#utility.yul\":7840:7907   */\n      tag_137\n      jump\t// in\n    tag_234:\n        /* \"#utility.yul\":7833:7907   */\n      swap2\n      pop\n        /* \"#utility.yul\":7916:8009   */\n      tag_235\n        /* \"#utility.yul\":8005:8008   */\n      dup3\n        /* \"#utility.yul\":7916:8009   */\n      tag_145\n      jump\t// in\n    tag_235:\n        /* \"#utility.yul\":8034:8036   */\n      0x40\n        /* \"#utility.yul\":8029:8032   */\n      dup3\n        /* \"#utility.yul\":8025:8037   */\n      add\n        /* \"#utility.yul\":8018:8037   */\n      swap1\n      pop\n        /* \"#utility.yul\":7677:8043   */\n      swap2\n      swap1\n      pop\n      jump\t// out\n        /* \"#utility.yul\":8049:8468   */\n    tag_77:\n        /* \"#utility.yul\":8215:8219   */\n      0x00\n        /* \"#utility.yul\":8253:8255   */\n      0x20\n        /* \"#utility.yul\":8242:8251   */\n      dup3\n        /* \"#utility.yul\":8238:8256   */\n      add\n        /* \"#utility.yul\":8230:8256   */\n      swap1\n      pop\n        /* \"#utility.yul\":8302:8311   */\n      dup2\n        /* \"#utility.yul\":8296:8300   */\n      dup2\n        /* \"#utility.yul\":8292:8312   */\n      sub\n        /* \"#utility.yul\":8288:8289   */\n      0x00\n        /* \"#utility.yul\":8277:8286   */\n      dup4\n        /* \"#utility.yul\":8273:8290   */\n      add\n        /* \"#utility.yul\":8266:8313   */\n      mstore\n        /* \"#utility.yul\":8330:8461   */\n      tag_237\n        /* \"#utility.yul\":8456:8460   */\n      dup2\n        /* \"#utility.yul\":8330:8461   */\n      tag_146\n      jump\t// in\n    tag_237:\n        /* \"#utility.yul\":8322:8461   */\n      swap1\n      pop\n        /* \"#utility.yul\":8049:8468   */\n      swap2\n      swap1\n      pop\n      jump\t// out\n        /* \"#utility.yul\":8474:8644   */\n    tag_147:\n        /* \"#utility.yul\":8614:8636   */\n      0x4e6f20696e68657269746f72732061646465642e000000000000000000000000\n        /* \"#utility.yul\":8610:8611   */\n      0x00\n        /* \"#utility.yul\":8602:8608   */\n      dup3\n        /* \"#utility.yul\":8598:8612   */\n      add\n        /* \"#utility.yul\":8591:8637   */\n      mstore\n        /* \"#utility.yul\":8474:8644   */\n      pop\n      jump\t// out\n        /* \"#utility.yul\":8650:9016   */\n    tag_148:\n        /* \"#utility.yul\":8792:8795   */\n      0x00\n        /* \"#utility.yul\":8813:8880   */\n      tag_240\n        /* \"#utility.yul\":8877:8879   */\n      0x14\n        /* \"#utility.yul\":8872:8875   */\n      dup4\n        /* \"#utility.yul\":8813:8880   */\n      tag_137\n      jump\t// in\n    tag_240:\n        /* \"#utility.yul\":8806:8880   */\n      swap2\n      pop\n        /* \"#utility.yul\":8889:8982   */\n      tag_241\n        /* \"#utility.yul\":8978:8981   */\n      dup3\n        /* \"#utility.yul\":8889:8982   */\n      tag_147\n      jump\t// in\n    tag_241:\n        /* \"#utility.yul\":9007:9009   */\n      0x20\n        /* \"#utility.yul\":9002:9005   */\n      dup3\n        /* \"#utility.yul\":8998:9010   */\n      add\n        /* \"#utility.yul\":8991:9010   */\n      swap1\n      pop\n        /* \"#utility.yul\":8650:9016   */\n      swap2\n      swap1\n      pop\n      jump\t// out\n        /* \"#utility.yul\":9022:9441   */\n    tag_80:\n        /* \"#utility.yul\":9188:9192   */\n      0x00\n        /* \"#utility.yul\":9226:9228   */\n      0x20\n        /* \"#utility.yul\":9215:9224   */\n      dup3\n        /* \"#utility.yul\":9211:9229   */\n      add\n        /* \"#utility.yul\":9203:9229   */\n      swap1\n      pop\n        /* \"#utility.yul\":9275:9284   */\n      dup2\n        /* \"#utility.yul\":9269:9273   */\n      dup2\n        /* \"#utility.yul\":9265:9285   */\n      sub\n        /* \"#utility.yul\":9261:9262   */\n      0x00\n        /* \"#utility.yul\":9250:9259   */\n      dup4\n        /* \"#utility.yul\":9246:9263   */\n      add\n        /* \"#utility.yul\":9239:9286   */\n      mstore\n        /* \"#utility.yul\":9303:9434   */\n      tag_243\n        /* \"#utility.yul\":9429:9433   */\n      dup2\n        /* \"#utility.yul\":9303:9434   */\n      tag_148\n      jump\t// in\n    tag_243:\n        /* \"#utility.yul\":9295:9434   */\n      swap1\n      pop\n        /* \"#utility.yul\":9022:9441   */\n      swap2\n      swap1\n      pop\n      jump\t// out\n        /* \"#utility.yul\":9447:9628   */\n    tag_149:\n        /* \"#utility.yul\":9587:9620   */\n      0x4e6f20696e6865726974616e636520616d6f756e742070726f76696465642e00\n        /* \"#utility.yul\":9583:9584   */\n      0x00\n        /* \"#utility.yul\":9575:9581   */\n      dup3\n        /* \"#utility.yul\":9571:9585   */\n      add\n        /* \"#utility.yul\":9564:9621   */\n      mstore\n        /* \"#utility.yul\":9447:9628   */\n      pop\n      jump\t// out\n        /* \"#utility.yul\":9634:10000   */\n    tag_150:\n        /* \"#utility.yul\":9776:9779   */\n      0x00\n        /* \"#utility.yul\":9797:9864   */\n      tag_246\n        /* \"#utility.yul\":9861:9863   */\n      0x1f\n        /* \"#utility.yul\":9856:9859   */\n      dup4\n        /* \"#utility.yul\":9797:9864   */\n      tag_137\n      jump\t// in\n    tag_246:\n        /* \"#utility.yul\":9790:9864   */\n      swap2\n      pop\n        /* \"#utility.yul\":9873:9966   */\n      tag_247\n        /* \"#utility.yul\":9962:9965   */\n      dup3\n        /* \"#utility.yul\":9873:9966   */\n      tag_149\n      jump\t// in\n    tag_247:\n        /* \"#utility.yul\":9991:9993   */\n      0x20\n        /* \"#utility.yul\":9986:9989   */\n      dup3\n        /* \"#utility.yul\":9982:9994   */\n      add\n        /* \"#utility.yul\":9975:9994   */\n      swap1\n      pop\n        /* \"#utility.yul\":9634:10000   */\n      swap2\n      swap1\n      pop\n      jump\t// out\n        /* \"#utility.yul\":10006:10425   */\n    tag_83:\n        /* \"#utility.yul\":10172:10176   */\n      0x00\n        /* \"#utility.yul\":10210:10212   */\n      0x20\n        /* \"#utility.yul\":10199:10208   */\n      dup3\n        /* \"#utility.yul\":10195:10213   */\n      add\n        /* \"#utility.yul\":10187:10213   */\n      swap1\n      pop\n        /* \"#utility.yul\":10259:10268   */\n      dup2\n        /* \"#utility.yul\":10253:10257   */\n      dup2\n        /* \"#utility.yul\":10249:10269   */\n      sub\n        /* \"#utility.yul\":10245:10246   */\n      0x00\n        /* \"#utility.yul\":10234:10243   */\n      dup4\n        /* \"#utility.yul\":10230:10247   */\n      add\n        /* \"#utility.yul\":10223:10270   */\n      mstore\n        /* \"#utility.yul\":10287:10418   */\n      tag_249\n        /* \"#utility.yul\":10413:10417   */\n      dup2\n        /* \"#utility.yul\":10287:10418   */\n      tag_150\n      jump\t// in\n    tag_249:\n        /* \"#utility.yul\":10279:10418   */\n      swap1\n      pop\n        /* \"#utility.yul\":10006:10425   */\n      swap2\n      swap1\n      pop\n      jump\t// out\n        /* \"#utility.yul\":10431:10611   */\n    tag_89:\n        /* \"#utility.yul\":10479:10556   */\n      0x4e487b7100000000000000000000000000000000000000000000000000000000\n        /* \"#utility.yul\":10476:10477   */\n      0x00\n        /* \"#utility.yul\":10469:10557   */\n      mstore\n        /* \"#utility.yul\":10576:10580   */\n      0x32\n        /* \"#utility.yul\":10573:10574   */\n      0x04\n        /* \"#utility.yul\":10566:10581   */\n      mstore\n        /* \"#utility.yul\":10600:10604   */\n      0x24\n        /* \"#utility.yul\":10597:10598   */\n      0x00\n        /* \"#utility.yul\":10590:10605   */\n      revert\n        /* \"#utility.yul\":10617:10797   */\n    tag_151:\n        /* \"#utility.yul\":10665:10742   */\n      0x4e487b7100000000000000000000000000000000000000000000000000000000\n        /* \"#utility.yul\":10662:10663   */\n      0x00\n        /* \"#utility.yul\":10655:10743   */\n      mstore\n        /* \"#utility.yul\":10762:10766   */\n      0x11\n        /* \"#utility.yul\":10759:10760   */\n      0x04\n        /* \"#utility.yul\":10752:10767   */\n      mstore\n        /* \"#utility.yul\":10786:10790   */\n      0x24\n        /* \"#utility.yul\":10783:10784   */\n      0x00\n        /* \"#utility.yul\":10776:10791   */\n      revert\n        /* \"#utility.yul\":10803:11213   */\n    tag_92:\n        /* \"#utility.yul\":10843:10850   */\n      0x00\n        /* \"#utility.yul\":10866:10886   */\n      tag_253\n        /* \"#utility.yul\":10884:10885   */\n      dup3\n        /* \"#utility.yul\":10866:10886   */\n      tag_130\n      jump\t// in\n    tag_253:\n        /* \"#utility.yul\":10861:10886   */\n      swap2\n      pop\n        /* \"#utility.yul\":10900:10920   */\n      tag_254\n        /* \"#utility.yul\":10918:10919   */\n      dup4\n        /* \"#utility.yul\":10900:10920   */\n      tag_130\n      jump\t// in\n    tag_254:\n        /* \"#utility.yul\":10895:10920   */\n      swap3\n      pop\n        /* \"#utility.yul\":10955:10956   */\n      dup3\n        /* \"#utility.yul\":10952:10953   */\n      dup3\n        /* \"#utility.yul\":10948:10957   */\n      mul\n        /* \"#utility.yul\":10977:11007   */\n      tag_255\n        /* \"#utility.yul\":10995:11006   */\n      dup2\n        /* \"#utility.yul\":10977:11007   */\n      tag_130\n      jump\t// in\n    tag_255:\n        /* \"#utility.yul\":10966:11007   */\n      swap2\n      pop\n        /* \"#utility.yul\":11156:11157   */\n      dup3\n        /* \"#utility.yul\":11147:11154   */\n      dup3\n        /* \"#utility.yul\":11143:11158   */\n      div\n        /* \"#utility.yul\":11140:11141   */\n      dup5\n        /* \"#utility.yul\":11137:11159   */\n      eq\n        /* \"#utility.yul\":11117:11118   */\n      dup4\n        /* \"#utility.yul\":11110:11119   */\n      iszero\n        /* \"#utility.yul\":11090:11173   */\n      or\n        /* \"#utility.yul\":11067:11206   */\n      tag_256\n      jumpi\n        /* \"#utility.yul\":11186:11204   */\n      tag_257\n      tag_151\n      jump\t// in\n    tag_257:\n        /* \"#utility.yul\":11067:11206   */\n    tag_256:\n        /* \"#utility.yul\":10851:11213   */\n      pop\n        /* \"#utility.yul\":10803:11213   */\n      swap3\n      swap2\n      pop\n      pop\n      jump\t// out\n        /* \"#utility.yul\":11219:11399   */\n    tag_152:\n        /* \"#utility.yul\":11267:11344   */\n      0x4e487b7100000000000000000000000000000000000000000000000000000000\n        /* \"#utility.yul\":11264:11265   */\n      0x00\n        /* \"#utility.yul\":11257:11345   */\n      mstore\n        /* \"#utility.yul\":11364:11368   */\n      0x12\n        /* \"#utility.yul\":11361:11362   */\n      0x04\n        /* \"#utility.yul\":11354:11369   */\n      mstore\n        /* \"#utility.yul\":11388:11392   */\n      0x24\n        /* \"#utility.yul\":11385:11386   */\n      0x00\n        /* \"#utility.yul\":11378:11393   */\n      revert\n        /* \"#utility.yul\":11405:11590   */\n    tag_94:\n        /* \"#utility.yul\":11445:11446   */\n      0x00\n        /* \"#utility.yul\":11462:11482   */\n      tag_260\n        /* \"#utility.yul\":11480:11481   */\n      dup3\n        /* \"#utility.yul\":11462:11482   */\n      tag_130\n      jump\t// in\n    tag_260:\n        /* \"#utility.yul\":11457:11482   */\n      swap2\n      pop\n        /* \"#utility.yul\":11496:11516   */\n      tag_261\n        /* \"#utility.yul\":11514:11515   */\n      dup4\n        /* \"#utility.yul\":11496:11516   */\n      tag_130\n      jump\t// in\n    tag_261:\n        /* \"#utility.yul\":11491:11516   */\n      swap3\n      pop\n        /* \"#utility.yul\":11535:11536   */\n      dup3\n        /* \"#utility.yul\":11525:11560   */\n      tag_262\n      jumpi\n        /* \"#utility.yul\":11540:11558   */\n      tag_263\n      tag_152\n      jump\t// in\n    tag_263:\n        /* \"#utility.yul\":11525:11560   */\n    tag_262:\n        /* \"#utility.yul\":11582:11583   */\n      dup3\n        /* \"#utility.yul\":11579:11580   */\n      dup3\n        /* \"#utility.yul\":11575:11584   */\n      div\n        /* \"#utility.yul\":11570:11584   */\n      swap1\n      pop\n        /* \"#utility.yul\":11405:11590   */\n      swap3\n      swap2\n      pop\n      pop\n      jump\t// out\n        /* \"#utility.yul\":11596:11829   */\n    tag_105:\n        /* \"#utility.yul\":11635:11638   */\n      0x00\n        /* \"#utility.yul\":11658:11682   */\n      tag_265\n        /* \"#utility.yul\":11676:11681   */\n      dup3\n        /* \"#utility.yul\":11658:11682   */\n      tag_130\n      jump\t// in\n    tag_265:\n        /* \"#utility.yul\":11649:11682   */\n      swap2\n      pop\n        /* \"#utility.yul\":11704:11770   */\n      0xffffffffffffffffffffffffffffffffffffffffffffffffffffffffffffffff\n        /* \"#utility.yul\":11697:11702   */\n      dup3\n        /* \"#utility.yul\":11694:11771   */\n      sub\n        /* \"#utility.yul\":11691:11794   */\n      tag_266\n      jumpi\n        /* \"#utility.yul\":11774:11792   */\n      tag_267\n      tag_151\n      jump\t// in\n    tag_267:\n        /* \"#utility.yul\":11691:11794   */\n    tag_266:\n        /* \"#utility.yul\":11821:11822   */\n      0x01\n        /* \"#utility.yul\":11814:11819   */\n      dup3\n        /* \"#utility.yul\":11810:11823   */\n      add\n        /* \"#utility.yul\":11803:11823   */\n      swap1\n      pop\n        /* \"#utility.yul\":11596:11829   */\n      swap2\n      swap1\n      pop\n      jump\t// out\n        /* \"#utility.yul\":11835:12065   */\n    tag_153:\n        /* \"#utility.yul\":11975:12009   */\n      0x4f6e6c792074686520636f6e7472616374206f776e65722063616e2061646420\n        /* \"#utility.yul\":11971:11972   */\n      0x00\n        /* \"#utility.yul\":11963:11969   */\n      dup3\n        /* \"#utility.yul\":11959:11973   */\n      add\n        /* \"#utility.yul\":11952:12010   */\n      mstore\n        /* \"#utility.yul\":12044:12057   */\n      0x696e68657269746f72732e000000000000000000000000000000000000000000\n        /* \"#utility.yul\":12039:12041   */\n      0x20\n        /* \"#utility.yul\":12031:12037   */\n      dup3\n        /* \"#utility.yul\":12027:12042   */\n      add\n        /* \"#utility.yul\":12020:12058   */\n      mstore\n        /* \"#utility.yul\":11835:12065   */\n      pop\n      jump\t// out\n        /* \"#utility.yul\":12071:12437   */\n    tag_154:\n        /* \"#utility.yul\":12213:12216   */\n      0x00\n        /* \"#utility.yul\":12234:12301   */\n      tag_270\n        /* \"#utility.yul\":12298:12300   */\n      0x2b\n        /* \"#utility.yul\":12293:12296   */\n      dup4\n        /* \"#utility.yul\":12234:12301   */\n      tag_137\n      jump\t// in\n    tag_270:\n        /* \"#utility.yul\":12227:12301   */\n      swap2\n      pop\n        /* \"#utility.yul\":12310:12403   */\n      tag_271\n        /* \"#utility.yul\":12399:12402   */\n      dup3\n        /* \"#utility.yul\":12310:12403   */\n      tag_153\n      jump\t// in\n    tag_271:\n        /* \"#utility.yul\":12428:12430   */\n      0x40\n        /* \"#utility.yul\":12423:12426   */\n      dup3\n        /* \"#utility.yul\":12419:12431   */\n      add\n        /* \"#utility.yul\":12412:12431   */\n      swap1\n      pop\n        /* \"#utility.yul\":12071:12437   */\n      swap2\n      swap1\n      pop\n      jump\t// out\n        /* \"#utility.yul\":12443:12862   */\n    tag_110:\n        /* \"#utility.yul\":12609:12613   */\n      0x00\n        /* \"#utility.yul\":12647:12649   */\n      0x20\n        /* \"#utility.yul\":12636:12645   */\n      dup3\n        /* \"#utility.yul\":12632:12650   */\n      add\n        /* \"#utility.yul\":12624:12650   */\n      swap1\n      pop\n        /* \"#utility.yul\":12696:12705   */\n      dup2\n        /* \"#utility.yul\":12690:12694   */\n      dup2\n        /* \"#utility.yul\":12686:12706   */\n      sub\n        /* \"#utility.yul\":12682:12683   */\n      0x00\n        /* \"#utility.yul\":12671:12680   */\n      dup4\n        /* \"#utility.yul\":12667:12684   */\n      add\n        /* \"#utility.yul\":12660:12707   */\n      mstore\n        /* \"#utility.yul\":12724:12855   */\n      tag_273\n        /* \"#utility.yul\":12850:12854   */\n      dup2\n        /* \"#utility.yul\":12724:12855   */\n      tag_154\n      jump\t// in\n    tag_273:\n        /* \"#utility.yul\":12716:12855   */\n      swap1\n      pop\n        /* \"#utility.yul\":12443:12862   */\n      swap2\n      swap1\n      pop\n      jump\t// out\n        /* \"#utility.yul\":12868:13092   */\n    tag_155:\n        /* \"#utility.yul\":13008:13042   */\n      0x50657263656e74616765206d757374206265206265747765656e203120616e64\n        /* \"#utility.yul\":13004:13005   */\n      0x00\n        /* \"#utility.yul\":12996:13002   */\n      dup3\n        /* \"#utility.yul\":12992:13006   */\n      add\n        /* \"#utility.yul\":12985:13043   */\n      mstore\n        /* \"#utility.yul\":13077:13084   */\n      0x203130302e000000000000000000000000000000000000000000000000000000\n        /* \"#utility.yul\":13072:13074   */\n      0x20\n        /* \"#utility.yul\":13064:13070   */\n      dup3\n        /* \"#utility.yul\":13060:13075   */\n      add\n        /* \"#utility.yul\":13053:13085   */\n      mstore\n        /* \"#utility.yul\":12868:13092   */\n      pop\n      jump\t// out\n        /* \"#utility.yul\":13098:13464   */\n    tag_156:\n        /* \"#utility.yul\":13240:13243   */\n      0x00\n        /* \"#utility.yul\":13261:13328   */\n      tag_276\n        /* \"#utility.yul\":13325:13327   */\n      0x25\n        /* \"#utility.yul\":13320:13323   */\n      dup4\n        /* \"#utility.yul\":13261:13328   */\n      tag_137\n      jump\t// in\n    tag_276:\n        /* \"#utility.yul\":13254:13328   */\n      swap2\n      pop\n        /* \"#utility.yul\":13337:13430   */\n      tag_277\n        /* \"#utility.yul\":13426:13429   */\n      dup3\n        /* \"#utility.yul\":13337:13430   */\n      tag_155\n      jump\t// in\n    tag_277:\n        /* \"#utility.yul\":13455:13457   */\n      0x40\n        /* \"#utility.yul\":13450:13453   */\n      dup3\n        /* \"#utility.yul\":13446:13458   */\n      add\n        /* \"#utility.yul\":13439:13458   */\n      swap1\n      pop\n        /* \"#utility.yul\":13098:13464   */\n      swap2\n      swap1\n      pop\n      jump\t// out\n        /* \"#utility.yul\":13470:13889   */\n    tag_114:\n        /* \"#utility.yul\":13636:13640   */\n      0x00\n        /* \"#utility.yul\":13674:13676   */\n      0x20\n        /* \"#utility.yul\":13663:13672   */\n      dup3\n        /* \"#utility.yul\":13659:13677   */\n      add\n        /* \"#utility.yul\":13651:13677   */\n      swap1\n      pop\n        /* \"#utility.yul\":13723:13732   */\n      dup2\n        /* \"#utility.yul\":13717:13721   */\n      dup2\n        /* \"#utility.yul\":13713:13733   */\n      sub\n        /* \"#utility.yul\":13709:13710   */\n      0x00\n        /* \"#utility.yul\":13698:13707   */\n      dup4\n        /* \"#utility.yul\":13694:13711   */\n      add\n        /* \"#utility.yul\":13687:13734   */\n      mstore\n        /* \"#utility.yul\":13751:13882   */\n      tag_279\n        /* \"#utility.yul\":13877:13881   */\n      dup2\n        /* \"#utility.yul\":13751:13882   */\n      tag_156\n      jump\t// in\n    tag_279:\n        /* \"#utility.yul\":13743:13882   */\n      swap1\n      pop\n        /* \"#utility.yul\":13470:13889   */\n      swap2\n      swap1\n      pop\n      jump\t// out\n        /* \"#utility.yul\":13895:14070   */\n    tag_157:\n        /* \"#utility.yul\":14035:14062   */\n      0x696e68657269746f7220616c7265616479206578697374732e00000000000000\n        /* \"#utility.yul\":14031:14032   */\n      0x00\n        /* \"#utility.yul\":14023:14029   */\n      dup3\n        /* \"#utility.yul\":14019:14033   */\n      add\n        /* \"#utility.yul\":14012:14063   */\n      mstore\n        /* \"#utility.yul\":13895:14070   */\n      pop\n      jump\t// out\n        /* \"#utility.yul\":14076:14442   */\n    tag_158:\n        /* \"#utility.yul\":14218:14221   */\n      0x00\n        /* \"#utility.yul\":14239:14306   */\n      tag_282\n        /* \"#utility.yul\":14303:14305   */\n      0x19\n        /* \"#utility.yul\":14298:14301   */\n      dup4\n        /* \"#utility.yul\":14239:14306   */\n      tag_137\n      jump\t// in\n    tag_282:\n        /* \"#utility.yul\":14232:14306   */\n      swap2\n      pop\n        /* \"#utility.yul\":14315:14408   */\n      tag_283\n        /* \"#utility.yul\":14404:14407   */\n      dup3\n        /* \"#utility.yul\":14315:14408   */\n      tag_157\n      jump\t// in\n    tag_283:\n        /* \"#utility.yul\":14433:14435   */\n      0x20\n        /* \"#utility.yul\":14428:14431   */\n      dup3\n        /* \"#utility.yul\":14424:14436   */\n      add\n        /* \"#utility.yul\":14417:14436   */\n      swap1\n      pop\n        /* \"#utility.yul\":14076:14442   */\n      swap2\n      swap1\n      pop\n      jump\t// out\n        /* \"#utility.yul\":14448:14867   */\n    tag_117:\n        /* \"#utility.yul\":14614:14618   */\n      0x00\n        /* \"#utility.yul\":14652:14654   */\n      0x20\n        /* \"#utility.yul\":14641:14650   */\n      dup3\n        /* \"#utility.yul\":14637:14655   */\n      add\n        /* \"#utility.yul\":14629:14655   */\n      swap1\n      pop\n        /* \"#utility.yul\":14701:14710   */\n      dup2\n        /* \"#utility.yul\":14695:14699   */\n      dup2\n        /* \"#utility.yul\":14691:14711   */\n      sub\n        /* \"#utility.yul\":14687:14688   */\n      0x00\n        /* \"#utility.yul\":14676:14685   */\n      dup4\n        /* \"#utility.yul\":14672:14689   */\n      add\n        /* \"#utility.yul\":14665:14712   */\n      mstore\n        /* \"#utility.yul\":14729:14860   */\n      tag_285\n        /* \"#utility.yul\":14855:14859   */\n      dup2\n        /* \"#utility.yul\":14729:14860   */\n      tag_158\n      jump\t// in\n    tag_285:\n        /* \"#utility.yul\":14721:14860   */\n      swap1\n      pop\n        /* \"#utility.yul\":14448:14867   */\n      swap2\n      swap1\n      pop\n      jump\t// out\n\n    auxdata: 0xa264697066735822122021ec6a88bb3ae3ed9c76efd01dd3af0e79da807559e3702ed11d2e79bf0f07cb64736f6c63430008120033\n}\n",
				"bytecode": {
					"linkReferences": {},
					"object": "60806040523480156200001157600080fd5b5060405162001d1638038062001d168339818101604052810190620000379190620007b2565b80518251146200007e576040517f08c379a0000000000000000000000000000000000000000000000000000000008152600401620000759062000898565b60405180910390fd5b30600360006101000a81548173ffffffffffffffffffffffffffffffffffffffff021916908373ffffffffffffffffffffffffffffffffffffffff16021790555033600260006101000a81548173ffffffffffffffffffffffffffffffffffffffff021916908373ffffffffffffffffffffffffffffffffffffffff1602179055506000805b835181101562000463576000838281518110620001265762000125620008ba565b5b60200260200101511180156200015a575060648382815181106200014f576200014e620008ba565b5b602002602001015111155b6200019c576040517f08c379a000000000000000000000000000000000000000000000000000000000815260040162000193906200095f565b60405180910390fd5b600073ffffffffffffffffffffffffffffffffffffffff16600080868481518110620001cd57620001cc620008ba565b5b602002602001015173ffffffffffffffffffffffffffffffffffffffff1673ffffffffffffffffffffffffffffffffffffffff16815260200190815260200160002060000160009054906101000a900473ffffffffffffffffffffffffffffffffffffffff1673ffffffffffffffffffffffffffffffffffffffff16146200028c576040517f08c379a00000000000000000000000000000000000000000000000000000000081526004016200028390620009d1565b60405180910390fd5b6040518060400160405280858381518110620002ad57620002ac620008ba565b5b602002602001015173ffffffffffffffffffffffffffffffffffffffff168152602001848381518110620002e657620002e5620008ba565b5b60200260200101518152506000808684815181106200030a5762000309620008ba565b5b602002602001015173ffffffffffffffffffffffffffffffffffffffff1673ffffffffffffffffffffffffffffffffffffffff16815260200190815260200160002060008201518160000160006101000a81548173ffffffffffffffffffffffffffffffffffffffff021916908373ffffffffffffffffffffffffffffffffffffffff160217905550602082015181600101559050506001848281518110620003b857620003b7620008ba565b5b60200260200101519080600181540180825580915050600190039060005260206000200160009091909190916101000a81548173ffffffffffffffffffffffffffffffffffffffff021916908373ffffffffffffffffffffffffffffffffffffffff160217905550828181518110620004365762000435620008ba565b5b6020026020010151826200044b919062000a22565b915080806200045a9062000a5d565b91505062000104565b5060648114620004aa576040517f08c379a0000000000000000000000000000000000000000000000000000000008152600401620004a19062000b20565b60405180910390fd5b50505062000b42565b6000604051905090565b600080fd5b600080fd5b600080fd5b6000601f19601f8301169050919050565b7f4e487b7100000000000000000000000000000000000000000000000000000000600052604160045260246000fd5b6200051782620004cc565b810181811067ffffffffffffffff82111715620005395762000538620004dd565b5b80604052505050565b60006200054e620004b3565b90506200055c82826200050c565b919050565b600067ffffffffffffffff8211156200057f576200057e620004dd565b5b602082029050602081019050919050565b600080fd5b600073ffffffffffffffffffffffffffffffffffffffff82169050919050565b6000620005c28262000595565b9050919050565b620005d481620005b5565b8114620005e057600080fd5b50565b600081519050620005f481620005c9565b92915050565b6000620006116200060b8462000561565b62000542565b9050808382526020820190506020840283018581111562000637576200063662000590565b5b835b818110156200066457806200064f8882620005e3565b84526020840193505060208101905062000639565b5050509392505050565b600082601f830112620006865762000685620004c7565b5b815162000698848260208601620005fa565b91505092915050565b600067ffffffffffffffff821115620006bf57620006be620004dd565b5b602082029050602081019050919050565b6000819050919050565b620006e581620006d0565b8114620006f157600080fd5b50565b6000815190506200070581620006da565b92915050565b6000620007226200071c84620006a1565b62000542565b9050808382526020820190506020840283018581111562000748576200074762000590565b5b835b81811015620007755780620007608882620006f4565b8452602084019350506020810190506200074a565b5050509392505050565b600082601f830112620007975762000796620004c7565b5b8151620007a98482602086016200070b565b91505092915050565b60008060408385031215620007cc57620007cb620004bd565b5b600083015167ffffffffffffffff811115620007ed57620007ec620004c2565b5b620007fb858286016200066e565b925050602083015167ffffffffffffffff8111156200081f576200081e620004c2565b5b6200082d858286016200077f565b9150509250929050565b600082825260208201905092915050565b7f496e76616c696420696e707574206c656e677468732e00000000000000000000600082015250565b60006200088060168362000837565b91506200088d8262000848565b602082019050919050565b60006020820190508181036000830152620008b38162000871565b9050919050565b7f4e487b7100000000000000000000000000000000000000000000000000000000600052603260045260246000fd5b7f50657263656e74616765206d757374206265206265747765656e203120616e6460008201527f203130302e000000000000000000000000000000000000000000000000000000602082015250565b60006200094760258362000837565b91506200095482620008e9565b604082019050919050565b600060208201905081810360008301526200097a8162000938565b9050919050565b7f42656e656669636961727920616c7265616479206578697374732e0000000000600082015250565b6000620009b9601b8362000837565b9150620009c68262000981565b602082019050919050565b60006020820190508181036000830152620009ec81620009aa565b9050919050565b7f4e487b7100000000000000000000000000000000000000000000000000000000600052601160045260246000fd5b600062000a2f82620006d0565b915062000a3c83620006d0565b925082820190508082111562000a575762000a56620009f3565b5b92915050565b600062000a6a82620006d0565b91507fffffffffffffffffffffffffffffffffffffffffffffffffffffffffffffffff820362000a9f5762000a9e620009f3565b5b600182019050919050565b7f546f74616c2070657263656e74616765206f6620696e68657269746f7273206d60008201527f757374206265203130302e000000000000000000000000000000000000000000602082015250565b600062000b08602b8362000837565b915062000b158262000aaa565b604082019050919050565b6000602082019050818103600083015262000b3b8162000af9565b9050919050565b6111c48062000b526000396000f3fe60806040526004361061008a5760003560e01c80638da5cb5b116100595780638da5cb5b1461014c5780639c21ef0b14610177578063b60d4288146101a0578063c00835dd146101aa578063f6b4dfb4146101e757610099565b8063215bbc8f146100a35780632e1a7d4d146100e15780633c390ff71461010a5780636f9fb98a1461012157610099565b3661009957610097610212565b005b6100a1610212565b005b3480156100af57600080fd5b506100ca60048036038101906100c59190610a68565b61025f565b6040516100d8929190610acf565b60405180910390f35b3480156100ed57600080fd5b5061010860048036038101906101039190610b24565b6102a3565b005b34801561011657600080fd5b5061011f610375565b005b34801561012d57600080fd5b5061013661069e565b6040516101439190610b51565b60405180910390f35b34801561015857600080fd5b506101616106a6565b60405161016e9190610b6c565b60405180910390f35b34801561018357600080fd5b5061019e60048036038101906101999190610bb3565b6106cc565b005b6101a8610212565b005b3480156101b657600080fd5b506101d160048036038101906101cc9190610b24565b6109a0565b6040516101de9190610c02565b60405180910390f35b3480156101f357600080fd5b506101fc6109df565b6040516102099190610c02565b60405180910390f35b670de0b6b3a764000034101561025d576040517f08c379a000000000000000000000000000000000000000000000000000000000815260040161025490610c7a565b60405180910390fd5b565b60006020528060005260406000206000915090508060000160009054906101000a900473ffffffffffffffffffffffffffffffffffffffff16908060010154905082565b6000600260009054906101000a900473ffffffffffffffffffffffffffffffffffffffff1673ffffffffffffffffffffffffffffffffffffffff16826040516102eb90610ccb565b60006040518083038185875af1925050503d8060008114610328576040519150601f19603f3d011682016040523d82523d6000602084013e61032d565b606091505b5050905080610371576040517f08c379a000000000000000000000000000000000000000000000000000000000815260040161036890610d2c565b60405180910390fd5b5050565b600260009054906101000a900473ffffffffffffffffffffffffffffffffffffffff1673ffffffffffffffffffffffffffffffffffffffff163373ffffffffffffffffffffffffffffffffffffffff1614610405576040517f08c379a00000000000000000000000000000000000000000000000000000000081526004016103fc90610dbe565b60405180910390fd5b60006001805490501161044d576040517f08c379a000000000000000000000000000000000000000000000000000000000815260040161044490610e2a565b60405180910390fd5b60004711610490576040517f08c379a000000000000000000000000000000000000000000000000000000000815260040161048790610e96565b60405180910390fd5b60005b60018054905081101561069b5760006064600080600185815481106104bb576104ba610eb6565b5b9060005260206000200160009054906101000a900473ffffffffffffffffffffffffffffffffffffffff1673ffffffffffffffffffffffffffffffffffffffff1673ffffffffffffffffffffffffffffffffffffffff168152602001908152602001600020600101544761052f9190610f14565b6105399190610f85565b905060008060006001858154811061055457610553610eb6565b5b9060005260206000200160009054906101000a900473ffffffffffffffffffffffffffffffffffffffff1673ffffffffffffffffffffffffffffffffffffffff1673ffffffffffffffffffffffffffffffffffffffff16815260200190815260200160002060000160009054906101000a900473ffffffffffffffffffffffffffffffffffffffff1673ffffffffffffffffffffffffffffffffffffffff168260405161060090610ccb565b60006040518083038185875af1925050503d806000811461063d576040519150601f19603f3d011682016040523d82523d6000602084013e610642565b606091505b5050905080610686576040517f08c379a000000000000000000000000000000000000000000000000000000000815260040161067d90610d2c565b60405180910390fd5b5050808061069390610fb6565b915050610493565b50565b600047905090565b600260009054906101000a900473ffffffffffffffffffffffffffffffffffffffff1681565b600260009054906101000a900473ffffffffffffffffffffffffffffffffffffffff1673ffffffffffffffffffffffffffffffffffffffff163373ffffffffffffffffffffffffffffffffffffffff161461075c576040517f08c379a000000000000000000000000000000000000000000000000000000000815260040161075390611070565b60405180910390fd5b60008111801561076d575060648111155b6107ac576040517f08c379a00000000000000000000000000000000000000000000000000000000081526004016107a390611102565b60405180910390fd5b600073ffffffffffffffffffffffffffffffffffffffff166000808473ffffffffffffffffffffffffffffffffffffffff1673ffffffffffffffffffffffffffffffffffffffff16815260200190815260200160002060000160009054906101000a900473ffffffffffffffffffffffffffffffffffffffff1673ffffffffffffffffffffffffffffffffffffffff161461087c576040517f08c379a00000000000000000000000000000000000000000000000000000000081526004016108739061116e565b60405180910390fd5b60405180604001604052808373ffffffffffffffffffffffffffffffffffffffff168152602001828152506000808473ffffffffffffffffffffffffffffffffffffffff1673ffffffffffffffffffffffffffffffffffffffff16815260200190815260200160002060008201518160000160006101000a81548173ffffffffffffffffffffffffffffffffffffffff021916908373ffffffffffffffffffffffffffffffffffffffff160217905550602082015181600101559050506001829080600181540180825580915050600190039060005260206000200160009091909190916101000a81548173ffffffffffffffffffffffffffffffffffffffff021916908373ffffffffffffffffffffffffffffffffffffffff1602179055505050565b600181815481106109b057600080fd5b906000526020600020016000915054906101000a900473ffffffffffffffffffffffffffffffffffffffff1681565b600360009054906101000a900473ffffffffffffffffffffffffffffffffffffffff1681565b600080fd5b600073ffffffffffffffffffffffffffffffffffffffff82169050919050565b6000610a3582610a0a565b9050919050565b610a4581610a2a565b8114610a5057600080fd5b50565b600081359050610a6281610a3c565b92915050565b600060208284031215610a7e57610a7d610a05565b5b6000610a8c84828501610a53565b91505092915050565b6000610aa082610a0a565b9050919050565b610ab081610a95565b82525050565b6000819050919050565b610ac981610ab6565b82525050565b6000604082019050610ae46000830185610aa7565b610af16020830184610ac0565b9392505050565b610b0181610ab6565b8114610b0c57600080fd5b50565b600081359050610b1e81610af8565b92915050565b600060208284031215610b3a57610b39610a05565b5b6000610b4884828501610b0f565b91505092915050565b6000602082019050610b666000830184610ac0565b92915050565b6000602082019050610b816000830184610aa7565b92915050565b610b9081610a95565b8114610b9b57600080fd5b50565b600081359050610bad81610b87565b92915050565b60008060408385031215610bca57610bc9610a05565b5b6000610bd885828601610b9e565b9250506020610be985828601610b0f565b9150509250929050565b610bfc81610a2a565b82525050565b6000602082019050610c176000830184610bf3565b92915050565b600082825260208201905092915050565b7f446964206e6f742073656e6420656e6f75676800000000000000000000000000600082015250565b6000610c64601383610c1d565b9150610c6f82610c2e565b602082019050919050565b60006020820190508181036000830152610c9381610c57565b9050919050565b600081905092915050565b50565b6000610cb5600083610c9a565b9150610cc082610ca5565b600082019050919050565b6000610cd682610ca8565b9150819050919050565b7f43616c6c204661696c6564000000000000000000000000000000000000000000600082015250565b6000610d16600b83610c1d565b9150610d2182610ce0565b602082019050919050565b60006020820190508181036000830152610d4581610d09565b9050919050565b7f4f6e6c792074686520636f6e7472616374206f776e65722063616e206469737460008201527f72696275746520696e6865726974616e63652e00000000000000000000000000602082015250565b6000610da8603383610c1d565b9150610db382610d4c565b604082019050919050565b60006020820190508181036000830152610dd781610d9b565b9050919050565b7f4e6f20696e68657269746f72732061646465642e000000000000000000000000600082015250565b6000610e14601483610c1d565b9150610e1f82610dde565b602082019050919050565b60006020820190508181036000830152610e4381610e07565b9050919050565b7f4e6f20696e6865726974616e636520616d6f756e742070726f76696465642e00600082015250565b6000610e80601f83610c1d565b9150610e8b82610e4a565b602082019050919050565b60006020820190508181036000830152610eaf81610e73565b9050919050565b7f4e487b7100000000000000000000000000000000000000000000000000000000600052603260045260246000fd5b7f4e487b7100000000000000000000000000000000000000000000000000000000600052601160045260246000fd5b6000610f1f82610ab6565b9150610f2a83610ab6565b9250828202610f3881610ab6565b91508282048414831517610f4f57610f4e610ee5565b5b5092915050565b7f4e487b7100000000000000000000000000000000000000000000000000000000600052601260045260246000fd5b6000610f9082610ab6565b9150610f9b83610ab6565b925082610fab57610faa610f56565b5b828204905092915050565b6000610fc182610ab6565b91507fffffffffffffffffffffffffffffffffffffffffffffffffffffffffffffffff8203610ff357610ff2610ee5565b5b600182019050919050565b7f4f6e6c792074686520636f6e7472616374206f776e65722063616e206164642060008201527f696e68657269746f72732e000000000000000000000000000000000000000000602082015250565b600061105a602b83610c1d565b915061106582610ffe565b604082019050919050565b600060208201905081810360008301526110898161104d565b9050919050565b7f50657263656e74616765206d757374206265206265747765656e203120616e6460008201527f203130302e000000000000000000000000000000000000000000000000000000602082015250565b60006110ec602583610c1d565b91506110f782611090565b604082019050919050565b6000602082019050818103600083015261111b816110df565b9050919050565b7f696e68657269746f7220616c7265616479206578697374732e00000000000000600082015250565b6000611158601983610c1d565b915061116382611122565b602082019050919050565b600060208201905081810360008301526111878161114b565b905091905056fea264697066735822122021ec6a88bb3ae3ed9c76efd01dd3af0e79da807559e3702ed11d2e79bf0f07cb64736f6c63430008120033",
					"opcodes": "PUSH1 0x80 PUSH1 0x40 MSTORE CALLVALUE DUP1 ISZERO PUSH3 0x11 JUMPI PUSH1 0x0 DUP1 REVERT JUMPDEST POP PUSH1 0x40 MLOAD PUSH3 0x1D16 CODESIZE SUB DUP1 PUSH3 0x1D16 DUP4 CODECOPY DUP2 DUP2 ADD PUSH1 0x40 MSTORE DUP2 ADD SWAP1 PUSH3 0x37 SWAP2 SWAP1 PUSH3 0x7B2 JUMP JUMPDEST DUP1 MLOAD DUP3 MLOAD EQ PUSH3 0x7E JUMPI PUSH1 0x40 MLOAD PUSH32 0x8C379A000000000000000000000000000000000000000000000000000000000 DUP2 MSTORE PUSH1 0x4 ADD PUSH3 0x75 SWAP1 PUSH3 0x898 JUMP JUMPDEST PUSH1 0x40 MLOAD DUP1 SWAP2 SUB SWAP1 REVERT JUMPDEST ADDRESS PUSH1 0x3 PUSH1 0x0 PUSH2 0x100 EXP DUP2 SLOAD DUP2 PUSH20 0xFFFFFFFFFFFFFFFFFFFFFFFFFFFFFFFFFFFFFFFF MUL NOT AND SWAP1 DUP4 PUSH20 0xFFFFFFFFFFFFFFFFFFFFFFFFFFFFFFFFFFFFFFFF AND MUL OR SWAP1 SSTORE POP CALLER PUSH1 0x2 PUSH1 0x0 PUSH2 0x100 EXP DUP2 SLOAD DUP2 PUSH20 0xFFFFFFFFFFFFFFFFFFFFFFFFFFFFFFFFFFFFFFFF MUL NOT AND SWAP1 DUP4 PUSH20 0xFFFFFFFFFFFFFFFFFFFFFFFFFFFFFFFFFFFFFFFF AND MUL OR SWAP1 SSTORE POP PUSH1 0x0 DUP1 JUMPDEST DUP4 MLOAD DUP2 LT ISZERO PUSH3 0x463 JUMPI PUSH1 0x0 DUP4 DUP3 DUP2 MLOAD DUP2 LT PUSH3 0x126 JUMPI PUSH3 0x125 PUSH3 0x8BA JUMP JUMPDEST JUMPDEST PUSH1 0x20 MUL PUSH1 0x20 ADD ADD MLOAD GT DUP1 ISZERO PUSH3 0x15A JUMPI POP PUSH1 0x64 DUP4 DUP3 DUP2 MLOAD DUP2 LT PUSH3 0x14F JUMPI PUSH3 0x14E PUSH3 0x8BA JUMP JUMPDEST JUMPDEST PUSH1 0x20 MUL PUSH1 0x20 ADD ADD MLOAD GT ISZERO JUMPDEST PUSH3 0x19C JUMPI PUSH1 0x40 MLOAD PUSH32 0x8C379A000000000000000000000000000000000000000000000000000000000 DUP2 MSTORE PUSH1 0x4 ADD PUSH3 0x193 SWAP1 PUSH3 0x95F JUMP JUMPDEST PUSH1 0x40 MLOAD DUP1 SWAP2 SUB SWAP1 REVERT JUMPDEST PUSH1 0x0 PUSH20 0xFFFFFFFFFFFFFFFFFFFFFFFFFFFFFFFFFFFFFFFF AND PUSH1 0x0 DUP1 DUP7 DUP5 DUP2 MLOAD DUP2 LT PUSH3 0x1CD JUMPI PUSH3 0x1CC PUSH3 0x8BA JUMP JUMPDEST JUMPDEST PUSH1 0x20 MUL PUSH1 0x20 ADD ADD MLOAD PUSH20 0xFFFFFFFFFFFFFFFFFFFFFFFFFFFFFFFFFFFFFFFF AND PUSH20 0xFFFFFFFFFFFFFFFFFFFFFFFFFFFFFFFFFFFFFFFF AND DUP2 MSTORE PUSH1 0x20 ADD SWAP1 DUP2 MSTORE PUSH1 0x20 ADD PUSH1 0x0 KECCAK256 PUSH1 0x0 ADD PUSH1 0x0 SWAP1 SLOAD SWAP1 PUSH2 0x100 EXP SWAP1 DIV PUSH20 0xFFFFFFFFFFFFFFFFFFFFFFFFFFFFFFFFFFFFFFFF AND PUSH20 0xFFFFFFFFFFFFFFFFFFFFFFFFFFFFFFFFFFFFFFFF AND EQ PUSH3 0x28C JUMPI PUSH1 0x40 MLOAD PUSH32 0x8C379A000000000000000000000000000000000000000000000000000000000 DUP2 MSTORE PUSH1 0x4 ADD PUSH3 0x283 SWAP1 PUSH3 0x9D1 JUMP JUMPDEST PUSH1 0x40 MLOAD DUP1 SWAP2 SUB SWAP1 REVERT JUMPDEST PUSH1 0x40 MLOAD DUP1 PUSH1 0x40 ADD PUSH1 0x40 MSTORE DUP1 DUP6 DUP4 DUP2 MLOAD DUP2 LT PUSH3 0x2AD JUMPI PUSH3 0x2AC PUSH3 0x8BA JUMP JUMPDEST JUMPDEST PUSH1 0x20 MUL PUSH1 0x20 ADD ADD MLOAD PUSH20 0xFFFFFFFFFFFFFFFFFFFFFFFFFFFFFFFFFFFFFFFF AND DUP2 MSTORE PUSH1 0x20 ADD DUP5 DUP4 DUP2 MLOAD DUP2 LT PUSH3 0x2E6 JUMPI PUSH3 0x2E5 PUSH3 0x8BA JUMP JUMPDEST JUMPDEST PUSH1 0x20 MUL PUSH1 0x20 ADD ADD MLOAD DUP2 MSTORE POP PUSH1 0x0 DUP1 DUP7 DUP5 DUP2 MLOAD DUP2 LT PUSH3 0x30A JUMPI PUSH3 0x309 PUSH3 0x8BA JUMP JUMPDEST JUMPDEST PUSH1 0x20 MUL PUSH1 0x20 ADD ADD MLOAD PUSH20 0xFFFFFFFFFFFFFFFFFFFFFFFFFFFFFFFFFFFFFFFF AND PUSH20 0xFFFFFFFFFFFFFFFFFFFFFFFFFFFFFFFFFFFFFFFF AND DUP2 MSTORE PUSH1 0x20 ADD SWAP1 DUP2 MSTORE PUSH1 0x20 ADD PUSH1 0x0 KECCAK256 PUSH1 0x0 DUP3 ADD MLOAD DUP2 PUSH1 0x0 ADD PUSH1 0x0 PUSH2 0x100 EXP DUP2 SLOAD DUP2 PUSH20 0xFFFFFFFFFFFFFFFFFFFFFFFFFFFFFFFFFFFFFFFF MUL NOT AND SWAP1 DUP4 PUSH20 0xFFFFFFFFFFFFFFFFFFFFFFFFFFFFFFFFFFFFFFFF AND MUL OR SWAP1 SSTORE POP PUSH1 0x20 DUP3 ADD MLOAD DUP2 PUSH1 0x1 ADD SSTORE SWAP1 POP POP PUSH1 0x1 DUP5 DUP3 DUP2 MLOAD DUP2 LT PUSH3 0x3B8 JUMPI PUSH3 0x3B7 PUSH3 0x8BA JUMP JUMPDEST JUMPDEST PUSH1 0x20 MUL PUSH1 0x20 ADD ADD MLOAD SWAP1 DUP1 PUSH1 0x1 DUP2 SLOAD ADD DUP1 DUP3 SSTORE DUP1 SWAP2 POP POP PUSH1 0x1 SWAP1 SUB SWAP1 PUSH1 0x0 MSTORE PUSH1 0x20 PUSH1 0x0 KECCAK256 ADD PUSH1 0x0 SWAP1 SWAP2 SWAP1 SWAP2 SWAP1 SWAP2 PUSH2 0x100 EXP DUP2 SLOAD DUP2 PUSH20 0xFFFFFFFFFFFFFFFFFFFFFFFFFFFFFFFFFFFFFFFF MUL NOT AND SWAP1 DUP4 PUSH20 0xFFFFFFFFFFFFFFFFFFFFFFFFFFFFFFFFFFFFFFFF AND MUL OR SWAP1 SSTORE POP DUP3 DUP2 DUP2 MLOAD DUP2 LT PUSH3 0x436 JUMPI PUSH3 0x435 PUSH3 0x8BA JUMP JUMPDEST JUMPDEST PUSH1 0x20 MUL PUSH1 0x20 ADD ADD MLOAD DUP3 PUSH3 0x44B SWAP2 SWAP1 PUSH3 0xA22 JUMP JUMPDEST SWAP2 POP DUP1 DUP1 PUSH3 0x45A SWAP1 PUSH3 0xA5D JUMP JUMPDEST SWAP2 POP POP PUSH3 0x104 JUMP JUMPDEST POP PUSH1 0x64 DUP2 EQ PUSH3 0x4AA JUMPI PUSH1 0x40 MLOAD PUSH32 0x8C379A000000000000000000000000000000000000000000000000000000000 DUP2 MSTORE PUSH1 0x4 ADD PUSH3 0x4A1 SWAP1 PUSH3 0xB20 JUMP JUMPDEST PUSH1 0x40 MLOAD DUP1 SWAP2 SUB SWAP1 REVERT JUMPDEST POP POP POP PUSH3 0xB42 JUMP JUMPDEST PUSH1 0x0 PUSH1 0x40 MLOAD SWAP1 POP SWAP1 JUMP JUMPDEST PUSH1 0x0 DUP1 REVERT JUMPDEST PUSH1 0x0 DUP1 REVERT JUMPDEST PUSH1 0x0 DUP1 REVERT JUMPDEST PUSH1 0x0 PUSH1 0x1F NOT PUSH1 0x1F DUP4 ADD AND SWAP1 POP SWAP2 SWAP1 POP JUMP JUMPDEST PUSH32 0x4E487B7100000000000000000000000000000000000000000000000000000000 PUSH1 0x0 MSTORE PUSH1 0x41 PUSH1 0x4 MSTORE PUSH1 0x24 PUSH1 0x0 REVERT JUMPDEST PUSH3 0x517 DUP3 PUSH3 0x4CC JUMP JUMPDEST DUP2 ADD DUP2 DUP2 LT PUSH8 0xFFFFFFFFFFFFFFFF DUP3 GT OR ISZERO PUSH3 0x539 JUMPI PUSH3 0x538 PUSH3 0x4DD JUMP JUMPDEST JUMPDEST DUP1 PUSH1 0x40 MSTORE POP POP POP JUMP JUMPDEST PUSH1 0x0 PUSH3 0x54E PUSH3 0x4B3 JUMP JUMPDEST SWAP1 POP PUSH3 0x55C DUP3 DUP3 PUSH3 0x50C JUMP JUMPDEST SWAP2 SWAP1 POP JUMP JUMPDEST PUSH1 0x0 PUSH8 0xFFFFFFFFFFFFFFFF DUP3 GT ISZERO PUSH3 0x57F JUMPI PUSH3 0x57E PUSH3 0x4DD JUMP JUMPDEST JUMPDEST PUSH1 0x20 DUP3 MUL SWAP1 POP PUSH1 0x20 DUP2 ADD SWAP1 POP SWAP2 SWAP1 POP JUMP JUMPDEST PUSH1 0x0 DUP1 REVERT JUMPDEST PUSH1 0x0 PUSH20 0xFFFFFFFFFFFFFFFFFFFFFFFFFFFFFFFFFFFFFFFF DUP3 AND SWAP1 POP SWAP2 SWAP1 POP JUMP JUMPDEST PUSH1 0x0 PUSH3 0x5C2 DUP3 PUSH3 0x595 JUMP JUMPDEST SWAP1 POP SWAP2 SWAP1 POP JUMP JUMPDEST PUSH3 0x5D4 DUP2 PUSH3 0x5B5 JUMP JUMPDEST DUP2 EQ PUSH3 0x5E0 JUMPI PUSH1 0x0 DUP1 REVERT JUMPDEST POP JUMP JUMPDEST PUSH1 0x0 DUP2 MLOAD SWAP1 POP PUSH3 0x5F4 DUP2 PUSH3 0x5C9 JUMP JUMPDEST SWAP3 SWAP2 POP POP JUMP JUMPDEST PUSH1 0x0 PUSH3 0x611 PUSH3 0x60B DUP5 PUSH3 0x561 JUMP JUMPDEST PUSH3 0x542 JUMP JUMPDEST SWAP1 POP DUP1 DUP4 DUP3 MSTORE PUSH1 0x20 DUP3 ADD SWAP1 POP PUSH1 0x20 DUP5 MUL DUP4 ADD DUP6 DUP2 GT ISZERO PUSH3 0x637 JUMPI PUSH3 0x636 PUSH3 0x590 JUMP JUMPDEST JUMPDEST DUP4 JUMPDEST DUP2 DUP2 LT ISZERO PUSH3 0x664 JUMPI DUP1 PUSH3 0x64F DUP9 DUP3 PUSH3 0x5E3 JUMP JUMPDEST DUP5 MSTORE PUSH1 0x20 DUP5 ADD SWAP4 POP POP PUSH1 0x20 DUP2 ADD SWAP1 POP PUSH3 0x639 JUMP JUMPDEST POP POP POP SWAP4 SWAP3 POP POP POP JUMP JUMPDEST PUSH1 0x0 DUP3 PUSH1 0x1F DUP4 ADD SLT PUSH3 0x686 JUMPI PUSH3 0x685 PUSH3 0x4C7 JUMP JUMPDEST JUMPDEST DUP2 MLOAD PUSH3 0x698 DUP5 DUP3 PUSH1 0x20 DUP7 ADD PUSH3 0x5FA JUMP JUMPDEST SWAP2 POP POP SWAP3 SWAP2 POP POP JUMP JUMPDEST PUSH1 0x0 PUSH8 0xFFFFFFFFFFFFFFFF DUP3 GT ISZERO PUSH3 0x6BF JUMPI PUSH3 0x6BE PUSH3 0x4DD JUMP JUMPDEST JUMPDEST PUSH1 0x20 DUP3 MUL SWAP1 POP PUSH1 0x20 DUP2 ADD SWAP1 POP SWAP2 SWAP1 POP JUMP JUMPDEST PUSH1 0x0 DUP2 SWAP1 POP SWAP2 SWAP1 POP JUMP JUMPDEST PUSH3 0x6E5 DUP2 PUSH3 0x6D0 JUMP JUMPDEST DUP2 EQ PUSH3 0x6F1 JUMPI PUSH1 0x0 DUP1 REVERT JUMPDEST POP JUMP JUMPDEST PUSH1 0x0 DUP2 MLOAD SWAP1 POP PUSH3 0x705 DUP2 PUSH3 0x6DA JUMP JUMPDEST SWAP3 SWAP2 POP POP JUMP JUMPDEST PUSH1 0x0 PUSH3 0x722 PUSH3 0x71C DUP5 PUSH3 0x6A1 JUMP JUMPDEST PUSH3 0x542 JUMP JUMPDEST SWAP1 POP DUP1 DUP4 DUP3 MSTORE PUSH1 0x20 DUP3 ADD SWAP1 POP PUSH1 0x20 DUP5 MUL DUP4 ADD DUP6 DUP2 GT ISZERO PUSH3 0x748 JUMPI PUSH3 0x747 PUSH3 0x590 JUMP JUMPDEST JUMPDEST DUP4 JUMPDEST DUP2 DUP2 LT ISZERO PUSH3 0x775 JUMPI DUP1 PUSH3 0x760 DUP9 DUP3 PUSH3 0x6F4 JUMP JUMPDEST DUP5 MSTORE PUSH1 0x20 DUP5 ADD SWAP4 POP POP PUSH1 0x20 DUP2 ADD SWAP1 POP PUSH3 0x74A JUMP JUMPDEST POP POP POP SWAP4 SWAP3 POP POP POP JUMP JUMPDEST PUSH1 0x0 DUP3 PUSH1 0x1F DUP4 ADD SLT PUSH3 0x797 JUMPI PUSH3 0x796 PUSH3 0x4C7 JUMP JUMPDEST JUMPDEST DUP2 MLOAD PUSH3 0x7A9 DUP5 DUP3 PUSH1 0x20 DUP7 ADD PUSH3 0x70B JUMP JUMPDEST SWAP2 POP POP SWAP3 SWAP2 POP POP JUMP JUMPDEST PUSH1 0x0 DUP1 PUSH1 0x40 DUP4 DUP6 SUB SLT ISZERO PUSH3 0x7CC JUMPI PUSH3 0x7CB PUSH3 0x4BD JUMP JUMPDEST JUMPDEST PUSH1 0x0 DUP4 ADD MLOAD PUSH8 0xFFFFFFFFFFFFFFFF DUP2 GT ISZERO PUSH3 0x7ED JUMPI PUSH3 0x7EC PUSH3 0x4C2 JUMP JUMPDEST JUMPDEST PUSH3 0x7FB DUP6 DUP3 DUP7 ADD PUSH3 0x66E JUMP JUMPDEST SWAP3 POP POP PUSH1 0x20 DUP4 ADD MLOAD PUSH8 0xFFFFFFFFFFFFFFFF DUP2 GT ISZERO PUSH3 0x81F JUMPI PUSH3 0x81E PUSH3 0x4C2 JUMP JUMPDEST JUMPDEST PUSH3 0x82D DUP6 DUP3 DUP7 ADD PUSH3 0x77F JUMP JUMPDEST SWAP2 POP POP SWAP3 POP SWAP3 SWAP1 POP JUMP JUMPDEST PUSH1 0x0 DUP3 DUP3 MSTORE PUSH1 0x20 DUP3 ADD SWAP1 POP SWAP3 SWAP2 POP POP JUMP JUMPDEST PUSH32 0x496E76616C696420696E707574206C656E677468732E00000000000000000000 PUSH1 0x0 DUP3 ADD MSTORE POP JUMP JUMPDEST PUSH1 0x0 PUSH3 0x880 PUSH1 0x16 DUP4 PUSH3 0x837 JUMP JUMPDEST SWAP2 POP PUSH3 0x88D DUP3 PUSH3 0x848 JUMP JUMPDEST PUSH1 0x20 DUP3 ADD SWAP1 POP SWAP2 SWAP1 POP JUMP JUMPDEST PUSH1 0x0 PUSH1 0x20 DUP3 ADD SWAP1 POP DUP2 DUP2 SUB PUSH1 0x0 DUP4 ADD MSTORE PUSH3 0x8B3 DUP2 PUSH3 0x871 JUMP JUMPDEST SWAP1 POP SWAP2 SWAP1 POP JUMP JUMPDEST PUSH32 0x4E487B7100000000000000000000000000000000000000000000000000000000 PUSH1 0x0 MSTORE PUSH1 0x32 PUSH1 0x4 MSTORE PUSH1 0x24 PUSH1 0x0 REVERT JUMPDEST PUSH32 0x50657263656E74616765206D757374206265206265747765656E203120616E64 PUSH1 0x0 DUP3 ADD MSTORE PUSH32 0x203130302E000000000000000000000000000000000000000000000000000000 PUSH1 0x20 DUP3 ADD MSTORE POP JUMP JUMPDEST PUSH1 0x0 PUSH3 0x947 PUSH1 0x25 DUP4 PUSH3 0x837 JUMP JUMPDEST SWAP2 POP PUSH3 0x954 DUP3 PUSH3 0x8E9 JUMP JUMPDEST PUSH1 0x40 DUP3 ADD SWAP1 POP SWAP2 SWAP1 POP JUMP JUMPDEST PUSH1 0x0 PUSH1 0x20 DUP3 ADD SWAP1 POP DUP2 DUP2 SUB PUSH1 0x0 DUP4 ADD MSTORE PUSH3 0x97A DUP2 PUSH3 0x938 JUMP JUMPDEST SWAP1 POP SWAP2 SWAP1 POP JUMP JUMPDEST PUSH32 0x42656E656669636961727920616C7265616479206578697374732E0000000000 PUSH1 0x0 DUP3 ADD MSTORE POP JUMP JUMPDEST PUSH1 0x0 PUSH3 0x9B9 PUSH1 0x1B DUP4 PUSH3 0x837 JUMP JUMPDEST SWAP2 POP PUSH3 0x9C6 DUP3 PUSH3 0x981 JUMP JUMPDEST PUSH1 0x20 DUP3 ADD SWAP1 POP SWAP2 SWAP1 POP JUMP JUMPDEST PUSH1 0x0 PUSH1 0x20 DUP3 ADD SWAP1 POP DUP2 DUP2 SUB PUSH1 0x0 DUP4 ADD MSTORE PUSH3 0x9EC DUP2 PUSH3 0x9AA JUMP JUMPDEST SWAP1 POP SWAP2 SWAP1 POP JUMP JUMPDEST PUSH32 0x4E487B7100000000000000000000000000000000000000000000000000000000 PUSH1 0x0 MSTORE PUSH1 0x11 PUSH1 0x4 MSTORE PUSH1 0x24 PUSH1 0x0 REVERT JUMPDEST PUSH1 0x0 PUSH3 0xA2F DUP3 PUSH3 0x6D0 JUMP JUMPDEST SWAP2 POP PUSH3 0xA3C DUP4 PUSH3 0x6D0 JUMP JUMPDEST SWAP3 POP DUP3 DUP3 ADD SWAP1 POP DUP1 DUP3 GT ISZERO PUSH3 0xA57 JUMPI PUSH3 0xA56 PUSH3 0x9F3 JUMP JUMPDEST JUMPDEST SWAP3 SWAP2 POP POP JUMP JUMPDEST PUSH1 0x0 PUSH3 0xA6A DUP3 PUSH3 0x6D0 JUMP JUMPDEST SWAP2 POP PUSH32 0xFFFFFFFFFFFFFFFFFFFFFFFFFFFFFFFFFFFFFFFFFFFFFFFFFFFFFFFFFFFFFFFF DUP3 SUB PUSH3 0xA9F JUMPI PUSH3 0xA9E PUSH3 0x9F3 JUMP JUMPDEST JUMPDEST PUSH1 0x1 DUP3 ADD SWAP1 POP SWAP2 SWAP1 POP JUMP JUMPDEST PUSH32 0x546F74616C2070657263656E74616765206F6620696E68657269746F7273206D PUSH1 0x0 DUP3 ADD MSTORE PUSH32 0x757374206265203130302E000000000000000000000000000000000000000000 PUSH1 0x20 DUP3 ADD MSTORE POP JUMP JUMPDEST PUSH1 0x0 PUSH3 0xB08 PUSH1 0x2B DUP4 PUSH3 0x837 JUMP JUMPDEST SWAP2 POP PUSH3 0xB15 DUP3 PUSH3 0xAAA JUMP JUMPDEST PUSH1 0x40 DUP3 ADD SWAP1 POP SWAP2 SWAP1 POP JUMP JUMPDEST PUSH1 0x0 PUSH1 0x20 DUP3 ADD SWAP1 POP DUP2 DUP2 SUB PUSH1 0x0 DUP4 ADD MSTORE PUSH3 0xB3B DUP2 PUSH3 0xAF9 JUMP JUMPDEST SWAP1 POP SWAP2 SWAP1 POP JUMP JUMPDEST PUSH2 0x11C4 DUP1 PUSH3 0xB52 PUSH1 0x0 CODECOPY PUSH1 0x0 RETURN INVALID PUSH1 0x80 PUSH1 0x40 MSTORE PUSH1 0x4 CALLDATASIZE LT PUSH2 0x8A JUMPI PUSH1 0x0 CALLDATALOAD PUSH1 0xE0 SHR DUP1 PUSH4 0x8DA5CB5B GT PUSH2 0x59 JUMPI DUP1 PUSH4 0x8DA5CB5B EQ PUSH2 0x14C JUMPI DUP1 PUSH4 0x9C21EF0B EQ PUSH2 0x177 JUMPI DUP1 PUSH4 0xB60D4288 EQ PUSH2 0x1A0 JUMPI DUP1 PUSH4 0xC00835DD EQ PUSH2 0x1AA JUMPI DUP1 PUSH4 0xF6B4DFB4 EQ PUSH2 0x1E7 JUMPI PUSH2 0x99 JUMP JUMPDEST DUP1 PUSH4 0x215BBC8F EQ PUSH2 0xA3 JUMPI DUP1 PUSH4 0x2E1A7D4D EQ PUSH2 0xE1 JUMPI DUP1 PUSH4 0x3C390FF7 EQ PUSH2 0x10A JUMPI DUP1 PUSH4 0x6F9FB98A EQ PUSH2 0x121 JUMPI PUSH2 0x99 JUMP JUMPDEST CALLDATASIZE PUSH2 0x99 JUMPI PUSH2 0x97 PUSH2 0x212 JUMP JUMPDEST STOP JUMPDEST PUSH2 0xA1 PUSH2 0x212 JUMP JUMPDEST STOP JUMPDEST CALLVALUE DUP1 ISZERO PUSH2 0xAF JUMPI PUSH1 0x0 DUP1 REVERT JUMPDEST POP PUSH2 0xCA PUSH1 0x4 DUP1 CALLDATASIZE SUB DUP2 ADD SWAP1 PUSH2 0xC5 SWAP2 SWAP1 PUSH2 0xA68 JUMP JUMPDEST PUSH2 0x25F JUMP JUMPDEST PUSH1 0x40 MLOAD PUSH2 0xD8 SWAP3 SWAP2 SWAP1 PUSH2 0xACF JUMP JUMPDEST PUSH1 0x40 MLOAD DUP1 SWAP2 SUB SWAP1 RETURN JUMPDEST CALLVALUE DUP1 ISZERO PUSH2 0xED JUMPI PUSH1 0x0 DUP1 REVERT JUMPDEST POP PUSH2 0x108 PUSH1 0x4 DUP1 CALLDATASIZE SUB DUP2 ADD SWAP1 PUSH2 0x103 SWAP2 SWAP1 PUSH2 0xB24 JUMP JUMPDEST PUSH2 0x2A3 JUMP JUMPDEST STOP JUMPDEST CALLVALUE DUP1 ISZERO PUSH2 0x116 JUMPI PUSH1 0x0 DUP1 REVERT JUMPDEST POP PUSH2 0x11F PUSH2 0x375 JUMP JUMPDEST STOP JUMPDEST CALLVALUE DUP1 ISZERO PUSH2 0x12D JUMPI PUSH1 0x0 DUP1 REVERT JUMPDEST POP PUSH2 0x136 PUSH2 0x69E JUMP JUMPDEST PUSH1 0x40 MLOAD PUSH2 0x143 SWAP2 SWAP1 PUSH2 0xB51 JUMP JUMPDEST PUSH1 0x40 MLOAD DUP1 SWAP2 SUB SWAP1 RETURN JUMPDEST CALLVALUE DUP1 ISZERO PUSH2 0x158 JUMPI PUSH1 0x0 DUP1 REVERT JUMPDEST POP PUSH2 0x161 PUSH2 0x6A6 JUMP JUMPDEST PUSH1 0x40 MLOAD PUSH2 0x16E SWAP2 SWAP1 PUSH2 0xB6C JUMP JUMPDEST PUSH1 0x40 MLOAD DUP1 SWAP2 SUB SWAP1 RETURN JUMPDEST CALLVALUE DUP1 ISZERO PUSH2 0x183 JUMPI PUSH1 0x0 DUP1 REVERT JUMPDEST POP PUSH2 0x19E PUSH1 0x4 DUP1 CALLDATASIZE SUB DUP2 ADD SWAP1 PUSH2 0x199 SWAP2 SWAP1 PUSH2 0xBB3 JUMP JUMPDEST PUSH2 0x6CC JUMP JUMPDEST STOP JUMPDEST PUSH2 0x1A8 PUSH2 0x212 JUMP JUMPDEST STOP JUMPDEST CALLVALUE DUP1 ISZERO PUSH2 0x1B6 JUMPI PUSH1 0x0 DUP1 REVERT JUMPDEST POP PUSH2 0x1D1 PUSH1 0x4 DUP1 CALLDATASIZE SUB DUP2 ADD SWAP1 PUSH2 0x1CC SWAP2 SWAP1 PUSH2 0xB24 JUMP JUMPDEST PUSH2 0x9A0 JUMP JUMPDEST PUSH1 0x40 MLOAD PUSH2 0x1DE SWAP2 SWAP1 PUSH2 0xC02 JUMP JUMPDEST PUSH1 0x40 MLOAD DUP1 SWAP2 SUB SWAP1 RETURN JUMPDEST CALLVALUE DUP1 ISZERO PUSH2 0x1F3 JUMPI PUSH1 0x0 DUP1 REVERT JUMPDEST POP PUSH2 0x1FC PUSH2 0x9DF JUMP JUMPDEST PUSH1 0x40 MLOAD PUSH2 0x209 SWAP2 SWAP1 PUSH2 0xC02 JUMP JUMPDEST PUSH1 0x40 MLOAD DUP1 SWAP2 SUB SWAP1 RETURN JUMPDEST PUSH8 0xDE0B6B3A7640000 CALLVALUE LT ISZERO PUSH2 0x25D JUMPI PUSH1 0x40 MLOAD PUSH32 0x8C379A000000000000000000000000000000000000000000000000000000000 DUP2 MSTORE PUSH1 0x4 ADD PUSH2 0x254 SWAP1 PUSH2 0xC7A JUMP JUMPDEST PUSH1 0x40 MLOAD DUP1 SWAP2 SUB SWAP1 REVERT JUMPDEST JUMP JUMPDEST PUSH1 0x0 PUSH1 0x20 MSTORE DUP1 PUSH1 0x0 MSTORE PUSH1 0x40 PUSH1 0x0 KECCAK256 PUSH1 0x0 SWAP2 POP SWAP1 POP DUP1 PUSH1 0x0 ADD PUSH1 0x0 SWAP1 SLOAD SWAP1 PUSH2 0x100 EXP SWAP1 DIV PUSH20 0xFFFFFFFFFFFFFFFFFFFFFFFFFFFFFFFFFFFFFFFF AND SWAP1 DUP1 PUSH1 0x1 ADD SLOAD SWAP1 POP DUP3 JUMP JUMPDEST PUSH1 0x0 PUSH1 0x2 PUSH1 0x0 SWAP1 SLOAD SWAP1 PUSH2 0x100 EXP SWAP1 DIV PUSH20 0xFFFFFFFFFFFFFFFFFFFFFFFFFFFFFFFFFFFFFFFF AND PUSH20 0xFFFFFFFFFFFFFFFFFFFFFFFFFFFFFFFFFFFFFFFF AND DUP3 PUSH1 0x40 MLOAD PUSH2 0x2EB SWAP1 PUSH2 0xCCB JUMP JUMPDEST PUSH1 0x0 PUSH1 0x40 MLOAD DUP1 DUP4 SUB DUP2 DUP6 DUP8 GAS CALL SWAP3 POP POP POP RETURNDATASIZE DUP1 PUSH1 0x0 DUP2 EQ PUSH2 0x328 JUMPI PUSH1 0x40 MLOAD SWAP2 POP PUSH1 0x1F NOT PUSH1 0x3F RETURNDATASIZE ADD AND DUP3 ADD PUSH1 0x40 MSTORE RETURNDATASIZE DUP3 MSTORE RETURNDATASIZE PUSH1 0x0 PUSH1 0x20 DUP5 ADD RETURNDATACOPY PUSH2 0x32D JUMP JUMPDEST PUSH1 0x60 SWAP2 POP JUMPDEST POP POP SWAP1 POP DUP1 PUSH2 0x371 JUMPI PUSH1 0x40 MLOAD PUSH32 0x8C379A000000000000000000000000000000000000000000000000000000000 DUP2 MSTORE PUSH1 0x4 ADD PUSH2 0x368 SWAP1 PUSH2 0xD2C JUMP JUMPDEST PUSH1 0x40 MLOAD DUP1 SWAP2 SUB SWAP1 REVERT JUMPDEST POP POP JUMP JUMPDEST PUSH1 0x2 PUSH1 0x0 SWAP1 SLOAD SWAP1 PUSH2 0x100 EXP SWAP1 DIV PUSH20 0xFFFFFFFFFFFFFFFFFFFFFFFFFFFFFFFFFFFFFFFF AND PUSH20 0xFFFFFFFFFFFFFFFFFFFFFFFFFFFFFFFFFFFFFFFF AND CALLER PUSH20 0xFFFFFFFFFFFFFFFFFFFFFFFFFFFFFFFFFFFFFFFF AND EQ PUSH2 0x405 JUMPI PUSH1 0x40 MLOAD PUSH32 0x8C379A000000000000000000000000000000000000000000000000000000000 DUP2 MSTORE PUSH1 0x4 ADD PUSH2 0x3FC SWAP1 PUSH2 0xDBE JUMP JUMPDEST PUSH1 0x40 MLOAD DUP1 SWAP2 SUB SWAP1 REVERT JUMPDEST PUSH1 0x0 PUSH1 0x1 DUP1 SLOAD SWAP1 POP GT PUSH2 0x44D JUMPI PUSH1 0x40 MLOAD PUSH32 0x8C379A000000000000000000000000000000000000000000000000000000000 DUP2 MSTORE PUSH1 0x4 ADD PUSH2 0x444 SWAP1 PUSH2 0xE2A JUMP JUMPDEST PUSH1 0x40 MLOAD DUP1 SWAP2 SUB SWAP1 REVERT JUMPDEST PUSH1 0x0 SELFBALANCE GT PUSH2 0x490 JUMPI PUSH1 0x40 MLOAD PUSH32 0x8C379A000000000000000000000000000000000000000000000000000000000 DUP2 MSTORE PUSH1 0x4 ADD PUSH2 0x487 SWAP1 PUSH2 0xE96 JUMP JUMPDEST PUSH1 0x40 MLOAD DUP1 SWAP2 SUB SWAP1 REVERT JUMPDEST PUSH1 0x0 JUMPDEST PUSH1 0x1 DUP1 SLOAD SWAP1 POP DUP2 LT ISZERO PUSH2 0x69B JUMPI PUSH1 0x0 PUSH1 0x64 PUSH1 0x0 DUP1 PUSH1 0x1 DUP6 DUP2 SLOAD DUP2 LT PUSH2 0x4BB JUMPI PUSH2 0x4BA PUSH2 0xEB6 JUMP JUMPDEST JUMPDEST SWAP1 PUSH1 0x0 MSTORE PUSH1 0x20 PUSH1 0x0 KECCAK256 ADD PUSH1 0x0 SWAP1 SLOAD SWAP1 PUSH2 0x100 EXP SWAP1 DIV PUSH20 0xFFFFFFFFFFFFFFFFFFFFFFFFFFFFFFFFFFFFFFFF AND PUSH20 0xFFFFFFFFFFFFFFFFFFFFFFFFFFFFFFFFFFFFFFFF AND PUSH20 0xFFFFFFFFFFFFFFFFFFFFFFFFFFFFFFFFFFFFFFFF AND DUP2 MSTORE PUSH1 0x20 ADD SWAP1 DUP2 MSTORE PUSH1 0x20 ADD PUSH1 0x0 KECCAK256 PUSH1 0x1 ADD SLOAD SELFBALANCE PUSH2 0x52F SWAP2 SWAP1 PUSH2 0xF14 JUMP JUMPDEST PUSH2 0x539 SWAP2 SWAP1 PUSH2 0xF85 JUMP JUMPDEST SWAP1 POP PUSH1 0x0 DUP1 PUSH1 0x0 PUSH1 0x1 DUP6 DUP2 SLOAD DUP2 LT PUSH2 0x554 JUMPI PUSH2 0x553 PUSH2 0xEB6 JUMP JUMPDEST JUMPDEST SWAP1 PUSH1 0x0 MSTORE PUSH1 0x20 PUSH1 0x0 KECCAK256 ADD PUSH1 0x0 SWAP1 SLOAD SWAP1 PUSH2 0x100 EXP SWAP1 DIV PUSH20 0xFFFFFFFFFFFFFFFFFFFFFFFFFFFFFFFFFFFFFFFF AND PUSH20 0xFFFFFFFFFFFFFFFFFFFFFFFFFFFFFFFFFFFFFFFF AND PUSH20 0xFFFFFFFFFFFFFFFFFFFFFFFFFFFFFFFFFFFFFFFF AND DUP2 MSTORE PUSH1 0x20 ADD SWAP1 DUP2 MSTORE PUSH1 0x20 ADD PUSH1 0x0 KECCAK256 PUSH1 0x0 ADD PUSH1 0x0 SWAP1 SLOAD SWAP1 PUSH2 0x100 EXP SWAP1 DIV PUSH20 0xFFFFFFFFFFFFFFFFFFFFFFFFFFFFFFFFFFFFFFFF AND PUSH20 0xFFFFFFFFFFFFFFFFFFFFFFFFFFFFFFFFFFFFFFFF AND DUP3 PUSH1 0x40 MLOAD PUSH2 0x600 SWAP1 PUSH2 0xCCB JUMP JUMPDEST PUSH1 0x0 PUSH1 0x40 MLOAD DUP1 DUP4 SUB DUP2 DUP6 DUP8 GAS CALL SWAP3 POP POP POP RETURNDATASIZE DUP1 PUSH1 0x0 DUP2 EQ PUSH2 0x63D JUMPI PUSH1 0x40 MLOAD SWAP2 POP PUSH1 0x1F NOT PUSH1 0x3F RETURNDATASIZE ADD AND DUP3 ADD PUSH1 0x40 MSTORE RETURNDATASIZE DUP3 MSTORE RETURNDATASIZE PUSH1 0x0 PUSH1 0x20 DUP5 ADD RETURNDATACOPY PUSH2 0x642 JUMP JUMPDEST PUSH1 0x60 SWAP2 POP JUMPDEST POP POP SWAP1 POP DUP1 PUSH2 0x686 JUMPI PUSH1 0x40 MLOAD PUSH32 0x8C379A000000000000000000000000000000000000000000000000000000000 DUP2 MSTORE PUSH1 0x4 ADD PUSH2 0x67D SWAP1 PUSH2 0xD2C JUMP JUMPDEST PUSH1 0x40 MLOAD DUP1 SWAP2 SUB SWAP1 REVERT JUMPDEST POP POP DUP1 DUP1 PUSH2 0x693 SWAP1 PUSH2 0xFB6 JUMP JUMPDEST SWAP2 POP POP PUSH2 0x493 JUMP JUMPDEST POP JUMP JUMPDEST PUSH1 0x0 SELFBALANCE SWAP1 POP SWAP1 JUMP JUMPDEST PUSH1 0x2 PUSH1 0x0 SWAP1 SLOAD SWAP1 PUSH2 0x100 EXP SWAP1 DIV PUSH20 0xFFFFFFFFFFFFFFFFFFFFFFFFFFFFFFFFFFFFFFFF AND DUP2 JUMP JUMPDEST PUSH1 0x2 PUSH1 0x0 SWAP1 SLOAD SWAP1 PUSH2 0x100 EXP SWAP1 DIV PUSH20 0xFFFFFFFFFFFFFFFFFFFFFFFFFFFFFFFFFFFFFFFF AND PUSH20 0xFFFFFFFFFFFFFFFFFFFFFFFFFFFFFFFFFFFFFFFF AND CALLER PUSH20 0xFFFFFFFFFFFFFFFFFFFFFFFFFFFFFFFFFFFFFFFF AND EQ PUSH2 0x75C JUMPI PUSH1 0x40 MLOAD PUSH32 0x8C379A000000000000000000000000000000000000000000000000000000000 DUP2 MSTORE PUSH1 0x4 ADD PUSH2 0x753 SWAP1 PUSH2 0x1070 JUMP JUMPDEST PUSH1 0x40 MLOAD DUP1 SWAP2 SUB SWAP1 REVERT JUMPDEST PUSH1 0x0 DUP2 GT DUP1 ISZERO PUSH2 0x76D JUMPI POP PUSH1 0x64 DUP2 GT ISZERO JUMPDEST PUSH2 0x7AC JUMPI PUSH1 0x40 MLOAD PUSH32 0x8C379A000000000000000000000000000000000000000000000000000000000 DUP2 MSTORE PUSH1 0x4 ADD PUSH2 0x7A3 SWAP1 PUSH2 0x1102 JUMP JUMPDEST PUSH1 0x40 MLOAD DUP1 SWAP2 SUB SWAP1 REVERT JUMPDEST PUSH1 0x0 PUSH20 0xFFFFFFFFFFFFFFFFFFFFFFFFFFFFFFFFFFFFFFFF AND PUSH1 0x0 DUP1 DUP5 PUSH20 0xFFFFFFFFFFFFFFFFFFFFFFFFFFFFFFFFFFFFFFFF AND PUSH20 0xFFFFFFFFFFFFFFFFFFFFFFFFFFFFFFFFFFFFFFFF AND DUP2 MSTORE PUSH1 0x20 ADD SWAP1 DUP2 MSTORE PUSH1 0x20 ADD PUSH1 0x0 KECCAK256 PUSH1 0x0 ADD PUSH1 0x0 SWAP1 SLOAD SWAP1 PUSH2 0x100 EXP SWAP1 DIV PUSH20 0xFFFFFFFFFFFFFFFFFFFFFFFFFFFFFFFFFFFFFFFF AND PUSH20 0xFFFFFFFFFFFFFFFFFFFFFFFFFFFFFFFFFFFFFFFF AND EQ PUSH2 0x87C JUMPI PUSH1 0x40 MLOAD PUSH32 0x8C379A000000000000000000000000000000000000000000000000000000000 DUP2 MSTORE PUSH1 0x4 ADD PUSH2 0x873 SWAP1 PUSH2 0x116E JUMP JUMPDEST PUSH1 0x40 MLOAD DUP1 SWAP2 SUB SWAP1 REVERT JUMPDEST PUSH1 0x40 MLOAD DUP1 PUSH1 0x40 ADD PUSH1 0x40 MSTORE DUP1 DUP4 PUSH20 0xFFFFFFFFFFFFFFFFFFFFFFFFFFFFFFFFFFFFFFFF AND DUP2 MSTORE PUSH1 0x20 ADD DUP3 DUP2 MSTORE POP PUSH1 0x0 DUP1 DUP5 PUSH20 0xFFFFFFFFFFFFFFFFFFFFFFFFFFFFFFFFFFFFFFFF AND PUSH20 0xFFFFFFFFFFFFFFFFFFFFFFFFFFFFFFFFFFFFFFFF AND DUP2 MSTORE PUSH1 0x20 ADD SWAP1 DUP2 MSTORE PUSH1 0x20 ADD PUSH1 0x0 KECCAK256 PUSH1 0x0 DUP3 ADD MLOAD DUP2 PUSH1 0x0 ADD PUSH1 0x0 PUSH2 0x100 EXP DUP2 SLOAD DUP2 PUSH20 0xFFFFFFFFFFFFFFFFFFFFFFFFFFFFFFFFFFFFFFFF MUL NOT AND SWAP1 DUP4 PUSH20 0xFFFFFFFFFFFFFFFFFFFFFFFFFFFFFFFFFFFFFFFF AND MUL OR SWAP1 SSTORE POP PUSH1 0x20 DUP3 ADD MLOAD DUP2 PUSH1 0x1 ADD SSTORE SWAP1 POP POP PUSH1 0x1 DUP3 SWAP1 DUP1 PUSH1 0x1 DUP2 SLOAD ADD DUP1 DUP3 SSTORE DUP1 SWAP2 POP POP PUSH1 0x1 SWAP1 SUB SWAP1 PUSH1 0x0 MSTORE PUSH1 0x20 PUSH1 0x0 KECCAK256 ADD PUSH1 0x0 SWAP1 SWAP2 SWAP1 SWAP2 SWAP1 SWAP2 PUSH2 0x100 EXP DUP2 SLOAD DUP2 PUSH20 0xFFFFFFFFFFFFFFFFFFFFFFFFFFFFFFFFFFFFFFFF MUL NOT AND SWAP1 DUP4 PUSH20 0xFFFFFFFFFFFFFFFFFFFFFFFFFFFFFFFFFFFFFFFF AND MUL OR SWAP1 SSTORE POP POP POP JUMP JUMPDEST PUSH1 0x1 DUP2 DUP2 SLOAD DUP2 LT PUSH2 0x9B0 JUMPI PUSH1 0x0 DUP1 REVERT JUMPDEST SWAP1 PUSH1 0x0 MSTORE PUSH1 0x20 PUSH1 0x0 KECCAK256 ADD PUSH1 0x0 SWAP2 POP SLOAD SWAP1 PUSH2 0x100 EXP SWAP1 DIV PUSH20 0xFFFFFFFFFFFFFFFFFFFFFFFFFFFFFFFFFFFFFFFF AND DUP2 JUMP JUMPDEST PUSH1 0x3 PUSH1 0x0 SWAP1 SLOAD SWAP1 PUSH2 0x100 EXP SWAP1 DIV PUSH20 0xFFFFFFFFFFFFFFFFFFFFFFFFFFFFFFFFFFFFFFFF AND DUP2 JUMP JUMPDEST PUSH1 0x0 DUP1 REVERT JUMPDEST PUSH1 0x0 PUSH20 0xFFFFFFFFFFFFFFFFFFFFFFFFFFFFFFFFFFFFFFFF DUP3 AND SWAP1 POP SWAP2 SWAP1 POP JUMP JUMPDEST PUSH1 0x0 PUSH2 0xA35 DUP3 PUSH2 0xA0A JUMP JUMPDEST SWAP1 POP SWAP2 SWAP1 POP JUMP JUMPDEST PUSH2 0xA45 DUP2 PUSH2 0xA2A JUMP JUMPDEST DUP2 EQ PUSH2 0xA50 JUMPI PUSH1 0x0 DUP1 REVERT JUMPDEST POP JUMP JUMPDEST PUSH1 0x0 DUP2 CALLDATALOAD SWAP1 POP PUSH2 0xA62 DUP2 PUSH2 0xA3C JUMP JUMPDEST SWAP3 SWAP2 POP POP JUMP JUMPDEST PUSH1 0x0 PUSH1 0x20 DUP3 DUP5 SUB SLT ISZERO PUSH2 0xA7E JUMPI PUSH2 0xA7D PUSH2 0xA05 JUMP JUMPDEST JUMPDEST PUSH1 0x0 PUSH2 0xA8C DUP5 DUP3 DUP6 ADD PUSH2 0xA53 JUMP JUMPDEST SWAP2 POP POP SWAP3 SWAP2 POP POP JUMP JUMPDEST PUSH1 0x0 PUSH2 0xAA0 DUP3 PUSH2 0xA0A JUMP JUMPDEST SWAP1 POP SWAP2 SWAP1 POP JUMP JUMPDEST PUSH2 0xAB0 DUP2 PUSH2 0xA95 JUMP JUMPDEST DUP3 MSTORE POP POP JUMP JUMPDEST PUSH1 0x0 DUP2 SWAP1 POP SWAP2 SWAP1 POP JUMP JUMPDEST PUSH2 0xAC9 DUP2 PUSH2 0xAB6 JUMP JUMPDEST DUP3 MSTORE POP POP JUMP JUMPDEST PUSH1 0x0 PUSH1 0x40 DUP3 ADD SWAP1 POP PUSH2 0xAE4 PUSH1 0x0 DUP4 ADD DUP6 PUSH2 0xAA7 JUMP JUMPDEST PUSH2 0xAF1 PUSH1 0x20 DUP4 ADD DUP5 PUSH2 0xAC0 JUMP JUMPDEST SWAP4 SWAP3 POP POP POP JUMP JUMPDEST PUSH2 0xB01 DUP2 PUSH2 0xAB6 JUMP JUMPDEST DUP2 EQ PUSH2 0xB0C JUMPI PUSH1 0x0 DUP1 REVERT JUMPDEST POP JUMP JUMPDEST PUSH1 0x0 DUP2 CALLDATALOAD SWAP1 POP PUSH2 0xB1E DUP2 PUSH2 0xAF8 JUMP JUMPDEST SWAP3 SWAP2 POP POP JUMP JUMPDEST PUSH1 0x0 PUSH1 0x20 DUP3 DUP5 SUB SLT ISZERO PUSH2 0xB3A JUMPI PUSH2 0xB39 PUSH2 0xA05 JUMP JUMPDEST JUMPDEST PUSH1 0x0 PUSH2 0xB48 DUP5 DUP3 DUP6 ADD PUSH2 0xB0F JUMP JUMPDEST SWAP2 POP POP SWAP3 SWAP2 POP POP JUMP JUMPDEST PUSH1 0x0 PUSH1 0x20 DUP3 ADD SWAP1 POP PUSH2 0xB66 PUSH1 0x0 DUP4 ADD DUP5 PUSH2 0xAC0 JUMP JUMPDEST SWAP3 SWAP2 POP POP JUMP JUMPDEST PUSH1 0x0 PUSH1 0x20 DUP3 ADD SWAP1 POP PUSH2 0xB81 PUSH1 0x0 DUP4 ADD DUP5 PUSH2 0xAA7 JUMP JUMPDEST SWAP3 SWAP2 POP POP JUMP JUMPDEST PUSH2 0xB90 DUP2 PUSH2 0xA95 JUMP JUMPDEST DUP2 EQ PUSH2 0xB9B JUMPI PUSH1 0x0 DUP1 REVERT JUMPDEST POP JUMP JUMPDEST PUSH1 0x0 DUP2 CALLDATALOAD SWAP1 POP PUSH2 0xBAD DUP2 PUSH2 0xB87 JUMP JUMPDEST SWAP3 SWAP2 POP POP JUMP JUMPDEST PUSH1 0x0 DUP1 PUSH1 0x40 DUP4 DUP6 SUB SLT ISZERO PUSH2 0xBCA JUMPI PUSH2 0xBC9 PUSH2 0xA05 JUMP JUMPDEST JUMPDEST PUSH1 0x0 PUSH2 0xBD8 DUP6 DUP3 DUP7 ADD PUSH2 0xB9E JUMP JUMPDEST SWAP3 POP POP PUSH1 0x20 PUSH2 0xBE9 DUP6 DUP3 DUP7 ADD PUSH2 0xB0F JUMP JUMPDEST SWAP2 POP POP SWAP3 POP SWAP3 SWAP1 POP JUMP JUMPDEST PUSH2 0xBFC DUP2 PUSH2 0xA2A JUMP JUMPDEST DUP3 MSTORE POP POP JUMP JUMPDEST PUSH1 0x0 PUSH1 0x20 DUP3 ADD SWAP1 POP PUSH2 0xC17 PUSH1 0x0 DUP4 ADD DUP5 PUSH2 0xBF3 JUMP JUMPDEST SWAP3 SWAP2 POP POP JUMP JUMPDEST PUSH1 0x0 DUP3 DUP3 MSTORE PUSH1 0x20 DUP3 ADD SWAP1 POP SWAP3 SWAP2 POP POP JUMP JUMPDEST PUSH32 0x446964206E6F742073656E6420656E6F75676800000000000000000000000000 PUSH1 0x0 DUP3 ADD MSTORE POP JUMP JUMPDEST PUSH1 0x0 PUSH2 0xC64 PUSH1 0x13 DUP4 PUSH2 0xC1D JUMP JUMPDEST SWAP2 POP PUSH2 0xC6F DUP3 PUSH2 0xC2E JUMP JUMPDEST PUSH1 0x20 DUP3 ADD SWAP1 POP SWAP2 SWAP1 POP JUMP JUMPDEST PUSH1 0x0 PUSH1 0x20 DUP3 ADD SWAP1 POP DUP2 DUP2 SUB PUSH1 0x0 DUP4 ADD MSTORE PUSH2 0xC93 DUP2 PUSH2 0xC57 JUMP JUMPDEST SWAP1 POP SWAP2 SWAP1 POP JUMP JUMPDEST PUSH1 0x0 DUP2 SWAP1 POP SWAP3 SWAP2 POP POP JUMP JUMPDEST POP JUMP JUMPDEST PUSH1 0x0 PUSH2 0xCB5 PUSH1 0x0 DUP4 PUSH2 0xC9A JUMP JUMPDEST SWAP2 POP PUSH2 0xCC0 DUP3 PUSH2 0xCA5 JUMP JUMPDEST PUSH1 0x0 DUP3 ADD SWAP1 POP SWAP2 SWAP1 POP JUMP JUMPDEST PUSH1 0x0 PUSH2 0xCD6 DUP3 PUSH2 0xCA8 JUMP JUMPDEST SWAP2 POP DUP2 SWAP1 POP SWAP2 SWAP1 POP JUMP JUMPDEST PUSH32 0x43616C6C204661696C6564000000000000000000000000000000000000000000 PUSH1 0x0 DUP3 ADD MSTORE POP JUMP JUMPDEST PUSH1 0x0 PUSH2 0xD16 PUSH1 0xB DUP4 PUSH2 0xC1D JUMP JUMPDEST SWAP2 POP PUSH2 0xD21 DUP3 PUSH2 0xCE0 JUMP JUMPDEST PUSH1 0x20 DUP3 ADD SWAP1 POP SWAP2 SWAP1 POP JUMP JUMPDEST PUSH1 0x0 PUSH1 0x20 DUP3 ADD SWAP1 POP DUP2 DUP2 SUB PUSH1 0x0 DUP4 ADD MSTORE PUSH2 0xD45 DUP2 PUSH2 0xD09 JUMP JUMPDEST SWAP1 POP SWAP2 SWAP1 POP JUMP JUMPDEST PUSH32 0x4F6E6C792074686520636F6E7472616374206F776E65722063616E2064697374 PUSH1 0x0 DUP3 ADD MSTORE PUSH32 0x72696275746520696E6865726974616E63652E00000000000000000000000000 PUSH1 0x20 DUP3 ADD MSTORE POP JUMP JUMPDEST PUSH1 0x0 PUSH2 0xDA8 PUSH1 0x33 DUP4 PUSH2 0xC1D JUMP JUMPDEST SWAP2 POP PUSH2 0xDB3 DUP3 PUSH2 0xD4C JUMP JUMPDEST PUSH1 0x40 DUP3 ADD SWAP1 POP SWAP2 SWAP1 POP JUMP JUMPDEST PUSH1 0x0 PUSH1 0x20 DUP3 ADD SWAP1 POP DUP2 DUP2 SUB PUSH1 0x0 DUP4 ADD MSTORE PUSH2 0xDD7 DUP2 PUSH2 0xD9B JUMP JUMPDEST SWAP1 POP SWAP2 SWAP1 POP JUMP JUMPDEST PUSH32 0x4E6F20696E68657269746F72732061646465642E000000000000000000000000 PUSH1 0x0 DUP3 ADD MSTORE POP JUMP JUMPDEST PUSH1 0x0 PUSH2 0xE14 PUSH1 0x14 DUP4 PUSH2 0xC1D JUMP JUMPDEST SWAP2 POP PUSH2 0xE1F DUP3 PUSH2 0xDDE JUMP JUMPDEST PUSH1 0x20 DUP3 ADD SWAP1 POP SWAP2 SWAP1 POP JUMP JUMPDEST PUSH1 0x0 PUSH1 0x20 DUP3 ADD SWAP1 POP DUP2 DUP2 SUB PUSH1 0x0 DUP4 ADD MSTORE PUSH2 0xE43 DUP2 PUSH2 0xE07 JUMP JUMPDEST SWAP1 POP SWAP2 SWAP1 POP JUMP JUMPDEST PUSH32 0x4E6F20696E6865726974616E636520616D6F756E742070726F76696465642E00 PUSH1 0x0 DUP3 ADD MSTORE POP JUMP JUMPDEST PUSH1 0x0 PUSH2 0xE80 PUSH1 0x1F DUP4 PUSH2 0xC1D JUMP JUMPDEST SWAP2 POP PUSH2 0xE8B DUP3 PUSH2 0xE4A JUMP JUMPDEST PUSH1 0x20 DUP3 ADD SWAP1 POP SWAP2 SWAP1 POP JUMP JUMPDEST PUSH1 0x0 PUSH1 0x20 DUP3 ADD SWAP1 POP DUP2 DUP2 SUB PUSH1 0x0 DUP4 ADD MSTORE PUSH2 0xEAF DUP2 PUSH2 0xE73 JUMP JUMPDEST SWAP1 POP SWAP2 SWAP1 POP JUMP JUMPDEST PUSH32 0x4E487B7100000000000000000000000000000000000000000000000000000000 PUSH1 0x0 MSTORE PUSH1 0x32 PUSH1 0x4 MSTORE PUSH1 0x24 PUSH1 0x0 REVERT JUMPDEST PUSH32 0x4E487B7100000000000000000000000000000000000000000000000000000000 PUSH1 0x0 MSTORE PUSH1 0x11 PUSH1 0x4 MSTORE PUSH1 0x24 PUSH1 0x0 REVERT JUMPDEST PUSH1 0x0 PUSH2 0xF1F DUP3 PUSH2 0xAB6 JUMP JUMPDEST SWAP2 POP PUSH2 0xF2A DUP4 PUSH2 0xAB6 JUMP JUMPDEST SWAP3 POP DUP3 DUP3 MUL PUSH2 0xF38 DUP2 PUSH2 0xAB6 JUMP JUMPDEST SWAP2 POP DUP3 DUP3 DIV DUP5 EQ DUP4 ISZERO OR PUSH2 0xF4F JUMPI PUSH2 0xF4E PUSH2 0xEE5 JUMP JUMPDEST JUMPDEST POP SWAP3 SWAP2 POP POP JUMP JUMPDEST PUSH32 0x4E487B7100000000000000000000000000000000000000000000000000000000 PUSH1 0x0 MSTORE PUSH1 0x12 PUSH1 0x4 MSTORE PUSH1 0x24 PUSH1 0x0 REVERT JUMPDEST PUSH1 0x0 PUSH2 0xF90 DUP3 PUSH2 0xAB6 JUMP JUMPDEST SWAP2 POP PUSH2 0xF9B DUP4 PUSH2 0xAB6 JUMP JUMPDEST SWAP3 POP DUP3 PUSH2 0xFAB JUMPI PUSH2 0xFAA PUSH2 0xF56 JUMP JUMPDEST JUMPDEST DUP3 DUP3 DIV SWAP1 POP SWAP3 SWAP2 POP POP JUMP JUMPDEST PUSH1 0x0 PUSH2 0xFC1 DUP3 PUSH2 0xAB6 JUMP JUMPDEST SWAP2 POP PUSH32 0xFFFFFFFFFFFFFFFFFFFFFFFFFFFFFFFFFFFFFFFFFFFFFFFFFFFFFFFFFFFFFFFF DUP3 SUB PUSH2 0xFF3 JUMPI PUSH2 0xFF2 PUSH2 0xEE5 JUMP JUMPDEST JUMPDEST PUSH1 0x1 DUP3 ADD SWAP1 POP SWAP2 SWAP1 POP JUMP JUMPDEST PUSH32 0x4F6E6C792074686520636F6E7472616374206F776E65722063616E2061646420 PUSH1 0x0 DUP3 ADD MSTORE PUSH32 0x696E68657269746F72732E000000000000000000000000000000000000000000 PUSH1 0x20 DUP3 ADD MSTORE POP JUMP JUMPDEST PUSH1 0x0 PUSH2 0x105A PUSH1 0x2B DUP4 PUSH2 0xC1D JUMP JUMPDEST SWAP2 POP PUSH2 0x1065 DUP3 PUSH2 0xFFE JUMP JUMPDEST PUSH1 0x40 DUP3 ADD SWAP1 POP SWAP2 SWAP1 POP JUMP JUMPDEST PUSH1 0x0 PUSH1 0x20 DUP3 ADD SWAP1 POP DUP2 DUP2 SUB PUSH1 0x0 DUP4 ADD MSTORE PUSH2 0x1089 DUP2 PUSH2 0x104D JUMP JUMPDEST SWAP1 POP SWAP2 SWAP1 POP JUMP JUMPDEST PUSH32 0x50657263656E74616765206D757374206265206265747765656E203120616E64 PUSH1 0x0 DUP3 ADD MSTORE PUSH32 0x203130302E000000000000000000000000000000000000000000000000000000 PUSH1 0x20 DUP3 ADD MSTORE POP JUMP JUMPDEST PUSH1 0x0 PUSH2 0x10EC PUSH1 0x25 DUP4 PUSH2 0xC1D JUMP JUMPDEST SWAP2 POP PUSH2 0x10F7 DUP3 PUSH2 0x1090 JUMP JUMPDEST PUSH1 0x40 DUP3 ADD SWAP1 POP SWAP2 SWAP1 POP JUMP JUMPDEST PUSH1 0x0 PUSH1 0x20 DUP3 ADD SWAP1 POP DUP2 DUP2 SUB PUSH1 0x0 DUP4 ADD MSTORE PUSH2 0x111B DUP2 PUSH2 0x10DF JUMP JUMPDEST SWAP1 POP SWAP2 SWAP1 POP JUMP JUMPDEST PUSH32 0x696E68657269746F7220616C7265616479206578697374732E00000000000000 PUSH1 0x0 DUP3 ADD MSTORE POP JUMP JUMPDEST PUSH1 0x0 PUSH2 0x1158 PUSH1 0x19 DUP4 PUSH2 0xC1D JUMP JUMPDEST SWAP2 POP PUSH2 0x1163 DUP3 PUSH2 0x1122 JUMP JUMPDEST PUSH1 0x20 DUP3 ADD SWAP1 POP SWAP2 SWAP1 POP JUMP JUMPDEST PUSH1 0x0 PUSH1 0x20 DUP3 ADD SWAP1 POP DUP2 DUP2 SUB PUSH1 0x0 DUP4 ADD MSTORE PUSH2 0x1187 DUP2 PUSH2 0x114B JUMP JUMPDEST SWAP1 POP SWAP2 SWAP1 POP JUMP INVALID LOG2 PUSH5 0x6970667358 0x22 SLT KECCAK256 0x21 0xEC PUSH11 0x88BB3AE3ED9C76EFD01DD3 0xAF 0xE PUSH26 0xDA807559E3702ED11D2E79BF0F07CB64736F6C63430008120033 "
				},
				"gasEstimates": {
					"creation": {
						"codeDepositCost": "909600",
						"executionCost": "infinite",
						"totalCost": "infinite"
					},
					"external": {
						"": "512",
						"addInheritor(address,uint256)": "100291",
						"contractAddress()": "2602",
						"fund()": "478",
						"getContractBalance()": "406",
						"inheritorAddresses(uint256)": "5022",
						"inheritors(address)": "infinite",
						"owner()": "2514",
						"senEth()": "infinite",
						"withdraw(uint256)": "infinite"
					}
				},
				"methodIdentifiers": {
					"addInheritor(address,uint256)": "9c21ef0b",
					"contractAddress()": "f6b4dfb4",
					"fund()": "b60d4288",
					"getContractBalance()": "6f9fb98a",
					"inheritorAddresses(uint256)": "c00835dd",
					"inheritors(address)": "215bbc8f",
					"owner()": "8da5cb5b",
					"senEth()": "3c390ff7",
					"withdraw(uint256)": "2e1a7d4d"
				}
			},
			"storageLayout": {
				"storage": [
					{
						"astId": 11,
						"contract": "Miras.sol:Miras",
						"label": "inheritors",
						"offset": 0,
						"slot": "0",
						"type": "t_mapping(t_address,t_struct(inheritor)6_storage)"
					},
					{
						"astId": 14,
						"contract": "Miras.sol:Miras",
						"label": "inheritorAddresses",
						"offset": 0,
						"slot": "1",
						"type": "t_array(t_address)dyn_storage"
					},
					{
						"astId": 16,
						"contract": "Miras.sol:Miras",
						"label": "owner",
						"offset": 0,
						"slot": "2",
						"type": "t_address_payable"
					},
					{
						"astId": 18,
						"contract": "Miras.sol:Miras",
						"label": "contractAddress",
						"offset": 0,
						"slot": "3",
						"type": "t_address"
					}
				],
				"types": {
					"t_address": {
						"encoding": "inplace",
						"label": "address",
						"numberOfBytes": "20"
					},
					"t_address_payable": {
						"encoding": "inplace",
						"label": "address payable",
						"numberOfBytes": "20"
					},
					"t_array(t_address)dyn_storage": {
						"base": "t_address",
						"encoding": "dynamic_array",
						"label": "address[]",
						"numberOfBytes": "32"
					},
					"t_mapping(t_address,t_struct(inheritor)6_storage)": {
						"encoding": "mapping",
						"key": "t_address",
						"label": "mapping(address => struct Miras.inheritor)",
						"numberOfBytes": "32",
						"value": "t_struct(inheritor)6_storage"
					},
					"t_struct(inheritor)6_storage": {
						"encoding": "inplace",
						"label": "struct Miras.inheritor",
						"members": [
							{
								"astId": 3,
								"contract": "Miras.sol:Miras",
								"label": "inheritorAddress",
								"offset": 0,
								"slot": "0",
								"type": "t_address_payable"
							},
							{
								"astId": 5,
								"contract": "Miras.sol:Miras",
								"label": "percentage",
								"offset": 0,
								"slot": "1",
								"type": "t_uint256"
							}
						],
						"numberOfBytes": "64"
					},
					"t_uint256": {
						"encoding": "inplace",
						"label": "uint256",
						"numberOfBytes": "32"
					}
				}
			},
			"userdoc": {
				"kind": "user",
				"methods": {},
				"version": 1
			}
		}
	}
}