{
	"chainlink.sol": {
		"EstateInheritance": {
			"abi": [
				{
					"inputs": [
						{
							"internalType": "address",
							"name": "_owner",
							"type": "address"
						},
						{
							"internalType": "uint256",
							"name": "_commissionRate",
							"type": "uint256"
						},
						{
							"internalType": "address",
							"name": "_linkTokenAddress",
							"type": "address"
						},
						{
							"internalType": "address",
							"name": "_uniswapAddress",
							"type": "address"
						}
					],
					"stateMutability": "nonpayable",
					"type": "constructor"
				},
				{
					"anonymous": false,
					"inputs": [
						{
							"indexed": true,
							"internalType": "address",
							"name": "to",
							"type": "address"
						},
						{
							"indexed": false,
							"internalType": "uint256",
							"name": "amount",
							"type": "uint256"
						}
					],
					"name": "InheritanceDistributed",
					"type": "event"
				},
				{
					"anonymous": false,
					"inputs": [
						{
							"indexed": true,
							"internalType": "address",
							"name": "from",
							"type": "address"
						},
						{
							"indexed": false,
							"internalType": "uint256",
							"name": "amount",
							"type": "uint256"
						}
					],
					"name": "InheritanceReceived",
					"type": "event"
				},
				{
					"inputs": [
						{
							"internalType": "uint256",
							"name": "",
							"type": "uint256"
						}
					],
					"name": "cycleDurations",
					"outputs": [
						{
							"internalType": "uint256",
							"name": "",
							"type": "uint256"
						}
					],
					"stateMutability": "view",
					"type": "function"
				},
				{
					"inputs": [],
					"name": "distributeInheritance",
					"outputs": [],
					"stateMutability": "nonpayable",
					"type": "function"
				},
				{
					"inputs": [],
					"name": "fullback",
					"outputs": [],
					"stateMutability": "payable",
					"type": "function"
				},
				{
					"inputs": [],
					"name": "getCommissionRate",
					"outputs": [
						{
							"internalType": "uint256",
							"name": "",
							"type": "uint256"
						}
					],
					"stateMutability": "view",
					"type": "function"
				},
				{
					"inputs": [
						{
							"internalType": "uint256",
							"name": "_cycle",
							"type": "uint256"
						}
					],
					"name": "getCycleDuration",
					"outputs": [
						{
							"internalType": "uint256",
							"name": "",
							"type": "uint256"
						}
					],
					"stateMutability": "view",
					"type": "function"
				},
				{
					"inputs": [],
					"name": "getGasLimit",
					"outputs": [
						{
							"internalType": "uint256",
							"name": "",
							"type": "uint256"
						}
					],
					"stateMutability": "view",
					"type": "function"
				},
				{
					"inputs": [],
					"name": "getLastDistributionTimestamp",
					"outputs": [
						{
							"internalType": "uint256",
							"name": "",
							"type": "uint256"
						}
					],
					"stateMutability": "view",
					"type": "function"
				},
				{
					"inputs": [],
					"name": "getTotalInheritance",
					"outputs": [
						{
							"internalType": "uint256",
							"name": "",
							"type": "uint256"
						}
					],
					"stateMutability": "view",
					"type": "function"
				},
				{
					"inputs": [],
					"name": "inherit",
					"outputs": [],
					"stateMutability": "payable",
					"type": "function"
				},
				{
					"inputs": [
						{
							"internalType": "uint256",
							"name": "_selectedCycle",
							"type": "uint256"
						}
					],
					"name": "setCycle",
					"outputs": [],
					"stateMutability": "nonpayable",
					"type": "function"
				},
				{
					"inputs": [
						{
							"internalType": "uint256",
							"name": "_gasLimit",
							"type": "uint256"
						}
					],
					"name": "setGasLimit",
					"outputs": [],
					"stateMutability": "nonpayable",
					"type": "function"
				},
				{
					"inputs": [
						{
							"internalType": "address[]",
							"name": "_recipients",
							"type": "address[]"
						},
						{
							"internalType": "uint256[]",
							"name": "_ratios",
							"type": "uint256[]"
						}
					],
					"name": "setHeirs",
					"outputs": [],
					"stateMutability": "nonpayable",
					"type": "function"
				},
				{
					"stateMutability": "payable",
					"type": "receive"
				}
			],
			"devdoc": {
				"kind": "dev",
				"methods": {},
				"version": 1
			},
			"evm": {
				"assembly": "    /* \"chainlink.sol\":115:4256  contract EstateInheritance {... */\n  mstore(0x40, 0x80)\n    /* \"chainlink.sol\":763:1327  constructor(... */\n  callvalue\n  dup1\n  iszero\n  tag_1\n  jumpi\n  0x00\n  dup1\n  revert\ntag_1:\n  pop\n  mload(0x40)\n  sub(codesize, bytecodeSize)\n  dup1\n  bytecodeSize\n  dup4\n  codecopy\n  dup2\n  dup2\n  add\n  0x40\n  mstore\n  dup2\n  add\n  swap1\n  tag_2\n  swap2\n  swap1\n  tag_3\n  jump\t// in\ntag_2:\n    /* \"chainlink.sol\":921:927  _owner */\n  dup4\n    /* \"chainlink.sol\":913:918  owner */\n  0x00\n  dup1\n    /* \"chainlink.sol\":913:927  owner = _owner */\n  0x0100\n  exp\n  dup2\n  sload\n  dup2\n  0xffffffffffffffffffffffffffffffffffffffff\n  mul\n  not\n  and\n  swap1\n  dup4\n  0xffffffffffffffffffffffffffffffffffffffff\n  and\n  mul\n  or\n  swap1\n  sstore\n  pop\n    /* \"chainlink.sol\":954:969  _commissionRate */\n  dup3\n    /* \"chainlink.sol\":937:951  commissionRate */\n  0x02\n    /* \"chainlink.sol\":937:969  commissionRate = _commissionRate */\n  dup2\n  swap1\n  sstore\n  pop\n    /* \"chainlink.sol\":998:1015  _linkTokenAddress */\n  dup2\n    /* \"chainlink.sol\":979:995  linkTokenAddress */\n  0x05\n  0x00\n    /* \"chainlink.sol\":979:1015  linkTokenAddress = _linkTokenAddress */\n  0x0100\n  exp\n  dup2\n  sload\n  dup2\n  0xffffffffffffffffffffffffffffffffffffffff\n  mul\n  not\n  and\n  swap1\n  dup4\n  0xffffffffffffffffffffffffffffffffffffffff\n  and\n  mul\n  or\n  swap1\n  sstore\n  pop\n    /* \"chainlink.sol\":1042:1057  _uniswapAddress */\n  dup1\n    /* \"chainlink.sol\":1025:1039  uniswapAddress */\n  0x06\n  0x00\n    /* \"chainlink.sol\":1025:1057  uniswapAddress = _uniswapAddress */\n  0x0100\n  exp\n  dup2\n  sload\n  dup2\n  0xffffffffffffffffffffffffffffffffffffffff\n  mul\n  not\n  and\n  swap1\n  dup4\n  0xffffffffffffffffffffffffffffffffffffffff\n  and\n  mul\n  or\n  swap1\n  sstore\n  pop\n    /* \"chainlink.sol\":1095:1110  block.timestamp */\n  timestamp\n    /* \"chainlink.sol\":1067:1092  lastDistributionTimestamp */\n  0x04\n    /* \"chainlink.sol\":1067:1110  lastDistributionTimestamp = block.timestamp */\n  dup2\n  swap1\n  sstore\n  pop\n    /* \"chainlink.sol\":1131:1137  300000 */\n  0x0493e0\n    /* \"chainlink.sol\":1120:1128  gasLimit */\n  0x08\n    /* \"chainlink.sol\":1120:1137  gasLimit = 300000 */\n  dup2\n  swap1\n  sstore\n  pop\n    /* \"chainlink.sol\":1195:1203  365 days */\n  0x01e13380\n    /* \"chainlink.sol\":1175:1189  cycleDurations */\n  0x09\n    /* \"chainlink.sol\":1175:1192  cycleDurations[1] */\n  0x00\n    /* \"chainlink.sol\":1190:1191  1 */\n  0x01\n    /* \"chainlink.sol\":1175:1192  cycleDurations[1] */\n  dup2\n  mstore\n  0x20\n  add\n  swap1\n  dup2\n  mstore\n  0x20\n  add\n  0x00\n  keccak256\n    /* \"chainlink.sol\":1175:1203  cycleDurations[1] = 365 days */\n  dup2\n  swap1\n  sstore\n  pop\n    /* \"chainlink.sol\":1233:1241  730 days */\n  0x03c26700\n    /* \"chainlink.sol\":1213:1227  cycleDurations */\n  0x09\n    /* \"chainlink.sol\":1213:1230  cycleDurations[2] */\n  0x00\n    /* \"chainlink.sol\":1228:1229  2 */\n  0x02\n    /* \"chainlink.sol\":1213:1230  cycleDurations[2] */\n  dup2\n  mstore\n  0x20\n  add\n  swap1\n  dup2\n  mstore\n  0x20\n  add\n  0x00\n  keccak256\n    /* \"chainlink.sol\":1213:1241  cycleDurations[2] = 730 days */\n  dup2\n  swap1\n  sstore\n  pop\n    /* \"chainlink.sol\":1271:1280  1825 days */\n  0x09660180\n    /* \"chainlink.sol\":1251:1265  cycleDurations */\n  0x09\n    /* \"chainlink.sol\":1251:1268  cycleDurations[5] */\n  0x00\n    /* \"chainlink.sol\":1266:1267  5 */\n  0x05\n    /* \"chainlink.sol\":1251:1268  cycleDurations[5] */\n  dup2\n  mstore\n  0x20\n  add\n  swap1\n  dup2\n  mstore\n  0x20\n  add\n  0x00\n  keccak256\n    /* \"chainlink.sol\":1251:1280  cycleDurations[5] = 1825 days */\n  dup2\n  swap1\n  sstore\n  pop\n    /* \"chainlink.sol\":1311:1320  3650 days */\n  0x12cc0300\n    /* \"chainlink.sol\":1290:1304  cycleDurations */\n  0x09\n    /* \"chainlink.sol\":1290:1308  cycleDurations[10] */\n  0x00\n    /* \"chainlink.sol\":1305:1307  10 */\n  0x0a\n    /* \"chainlink.sol\":1290:1308  cycleDurations[10] */\n  dup2\n  mstore\n  0x20\n  add\n  swap1\n  dup2\n  mstore\n  0x20\n  add\n  0x00\n  keccak256\n    /* \"chainlink.sol\":1290:1320  cycleDurations[10] = 3650 days */\n  dup2\n  swap1\n  sstore\n  pop\n    /* \"chainlink.sol\":763:1327  constructor(... */\n  pop\n  pop\n  pop\n  pop\n    /* \"chainlink.sol\":115:4256  contract EstateInheritance {... */\n  jump(tag_6)\n    /* \"#utility.yul\":88:205   */\ntag_8:\n    /* \"#utility.yul\":197:198   */\n  0x00\n    /* \"#utility.yul\":194:195   */\n  dup1\n    /* \"#utility.yul\":187:199   */\n  revert\n    /* \"#utility.yul\":334:460   */\ntag_10:\n    /* \"#utility.yul\":371:378   */\n  0x00\n    /* \"#utility.yul\":411:453   */\n  0xffffffffffffffffffffffffffffffffffffffff\n    /* \"#utility.yul\":404:409   */\n  dup3\n    /* \"#utility.yul\":400:454   */\n  and\n    /* \"#utility.yul\":389:454   */\n  swap1\n  pop\n    /* \"#utility.yul\":334:460   */\n  swap2\n  swap1\n  pop\n  jump\t// out\n    /* \"#utility.yul\":466:562   */\ntag_11:\n    /* \"#utility.yul\":503:510   */\n  0x00\n    /* \"#utility.yul\":532:556   */\n  tag_23\n    /* \"#utility.yul\":550:555   */\n  dup3\n    /* \"#utility.yul\":532:556   */\n  tag_10\n  jump\t// in\ntag_23:\n    /* \"#utility.yul\":521:556   */\n  swap1\n  pop\n    /* \"#utility.yul\":466:562   */\n  swap2\n  swap1\n  pop\n  jump\t// out\n    /* \"#utility.yul\":568:690   */\ntag_12:\n    /* \"#utility.yul\":641:665   */\n  tag_25\n    /* \"#utility.yul\":659:664   */\n  dup2\n    /* \"#utility.yul\":641:665   */\n  tag_11\n  jump\t// in\ntag_25:\n    /* \"#utility.yul\":634:639   */\n  dup2\n    /* \"#utility.yul\":631:666   */\n  eq\n    /* \"#utility.yul\":621:684   */\n  tag_26\n  jumpi\n    /* \"#utility.yul\":680:681   */\n  0x00\n    /* \"#utility.yul\":677:678   */\n  dup1\n    /* \"#utility.yul\":670:682   */\n  revert\n    /* \"#utility.yul\":621:684   */\ntag_26:\n    /* \"#utility.yul\":568:690   */\n  pop\n  jump\t// out\n    /* \"#utility.yul\":696:839   */\ntag_13:\n    /* \"#utility.yul\":753:758   */\n  0x00\n    /* \"#utility.yul\":784:790   */\n  dup2\n    /* \"#utility.yul\":778:791   */\n  mload\n    /* \"#utility.yul\":769:791   */\n  swap1\n  pop\n    /* \"#utility.yul\":800:833   */\n  tag_28\n    /* \"#utility.yul\":827:832   */\n  dup2\n    /* \"#utility.yul\":800:833   */\n  tag_12\n  jump\t// in\ntag_28:\n    /* \"#utility.yul\":696:839   */\n  swap3\n  swap2\n  pop\n  pop\n  jump\t// out\n    /* \"#utility.yul\":845:922   */\ntag_14:\n    /* \"#utility.yul\":882:889   */\n  0x00\n    /* \"#utility.yul\":911:916   */\n  dup2\n    /* \"#utility.yul\":900:916   */\n  swap1\n  pop\n    /* \"#utility.yul\":845:922   */\n  swap2\n  swap1\n  pop\n  jump\t// out\n    /* \"#utility.yul\":928:1050   */\ntag_15:\n    /* \"#utility.yul\":1001:1025   */\n  tag_31\n    /* \"#utility.yul\":1019:1024   */\n  dup2\n    /* \"#utility.yul\":1001:1025   */\n  tag_14\n  jump\t// in\ntag_31:\n    /* \"#utility.yul\":994:999   */\n  dup2\n    /* \"#utility.yul\":991:1026   */\n  eq\n    /* \"#utility.yul\":981:1044   */\n  tag_32\n  jumpi\n    /* \"#utility.yul\":1040:1041   */\n  0x00\n    /* \"#utility.yul\":1037:1038   */\n  dup1\n    /* \"#utility.yul\":1030:1042   */\n  revert\n    /* \"#utility.yul\":981:1044   */\ntag_32:\n    /* \"#utility.yul\":928:1050   */\n  pop\n  jump\t// out\n    /* \"#utility.yul\":1056:1199   */\ntag_16:\n    /* \"#utility.yul\":1113:1118   */\n  0x00\n    /* \"#utility.yul\":1144:1150   */\n  dup2\n    /* \"#utility.yul\":1138:1151   */\n  mload\n    /* \"#utility.yul\":1129:1151   */\n  swap1\n  pop\n    /* \"#utility.yul\":1160:1193   */\n  tag_34\n    /* \"#utility.yul\":1187:1192   */\n  dup2\n    /* \"#utility.yul\":1160:1193   */\n  tag_15\n  jump\t// in\ntag_34:\n    /* \"#utility.yul\":1056:1199   */\n  swap3\n  swap2\n  pop\n  pop\n  jump\t// out\n    /* \"#utility.yul\":1205:2025   */\ntag_3:\n    /* \"#utility.yul\":1302:1308   */\n  0x00\n    /* \"#utility.yul\":1310:1316   */\n  dup1\n    /* \"#utility.yul\":1318:1324   */\n  0x00\n    /* \"#utility.yul\":1326:1332   */\n  dup1\n    /* \"#utility.yul\":1375:1378   */\n  0x80\n    /* \"#utility.yul\":1363:1372   */\n  dup6\n    /* \"#utility.yul\":1354:1361   */\n  dup8\n    /* \"#utility.yul\":1350:1373   */\n  sub\n    /* \"#utility.yul\":1346:1379   */\n  slt\n    /* \"#utility.yul\":1343:1463   */\n  iszero\n  tag_36\n  jumpi\n    /* \"#utility.yul\":1382:1461   */\n  tag_37\n  tag_8\n  jump\t// in\ntag_37:\n    /* \"#utility.yul\":1343:1463   */\ntag_36:\n    /* \"#utility.yul\":1502:1503   */\n  0x00\n    /* \"#utility.yul\":1527:1591   */\n  tag_38\n    /* \"#utility.yul\":1583:1590   */\n  dup8\n    /* \"#utility.yul\":1574:1580   */\n  dup3\n    /* \"#utility.yul\":1563:1572   */\n  dup9\n    /* \"#utility.yul\":1559:1581   */\n  add\n    /* \"#utility.yul\":1527:1591   */\n  tag_13\n  jump\t// in\ntag_38:\n    /* \"#utility.yul\":1517:1591   */\n  swap5\n  pop\n    /* \"#utility.yul\":1473:1601   */\n  pop\n    /* \"#utility.yul\":1640:1642   */\n  0x20\n    /* \"#utility.yul\":1666:1730   */\n  tag_39\n    /* \"#utility.yul\":1722:1729   */\n  dup8\n    /* \"#utility.yul\":1713:1719   */\n  dup3\n    /* \"#utility.yul\":1702:1711   */\n  dup9\n    /* \"#utility.yul\":1698:1720   */\n  add\n    /* \"#utility.yul\":1666:1730   */\n  tag_16\n  jump\t// in\ntag_39:\n    /* \"#utility.yul\":1656:1730   */\n  swap4\n  pop\n    /* \"#utility.yul\":1611:1740   */\n  pop\n    /* \"#utility.yul\":1779:1781   */\n  0x40\n    /* \"#utility.yul\":1805:1869   */\n  tag_40\n    /* \"#utility.yul\":1861:1868   */\n  dup8\n    /* \"#utility.yul\":1852:1858   */\n  dup3\n    /* \"#utility.yul\":1841:1850   */\n  dup9\n    /* \"#utility.yul\":1837:1859   */\n  add\n    /* \"#utility.yul\":1805:1869   */\n  tag_13\n  jump\t// in\ntag_40:\n    /* \"#utility.yul\":1795:1869   */\n  swap3\n  pop\n    /* \"#utility.yul\":1750:1879   */\n  pop\n    /* \"#utility.yul\":1918:1920   */\n  0x60\n    /* \"#utility.yul\":1944:2008   */\n  tag_41\n    /* \"#utility.yul\":2000:2007   */\n  dup8\n    /* \"#utility.yul\":1991:1997   */\n  dup3\n    /* \"#utility.yul\":1980:1989   */\n  dup9\n    /* \"#utility.yul\":1976:1998   */\n  add\n    /* \"#utility.yul\":1944:2008   */\n  tag_13\n  jump\t// in\ntag_41:\n    /* \"#utility.yul\":1934:2008   */\n  swap2\n  pop\n    /* \"#utility.yul\":1889:2018   */\n  pop\n    /* \"#utility.yul\":1205:2025   */\n  swap3\n  swap6\n  swap2\n  swap5\n  pop\n  swap3\n  pop\n  jump\t// out\n    /* \"chainlink.sol\":115:4256  contract EstateInheritance {... */\ntag_6:\n  dataSize(sub_0)\n  dup1\n  dataOffset(sub_0)\n  0x00\n  codecopy\n  0x00\n  return\nstop\n\nsub_0: assembly {\n        /* \"chainlink.sol\":115:4256  contract EstateInheritance {... */\n      mstore(0x40, 0x80)\n      jumpi(tag_1, lt(calldatasize, 0x04))\n      shr(0xe0, calldataload(0x00))\n      dup1\n      0x54e50ffd\n      gt\n      tag_15\n      jumpi\n      dup1\n      0x54e50ffd\n      eq\n      tag_9\n      jumpi\n      dup1\n      0x5f631ba5\n      eq\n      tag_10\n      jumpi\n      dup1\n      0x6d93c3ba\n      eq\n      tag_11\n      jumpi\n      dup1\n      0xabe0ee2e\n      eq\n      tag_12\n      jumpi\n      dup1\n      0xee7d72b4\n      eq\n      tag_13\n      jumpi\n      dup1\n      0xf46b8f82\n      eq\n      tag_14\n      jumpi\n      jump(tag_2)\n    tag_15:\n      dup1\n      0x0e72c7\n      eq\n      tag_3\n      jumpi\n      dup1\n      0x041e7adb\n      eq\n      tag_4\n      jumpi\n      dup1\n      0x1a93d1c3\n      eq\n      tag_5\n      jumpi\n      dup1\n      0x2b445d78\n      eq\n      tag_6\n      jumpi\n      dup1\n      0x3e4eb36c\n      eq\n      tag_7\n      jumpi\n      dup1\n      0x53a41b50\n      eq\n      tag_8\n      jumpi\n      jump(tag_2)\n    tag_1:\n      jumpi(tag_2, calldatasize)\n        /* \"chainlink.sol\":4225:4235  msg.sender */\n      caller\n        /* \"chainlink.sol\":4205:4247  InheritanceReceived(msg.sender, msg.value) */\n      0xffffffffffffffffffffffffffffffffffffffff\n      and\n      0xd34407217bc1188b69edcf88532167050a4ee9fb14ed2eecd50166fb0cb19b64\n        /* \"chainlink.sol\":4237:4246  msg.value */\n      callvalue\n        /* \"chainlink.sol\":4205:4247  InheritanceReceived(msg.sender, msg.value) */\n      mload(0x40)\n      tag_18\n      swap2\n      swap1\n      tag_19\n      jump\t// in\n    tag_18:\n      mload(0x40)\n      dup1\n      swap2\n      sub\n      swap1\n      log2\n        /* \"chainlink.sol\":115:4256  contract EstateInheritance {... */\n      stop\n    tag_2:\n      0x00\n      dup1\n      revert\n        /* \"chainlink.sol\":3789:3901  function getCycleDuration(uint _cycle) public view returns (uint) {... */\n    tag_3:\n      callvalue\n      dup1\n      iszero\n      tag_20\n      jumpi\n      0x00\n      dup1\n      revert\n    tag_20:\n      pop\n      tag_21\n      0x04\n      dup1\n      calldatasize\n      sub\n      dup2\n      add\n      swap1\n      tag_22\n      swap2\n      swap1\n      tag_23\n      jump\t// in\n    tag_22:\n      tag_24\n      jump\t// in\n    tag_21:\n      mload(0x40)\n      tag_25\n      swap2\n      swap1\n      tag_19\n      jump\t// in\n    tag_25:\n      mload(0x40)\n      dup1\n      swap2\n      sub\n      swap1\n      return\n        /* \"chainlink.sol\":3907:4023  function getLastDistributionTimestamp() public view returns (uint) {... */\n    tag_4:\n      callvalue\n      dup1\n      iszero\n      tag_26\n      jumpi\n      0x00\n      dup1\n      revert\n    tag_26:\n      pop\n      tag_27\n      tag_28\n      jump\t// in\n    tag_27:\n      mload(0x40)\n      tag_29\n      swap2\n      swap1\n      tag_19\n      jump\t// in\n    tag_29:\n      mload(0x40)\n      dup1\n      swap2\n      sub\n      swap1\n      return\n        /* \"chainlink.sol\":4029:4111  function getGasLimit() public view returns (uint) {... */\n    tag_5:\n      callvalue\n      dup1\n      iszero\n      tag_30\n      jumpi\n      0x00\n      dup1\n      revert\n    tag_30:\n      pop\n      tag_31\n      tag_32\n      jump\t// in\n    tag_31:\n      mload(0x40)\n      tag_33\n      swap2\n      swap1\n      tag_19\n      jump\t// in\n    tag_33:\n      mload(0x40)\n      dup1\n      swap2\n      sub\n      swap1\n      return\n        /* \"chainlink.sol\":1454:1674  function inherit() external payable {... */\n    tag_6:\n      tag_34\n      tag_35\n      jump\t// in\n    tag_34:\n      stop\n        /* \"chainlink.sol\":3689:3783  function getCommissionRate() public view returns (uint) {... */\n    tag_7:\n      callvalue\n      dup1\n      iszero\n      tag_36\n      jumpi\n      0x00\n      dup1\n      revert\n    tag_36:\n      pop\n      tag_37\n      tag_38\n      jump\t// in\n    tag_37:\n      mload(0x40)\n      tag_39\n      swap2\n      swap1\n      tag_19\n      jump\t// in\n    tag_39:\n      mload(0x40)\n      dup1\n      swap2\n      sub\n      swap1\n      return\n        /* \"chainlink.sol\":2106:3029  function distributeInheritance() external onlyOwner {... */\n    tag_8:\n      callvalue\n      dup1\n      iszero\n      tag_40\n      jumpi\n      0x00\n      dup1\n      revert\n    tag_40:\n      pop\n      tag_41\n      tag_42\n      jump\t// in\n    tag_41:\n      stop\n        /* \"chainlink.sol\":3585:3683  function getTotalInheritance() public view returns (uint) {... */\n    tag_9:\n      callvalue\n      dup1\n      iszero\n      tag_43\n      jumpi\n      0x00\n      dup1\n      revert\n    tag_43:\n      pop\n      tag_44\n      tag_45\n      jump\t// in\n    tag_44:\n      mload(0x40)\n      tag_46\n      swap2\n      swap1\n      tag_19\n      jump\t// in\n    tag_46:\n      mload(0x40)\n      dup1\n      swap2\n      sub\n      swap1\n      return\n        /* \"chainlink.sol\":530:573  mapping(uint => uint) public cycleDurations */\n    tag_10:\n      callvalue\n      dup1\n      iszero\n      tag_47\n      jumpi\n      0x00\n      dup1\n      revert\n    tag_47:\n      pop\n      tag_48\n      0x04\n      dup1\n      calldatasize\n      sub\n      dup2\n      add\n      swap1\n      tag_49\n      swap2\n      swap1\n      tag_23\n      jump\t// in\n    tag_49:\n      tag_50\n      jump\t// in\n    tag_48:\n      mload(0x40)\n      tag_51\n      swap2\n      swap1\n      tag_19\n      jump\t// in\n    tag_51:\n      mload(0x40)\n      dup1\n      swap2\n      sub\n      swap1\n      return\n        /* \"chainlink.sol\":3196:3382  function setCycle(uint _selectedCycle) external onlyOwner {... */\n    tag_11:\n      callvalue\n      dup1\n      iszero\n      tag_52\n      jumpi\n      0x00\n      dup1\n      revert\n    tag_52:\n      pop\n      tag_53\n      0x04\n      dup1\n      calldatasize\n      sub\n      dup2\n      add\n      swap1\n      tag_54\n      swap2\n      swap1\n      tag_23\n      jump\t// in\n    tag_54:\n      tag_55\n      jump\t// in\n    tag_53:\n      stop\n        /* \"chainlink.sol\":3487:3579  function fullback() external payable {... */\n    tag_12:\n      tag_56\n      tag_57\n      jump\t// in\n    tag_56:\n      stop\n        /* \"chainlink.sol\":3388:3481  function setGasLimit(uint _gasLimit) external onlyOwner {... */\n    tag_13:\n      callvalue\n      dup1\n      iszero\n      tag_58\n      jumpi\n      0x00\n      dup1\n      revert\n    tag_58:\n      pop\n      tag_59\n      0x04\n      dup1\n      calldatasize\n      sub\n      dup2\n      add\n      swap1\n      tag_60\n      swap2\n      swap1\n      tag_23\n      jump\t// in\n    tag_60:\n      tag_61\n      jump\t// in\n    tag_59:\n      stop\n        /* \"chainlink.sol\":1680:2100  function setHeirs(address[] memory _recipients, uint256[] memory _ratios) public {... */\n    tag_14:\n      callvalue\n      dup1\n      iszero\n      tag_62\n      jumpi\n      0x00\n      dup1\n      revert\n    tag_62:\n      pop\n      tag_63\n      0x04\n      dup1\n      calldatasize\n      sub\n      dup2\n      add\n      swap1\n      tag_64\n      swap2\n      swap1\n      tag_65\n      jump\t// in\n    tag_64:\n      tag_66\n      jump\t// in\n    tag_63:\n      stop\n        /* \"chainlink.sol\":3789:3901  function getCycleDuration(uint _cycle) public view returns (uint) {... */\n    tag_24:\n        /* \"chainlink.sol\":3849:3853  uint */\n      0x00\n        /* \"chainlink.sol\":3872:3886  cycleDurations */\n      0x09\n        /* \"chainlink.sol\":3872:3894  cycleDurations[_cycle] */\n      0x00\n        /* \"chainlink.sol\":3887:3893  _cycle */\n      dup4\n        /* \"chainlink.sol\":3872:3894  cycleDurations[_cycle] */\n      dup2\n      mstore\n      0x20\n      add\n      swap1\n      dup2\n      mstore\n      0x20\n      add\n      0x00\n      keccak256\n      sload\n        /* \"chainlink.sol\":3865:3894  return cycleDurations[_cycle] */\n      swap1\n      pop\n        /* \"chainlink.sol\":3789:3901  function getCycleDuration(uint _cycle) public view returns (uint) {... */\n      swap2\n      swap1\n      pop\n      jump\t// out\n        /* \"chainlink.sol\":3907:4023  function getLastDistributionTimestamp() public view returns (uint) {... */\n    tag_28:\n        /* \"chainlink.sol\":3968:3972  uint */\n      0x00\n        /* \"chainlink.sol\":3991:4016  lastDistributionTimestamp */\n      sload(0x04)\n        /* \"chainlink.sol\":3984:4016  return lastDistributionTimestamp */\n      swap1\n      pop\n        /* \"chainlink.sol\":3907:4023  function getLastDistributionTimestamp() public view returns (uint) {... */\n      swap1\n      jump\t// out\n        /* \"chainlink.sol\":4029:4111  function getGasLimit() public view returns (uint) {... */\n    tag_32:\n        /* \"chainlink.sol\":4073:4077  uint */\n      0x00\n        /* \"chainlink.sol\":4096:4104  gasLimit */\n      sload(0x08)\n        /* \"chainlink.sol\":4089:4104  return gasLimit */\n      swap1\n      pop\n        /* \"chainlink.sol\":4029:4111  function getGasLimit() public view returns (uint) {... */\n      swap1\n      jump\t// out\n        /* \"chainlink.sol\":1454:1674  function inherit() external payable {... */\n    tag_35:\n        /* \"chainlink.sol\":1520:1521  0 */\n      0x00\n        /* \"chainlink.sol\":1508:1517  msg.value */\n      callvalue\n        /* \"chainlink.sol\":1508:1521  msg.value > 0 */\n      gt\n        /* \"chainlink.sol\":1500:1571  require(msg.value > 0, \"Inheritance amount must be greater than zero.\") */\n      tag_71\n      jumpi\n      mload(0x40)\n      0x08c379a000000000000000000000000000000000000000000000000000000000\n      dup2\n      mstore\n      0x04\n      add\n      tag_72\n      swap1\n      tag_73\n      jump\t// in\n    tag_72:\n      mload(0x40)\n      dup1\n      swap2\n      sub\n      swap1\n      revert\n    tag_71:\n        /* \"chainlink.sol\":1601:1610  msg.value */\n      callvalue\n        /* \"chainlink.sol\":1581:1597  totalInheritance */\n      0x01\n      0x00\n        /* \"chainlink.sol\":1581:1610  totalInheritance += msg.value */\n      dup3\n      dup3\n      sload\n      tag_74\n      swap2\n      swap1\n      tag_75\n      jump\t// in\n    tag_74:\n      swap3\n      pop\n      pop\n      dup2\n      swap1\n      sstore\n      pop\n        /* \"chainlink.sol\":1645:1655  msg.sender */\n      caller\n        /* \"chainlink.sol\":1625:1667  InheritanceReceived(msg.sender, msg.value) */\n      0xffffffffffffffffffffffffffffffffffffffff\n      and\n      0xd34407217bc1188b69edcf88532167050a4ee9fb14ed2eecd50166fb0cb19b64\n        /* \"chainlink.sol\":1657:1666  msg.value */\n      callvalue\n        /* \"chainlink.sol\":1625:1667  InheritanceReceived(msg.sender, msg.value) */\n      mload(0x40)\n      tag_76\n      swap2\n      swap1\n      tag_19\n      jump\t// in\n    tag_76:\n      mload(0x40)\n      dup1\n      swap2\n      sub\n      swap1\n      log2\n        /* \"chainlink.sol\":1454:1674  function inherit() external payable {... */\n      jump\t// out\n        /* \"chainlink.sol\":3689:3783  function getCommissionRate() public view returns (uint) {... */\n    tag_38:\n        /* \"chainlink.sol\":3739:3743  uint */\n      0x00\n        /* \"chainlink.sol\":3762:3776  commissionRate */\n      sload(0x02)\n        /* \"chainlink.sol\":3755:3776  return commissionRate */\n      swap1\n      pop\n        /* \"chainlink.sol\":3689:3783  function getCommissionRate() public view returns (uint) {... */\n      swap1\n      jump\t// out\n        /* \"chainlink.sol\":2106:3029  function distributeInheritance() external onlyOwner {... */\n    tag_42:\n        /* \"chainlink.sol\":1386:1391  owner */\n      0x00\n      dup1\n      sload\n      swap1\n      0x0100\n      exp\n      swap1\n      div\n      0xffffffffffffffffffffffffffffffffffffffff\n      and\n        /* \"chainlink.sol\":1372:1391  msg.sender == owner */\n      0xffffffffffffffffffffffffffffffffffffffff\n      and\n        /* \"chainlink.sol\":1372:1382  msg.sender */\n      caller\n        /* \"chainlink.sol\":1372:1391  msg.sender == owner */\n      0xffffffffffffffffffffffffffffffffffffffff\n      and\n      eq\n        /* \"chainlink.sol\":1364:1430  require(msg.sender == owner, \"Only owner can call this function.\") */\n      tag_79\n      jumpi\n      mload(0x40)\n      0x08c379a000000000000000000000000000000000000000000000000000000000\n      dup2\n      mstore\n      0x04\n      add\n      tag_80\n      swap1\n      tag_81\n      jump\t// in\n    tag_80:\n      mload(0x40)\n      dup1\n      swap2\n      sub\n      swap1\n      revert\n    tag_79:\n        /* \"chainlink.sol\":2223:2237  cycleDurations */\n      0x09\n        /* \"chainlink.sol\":2223:2252  cycleDurations[selectedCycle] */\n      0x00\n        /* \"chainlink.sol\":2238:2251  selectedCycle */\n      sload(0x07)\n        /* \"chainlink.sol\":2223:2252  cycleDurations[selectedCycle] */\n      dup2\n      mstore\n      0x20\n      add\n      swap1\n      dup2\n      mstore\n      0x20\n      add\n      0x00\n      keccak256\n      sload\n        /* \"chainlink.sol\":2195:2220  lastDistributionTimestamp */\n      sload(0x04)\n        /* \"chainlink.sol\":2195:2252  lastDistributionTimestamp + cycleDurations[selectedCycle] */\n      tag_83\n      swap2\n      swap1\n      tag_75\n      jump\t// in\n    tag_83:\n        /* \"chainlink.sol\":2176:2191  block.timestamp */\n      timestamp\n        /* \"chainlink.sol\":2176:2252  block.timestamp >= lastDistributionTimestamp + cycleDurations[selectedCycle] */\n      lt\n      iszero\n        /* \"chainlink.sol\":2168:2294  require(block.timestamp >= lastDistributionTimestamp + cycleDurations[selectedCycle], \"Distribution cycle not yet completed.\") */\n      tag_84\n      jumpi\n      mload(0x40)\n      0x08c379a000000000000000000000000000000000000000000000000000000000\n      dup2\n      mstore\n      0x04\n      add\n      tag_85\n      swap1\n      tag_86\n      jump\t// in\n    tag_85:\n      mload(0x40)\n      dup1\n      swap2\n      sub\n      swap1\n      revert\n    tag_84:\n        /* \"chainlink.sol\":2313:2333  uint totalCommission */\n      0x00\n        /* \"chainlink.sol\":2374:2379  10000 */\n      0x2710\n        /* \"chainlink.sol\":2356:2370  commissionRate */\n      sload(0x02)\n        /* \"chainlink.sol\":2337:2353  totalInheritance */\n      sload(0x01)\n        /* \"chainlink.sol\":2337:2370  totalInheritance * commissionRate */\n      tag_87\n      swap2\n      swap1\n      tag_88\n      jump\t// in\n    tag_87:\n        /* \"chainlink.sol\":2336:2379  (totalInheritance * commissionRate) / 10000 */\n      tag_89\n      swap2\n      swap1\n      tag_90\n      jump\t// in\n    tag_89:\n        /* \"chainlink.sol\":2313:2379  uint totalCommission = (totalInheritance * commissionRate) / 10000 */\n      swap1\n      pop\n        /* \"chainlink.sol\":2389:2414  uint availableInheritance */\n      0x00\n        /* \"chainlink.sol\":2436:2451  totalCommission */\n      dup2\n        /* \"chainlink.sol\":2417:2433  totalInheritance */\n      sload(0x01)\n        /* \"chainlink.sol\":2417:2451  totalInheritance - totalCommission */\n      tag_91\n      swap2\n      swap1\n      tag_92\n      jump\t// in\n    tag_91:\n        /* \"chainlink.sol\":2389:2451  uint availableInheritance = totalInheritance - totalCommission */\n      swap1\n      pop\n        /* \"chainlink.sol\":2461:2486  uint remainingInheritance */\n      0x00\n        /* \"chainlink.sol\":2489:2509  availableInheritance */\n      dup2\n        /* \"chainlink.sol\":2461:2509  uint remainingInheritance = availableInheritance */\n      swap1\n      pop\n        /* \"chainlink.sol\":2533:2539  uint i */\n      0x00\n        /* \"chainlink.sol\":2528:2831  for (uint i = 0; i < heirs.length; i++) {... */\n    tag_93:\n        /* \"chainlink.sol\":2549:2554  heirs */\n      0x0a\n        /* \"chainlink.sol\":2549:2561  heirs.length */\n      dup1\n      sload\n      swap1\n      pop\n        /* \"chainlink.sol\":2545:2546  i */\n      dup2\n        /* \"chainlink.sol\":2545:2561  i < heirs.length */\n      lt\n        /* \"chainlink.sol\":2528:2831  for (uint i = 0; i < heirs.length; i++) {... */\n      iszero\n      tag_94\n      jumpi\n        /* \"chainlink.sol\":2582:2593  uint amount */\n      0x00\n        /* \"chainlink.sol\":2638:2643  10000 */\n      0x2710\n        /* \"chainlink.sol\":2620:2625  heirs */\n      0x0a\n        /* \"chainlink.sol\":2626:2627  i */\n      dup4\n        /* \"chainlink.sol\":2620:2628  heirs[i] */\n      dup2\n      sload\n      dup2\n      lt\n      tag_96\n      jumpi\n      tag_97\n      tag_98\n      jump\t// in\n    tag_97:\n    tag_96:\n      swap1\n      0x00\n      mstore\n      keccak256(0x00, 0x20)\n      swap1\n      0x02\n      mul\n      add\n        /* \"chainlink.sol\":2620:2634  heirs[i].ratio */\n      0x01\n      add\n      sload\n        /* \"chainlink.sol\":2597:2617  availableInheritance */\n      dup6\n        /* \"chainlink.sol\":2597:2634  availableInheritance * heirs[i].ratio */\n      tag_100\n      swap2\n      swap1\n      tag_88\n      jump\t// in\n    tag_100:\n        /* \"chainlink.sol\":2596:2643  (availableInheritance * heirs[i].ratio) / 10000 */\n      tag_101\n      swap2\n      swap1\n      tag_90\n      jump\t// in\n    tag_101:\n        /* \"chainlink.sol\":2582:2643  uint amount = (availableInheritance * heirs[i].ratio) / 10000 */\n      swap1\n      pop\n        /* \"chainlink.sol\":2681:2687  amount */\n      dup1\n        /* \"chainlink.sol\":2657:2687  remainingInheritance -= amount */\n      dup4\n      tag_102\n      swap2\n      swap1\n      tag_92\n      jump\t// in\n    tag_102:\n      swap3\n      pop\n        /* \"chainlink.sol\":2701:2747  distributeTokens(heirs[i].heirAddress, amount) */\n      tag_103\n        /* \"chainlink.sol\":2718:2723  heirs */\n      0x0a\n        /* \"chainlink.sol\":2724:2725  i */\n      dup4\n        /* \"chainlink.sol\":2718:2726  heirs[i] */\n      dup2\n      sload\n      dup2\n      lt\n      tag_104\n      jumpi\n      tag_105\n      tag_98\n      jump\t// in\n    tag_105:\n    tag_104:\n      swap1\n      0x00\n      mstore\n      keccak256(0x00, 0x20)\n      swap1\n      0x02\n      mul\n      add\n        /* \"chainlink.sol\":2718:2738  heirs[i].heirAddress */\n      0x00\n      add\n      0x00\n      swap1\n      sload\n      swap1\n      0x0100\n      exp\n      swap1\n      div\n      0xffffffffffffffffffffffffffffffffffffffff\n      and\n        /* \"chainlink.sol\":2740:2746  amount */\n      dup3\n        /* \"chainlink.sol\":2701:2717  distributeTokens */\n      tag_107\n        /* \"chainlink.sol\":2701:2747  distributeTokens(heirs[i].heirAddress, amount) */\n      jump\t// in\n    tag_103:\n        /* \"chainlink.sol\":2790:2795  heirs */\n      0x0a\n        /* \"chainlink.sol\":2796:2797  i */\n      dup3\n        /* \"chainlink.sol\":2790:2798  heirs[i] */\n      dup2\n      sload\n      dup2\n      lt\n      tag_108\n      jumpi\n      tag_109\n      tag_98\n      jump\t// in\n    tag_109:\n    tag_108:\n      swap1\n      0x00\n      mstore\n      keccak256(0x00, 0x20)\n      swap1\n      0x02\n      mul\n      add\n        /* \"chainlink.sol\":2790:2810  heirs[i].heirAddress */\n      0x00\n      add\n      0x00\n      swap1\n      sload\n      swap1\n      0x0100\n      exp\n      swap1\n      div\n      0xffffffffffffffffffffffffffffffffffffffff\n      and\n        /* \"chainlink.sol\":2767:2819  InheritanceDistributed(heirs[i].heirAddress, amount) */\n      0xffffffffffffffffffffffffffffffffffffffff\n      and\n      0x2a3fc9f6ac009bb0b1a42d00609a0e83a548aa248a6f2a03f5b2af26cae17d9e\n        /* \"chainlink.sol\":2812:2818  amount */\n      dup3\n        /* \"chainlink.sol\":2767:2819  InheritanceDistributed(heirs[i].heirAddress, amount) */\n      mload(0x40)\n      tag_111\n      swap2\n      swap1\n      tag_19\n      jump\t// in\n    tag_111:\n      mload(0x40)\n      dup1\n      swap2\n      sub\n      swap1\n      log2\n        /* \"chainlink.sol\":2568:2831  {... */\n      pop\n        /* \"chainlink.sol\":2563:2566  i++ */\n      dup1\n      dup1\n      tag_112\n      swap1\n      tag_113\n      jump\t// in\n    tag_112:\n      swap2\n      pop\n      pop\n        /* \"chainlink.sol\":2528:2831  for (uint i = 0; i < heirs.length; i++) {... */\n      jump(tag_93)\n    tag_94:\n      pop\n        /* \"chainlink.sol\":2849:2894  distributeTokens(owner, remainingInheritance) */\n      tag_114\n        /* \"chainlink.sol\":2866:2871  owner */\n      0x00\n      dup1\n      sload\n      swap1\n      0x0100\n      exp\n      swap1\n      div\n      0xffffffffffffffffffffffffffffffffffffffff\n      and\n        /* \"chainlink.sol\":2873:2893  remainingInheritance */\n      dup3\n        /* \"chainlink.sol\":2849:2865  distributeTokens */\n      tag_107\n        /* \"chainlink.sol\":2849:2894  distributeTokens(owner, remainingInheritance) */\n      jump\t// in\n    tag_114:\n        /* \"chainlink.sol\":2932:2937  owner */\n      0x00\n      dup1\n      sload\n      swap1\n      0x0100\n      exp\n      swap1\n      div\n      0xffffffffffffffffffffffffffffffffffffffff\n      and\n        /* \"chainlink.sol\":2909:2960  InheritanceDistributed(owner, remainingInheritance) */\n      0xffffffffffffffffffffffffffffffffffffffff\n      and\n      0x2a3fc9f6ac009bb0b1a42d00609a0e83a548aa248a6f2a03f5b2af26cae17d9e\n        /* \"chainlink.sol\":2939:2959  remainingInheritance */\n      dup3\n        /* \"chainlink.sol\":2909:2960  InheritanceDistributed(owner, remainingInheritance) */\n      mload(0x40)\n      tag_115\n      swap2\n      swap1\n      tag_19\n      jump\t// in\n    tag_115:\n      mload(0x40)\n      dup1\n      swap2\n      sub\n      swap1\n      log2\n        /* \"chainlink.sol\":3007:3022  block.timestamp */\n      timestamp\n        /* \"chainlink.sol\":2979:3004  lastDistributionTimestamp */\n      0x04\n        /* \"chainlink.sol\":2979:3022  lastDistributionTimestamp = block.timestamp */\n      dup2\n      swap1\n      sstore\n      pop\n        /* \"chainlink.sol\":2158:3029  {... */\n      pop\n      pop\n      pop\n        /* \"chainlink.sol\":2106:3029  function distributeInheritance() external onlyOwner {... */\n      jump\t// out\n        /* \"chainlink.sol\":3585:3683  function getTotalInheritance() public view returns (uint) {... */\n    tag_45:\n        /* \"chainlink.sol\":3637:3641  uint */\n      0x00\n        /* \"chainlink.sol\":3660:3676  totalInheritance */\n      sload(0x01)\n        /* \"chainlink.sol\":3653:3676  return totalInheritance */\n      swap1\n      pop\n        /* \"chainlink.sol\":3585:3683  function getTotalInheritance() public view returns (uint) {... */\n      swap1\n      jump\t// out\n        /* \"chainlink.sol\":530:573  mapping(uint => uint) public cycleDurations */\n    tag_50:\n      mstore(0x20, 0x09)\n      dup1\n      0x00\n      mstore\n      keccak256(0x00, 0x40)\n      0x00\n      swap2\n      pop\n      swap1\n      pop\n      sload\n      dup2\n      jump\t// out\n        /* \"chainlink.sol\":3196:3382  function setCycle(uint _selectedCycle) external onlyOwner {... */\n    tag_55:\n        /* \"chainlink.sol\":1386:1391  owner */\n      0x00\n      dup1\n      sload\n      swap1\n      0x0100\n      exp\n      swap1\n      div\n      0xffffffffffffffffffffffffffffffffffffffff\n      and\n        /* \"chainlink.sol\":1372:1391  msg.sender == owner */\n      0xffffffffffffffffffffffffffffffffffffffff\n      and\n        /* \"chainlink.sol\":1372:1382  msg.sender */\n      caller\n        /* \"chainlink.sol\":1372:1391  msg.sender == owner */\n      0xffffffffffffffffffffffffffffffffffffffff\n      and\n      eq\n        /* \"chainlink.sol\":1364:1430  require(msg.sender == owner, \"Only owner can call this function.\") */\n      tag_118\n      jumpi\n      mload(0x40)\n      0x08c379a000000000000000000000000000000000000000000000000000000000\n      dup2\n      mstore\n      0x04\n      add\n      tag_119\n      swap1\n      tag_81\n      jump\t// in\n    tag_119:\n      mload(0x40)\n      dup1\n      swap2\n      sub\n      swap1\n      revert\n    tag_118:\n        /* \"chainlink.sol\":3305:3306  0 */\n      0x00\n        /* \"chainlink.sol\":3272:3286  cycleDurations */\n      0x09\n        /* \"chainlink.sol\":3272:3302  cycleDurations[_selectedCycle] */\n      0x00\n        /* \"chainlink.sol\":3287:3301  _selectedCycle */\n      dup4\n        /* \"chainlink.sol\":3272:3302  cycleDurations[_selectedCycle] */\n      dup2\n      mstore\n      0x20\n      add\n      swap1\n      dup2\n      mstore\n      0x20\n      add\n      0x00\n      keccak256\n      sload\n        /* \"chainlink.sol\":3272:3306  cycleDurations[_selectedCycle] > 0 */\n      gt\n        /* \"chainlink.sol\":3264:3335  require(cycleDurations[_selectedCycle] > 0, \"Invalid cycle selection.\") */\n      tag_121\n      jumpi\n      mload(0x40)\n      0x08c379a000000000000000000000000000000000000000000000000000000000\n      dup2\n      mstore\n      0x04\n      add\n      tag_122\n      swap1\n      tag_123\n      jump\t// in\n    tag_122:\n      mload(0x40)\n      dup1\n      swap2\n      sub\n      swap1\n      revert\n    tag_121:\n        /* \"chainlink.sol\":3361:3375  _selectedCycle */\n      dup1\n        /* \"chainlink.sol\":3345:3358  selectedCycle */\n      0x07\n        /* \"chainlink.sol\":3345:3375  selectedCycle = _selectedCycle */\n      dup2\n      swap1\n      sstore\n      pop\n        /* \"chainlink.sol\":3196:3382  function setCycle(uint _selectedCycle) external onlyOwner {... */\n      pop\n      jump\t// out\n        /* \"chainlink.sol\":3487:3579  function fullback() external payable {... */\n    tag_57:\n      jump\t// out\n        /* \"chainlink.sol\":3388:3481  function setGasLimit(uint _gasLimit) external onlyOwner {... */\n    tag_61:\n        /* \"chainlink.sol\":1386:1391  owner */\n      0x00\n      dup1\n      sload\n      swap1\n      0x0100\n      exp\n      swap1\n      div\n      0xffffffffffffffffffffffffffffffffffffffff\n      and\n        /* \"chainlink.sol\":1372:1391  msg.sender == owner */\n      0xffffffffffffffffffffffffffffffffffffffff\n      and\n        /* \"chainlink.sol\":1372:1382  msg.sender */\n      caller\n        /* \"chainlink.sol\":1372:1391  msg.sender == owner */\n      0xffffffffffffffffffffffffffffffffffffffff\n      and\n      eq\n        /* \"chainlink.sol\":1364:1430  require(msg.sender == owner, \"Only owner can call this function.\") */\n      tag_126\n      jumpi\n      mload(0x40)\n      0x08c379a000000000000000000000000000000000000000000000000000000000\n      dup2\n      mstore\n      0x04\n      add\n      tag_127\n      swap1\n      tag_81\n      jump\t// in\n    tag_127:\n      mload(0x40)\n      dup1\n      swap2\n      sub\n      swap1\n      revert\n    tag_126:\n        /* \"chainlink.sol\":3465:3474  _gasLimit */\n      dup1\n        /* \"chainlink.sol\":3454:3462  gasLimit */\n      0x08\n        /* \"chainlink.sol\":3454:3474  gasLimit = _gasLimit */\n      dup2\n      swap1\n      sstore\n      pop\n        /* \"chainlink.sol\":3388:3481  function setGasLimit(uint _gasLimit) external onlyOwner {... */\n      pop\n      jump\t// out\n        /* \"chainlink.sol\":1680:2100  function setHeirs(address[] memory _recipients, uint256[] memory _ratios) public {... */\n    tag_66:\n        /* \"chainlink.sol\":1797:1804  _ratios */\n      dup1\n        /* \"chainlink.sol\":1797:1811  _ratios.length */\n      mload\n        /* \"chainlink.sol\":1775:1786  _recipients */\n      dup3\n        /* \"chainlink.sol\":1775:1793  _recipients.length */\n      mload\n        /* \"chainlink.sol\":1775:1811  _recipients.length == _ratios.length */\n      eq\n        /* \"chainlink.sol\":1767:1856  require(_recipients.length == _ratios.length, \"Recipient and ratio lengths do not match\") */\n      tag_130\n      jumpi\n      mload(0x40)\n      0x08c379a000000000000000000000000000000000000000000000000000000000\n      dup2\n      mstore\n      0x04\n      add\n      tag_131\n      swap1\n      tag_132\n      jump\t// in\n    tag_131:\n      mload(0x40)\n      dup1\n      swap2\n      sub\n      swap1\n      revert\n    tag_130:\n        /* \"chainlink.sol\":1873:1878  heirs */\n      0x0a\n      0x00\n        /* \"chainlink.sol\":1866:1878  delete heirs */\n      tag_133\n      swap2\n      swap1\n      tag_134\n      jump\t// in\n    tag_133:\n        /* \"chainlink.sol\":1902:1911  uint256 i */\n      0x00\n        /* \"chainlink.sol\":1897:2094  for (uint256 i = 0; i < _recipients.length; i++) {... */\n    tag_135:\n        /* \"chainlink.sol\":1921:1932  _recipients */\n      dup3\n        /* \"chainlink.sol\":1921:1939  _recipients.length */\n      mload\n        /* \"chainlink.sol\":1917:1918  i */\n      dup2\n        /* \"chainlink.sol\":1917:1939  i < _recipients.length */\n      lt\n        /* \"chainlink.sol\":1897:2094  for (uint256 i = 0; i < _recipients.length; i++) {... */\n      iszero\n      tag_136\n      jumpi\n        /* \"chainlink.sol\":1956:1975  Heir memory newHeir */\n      tag_138\n      tag_139\n      jump\t// in\n    tag_138:\n        /* \"chainlink.sol\":2007:2018  _recipients */\n      dup4\n        /* \"chainlink.sol\":2019:2020  i */\n      dup3\n        /* \"chainlink.sol\":2007:2021  _recipients[i] */\n      dup2\n      mload\n      dup2\n      lt\n      tag_140\n      jumpi\n      tag_141\n      tag_98\n      jump\t// in\n    tag_141:\n    tag_140:\n      0x20\n      mul\n      0x20\n      add\n      add\n      mload\n        /* \"chainlink.sol\":1985:1992  newHeir */\n      dup2\n        /* \"chainlink.sol\":1985:2004  newHeir.heirAddress */\n      0x00\n      add\n        /* \"chainlink.sol\":1985:2021  newHeir.heirAddress = _recipients[i] */\n      swap1\n      0xffffffffffffffffffffffffffffffffffffffff\n      and\n      swap1\n      dup2\n      0xffffffffffffffffffffffffffffffffffffffff\n      and\n      dup2\n      mstore\n      pop\n      pop\n        /* \"chainlink.sol\":2047:2054  _ratios */\n      dup3\n        /* \"chainlink.sol\":2055:2056  i */\n      dup3\n        /* \"chainlink.sol\":2047:2057  _ratios[i] */\n      dup2\n      mload\n      dup2\n      lt\n      tag_142\n      jumpi\n      tag_143\n      tag_98\n      jump\t// in\n    tag_143:\n    tag_142:\n      0x20\n      mul\n      0x20\n      add\n      add\n      mload\n        /* \"chainlink.sol\":2031:2038  newHeir */\n      dup2\n        /* \"chainlink.sol\":2031:2044  newHeir.ratio */\n      0x20\n      add\n        /* \"chainlink.sol\":2031:2057  newHeir.ratio = _ratios[i] */\n      dup2\n      dup2\n      mstore\n      pop\n      pop\n        /* \"chainlink.sol\":2068:2073  heirs */\n      0x0a\n        /* \"chainlink.sol\":2079:2086  newHeir */\n      dup2\n        /* \"chainlink.sol\":2068:2087  heirs.push(newHeir) */\n      swap1\n      dup1\n      0x01\n      dup2\n      sload\n      add\n      dup1\n      dup3\n      sstore\n      dup1\n      swap2\n      pop\n      pop\n      0x01\n      swap1\n      sub\n      swap1\n      0x00\n      mstore\n      keccak256(0x00, 0x20)\n      swap1\n      0x02\n      mul\n      add\n      0x00\n      swap1\n      swap2\n      swap1\n      swap2\n      swap1\n      swap2\n      pop\n      0x00\n      dup3\n      add\n      mload\n      dup2\n      0x00\n      add\n      exp(0x0100, 0x00)\n      dup2\n      sload\n      dup2\n      0xffffffffffffffffffffffffffffffffffffffff\n      mul\n      not\n      and\n      swap1\n      dup4\n      0xffffffffffffffffffffffffffffffffffffffff\n      and\n      mul\n      or\n      swap1\n      sstore\n      pop\n      0x20\n      dup3\n      add\n      mload\n      dup2\n      0x01\n      add\n      sstore\n      pop\n      pop\n        /* \"chainlink.sol\":1946:2094  {... */\n      pop\n        /* \"chainlink.sol\":1941:1944  i++ */\n      dup1\n      dup1\n      tag_145\n      swap1\n      tag_113\n      jump\t// in\n    tag_145:\n      swap2\n      pop\n      pop\n        /* \"chainlink.sol\":1897:2094  for (uint256 i = 0; i < _recipients.length; i++) {... */\n      jump(tag_135)\n    tag_136:\n      pop\n        /* \"chainlink.sol\":1680:2100  function setHeirs(address[] memory _recipients, uint256[] memory _ratios) public {... */\n      pop\n      pop\n      jump\t// out\n        /* \"chainlink.sol\":3035:3190  function distributeTokens(address recipient, uint amount) private {... */\n    tag_107:\n        /* \"chainlink.sol\":3118:3134  linkTokenAddress */\n      0x05\n      0x00\n      swap1\n      sload\n      swap1\n      0x0100\n      exp\n      swap1\n      div\n      0xffffffffffffffffffffffffffffffffffffffff\n      and\n        /* \"chainlink.sol\":3111:3148  IERC20(linkTokenAddress).transferFrom */\n      0xffffffffffffffffffffffffffffffffffffffff\n      and\n      0x23b872dd\n        /* \"chainlink.sol\":3149:3163  uniswapAddress */\n      0x06\n      0x00\n      swap1\n      sload\n      swap1\n      0x0100\n      exp\n      swap1\n      div\n      0xffffffffffffffffffffffffffffffffffffffff\n      and\n        /* \"chainlink.sol\":3165:3174  recipient */\n      dup5\n        /* \"chainlink.sol\":3176:3182  amount */\n      dup5\n        /* \"chainlink.sol\":3111:3183  IERC20(linkTokenAddress).transferFrom(uniswapAddress, recipient, amount) */\n      mload(0x40)\n      dup5\n      0xffffffff\n      and\n      0xe0\n      shl\n      dup2\n      mstore\n      0x04\n      add\n      tag_147\n      swap4\n      swap3\n      swap2\n      swap1\n      tag_148\n      jump\t// in\n    tag_147:\n      0x20\n      mload(0x40)\n      dup1\n      dup4\n      sub\n      dup2\n      0x00\n      dup8\n      gas\n      call\n      iszero\n      dup1\n      iszero\n      tag_150\n      jumpi\n      returndatasize\n      0x00\n      dup1\n      returndatacopy\n      revert(0x00, returndatasize)\n    tag_150:\n      pop\n      pop\n      pop\n      pop\n      mload(0x40)\n      returndatasize\n      not(0x1f)\n      0x1f\n      dup3\n      add\n      and\n      dup3\n      add\n      dup1\n      0x40\n      mstore\n      pop\n      dup2\n      add\n      swap1\n      tag_151\n      swap2\n      swap1\n      tag_152\n      jump\t// in\n    tag_151:\n      pop\n        /* \"chainlink.sol\":3035:3190  function distributeTokens(address recipient, uint amount) private {... */\n      pop\n      pop\n      jump\t// out\n    tag_134:\n      pop\n      dup1\n      sload\n      0x00\n      dup3\n      sstore\n      0x02\n      mul\n      swap1\n      0x00\n      mstore\n      keccak256(0x00, 0x20)\n      swap1\n      dup2\n      add\n      swap1\n      tag_154\n      swap2\n      swap1\n      tag_155\n      jump\t// in\n    tag_154:\n      pop\n      jump\t// out\n    tag_139:\n      mload(0x40)\n      dup1\n      0x40\n      add\n      0x40\n      mstore\n      dup1\n      and(0xffffffffffffffffffffffffffffffffffffffff, 0x00)\n      dup2\n      mstore\n      0x20\n      add\n      0x00\n      dup2\n      mstore\n      pop\n      swap1\n      jump\t// out\n    tag_155:\n    tag_156:\n      dup1\n      dup3\n      gt\n      iszero\n      tag_157\n      jumpi\n      0x00\n      dup1\n      dup3\n      add\n      exp(0x0100, 0x00)\n      dup2\n      sload\n      swap1\n      0xffffffffffffffffffffffffffffffffffffffff\n      mul\n      not\n      and\n      swap1\n      sstore\n      0x01\n      dup3\n      add\n      0x00\n      swap1\n      sstore\n      pop\n      0x02\n      add\n      jump(tag_156)\n    tag_157:\n      pop\n      swap1\n      jump\t// out\n        /* \"#utility.yul\":7:84   */\n    tag_158:\n        /* \"#utility.yul\":44:51   */\n      0x00\n        /* \"#utility.yul\":73:78   */\n      dup2\n        /* \"#utility.yul\":62:78   */\n      swap1\n      pop\n        /* \"#utility.yul\":7:84   */\n      swap2\n      swap1\n      pop\n      jump\t// out\n        /* \"#utility.yul\":90:208   */\n    tag_159:\n        /* \"#utility.yul\":177:201   */\n      tag_201\n        /* \"#utility.yul\":195:200   */\n      dup2\n        /* \"#utility.yul\":177:201   */\n      tag_158\n      jump\t// in\n    tag_201:\n        /* \"#utility.yul\":172:175   */\n      dup3\n        /* \"#utility.yul\":165:202   */\n      mstore\n        /* \"#utility.yul\":90:208   */\n      pop\n      pop\n      jump\t// out\n        /* \"#utility.yul\":214:436   */\n    tag_19:\n        /* \"#utility.yul\":307:311   */\n      0x00\n        /* \"#utility.yul\":345:347   */\n      0x20\n        /* \"#utility.yul\":334:343   */\n      dup3\n        /* \"#utility.yul\":330:348   */\n      add\n        /* \"#utility.yul\":322:348   */\n      swap1\n      pop\n        /* \"#utility.yul\":358:429   */\n      tag_203\n        /* \"#utility.yul\":426:427   */\n      0x00\n        /* \"#utility.yul\":415:424   */\n      dup4\n        /* \"#utility.yul\":411:428   */\n      add\n        /* \"#utility.yul\":402:408   */\n      dup5\n        /* \"#utility.yul\":358:429   */\n      tag_159\n      jump\t// in\n    tag_203:\n        /* \"#utility.yul\":214:436   */\n      swap3\n      swap2\n      pop\n      pop\n      jump\t// out\n        /* \"#utility.yul\":442:517   */\n    tag_160:\n        /* \"#utility.yul\":475:481   */\n      0x00\n        /* \"#utility.yul\":508:510   */\n      0x40\n        /* \"#utility.yul\":502:511   */\n      mload\n        /* \"#utility.yul\":492:511   */\n      swap1\n      pop\n        /* \"#utility.yul\":442:517   */\n      swap1\n      jump\t// out\n        /* \"#utility.yul\":523:640   */\n    tag_161:\n        /* \"#utility.yul\":632:633   */\n      0x00\n        /* \"#utility.yul\":629:630   */\n      dup1\n        /* \"#utility.yul\":622:634   */\n      revert\n        /* \"#utility.yul\":646:763   */\n    tag_162:\n        /* \"#utility.yul\":755:756   */\n      0x00\n        /* \"#utility.yul\":752:753   */\n      dup1\n        /* \"#utility.yul\":745:757   */\n      revert\n        /* \"#utility.yul\":769:891   */\n    tag_163:\n        /* \"#utility.yul\":842:866   */\n      tag_208\n        /* \"#utility.yul\":860:865   */\n      dup2\n        /* \"#utility.yul\":842:866   */\n      tag_158\n      jump\t// in\n    tag_208:\n        /* \"#utility.yul\":835:840   */\n      dup2\n        /* \"#utility.yul\":832:867   */\n      eq\n        /* \"#utility.yul\":822:885   */\n      tag_209\n      jumpi\n        /* \"#utility.yul\":881:882   */\n      0x00\n        /* \"#utility.yul\":878:879   */\n      dup1\n        /* \"#utility.yul\":871:883   */\n      revert\n        /* \"#utility.yul\":822:885   */\n    tag_209:\n        /* \"#utility.yul\":769:891   */\n      pop\n      jump\t// out\n        /* \"#utility.yul\":897:1036   */\n    tag_164:\n        /* \"#utility.yul\":943:948   */\n      0x00\n        /* \"#utility.yul\":981:987   */\n      dup2\n        /* \"#utility.yul\":968:988   */\n      calldataload\n        /* \"#utility.yul\":959:988   */\n      swap1\n      pop\n        /* \"#utility.yul\":997:1030   */\n      tag_211\n        /* \"#utility.yul\":1024:1029   */\n      dup2\n        /* \"#utility.yul\":997:1030   */\n      tag_163\n      jump\t// in\n    tag_211:\n        /* \"#utility.yul\":897:1036   */\n      swap3\n      swap2\n      pop\n      pop\n      jump\t// out\n        /* \"#utility.yul\":1042:1371   */\n    tag_23:\n        /* \"#utility.yul\":1101:1107   */\n      0x00\n        /* \"#utility.yul\":1150:1152   */\n      0x20\n        /* \"#utility.yul\":1138:1147   */\n      dup3\n        /* \"#utility.yul\":1129:1136   */\n      dup5\n        /* \"#utility.yul\":1125:1148   */\n      sub\n        /* \"#utility.yul\":1121:1153   */\n      slt\n        /* \"#utility.yul\":1118:1237   */\n      iszero\n      tag_213\n      jumpi\n        /* \"#utility.yul\":1156:1235   */\n      tag_214\n      tag_161\n      jump\t// in\n    tag_214:\n        /* \"#utility.yul\":1118:1237   */\n    tag_213:\n        /* \"#utility.yul\":1276:1277   */\n      0x00\n        /* \"#utility.yul\":1301:1354   */\n      tag_215\n        /* \"#utility.yul\":1346:1353   */\n      dup5\n        /* \"#utility.yul\":1337:1343   */\n      dup3\n        /* \"#utility.yul\":1326:1335   */\n      dup6\n        /* \"#utility.yul\":1322:1344   */\n      add\n        /* \"#utility.yul\":1301:1354   */\n      tag_164\n      jump\t// in\n    tag_215:\n        /* \"#utility.yul\":1291:1354   */\n      swap2\n      pop\n        /* \"#utility.yul\":1247:1364   */\n      pop\n        /* \"#utility.yul\":1042:1371   */\n      swap3\n      swap2\n      pop\n      pop\n      jump\t// out\n        /* \"#utility.yul\":1377:1494   */\n    tag_165:\n        /* \"#utility.yul\":1486:1487   */\n      0x00\n        /* \"#utility.yul\":1483:1484   */\n      dup1\n        /* \"#utility.yul\":1476:1488   */\n      revert\n        /* \"#utility.yul\":1500:1602   */\n    tag_166:\n        /* \"#utility.yul\":1541:1547   */\n      0x00\n        /* \"#utility.yul\":1592:1594   */\n      0x1f\n        /* \"#utility.yul\":1588:1595   */\n      not\n        /* \"#utility.yul\":1583:1585   */\n      0x1f\n        /* \"#utility.yul\":1576:1581   */\n      dup4\n        /* \"#utility.yul\":1572:1586   */\n      add\n        /* \"#utility.yul\":1568:1596   */\n      and\n        /* \"#utility.yul\":1558:1596   */\n      swap1\n      pop\n        /* \"#utility.yul\":1500:1602   */\n      swap2\n      swap1\n      pop\n      jump\t// out\n        /* \"#utility.yul\":1608:1788   */\n    tag_167:\n        /* \"#utility.yul\":1656:1733   */\n      0x4e487b7100000000000000000000000000000000000000000000000000000000\n        /* \"#utility.yul\":1653:1654   */\n      0x00\n        /* \"#utility.yul\":1646:1734   */\n      mstore\n        /* \"#utility.yul\":1753:1757   */\n      0x41\n        /* \"#utility.yul\":1750:1751   */\n      0x04\n        /* \"#utility.yul\":1743:1758   */\n      mstore\n        /* \"#utility.yul\":1777:1781   */\n      0x24\n        /* \"#utility.yul\":1774:1775   */\n      0x00\n        /* \"#utility.yul\":1767:1782   */\n      revert\n        /* \"#utility.yul\":1794:2075   */\n    tag_168:\n        /* \"#utility.yul\":1877:1904   */\n      tag_220\n        /* \"#utility.yul\":1899:1903   */\n      dup3\n        /* \"#utility.yul\":1877:1904   */\n      tag_166\n      jump\t// in\n    tag_220:\n        /* \"#utility.yul\":1869:1875   */\n      dup2\n        /* \"#utility.yul\":1865:1905   */\n      add\n        /* \"#utility.yul\":2007:2013   */\n      dup2\n        /* \"#utility.yul\":1995:2005   */\n      dup2\n        /* \"#utility.yul\":1992:2014   */\n      lt\n        /* \"#utility.yul\":1971:1989   */\n      0xffffffffffffffff\n        /* \"#utility.yul\":1959:1969   */\n      dup3\n        /* \"#utility.yul\":1956:1990   */\n      gt\n        /* \"#utility.yul\":1953:2015   */\n      or\n        /* \"#utility.yul\":1950:2038   */\n      iszero\n      tag_221\n      jumpi\n        /* \"#utility.yul\":2018:2036   */\n      tag_222\n      tag_167\n      jump\t// in\n    tag_222:\n        /* \"#utility.yul\":1950:2038   */\n    tag_221:\n        /* \"#utility.yul\":2058:2068   */\n      dup1\n        /* \"#utility.yul\":2054:2056   */\n      0x40\n        /* \"#utility.yul\":2047:2069   */\n      mstore\n        /* \"#utility.yul\":1837:2075   */\n      pop\n        /* \"#utility.yul\":1794:2075   */\n      pop\n      pop\n      jump\t// out\n        /* \"#utility.yul\":2081:2210   */\n    tag_169:\n        /* \"#utility.yul\":2115:2121   */\n      0x00\n        /* \"#utility.yul\":2142:2162   */\n      tag_224\n      tag_160\n      jump\t// in\n    tag_224:\n        /* \"#utility.yul\":2132:2162   */\n      swap1\n      pop\n        /* \"#utility.yul\":2171:2204   */\n      tag_225\n        /* \"#utility.yul\":2199:2203   */\n      dup3\n        /* \"#utility.yul\":2191:2197   */\n      dup3\n        /* \"#utility.yul\":2171:2204   */\n      tag_168\n      jump\t// in\n    tag_225:\n        /* \"#utility.yul\":2081:2210   */\n      swap2\n      swap1\n      pop\n      jump\t// out\n        /* \"#utility.yul\":2216:2527   */\n    tag_170:\n        /* \"#utility.yul\":2293:2297   */\n      0x00\n        /* \"#utility.yul\":2383:2401   */\n      0xffffffffffffffff\n        /* \"#utility.yul\":2375:2381   */\n      dup3\n        /* \"#utility.yul\":2372:2402   */\n      gt\n        /* \"#utility.yul\":2369:2425   */\n      iszero\n      tag_227\n      jumpi\n        /* \"#utility.yul\":2405:2423   */\n      tag_228\n      tag_167\n      jump\t// in\n    tag_228:\n        /* \"#utility.yul\":2369:2425   */\n    tag_227:\n        /* \"#utility.yul\":2455:2459   */\n      0x20\n        /* \"#utility.yul\":2447:2453   */\n      dup3\n        /* \"#utility.yul\":2443:2460   */\n      mul\n        /* \"#utility.yul\":2435:2460   */\n      swap1\n      pop\n        /* \"#utility.yul\":2515:2519   */\n      0x20\n        /* \"#utility.yul\":2509:2513   */\n      dup2\n        /* \"#utility.yul\":2505:2520   */\n      add\n        /* \"#utility.yul\":2497:2520   */\n      swap1\n      pop\n        /* \"#utility.yul\":2216:2527   */\n      swap2\n      swap1\n      pop\n      jump\t// out\n        /* \"#utility.yul\":2533:2650   */\n    tag_171:\n        /* \"#utility.yul\":2642:2643   */\n      0x00\n        /* \"#utility.yul\":2639:2640   */\n      dup1\n        /* \"#utility.yul\":2632:2644   */\n      revert\n        /* \"#utility.yul\":2656:2782   */\n    tag_172:\n        /* \"#utility.yul\":2693:2700   */\n      0x00\n        /* \"#utility.yul\":2733:2775   */\n      0xffffffffffffffffffffffffffffffffffffffff\n        /* \"#utility.yul\":2726:2731   */\n      dup3\n        /* \"#utility.yul\":2722:2776   */\n      and\n        /* \"#utility.yul\":2711:2776   */\n      swap1\n      pop\n        /* \"#utility.yul\":2656:2782   */\n      swap2\n      swap1\n      pop\n      jump\t// out\n        /* \"#utility.yul\":2788:2884   */\n    tag_173:\n        /* \"#utility.yul\":2825:2832   */\n      0x00\n        /* \"#utility.yul\":2854:2878   */\n      tag_232\n        /* \"#utility.yul\":2872:2877   */\n      dup3\n        /* \"#utility.yul\":2854:2878   */\n      tag_172\n      jump\t// in\n    tag_232:\n        /* \"#utility.yul\":2843:2878   */\n      swap1\n      pop\n        /* \"#utility.yul\":2788:2884   */\n      swap2\n      swap1\n      pop\n      jump\t// out\n        /* \"#utility.yul\":2890:3012   */\n    tag_174:\n        /* \"#utility.yul\":2963:2987   */\n      tag_234\n        /* \"#utility.yul\":2981:2986   */\n      dup2\n        /* \"#utility.yul\":2963:2987   */\n      tag_173\n      jump\t// in\n    tag_234:\n        /* \"#utility.yul\":2956:2961   */\n      dup2\n        /* \"#utility.yul\":2953:2988   */\n      eq\n        /* \"#utility.yul\":2943:3006   */\n      tag_235\n      jumpi\n        /* \"#utility.yul\":3002:3003   */\n      0x00\n        /* \"#utility.yul\":2999:3000   */\n      dup1\n        /* \"#utility.yul\":2992:3004   */\n      revert\n        /* \"#utility.yul\":2943:3006   */\n    tag_235:\n        /* \"#utility.yul\":2890:3012   */\n      pop\n      jump\t// out\n        /* \"#utility.yul\":3018:3157   */\n    tag_175:\n        /* \"#utility.yul\":3064:3069   */\n      0x00\n        /* \"#utility.yul\":3102:3108   */\n      dup2\n        /* \"#utility.yul\":3089:3109   */\n      calldataload\n        /* \"#utility.yul\":3080:3109   */\n      swap1\n      pop\n        /* \"#utility.yul\":3118:3151   */\n      tag_237\n        /* \"#utility.yul\":3145:3150   */\n      dup2\n        /* \"#utility.yul\":3118:3151   */\n      tag_174\n      jump\t// in\n    tag_237:\n        /* \"#utility.yul\":3018:3157   */\n      swap3\n      swap2\n      pop\n      pop\n      jump\t// out\n        /* \"#utility.yul\":3180:3890   */\n    tag_176:\n        /* \"#utility.yul\":3276:3281   */\n      0x00\n        /* \"#utility.yul\":3301:3382   */\n      tag_239\n        /* \"#utility.yul\":3317:3381   */\n      tag_240\n        /* \"#utility.yul\":3374:3380   */\n      dup5\n        /* \"#utility.yul\":3317:3381   */\n      tag_170\n      jump\t// in\n    tag_240:\n        /* \"#utility.yul\":3301:3382   */\n      tag_169\n      jump\t// in\n    tag_239:\n        /* \"#utility.yul\":3292:3382   */\n      swap1\n      pop\n        /* \"#utility.yul\":3402:3407   */\n      dup1\n        /* \"#utility.yul\":3431:3437   */\n      dup4\n        /* \"#utility.yul\":3424:3429   */\n      dup3\n        /* \"#utility.yul\":3417:3438   */\n      mstore\n        /* \"#utility.yul\":3465:3469   */\n      0x20\n        /* \"#utility.yul\":3458:3463   */\n      dup3\n        /* \"#utility.yul\":3454:3470   */\n      add\n        /* \"#utility.yul\":3447:3470   */\n      swap1\n      pop\n        /* \"#utility.yul\":3518:3522   */\n      0x20\n        /* \"#utility.yul\":3510:3516   */\n      dup5\n        /* \"#utility.yul\":3506:3523   */\n      mul\n        /* \"#utility.yul\":3498:3504   */\n      dup4\n        /* \"#utility.yul\":3494:3524   */\n      add\n        /* \"#utility.yul\":3547:3550   */\n      dup6\n        /* \"#utility.yul\":3539:3545   */\n      dup2\n        /* \"#utility.yul\":3536:3551   */\n      gt\n        /* \"#utility.yul\":3533:3655   */\n      iszero\n      tag_241\n      jumpi\n        /* \"#utility.yul\":3566:3645   */\n      tag_242\n      tag_171\n      jump\t// in\n    tag_242:\n        /* \"#utility.yul\":3533:3655   */\n    tag_241:\n        /* \"#utility.yul\":3681:3687   */\n      dup4\n        /* \"#utility.yul\":3664:3884   */\n    tag_243:\n        /* \"#utility.yul\":3698:3704   */\n      dup2\n        /* \"#utility.yul\":3693:3696   */\n      dup2\n        /* \"#utility.yul\":3690:3705   */\n      lt\n        /* \"#utility.yul\":3664:3884   */\n      iszero\n      tag_245\n      jumpi\n        /* \"#utility.yul\":3773:3776   */\n      dup1\n        /* \"#utility.yul\":3802:3839   */\n      tag_246\n        /* \"#utility.yul\":3835:3838   */\n      dup9\n        /* \"#utility.yul\":3823:3833   */\n      dup3\n        /* \"#utility.yul\":3802:3839   */\n      tag_175\n      jump\t// in\n    tag_246:\n        /* \"#utility.yul\":3797:3800   */\n      dup5\n        /* \"#utility.yul\":3790:3840   */\n      mstore\n        /* \"#utility.yul\":3869:3873   */\n      0x20\n        /* \"#utility.yul\":3864:3867   */\n      dup5\n        /* \"#utility.yul\":3860:3874   */\n      add\n        /* \"#utility.yul\":3853:3874   */\n      swap4\n      pop\n        /* \"#utility.yul\":3740:3884   */\n      pop\n        /* \"#utility.yul\":3724:3728   */\n      0x20\n        /* \"#utility.yul\":3719:3722   */\n      dup2\n        /* \"#utility.yul\":3715:3729   */\n      add\n        /* \"#utility.yul\":3708:3729   */\n      swap1\n      pop\n        /* \"#utility.yul\":3664:3884   */\n      jump(tag_243)\n    tag_245:\n        /* \"#utility.yul\":3668:3689   */\n      pop\n        /* \"#utility.yul\":3282:3890   */\n      pop\n      pop\n        /* \"#utility.yul\":3180:3890   */\n      swap4\n      swap3\n      pop\n      pop\n      pop\n      jump\t// out\n        /* \"#utility.yul\":3913:4283   */\n    tag_177:\n        /* \"#utility.yul\":3984:3989   */\n      0x00\n        /* \"#utility.yul\":4033:4036   */\n      dup3\n        /* \"#utility.yul\":4026:4030   */\n      0x1f\n        /* \"#utility.yul\":4018:4024   */\n      dup4\n        /* \"#utility.yul\":4014:4031   */\n      add\n        /* \"#utility.yul\":4010:4037   */\n      slt\n        /* \"#utility.yul\":4000:4122   */\n      tag_248\n      jumpi\n        /* \"#utility.yul\":4041:4120   */\n      tag_249\n      tag_165\n      jump\t// in\n    tag_249:\n        /* \"#utility.yul\":4000:4122   */\n    tag_248:\n        /* \"#utility.yul\":4158:4164   */\n      dup2\n        /* \"#utility.yul\":4145:4165   */\n      calldataload\n        /* \"#utility.yul\":4183:4277   */\n      tag_250\n        /* \"#utility.yul\":4273:4276   */\n      dup5\n        /* \"#utility.yul\":4265:4271   */\n      dup3\n        /* \"#utility.yul\":4258:4262   */\n      0x20\n        /* \"#utility.yul\":4250:4256   */\n      dup7\n        /* \"#utility.yul\":4246:4263   */\n      add\n        /* \"#utility.yul\":4183:4277   */\n      tag_176\n      jump\t// in\n    tag_250:\n        /* \"#utility.yul\":4174:4277   */\n      swap2\n      pop\n        /* \"#utility.yul\":3990:4283   */\n      pop\n        /* \"#utility.yul\":3913:4283   */\n      swap3\n      swap2\n      pop\n      pop\n      jump\t// out\n        /* \"#utility.yul\":4289:4600   */\n    tag_178:\n        /* \"#utility.yul\":4366:4370   */\n      0x00\n        /* \"#utility.yul\":4456:4474   */\n      0xffffffffffffffff\n        /* \"#utility.yul\":4448:4454   */\n      dup3\n        /* \"#utility.yul\":4445:4475   */\n      gt\n        /* \"#utility.yul\":4442:4498   */\n      iszero\n      tag_252\n      jumpi\n        /* \"#utility.yul\":4478:4496   */\n      tag_253\n      tag_167\n      jump\t// in\n    tag_253:\n        /* \"#utility.yul\":4442:4498   */\n    tag_252:\n        /* \"#utility.yul\":4528:4532   */\n      0x20\n        /* \"#utility.yul\":4520:4526   */\n      dup3\n        /* \"#utility.yul\":4516:4533   */\n      mul\n        /* \"#utility.yul\":4508:4533   */\n      swap1\n      pop\n        /* \"#utility.yul\":4588:4592   */\n      0x20\n        /* \"#utility.yul\":4582:4586   */\n      dup2\n        /* \"#utility.yul\":4578:4593   */\n      add\n        /* \"#utility.yul\":4570:4593   */\n      swap1\n      pop\n        /* \"#utility.yul\":4289:4600   */\n      swap2\n      swap1\n      pop\n      jump\t// out\n        /* \"#utility.yul\":4623:5333   */\n    tag_179:\n        /* \"#utility.yul\":4719:4724   */\n      0x00\n        /* \"#utility.yul\":4744:4825   */\n      tag_255\n        /* \"#utility.yul\":4760:4824   */\n      tag_256\n        /* \"#utility.yul\":4817:4823   */\n      dup5\n        /* \"#utility.yul\":4760:4824   */\n      tag_178\n      jump\t// in\n    tag_256:\n        /* \"#utility.yul\":4744:4825   */\n      tag_169\n      jump\t// in\n    tag_255:\n        /* \"#utility.yul\":4735:4825   */\n      swap1\n      pop\n        /* \"#utility.yul\":4845:4850   */\n      dup1\n        /* \"#utility.yul\":4874:4880   */\n      dup4\n        /* \"#utility.yul\":4867:4872   */\n      dup3\n        /* \"#utility.yul\":4860:4881   */\n      mstore\n        /* \"#utility.yul\":4908:4912   */\n      0x20\n        /* \"#utility.yul\":4901:4906   */\n      dup3\n        /* \"#utility.yul\":4897:4913   */\n      add\n        /* \"#utility.yul\":4890:4913   */\n      swap1\n      pop\n        /* \"#utility.yul\":4961:4965   */\n      0x20\n        /* \"#utility.yul\":4953:4959   */\n      dup5\n        /* \"#utility.yul\":4949:4966   */\n      mul\n        /* \"#utility.yul\":4941:4947   */\n      dup4\n        /* \"#utility.yul\":4937:4967   */\n      add\n        /* \"#utility.yul\":4990:4993   */\n      dup6\n        /* \"#utility.yul\":4982:4988   */\n      dup2\n        /* \"#utility.yul\":4979:4994   */\n      gt\n        /* \"#utility.yul\":4976:5098   */\n      iszero\n      tag_257\n      jumpi\n        /* \"#utility.yul\":5009:5088   */\n      tag_258\n      tag_171\n      jump\t// in\n    tag_258:\n        /* \"#utility.yul\":4976:5098   */\n    tag_257:\n        /* \"#utility.yul\":5124:5130   */\n      dup4\n        /* \"#utility.yul\":5107:5327   */\n    tag_259:\n        /* \"#utility.yul\":5141:5147   */\n      dup2\n        /* \"#utility.yul\":5136:5139   */\n      dup2\n        /* \"#utility.yul\":5133:5148   */\n      lt\n        /* \"#utility.yul\":5107:5327   */\n      iszero\n      tag_261\n      jumpi\n        /* \"#utility.yul\":5216:5219   */\n      dup1\n        /* \"#utility.yul\":5245:5282   */\n      tag_262\n        /* \"#utility.yul\":5278:5281   */\n      dup9\n        /* \"#utility.yul\":5266:5276   */\n      dup3\n        /* \"#utility.yul\":5245:5282   */\n      tag_164\n      jump\t// in\n    tag_262:\n        /* \"#utility.yul\":5240:5243   */\n      dup5\n        /* \"#utility.yul\":5233:5283   */\n      mstore\n        /* \"#utility.yul\":5312:5316   */\n      0x20\n        /* \"#utility.yul\":5307:5310   */\n      dup5\n        /* \"#utility.yul\":5303:5317   */\n      add\n        /* \"#utility.yul\":5296:5317   */\n      swap4\n      pop\n        /* \"#utility.yul\":5183:5327   */\n      pop\n        /* \"#utility.yul\":5167:5171   */\n      0x20\n        /* \"#utility.yul\":5162:5165   */\n      dup2\n        /* \"#utility.yul\":5158:5172   */\n      add\n        /* \"#utility.yul\":5151:5172   */\n      swap1\n      pop\n        /* \"#utility.yul\":5107:5327   */\n      jump(tag_259)\n    tag_261:\n        /* \"#utility.yul\":5111:5132   */\n      pop\n        /* \"#utility.yul\":4725:5333   */\n      pop\n      pop\n        /* \"#utility.yul\":4623:5333   */\n      swap4\n      swap3\n      pop\n      pop\n      pop\n      jump\t// out\n        /* \"#utility.yul\":5356:5726   */\n    tag_180:\n        /* \"#utility.yul\":5427:5432   */\n      0x00\n        /* \"#utility.yul\":5476:5479   */\n      dup3\n        /* \"#utility.yul\":5469:5473   */\n      0x1f\n        /* \"#utility.yul\":5461:5467   */\n      dup4\n        /* \"#utility.yul\":5457:5474   */\n      add\n        /* \"#utility.yul\":5453:5480   */\n      slt\n        /* \"#utility.yul\":5443:5565   */\n      tag_264\n      jumpi\n        /* \"#utility.yul\":5484:5563   */\n      tag_265\n      tag_165\n      jump\t// in\n    tag_265:\n        /* \"#utility.yul\":5443:5565   */\n    tag_264:\n        /* \"#utility.yul\":5601:5607   */\n      dup2\n        /* \"#utility.yul\":5588:5608   */\n      calldataload\n        /* \"#utility.yul\":5626:5720   */\n      tag_266\n        /* \"#utility.yul\":5716:5719   */\n      dup5\n        /* \"#utility.yul\":5708:5714   */\n      dup3\n        /* \"#utility.yul\":5701:5705   */\n      0x20\n        /* \"#utility.yul\":5693:5699   */\n      dup7\n        /* \"#utility.yul\":5689:5706   */\n      add\n        /* \"#utility.yul\":5626:5720   */\n      tag_179\n      jump\t// in\n    tag_266:\n        /* \"#utility.yul\":5617:5720   */\n      swap2\n      pop\n        /* \"#utility.yul\":5433:5726   */\n      pop\n        /* \"#utility.yul\":5356:5726   */\n      swap3\n      swap2\n      pop\n      pop\n      jump\t// out\n        /* \"#utility.yul\":5732:6626   */\n    tag_65:\n        /* \"#utility.yul\":5850:5856   */\n      0x00\n        /* \"#utility.yul\":5858:5864   */\n      dup1\n        /* \"#utility.yul\":5907:5909   */\n      0x40\n        /* \"#utility.yul\":5895:5904   */\n      dup4\n        /* \"#utility.yul\":5886:5893   */\n      dup6\n        /* \"#utility.yul\":5882:5905   */\n      sub\n        /* \"#utility.yul\":5878:5910   */\n      slt\n        /* \"#utility.yul\":5875:5994   */\n      iszero\n      tag_268\n      jumpi\n        /* \"#utility.yul\":5913:5992   */\n      tag_269\n      tag_161\n      jump\t// in\n    tag_269:\n        /* \"#utility.yul\":5875:5994   */\n    tag_268:\n        /* \"#utility.yul\":6061:6062   */\n      0x00\n        /* \"#utility.yul\":6050:6059   */\n      dup4\n        /* \"#utility.yul\":6046:6063   */\n      add\n        /* \"#utility.yul\":6033:6064   */\n      calldataload\n        /* \"#utility.yul\":6091:6109   */\n      0xffffffffffffffff\n        /* \"#utility.yul\":6083:6089   */\n      dup2\n        /* \"#utility.yul\":6080:6110   */\n      gt\n        /* \"#utility.yul\":6077:6194   */\n      iszero\n      tag_270\n      jumpi\n        /* \"#utility.yul\":6113:6192   */\n      tag_271\n      tag_162\n      jump\t// in\n    tag_271:\n        /* \"#utility.yul\":6077:6194   */\n    tag_270:\n        /* \"#utility.yul\":6218:6296   */\n      tag_272\n        /* \"#utility.yul\":6288:6295   */\n      dup6\n        /* \"#utility.yul\":6279:6285   */\n      dup3\n        /* \"#utility.yul\":6268:6277   */\n      dup7\n        /* \"#utility.yul\":6264:6286   */\n      add\n        /* \"#utility.yul\":6218:6296   */\n      tag_177\n      jump\t// in\n    tag_272:\n        /* \"#utility.yul\":6208:6296   */\n      swap3\n      pop\n        /* \"#utility.yul\":6004:6306   */\n      pop\n        /* \"#utility.yul\":6373:6375   */\n      0x20\n        /* \"#utility.yul\":6362:6371   */\n      dup4\n        /* \"#utility.yul\":6358:6376   */\n      add\n        /* \"#utility.yul\":6345:6377   */\n      calldataload\n        /* \"#utility.yul\":6404:6422   */\n      0xffffffffffffffff\n        /* \"#utility.yul\":6396:6402   */\n      dup2\n        /* \"#utility.yul\":6393:6423   */\n      gt\n        /* \"#utility.yul\":6390:6507   */\n      iszero\n      tag_273\n      jumpi\n        /* \"#utility.yul\":6426:6505   */\n      tag_274\n      tag_162\n      jump\t// in\n    tag_274:\n        /* \"#utility.yul\":6390:6507   */\n    tag_273:\n        /* \"#utility.yul\":6531:6609   */\n      tag_275\n        /* \"#utility.yul\":6601:6608   */\n      dup6\n        /* \"#utility.yul\":6592:6598   */\n      dup3\n        /* \"#utility.yul\":6581:6590   */\n      dup7\n        /* \"#utility.yul\":6577:6599   */\n      add\n        /* \"#utility.yul\":6531:6609   */\n      tag_180\n      jump\t// in\n    tag_275:\n        /* \"#utility.yul\":6521:6609   */\n      swap2\n      pop\n        /* \"#utility.yul\":6316:6619   */\n      pop\n        /* \"#utility.yul\":5732:6626   */\n      swap3\n      pop\n      swap3\n      swap1\n      pop\n      jump\t// out\n        /* \"#utility.yul\":6632:6801   */\n    tag_181:\n        /* \"#utility.yul\":6716:6727   */\n      0x00\n        /* \"#utility.yul\":6750:6756   */\n      dup3\n        /* \"#utility.yul\":6745:6748   */\n      dup3\n        /* \"#utility.yul\":6738:6757   */\n      mstore\n        /* \"#utility.yul\":6790:6794   */\n      0x20\n        /* \"#utility.yul\":6785:6788   */\n      dup3\n        /* \"#utility.yul\":6781:6795   */\n      add\n        /* \"#utility.yul\":6766:6795   */\n      swap1\n      pop\n        /* \"#utility.yul\":6632:6801   */\n      swap3\n      swap2\n      pop\n      pop\n      jump\t// out\n        /* \"#utility.yul\":6807:7039   */\n    tag_182:\n        /* \"#utility.yul\":6947:6981   */\n      0x496e6865726974616e636520616d6f756e74206d757374206265206772656174\n        /* \"#utility.yul\":6943:6944   */\n      0x00\n        /* \"#utility.yul\":6935:6941   */\n      dup3\n        /* \"#utility.yul\":6931:6945   */\n      add\n        /* \"#utility.yul\":6924:6982   */\n      mstore\n        /* \"#utility.yul\":7016:7031   */\n      0x6572207468616e207a65726f2e00000000000000000000000000000000000000\n        /* \"#utility.yul\":7011:7013   */\n      0x20\n        /* \"#utility.yul\":7003:7009   */\n      dup3\n        /* \"#utility.yul\":6999:7014   */\n      add\n        /* \"#utility.yul\":6992:7032   */\n      mstore\n        /* \"#utility.yul\":6807:7039   */\n      pop\n      jump\t// out\n        /* \"#utility.yul\":7045:7411   */\n    tag_183:\n        /* \"#utility.yul\":7187:7190   */\n      0x00\n        /* \"#utility.yul\":7208:7275   */\n      tag_279\n        /* \"#utility.yul\":7272:7274   */\n      0x2d\n        /* \"#utility.yul\":7267:7270   */\n      dup4\n        /* \"#utility.yul\":7208:7275   */\n      tag_181\n      jump\t// in\n    tag_279:\n        /* \"#utility.yul\":7201:7275   */\n      swap2\n      pop\n        /* \"#utility.yul\":7284:7377   */\n      tag_280\n        /* \"#utility.yul\":7373:7376   */\n      dup3\n        /* \"#utility.yul\":7284:7377   */\n      tag_182\n      jump\t// in\n    tag_280:\n        /* \"#utility.yul\":7402:7404   */\n      0x40\n        /* \"#utility.yul\":7397:7400   */\n      dup3\n        /* \"#utility.yul\":7393:7405   */\n      add\n        /* \"#utility.yul\":7386:7405   */\n      swap1\n      pop\n        /* \"#utility.yul\":7045:7411   */\n      swap2\n      swap1\n      pop\n      jump\t// out\n        /* \"#utility.yul\":7417:7836   */\n    tag_73:\n        /* \"#utility.yul\":7583:7587   */\n      0x00\n        /* \"#utility.yul\":7621:7623   */\n      0x20\n        /* \"#utility.yul\":7610:7619   */\n      dup3\n        /* \"#utility.yul\":7606:7624   */\n      add\n        /* \"#utility.yul\":7598:7624   */\n      swap1\n      pop\n        /* \"#utility.yul\":7670:7679   */\n      dup2\n        /* \"#utility.yul\":7664:7668   */\n      dup2\n        /* \"#utility.yul\":7660:7680   */\n      sub\n        /* \"#utility.yul\":7656:7657   */\n      0x00\n        /* \"#utility.yul\":7645:7654   */\n      dup4\n        /* \"#utility.yul\":7641:7658   */\n      add\n        /* \"#utility.yul\":7634:7681   */\n      mstore\n        /* \"#utility.yul\":7698:7829   */\n      tag_282\n        /* \"#utility.yul\":7824:7828   */\n      dup2\n        /* \"#utility.yul\":7698:7829   */\n      tag_183\n      jump\t// in\n    tag_282:\n        /* \"#utility.yul\":7690:7829   */\n      swap1\n      pop\n        /* \"#utility.yul\":7417:7836   */\n      swap2\n      swap1\n      pop\n      jump\t// out\n        /* \"#utility.yul\":7842:8022   */\n    tag_184:\n        /* \"#utility.yul\":7890:7967   */\n      0x4e487b7100000000000000000000000000000000000000000000000000000000\n        /* \"#utility.yul\":7887:7888   */\n      0x00\n        /* \"#utility.yul\":7880:7968   */\n      mstore\n        /* \"#utility.yul\":7987:7991   */\n      0x11\n        /* \"#utility.yul\":7984:7985   */\n      0x04\n        /* \"#utility.yul\":7977:7992   */\n      mstore\n        /* \"#utility.yul\":8011:8015   */\n      0x24\n        /* \"#utility.yul\":8008:8009   */\n      0x00\n        /* \"#utility.yul\":8001:8016   */\n      revert\n        /* \"#utility.yul\":8028:8219   */\n    tag_75:\n        /* \"#utility.yul\":8068:8071   */\n      0x00\n        /* \"#utility.yul\":8087:8107   */\n      tag_285\n        /* \"#utility.yul\":8105:8106   */\n      dup3\n        /* \"#utility.yul\":8087:8107   */\n      tag_158\n      jump\t// in\n    tag_285:\n        /* \"#utility.yul\":8082:8107   */\n      swap2\n      pop\n        /* \"#utility.yul\":8121:8141   */\n      tag_286\n        /* \"#utility.yul\":8139:8140   */\n      dup4\n        /* \"#utility.yul\":8121:8141   */\n      tag_158\n      jump\t// in\n    tag_286:\n        /* \"#utility.yul\":8116:8141   */\n      swap3\n      pop\n        /* \"#utility.yul\":8164:8165   */\n      dup3\n        /* \"#utility.yul\":8161:8162   */\n      dup3\n        /* \"#utility.yul\":8157:8166   */\n      add\n        /* \"#utility.yul\":8150:8166   */\n      swap1\n      pop\n        /* \"#utility.yul\":8185:8188   */\n      dup1\n        /* \"#utility.yul\":8182:8183   */\n      dup3\n        /* \"#utility.yul\":8179:8189   */\n      gt\n        /* \"#utility.yul\":8176:8212   */\n      iszero\n      tag_287\n      jumpi\n        /* \"#utility.yul\":8192:8210   */\n      tag_288\n      tag_184\n      jump\t// in\n    tag_288:\n        /* \"#utility.yul\":8176:8212   */\n    tag_287:\n        /* \"#utility.yul\":8028:8219   */\n      swap3\n      swap2\n      pop\n      pop\n      jump\t// out\n        /* \"#utility.yul\":8225:8446   */\n    tag_185:\n        /* \"#utility.yul\":8365:8399   */\n      0x4f6e6c79206f776e65722063616e2063616c6c20746869732066756e6374696f\n        /* \"#utility.yul\":8361:8362   */\n      0x00\n        /* \"#utility.yul\":8353:8359   */\n      dup3\n        /* \"#utility.yul\":8349:8363   */\n      add\n        /* \"#utility.yul\":8342:8400   */\n      mstore\n        /* \"#utility.yul\":8434:8438   */\n      0x6e2e000000000000000000000000000000000000000000000000000000000000\n        /* \"#utility.yul\":8429:8431   */\n      0x20\n        /* \"#utility.yul\":8421:8427   */\n      dup3\n        /* \"#utility.yul\":8417:8432   */\n      add\n        /* \"#utility.yul\":8410:8439   */\n      mstore\n        /* \"#utility.yul\":8225:8446   */\n      pop\n      jump\t// out\n        /* \"#utility.yul\":8452:8818   */\n    tag_186:\n        /* \"#utility.yul\":8594:8597   */\n      0x00\n        /* \"#utility.yul\":8615:8682   */\n      tag_291\n        /* \"#utility.yul\":8679:8681   */\n      0x22\n        /* \"#utility.yul\":8674:8677   */\n      dup4\n        /* \"#utility.yul\":8615:8682   */\n      tag_181\n      jump\t// in\n    tag_291:\n        /* \"#utility.yul\":8608:8682   */\n      swap2\n      pop\n        /* \"#utility.yul\":8691:8784   */\n      tag_292\n        /* \"#utility.yul\":8780:8783   */\n      dup3\n        /* \"#utility.yul\":8691:8784   */\n      tag_185\n      jump\t// in\n    tag_292:\n        /* \"#utility.yul\":8809:8811   */\n      0x40\n        /* \"#utility.yul\":8804:8807   */\n      dup3\n        /* \"#utility.yul\":8800:8812   */\n      add\n        /* \"#utility.yul\":8793:8812   */\n      swap1\n      pop\n        /* \"#utility.yul\":8452:8818   */\n      swap2\n      swap1\n      pop\n      jump\t// out\n        /* \"#utility.yul\":8824:9243   */\n    tag_81:\n        /* \"#utility.yul\":8990:8994   */\n      0x00\n        /* \"#utility.yul\":9028:9030   */\n      0x20\n        /* \"#utility.yul\":9017:9026   */\n      dup3\n        /* \"#utility.yul\":9013:9031   */\n      add\n        /* \"#utility.yul\":9005:9031   */\n      swap1\n      pop\n        /* \"#utility.yul\":9077:9086   */\n      dup2\n        /* \"#utility.yul\":9071:9075   */\n      dup2\n        /* \"#utility.yul\":9067:9087   */\n      sub\n        /* \"#utility.yul\":9063:9064   */\n      0x00\n        /* \"#utility.yul\":9052:9061   */\n      dup4\n        /* \"#utility.yul\":9048:9065   */\n      add\n        /* \"#utility.yul\":9041:9088   */\n      mstore\n        /* \"#utility.yul\":9105:9236   */\n      tag_294\n        /* \"#utility.yul\":9231:9235   */\n      dup2\n        /* \"#utility.yul\":9105:9236   */\n      tag_186\n      jump\t// in\n    tag_294:\n        /* \"#utility.yul\":9097:9236   */\n      swap1\n      pop\n        /* \"#utility.yul\":8824:9243   */\n      swap2\n      swap1\n      pop\n      jump\t// out\n        /* \"#utility.yul\":9249:9473   */\n    tag_187:\n        /* \"#utility.yul\":9389:9423   */\n      0x446973747269627574696f6e206379636c65206e6f742079657420636f6d706c\n        /* \"#utility.yul\":9385:9386   */\n      0x00\n        /* \"#utility.yul\":9377:9383   */\n      dup3\n        /* \"#utility.yul\":9373:9387   */\n      add\n        /* \"#utility.yul\":9366:9424   */\n      mstore\n        /* \"#utility.yul\":9458:9465   */\n      0x657465642e000000000000000000000000000000000000000000000000000000\n        /* \"#utility.yul\":9453:9455   */\n      0x20\n        /* \"#utility.yul\":9445:9451   */\n      dup3\n        /* \"#utility.yul\":9441:9456   */\n      add\n        /* \"#utility.yul\":9434:9466   */\n      mstore\n        /* \"#utility.yul\":9249:9473   */\n      pop\n      jump\t// out\n        /* \"#utility.yul\":9479:9845   */\n    tag_188:\n        /* \"#utility.yul\":9621:9624   */\n      0x00\n        /* \"#utility.yul\":9642:9709   */\n      tag_297\n        /* \"#utility.yul\":9706:9708   */\n      0x25\n        /* \"#utility.yul\":9701:9704   */\n      dup4\n        /* \"#utility.yul\":9642:9709   */\n      tag_181\n      jump\t// in\n    tag_297:\n        /* \"#utility.yul\":9635:9709   */\n      swap2\n      pop\n        /* \"#utility.yul\":9718:9811   */\n      tag_298\n        /* \"#utility.yul\":9807:9810   */\n      dup3\n        /* \"#utility.yul\":9718:9811   */\n      tag_187\n      jump\t// in\n    tag_298:\n        /* \"#utility.yul\":9836:9838   */\n      0x40\n        /* \"#utility.yul\":9831:9834   */\n      dup3\n        /* \"#utility.yul\":9827:9839   */\n      add\n        /* \"#utility.yul\":9820:9839   */\n      swap1\n      pop\n        /* \"#utility.yul\":9479:9845   */\n      swap2\n      swap1\n      pop\n      jump\t// out\n        /* \"#utility.yul\":9851:10270   */\n    tag_86:\n        /* \"#utility.yul\":10017:10021   */\n      0x00\n        /* \"#utility.yul\":10055:10057   */\n      0x20\n        /* \"#utility.yul\":10044:10053   */\n      dup3\n        /* \"#utility.yul\":10040:10058   */\n      add\n        /* \"#utility.yul\":10032:10058   */\n      swap1\n      pop\n        /* \"#utility.yul\":10104:10113   */\n      dup2\n        /* \"#utility.yul\":10098:10102   */\n      dup2\n        /* \"#utility.yul\":10094:10114   */\n      sub\n        /* \"#utility.yul\":10090:10091   */\n      0x00\n        /* \"#utility.yul\":10079:10088   */\n      dup4\n        /* \"#utility.yul\":10075:10092   */\n      add\n        /* \"#utility.yul\":10068:10115   */\n      mstore\n        /* \"#utility.yul\":10132:10263   */\n      tag_300\n        /* \"#utility.yul\":10258:10262   */\n      dup2\n        /* \"#utility.yul\":10132:10263   */\n      tag_188\n      jump\t// in\n    tag_300:\n        /* \"#utility.yul\":10124:10263   */\n      swap1\n      pop\n        /* \"#utility.yul\":9851:10270   */\n      swap2\n      swap1\n      pop\n      jump\t// out\n        /* \"#utility.yul\":10276:10686   */\n    tag_88:\n        /* \"#utility.yul\":10316:10323   */\n      0x00\n        /* \"#utility.yul\":10339:10359   */\n      tag_302\n        /* \"#utility.yul\":10357:10358   */\n      dup3\n        /* \"#utility.yul\":10339:10359   */\n      tag_158\n      jump\t// in\n    tag_302:\n        /* \"#utility.yul\":10334:10359   */\n      swap2\n      pop\n        /* \"#utility.yul\":10373:10393   */\n      tag_303\n        /* \"#utility.yul\":10391:10392   */\n      dup4\n        /* \"#utility.yul\":10373:10393   */\n      tag_158\n      jump\t// in\n    tag_303:\n        /* \"#utility.yul\":10368:10393   */\n      swap3\n      pop\n        /* \"#utility.yul\":10428:10429   */\n      dup3\n        /* \"#utility.yul\":10425:10426   */\n      dup3\n        /* \"#utility.yul\":10421:10430   */\n      mul\n        /* \"#utility.yul\":10450:10480   */\n      tag_304\n        /* \"#utility.yul\":10468:10479   */\n      dup2\n        /* \"#utility.yul\":10450:10480   */\n      tag_158\n      jump\t// in\n    tag_304:\n        /* \"#utility.yul\":10439:10480   */\n      swap2\n      pop\n        /* \"#utility.yul\":10629:10630   */\n      dup3\n        /* \"#utility.yul\":10620:10627   */\n      dup3\n        /* \"#utility.yul\":10616:10631   */\n      div\n        /* \"#utility.yul\":10613:10614   */\n      dup5\n        /* \"#utility.yul\":10610:10632   */\n      eq\n        /* \"#utility.yul\":10590:10591   */\n      dup4\n        /* \"#utility.yul\":10583:10592   */\n      iszero\n        /* \"#utility.yul\":10563:10646   */\n      or\n        /* \"#utility.yul\":10540:10679   */\n      tag_305\n      jumpi\n        /* \"#utility.yul\":10659:10677   */\n      tag_306\n      tag_184\n      jump\t// in\n    tag_306:\n        /* \"#utility.yul\":10540:10679   */\n    tag_305:\n        /* \"#utility.yul\":10324:10686   */\n      pop\n        /* \"#utility.yul\":10276:10686   */\n      swap3\n      swap2\n      pop\n      pop\n      jump\t// out\n        /* \"#utility.yul\":10692:10872   */\n    tag_189:\n        /* \"#utility.yul\":10740:10817   */\n      0x4e487b7100000000000000000000000000000000000000000000000000000000\n        /* \"#utility.yul\":10737:10738   */\n      0x00\n        /* \"#utility.yul\":10730:10818   */\n      mstore\n        /* \"#utility.yul\":10837:10841   */\n      0x12\n        /* \"#utility.yul\":10834:10835   */\n      0x04\n        /* \"#utility.yul\":10827:10842   */\n      mstore\n        /* \"#utility.yul\":10861:10865   */\n      0x24\n        /* \"#utility.yul\":10858:10859   */\n      0x00\n        /* \"#utility.yul\":10851:10866   */\n      revert\n        /* \"#utility.yul\":10878:11063   */\n    tag_90:\n        /* \"#utility.yul\":10918:10919   */\n      0x00\n        /* \"#utility.yul\":10935:10955   */\n      tag_309\n        /* \"#utility.yul\":10953:10954   */\n      dup3\n        /* \"#utility.yul\":10935:10955   */\n      tag_158\n      jump\t// in\n    tag_309:\n        /* \"#utility.yul\":10930:10955   */\n      swap2\n      pop\n        /* \"#utility.yul\":10969:10989   */\n      tag_310\n        /* \"#utility.yul\":10987:10988   */\n      dup4\n        /* \"#utility.yul\":10969:10989   */\n      tag_158\n      jump\t// in\n    tag_310:\n        /* \"#utility.yul\":10964:10989   */\n      swap3\n      pop\n        /* \"#utility.yul\":11008:11009   */\n      dup3\n        /* \"#utility.yul\":10998:11033   */\n      tag_311\n      jumpi\n        /* \"#utility.yul\":11013:11031   */\n      tag_312\n      tag_189\n      jump\t// in\n    tag_312:\n        /* \"#utility.yul\":10998:11033   */\n    tag_311:\n        /* \"#utility.yul\":11055:11056   */\n      dup3\n        /* \"#utility.yul\":11052:11053   */\n      dup3\n        /* \"#utility.yul\":11048:11057   */\n      div\n        /* \"#utility.yul\":11043:11057   */\n      swap1\n      pop\n        /* \"#utility.yul\":10878:11063   */\n      swap3\n      swap2\n      pop\n      pop\n      jump\t// out\n        /* \"#utility.yul\":11069:11263   */\n    tag_92:\n        /* \"#utility.yul\":11109:11113   */\n      0x00\n        /* \"#utility.yul\":11129:11149   */\n      tag_314\n        /* \"#utility.yul\":11147:11148   */\n      dup3\n        /* \"#utility.yul\":11129:11149   */\n      tag_158\n      jump\t// in\n    tag_314:\n        /* \"#utility.yul\":11124:11149   */\n      swap2\n      pop\n        /* \"#utility.yul\":11163:11183   */\n      tag_315\n        /* \"#utility.yul\":11181:11182   */\n      dup4\n        /* \"#utility.yul\":11163:11183   */\n      tag_158\n      jump\t// in\n    tag_315:\n        /* \"#utility.yul\":11158:11183   */\n      swap3\n      pop\n        /* \"#utility.yul\":11207:11208   */\n      dup3\n        /* \"#utility.yul\":11204:11205   */\n      dup3\n        /* \"#utility.yul\":11200:11209   */\n      sub\n        /* \"#utility.yul\":11192:11209   */\n      swap1\n      pop\n        /* \"#utility.yul\":11231:11232   */\n      dup2\n        /* \"#utility.yul\":11225:11229   */\n      dup2\n        /* \"#utility.yul\":11222:11233   */\n      gt\n        /* \"#utility.yul\":11219:11256   */\n      iszero\n      tag_316\n      jumpi\n        /* \"#utility.yul\":11236:11254   */\n      tag_317\n      tag_184\n      jump\t// in\n    tag_317:\n        /* \"#utility.yul\":11219:11256   */\n    tag_316:\n        /* \"#utility.yul\":11069:11263   */\n      swap3\n      swap2\n      pop\n      pop\n      jump\t// out\n        /* \"#utility.yul\":11269:11449   */\n    tag_98:\n        /* \"#utility.yul\":11317:11394   */\n      0x4e487b7100000000000000000000000000000000000000000000000000000000\n        /* \"#utility.yul\":11314:11315   */\n      0x00\n        /* \"#utility.yul\":11307:11395   */\n      mstore\n        /* \"#utility.yul\":11414:11418   */\n      0x32\n        /* \"#utility.yul\":11411:11412   */\n      0x04\n        /* \"#utility.yul\":11404:11419   */\n      mstore\n        /* \"#utility.yul\":11438:11442   */\n      0x24\n        /* \"#utility.yul\":11435:11436   */\n      0x00\n        /* \"#utility.yul\":11428:11443   */\n      revert\n        /* \"#utility.yul\":11455:11688   */\n    tag_113:\n        /* \"#utility.yul\":11494:11497   */\n      0x00\n        /* \"#utility.yul\":11517:11541   */\n      tag_320\n        /* \"#utility.yul\":11535:11540   */\n      dup3\n        /* \"#utility.yul\":11517:11541   */\n      tag_158\n      jump\t// in\n    tag_320:\n        /* \"#utility.yul\":11508:11541   */\n      swap2\n      pop\n        /* \"#utility.yul\":11563:11629   */\n      0xffffffffffffffffffffffffffffffffffffffffffffffffffffffffffffffff\n        /* \"#utility.yul\":11556:11561   */\n      dup3\n        /* \"#utility.yul\":11553:11630   */\n      sub\n        /* \"#utility.yul\":11550:11653   */\n      tag_321\n      jumpi\n        /* \"#utility.yul\":11633:11651   */\n      tag_322\n      tag_184\n      jump\t// in\n    tag_322:\n        /* \"#utility.yul\":11550:11653   */\n    tag_321:\n        /* \"#utility.yul\":11680:11681   */\n      0x01\n        /* \"#utility.yul\":11673:11678   */\n      dup3\n        /* \"#utility.yul\":11669:11682   */\n      add\n        /* \"#utility.yul\":11662:11682   */\n      swap1\n      pop\n        /* \"#utility.yul\":11455:11688   */\n      swap2\n      swap1\n      pop\n      jump\t// out\n        /* \"#utility.yul\":11694:11868   */\n    tag_190:\n        /* \"#utility.yul\":11834:11860   */\n      0x496e76616c6964206379636c652073656c656374696f6e2e0000000000000000\n        /* \"#utility.yul\":11830:11831   */\n      0x00\n        /* \"#utility.yul\":11822:11828   */\n      dup3\n        /* \"#utility.yul\":11818:11832   */\n      add\n        /* \"#utility.yul\":11811:11861   */\n      mstore\n        /* \"#utility.yul\":11694:11868   */\n      pop\n      jump\t// out\n        /* \"#utility.yul\":11874:12240   */\n    tag_191:\n        /* \"#utility.yul\":12016:12019   */\n      0x00\n        /* \"#utility.yul\":12037:12104   */\n      tag_325\n        /* \"#utility.yul\":12101:12103   */\n      0x18\n        /* \"#utility.yul\":12096:12099   */\n      dup4\n        /* \"#utility.yul\":12037:12104   */\n      tag_181\n      jump\t// in\n    tag_325:\n        /* \"#utility.yul\":12030:12104   */\n      swap2\n      pop\n        /* \"#utility.yul\":12113:12206   */\n      tag_326\n        /* \"#utility.yul\":12202:12205   */\n      dup3\n        /* \"#utility.yul\":12113:12206   */\n      tag_190\n      jump\t// in\n    tag_326:\n        /* \"#utility.yul\":12231:12233   */\n      0x20\n        /* \"#utility.yul\":12226:12229   */\n      dup3\n        /* \"#utility.yul\":12222:12234   */\n      add\n        /* \"#utility.yul\":12215:12234   */\n      swap1\n      pop\n        /* \"#utility.yul\":11874:12240   */\n      swap2\n      swap1\n      pop\n      jump\t// out\n        /* \"#utility.yul\":12246:12665   */\n    tag_123:\n        /* \"#utility.yul\":12412:12416   */\n      0x00\n        /* \"#utility.yul\":12450:12452   */\n      0x20\n        /* \"#utility.yul\":12439:12448   */\n      dup3\n        /* \"#utility.yul\":12435:12453   */\n      add\n        /* \"#utility.yul\":12427:12453   */\n      swap1\n      pop\n        /* \"#utility.yul\":12499:12508   */\n      dup2\n        /* \"#utility.yul\":12493:12497   */\n      dup2\n        /* \"#utility.yul\":12489:12509   */\n      sub\n        /* \"#utility.yul\":12485:12486   */\n      0x00\n        /* \"#utility.yul\":12474:12483   */\n      dup4\n        /* \"#utility.yul\":12470:12487   */\n      add\n        /* \"#utility.yul\":12463:12510   */\n      mstore\n        /* \"#utility.yul\":12527:12658   */\n      tag_328\n        /* \"#utility.yul\":12653:12657   */\n      dup2\n        /* \"#utility.yul\":12527:12658   */\n      tag_191\n      jump\t// in\n    tag_328:\n        /* \"#utility.yul\":12519:12658   */\n      swap1\n      pop\n        /* \"#utility.yul\":12246:12665   */\n      swap2\n      swap1\n      pop\n      jump\t// out\n        /* \"#utility.yul\":12671:12898   */\n    tag_192:\n        /* \"#utility.yul\":12811:12845   */\n      0x526563697069656e7420616e6420726174696f206c656e6774687320646f206e\n        /* \"#utility.yul\":12807:12808   */\n      0x00\n        /* \"#utility.yul\":12799:12805   */\n      dup3\n        /* \"#utility.yul\":12795:12809   */\n      add\n        /* \"#utility.yul\":12788:12846   */\n      mstore\n        /* \"#utility.yul\":12880:12890   */\n      0x6f74206d61746368000000000000000000000000000000000000000000000000\n        /* \"#utility.yul\":12875:12877   */\n      0x20\n        /* \"#utility.yul\":12867:12873   */\n      dup3\n        /* \"#utility.yul\":12863:12878   */\n      add\n        /* \"#utility.yul\":12856:12891   */\n      mstore\n        /* \"#utility.yul\":12671:12898   */\n      pop\n      jump\t// out\n        /* \"#utility.yul\":12904:13270   */\n    tag_193:\n        /* \"#utility.yul\":13046:13049   */\n      0x00\n        /* \"#utility.yul\":13067:13134   */\n      tag_331\n        /* \"#utility.yul\":13131:13133   */\n      0x28\n        /* \"#utility.yul\":13126:13129   */\n      dup4\n        /* \"#utility.yul\":13067:13134   */\n      tag_181\n      jump\t// in\n    tag_331:\n        /* \"#utility.yul\":13060:13134   */\n      swap2\n      pop\n        /* \"#utility.yul\":13143:13236   */\n      tag_332\n        /* \"#utility.yul\":13232:13235   */\n      dup3\n        /* \"#utility.yul\":13143:13236   */\n      tag_192\n      jump\t// in\n    tag_332:\n        /* \"#utility.yul\":13261:13263   */\n      0x40\n        /* \"#utility.yul\":13256:13259   */\n      dup3\n        /* \"#utility.yul\":13252:13264   */\n      add\n        /* \"#utility.yul\":13245:13264   */\n      swap1\n      pop\n        /* \"#utility.yul\":12904:13270   */\n      swap2\n      swap1\n      pop\n      jump\t// out\n        /* \"#utility.yul\":13276:13695   */\n    tag_132:\n        /* \"#utility.yul\":13442:13446   */\n      0x00\n        /* \"#utility.yul\":13480:13482   */\n      0x20\n        /* \"#utility.yul\":13469:13478   */\n      dup3\n        /* \"#utility.yul\":13465:13483   */\n      add\n        /* \"#utility.yul\":13457:13483   */\n      swap1\n      pop\n        /* \"#utility.yul\":13529:13538   */\n      dup2\n        /* \"#utility.yul\":13523:13527   */\n      dup2\n        /* \"#utility.yul\":13519:13539   */\n      sub\n        /* \"#utility.yul\":13515:13516   */\n      0x00\n        /* \"#utility.yul\":13504:13513   */\n      dup4\n        /* \"#utility.yul\":13500:13517   */\n      add\n        /* \"#utility.yul\":13493:13540   */\n      mstore\n        /* \"#utility.yul\":13557:13688   */\n      tag_334\n        /* \"#utility.yul\":13683:13687   */\n      dup2\n        /* \"#utility.yul\":13557:13688   */\n      tag_193\n      jump\t// in\n    tag_334:\n        /* \"#utility.yul\":13549:13688   */\n      swap1\n      pop\n        /* \"#utility.yul\":13276:13695   */\n      swap2\n      swap1\n      pop\n      jump\t// out\n        /* \"#utility.yul\":13701:13819   */\n    tag_194:\n        /* \"#utility.yul\":13788:13812   */\n      tag_336\n        /* \"#utility.yul\":13806:13811   */\n      dup2\n        /* \"#utility.yul\":13788:13812   */\n      tag_173\n      jump\t// in\n    tag_336:\n        /* \"#utility.yul\":13783:13786   */\n      dup3\n        /* \"#utility.yul\":13776:13813   */\n      mstore\n        /* \"#utility.yul\":13701:13819   */\n      pop\n      pop\n      jump\t// out\n        /* \"#utility.yul\":13825:14267   */\n    tag_148:\n        /* \"#utility.yul\":13974:13978   */\n      0x00\n        /* \"#utility.yul\":14012:14014   */\n      0x60\n        /* \"#utility.yul\":14001:14010   */\n      dup3\n        /* \"#utility.yul\":13997:14015   */\n      add\n        /* \"#utility.yul\":13989:14015   */\n      swap1\n      pop\n        /* \"#utility.yul\":14025:14096   */\n      tag_338\n        /* \"#utility.yul\":14093:14094   */\n      0x00\n        /* \"#utility.yul\":14082:14091   */\n      dup4\n        /* \"#utility.yul\":14078:14095   */\n      add\n        /* \"#utility.yul\":14069:14075   */\n      dup7\n        /* \"#utility.yul\":14025:14096   */\n      tag_194\n      jump\t// in\n    tag_338:\n        /* \"#utility.yul\":14106:14178   */\n      tag_339\n        /* \"#utility.yul\":14174:14176   */\n      0x20\n        /* \"#utility.yul\":14163:14172   */\n      dup4\n        /* \"#utility.yul\":14159:14177   */\n      add\n        /* \"#utility.yul\":14150:14156   */\n      dup6\n        /* \"#utility.yul\":14106:14178   */\n      tag_194\n      jump\t// in\n    tag_339:\n        /* \"#utility.yul\":14188:14260   */\n      tag_340\n        /* \"#utility.yul\":14256:14258   */\n      0x40\n        /* \"#utility.yul\":14245:14254   */\n      dup4\n        /* \"#utility.yul\":14241:14259   */\n      add\n        /* \"#utility.yul\":14232:14238   */\n      dup5\n        /* \"#utility.yul\":14188:14260   */\n      tag_159\n      jump\t// in\n    tag_340:\n        /* \"#utility.yul\":13825:14267   */\n      swap5\n      swap4\n      pop\n      pop\n      pop\n      pop\n      jump\t// out\n        /* \"#utility.yul\":14273:14363   */\n    tag_195:\n        /* \"#utility.yul\":14307:14314   */\n      0x00\n        /* \"#utility.yul\":14350:14355   */\n      dup2\n        /* \"#utility.yul\":14343:14356   */\n      iszero\n        /* \"#utility.yul\":14336:14357   */\n      iszero\n        /* \"#utility.yul\":14325:14357   */\n      swap1\n      pop\n        /* \"#utility.yul\":14273:14363   */\n      swap2\n      swap1\n      pop\n      jump\t// out\n        /* \"#utility.yul\":14369:14485   */\n    tag_196:\n        /* \"#utility.yul\":14439:14460   */\n      tag_343\n        /* \"#utility.yul\":14454:14459   */\n      dup2\n        /* \"#utility.yul\":14439:14460   */\n      tag_195\n      jump\t// in\n    tag_343:\n        /* \"#utility.yul\":14432:14437   */\n      dup2\n        /* \"#utility.yul\":14429:14461   */\n      eq\n        /* \"#utility.yul\":14419:14479   */\n      tag_344\n      jumpi\n        /* \"#utility.yul\":14475:14476   */\n      0x00\n        /* \"#utility.yul\":14472:14473   */\n      dup1\n        /* \"#utility.yul\":14465:14477   */\n      revert\n        /* \"#utility.yul\":14419:14479   */\n    tag_344:\n        /* \"#utility.yul\":14369:14485   */\n      pop\n      jump\t// out\n        /* \"#utility.yul\":14491:14628   */\n    tag_197:\n        /* \"#utility.yul\":14545:14550   */\n      0x00\n        /* \"#utility.yul\":14576:14582   */\n      dup2\n        /* \"#utility.yul\":14570:14583   */\n      mload\n        /* \"#utility.yul\":14561:14583   */\n      swap1\n      pop\n        /* \"#utility.yul\":14592:14622   */\n      tag_346\n        /* \"#utility.yul\":14616:14621   */\n      dup2\n        /* \"#utility.yul\":14592:14622   */\n      tag_196\n      jump\t// in\n    tag_346:\n        /* \"#utility.yul\":14491:14628   */\n      swap3\n      swap2\n      pop\n      pop\n      jump\t// out\n        /* \"#utility.yul\":14634:14979   */\n    tag_152:\n        /* \"#utility.yul\":14701:14707   */\n      0x00\n        /* \"#utility.yul\":14750:14752   */\n      0x20\n        /* \"#utility.yul\":14738:14747   */\n      dup3\n        /* \"#utility.yul\":14729:14736   */\n      dup5\n        /* \"#utility.yul\":14725:14748   */\n      sub\n        /* \"#utility.yul\":14721:14753   */\n      slt\n        /* \"#utility.yul\":14718:14837   */\n      iszero\n      tag_348\n      jumpi\n        /* \"#utility.yul\":14756:14835   */\n      tag_349\n      tag_161\n      jump\t// in\n    tag_349:\n        /* \"#utility.yul\":14718:14837   */\n    tag_348:\n        /* \"#utility.yul\":14876:14877   */\n      0x00\n        /* \"#utility.yul\":14901:14962   */\n      tag_350\n        /* \"#utility.yul\":14954:14961   */\n      dup5\n        /* \"#utility.yul\":14945:14951   */\n      dup3\n        /* \"#utility.yul\":14934:14943   */\n      dup6\n        /* \"#utility.yul\":14930:14952   */\n      add\n        /* \"#utility.yul\":14901:14962   */\n      tag_197\n      jump\t// in\n    tag_350:\n        /* \"#utility.yul\":14891:14962   */\n      swap2\n      pop\n        /* \"#utility.yul\":14847:14972   */\n      pop\n        /* \"#utility.yul\":14634:14979   */\n      swap3\n      swap2\n      pop\n      pop\n      jump\t// out\n\n    auxdata: 0xa2646970667358221220e1f0be1e70041ed0c3c32bd324436992034a660ef9c29f49973c7b23ecb1012764736f6c63430008120033\n}\n",
				"bytecode": {
					"linkReferences": {},
					"object": "60806040523480156200001157600080fd5b50604051620016fd380380620016fd833981810160405281019062000037919062000234565b836000806101000a81548173ffffffffffffffffffffffffffffffffffffffff021916908373ffffffffffffffffffffffffffffffffffffffff1602179055508260028190555081600560006101000a81548173ffffffffffffffffffffffffffffffffffffffff021916908373ffffffffffffffffffffffffffffffffffffffff16021790555080600660006101000a81548173ffffffffffffffffffffffffffffffffffffffff021916908373ffffffffffffffffffffffffffffffffffffffff16021790555042600481905550620493e06008819055506301e133806009600060018152602001908152602001600020819055506303c2670060096000600281526020019081526020016000208190555063096601806009600060058152602001908152602001600020819055506312cc030060096000600a81526020019081526020016000208190555050505050620002a6565b600080fd5b600073ffffffffffffffffffffffffffffffffffffffff82169050919050565b6000620001c18262000194565b9050919050565b620001d381620001b4565b8114620001df57600080fd5b50565b600081519050620001f381620001c8565b92915050565b6000819050919050565b6200020e81620001f9565b81146200021a57600080fd5b50565b6000815190506200022e8162000203565b92915050565b600080600080608085870312156200025157620002506200018f565b5b60006200026187828801620001e2565b945050602062000274878288016200021d565b93505060406200028787828801620001e2565b92505060606200029a87828801620001e2565b91505092959194509250565b61144780620002b66000396000f3fe6080604052600436106100aa5760003560e01c806354e50ffd1161006457806354e50ffd146101e35780635f631ba51461020e5780636d93c3ba1461024b578063abe0ee2e14610274578063ee7d72b41461027e578063f46b8f82146102a7576100ff565b80620e72c714610104578063041e7adb146101415780631a93d1c31461016c5780632b445d78146101975780633e4eb36c146101a157806353a41b50146101cc576100ff565b366100ff573373ffffffffffffffffffffffffffffffffffffffff167fd34407217bc1188b69edcf88532167050a4ee9fb14ed2eecd50166fb0cb19b64346040516100f59190610b77565b60405180910390a2005b600080fd5b34801561011057600080fd5b5061012b60048036038101906101269190610bd2565b6102d0565b6040516101389190610b77565b60405180910390f35b34801561014d57600080fd5b506101566102ed565b6040516101639190610b77565b60405180910390f35b34801561017857600080fd5b506101816102f7565b60405161018e9190610b77565b60405180910390f35b61019f610301565b005b3480156101ad57600080fd5b506101b66103ad565b6040516101c39190610b77565b60405180910390f35b3480156101d857600080fd5b506101e16103b7565b005b3480156101ef57600080fd5b506101f86106dd565b6040516102059190610b77565b60405180910390f35b34801561021a57600080fd5b5061023560048036038101906102309190610bd2565b6106e7565b6040516102429190610b77565b60405180910390f35b34801561025757600080fd5b50610272600480360381019061026d9190610bd2565b6106ff565b005b61027c6107ed565b005b34801561028a57600080fd5b506102a560048036038101906102a09190610bd2565b6107ef565b005b3480156102b357600080fd5b506102ce60048036038101906102c99190610e79565b610887565b005b600060096000838152602001908152602001600020549050919050565b6000600454905090565b6000600854905090565b60003411610344576040517f08c379a000000000000000000000000000000000000000000000000000000000815260040161033b90610f74565b60405180910390fd5b34600160008282546103569190610fc3565b925050819055503373ffffffffffffffffffffffffffffffffffffffff167fd34407217bc1188b69edcf88532167050a4ee9fb14ed2eecd50166fb0cb19b64346040516103a39190610b77565b60405180910390a2565b6000600254905090565b60008054906101000a900473ffffffffffffffffffffffffffffffffffffffff1673ffffffffffffffffffffffffffffffffffffffff163373ffffffffffffffffffffffffffffffffffffffff1614610445576040517f08c379a000000000000000000000000000000000000000000000000000000000815260040161043c90611069565b60405180910390fd5b600960006007548152602001908152602001600020546004546104689190610fc3565b4210156104aa576040517f08c379a00000000000000000000000000000000000000000000000000000000081526004016104a1906110fb565b60405180910390fd5b60006127106002546001546104bf919061111b565b6104c9919061118c565b90506000816001546104db91906111bd565b9050600081905060005b600a80549050811015610638576000612710600a838154811061050b5761050a6111f1565b5b90600052602060002090600202016001015485610528919061111b565b610532919061118c565b9050808361054091906111bd565b9250610591600a8381548110610559576105586111f1565b5b906000526020600020906002020160000160009054906101000a900473ffffffffffffffffffffffffffffffffffffffff16826109fb565b600a82815481106105a5576105a46111f1565b5b906000526020600020906002020160000160009054906101000a900473ffffffffffffffffffffffffffffffffffffffff1673ffffffffffffffffffffffffffffffffffffffff167f2a3fc9f6ac009bb0b1a42d00609a0e83a548aa248a6f2a03f5b2af26cae17d9e8260405161061c9190610b77565b60405180910390a250808061063090611220565b9150506104e5565b5061066360008054906101000a900473ffffffffffffffffffffffffffffffffffffffff16826109fb565b60008054906101000a900473ffffffffffffffffffffffffffffffffffffffff1673ffffffffffffffffffffffffffffffffffffffff167f2a3fc9f6ac009bb0b1a42d00609a0e83a548aa248a6f2a03f5b2af26cae17d9e826040516106c99190610b77565b60405180910390a242600481905550505050565b6000600154905090565b60096020528060005260406000206000915090505481565b60008054906101000a900473ffffffffffffffffffffffffffffffffffffffff1673ffffffffffffffffffffffffffffffffffffffff163373ffffffffffffffffffffffffffffffffffffffff161461078d576040517f08c379a000000000000000000000000000000000000000000000000000000000815260040161078490611069565b60405180910390fd5b60006009600083815260200190815260200160002054116107e3576040517f08c379a00000000000000000000000000000000000000000000000000000000081526004016107da906112b4565b60405180910390fd5b8060078190555050565b565b60008054906101000a900473ffffffffffffffffffffffffffffffffffffffff1673ffffffffffffffffffffffffffffffffffffffff163373ffffffffffffffffffffffffffffffffffffffff161461087d576040517f08c379a000000000000000000000000000000000000000000000000000000000815260040161087490611069565b60405180910390fd5b8060088190555050565b80518251146108cb576040517f08c379a00000000000000000000000000000000000000000000000000000000081526004016108c290611346565b60405180910390fd5b600a60006108d99190610ac4565b60005b82518110156109f6576108ed610ae8565b838281518110610900576108ff6111f1565b5b6020026020010151816000019073ffffffffffffffffffffffffffffffffffffffff16908173ffffffffffffffffffffffffffffffffffffffff1681525050828281518110610952576109516111f1565b5b6020026020010151816020018181525050600a81908060018154018082558091505060019003906000526020600020906002020160009091909190915060008201518160000160006101000a81548173ffffffffffffffffffffffffffffffffffffffff021916908373ffffffffffffffffffffffffffffffffffffffff1602179055506020820151816001015550505080806109ee90611220565b9150506108dc565b505050565b600560009054906101000a900473ffffffffffffffffffffffffffffffffffffffff1673ffffffffffffffffffffffffffffffffffffffff166323b872dd600660009054906101000a900473ffffffffffffffffffffffffffffffffffffffff1684846040518463ffffffff1660e01b8152600401610a7c93929190611375565b6020604051808303816000875af1158015610a9b573d6000803e3d6000fd5b505050506040513d601f19601f82011682018060405250810190610abf91906113e4565b505050565b5080546000825560020290600052602060002090810190610ae59190610b18565b50565b6040518060400160405280600073ffffffffffffffffffffffffffffffffffffffff168152602001600081525090565b5b80821115610b5a57600080820160006101000a81549073ffffffffffffffffffffffffffffffffffffffff0219169055600182016000905550600201610b19565b5090565b6000819050919050565b610b7181610b5e565b82525050565b6000602082019050610b8c6000830184610b68565b92915050565b6000604051905090565b600080fd5b600080fd5b610baf81610b5e565b8114610bba57600080fd5b50565b600081359050610bcc81610ba6565b92915050565b600060208284031215610be857610be7610b9c565b5b6000610bf684828501610bbd565b91505092915050565b600080fd5b6000601f19601f8301169050919050565b7f4e487b7100000000000000000000000000000000000000000000000000000000600052604160045260246000fd5b610c4d82610c04565b810181811067ffffffffffffffff82111715610c6c57610c6b610c15565b5b80604052505050565b6000610c7f610b92565b9050610c8b8282610c44565b919050565b600067ffffffffffffffff821115610cab57610caa610c15565b5b602082029050602081019050919050565b600080fd5b600073ffffffffffffffffffffffffffffffffffffffff82169050919050565b6000610cec82610cc1565b9050919050565b610cfc81610ce1565b8114610d0757600080fd5b50565b600081359050610d1981610cf3565b92915050565b6000610d32610d2d84610c90565b610c75565b90508083825260208201905060208402830185811115610d5557610d54610cbc565b5b835b81811015610d7e5780610d6a8882610d0a565b845260208401935050602081019050610d57565b5050509392505050565b600082601f830112610d9d57610d9c610bff565b5b8135610dad848260208601610d1f565b91505092915050565b600067ffffffffffffffff821115610dd157610dd0610c15565b5b602082029050602081019050919050565b6000610df5610df084610db6565b610c75565b90508083825260208201905060208402830185811115610e1857610e17610cbc565b5b835b81811015610e415780610e2d8882610bbd565b845260208401935050602081019050610e1a565b5050509392505050565b600082601f830112610e6057610e5f610bff565b5b8135610e70848260208601610de2565b91505092915050565b60008060408385031215610e9057610e8f610b9c565b5b600083013567ffffffffffffffff811115610eae57610ead610ba1565b5b610eba85828601610d88565b925050602083013567ffffffffffffffff811115610edb57610eda610ba1565b5b610ee785828601610e4b565b9150509250929050565b600082825260208201905092915050565b7f496e6865726974616e636520616d6f756e74206d75737420626520677265617460008201527f6572207468616e207a65726f2e00000000000000000000000000000000000000602082015250565b6000610f5e602d83610ef1565b9150610f6982610f02565b604082019050919050565b60006020820190508181036000830152610f8d81610f51565b9050919050565b7f4e487b7100000000000000000000000000000000000000000000000000000000600052601160045260246000fd5b6000610fce82610b5e565b9150610fd983610b5e565b9250828201905080821115610ff157610ff0610f94565b5b92915050565b7f4f6e6c79206f776e65722063616e2063616c6c20746869732066756e6374696f60008201527f6e2e000000000000000000000000000000000000000000000000000000000000602082015250565b6000611053602283610ef1565b915061105e82610ff7565b604082019050919050565b6000602082019050818103600083015261108281611046565b9050919050565b7f446973747269627574696f6e206379636c65206e6f742079657420636f6d706c60008201527f657465642e000000000000000000000000000000000000000000000000000000602082015250565b60006110e5602583610ef1565b91506110f082611089565b604082019050919050565b60006020820190508181036000830152611114816110d8565b9050919050565b600061112682610b5e565b915061113183610b5e565b925082820261113f81610b5e565b9150828204841483151761115657611155610f94565b5b5092915050565b7f4e487b7100000000000000000000000000000000000000000000000000000000600052601260045260246000fd5b600061119782610b5e565b91506111a283610b5e565b9250826111b2576111b161115d565b5b828204905092915050565b60006111c882610b5e565b91506111d383610b5e565b92508282039050818111156111eb576111ea610f94565b5b92915050565b7f4e487b7100000000000000000000000000000000000000000000000000000000600052603260045260246000fd5b600061122b82610b5e565b91507fffffffffffffffffffffffffffffffffffffffffffffffffffffffffffffffff820361125d5761125c610f94565b5b600182019050919050565b7f496e76616c6964206379636c652073656c656374696f6e2e0000000000000000600082015250565b600061129e601883610ef1565b91506112a982611268565b602082019050919050565b600060208201905081810360008301526112cd81611291565b9050919050565b7f526563697069656e7420616e6420726174696f206c656e6774687320646f206e60008201527f6f74206d61746368000000000000000000000000000000000000000000000000602082015250565b6000611330602883610ef1565b915061133b826112d4565b604082019050919050565b6000602082019050818103600083015261135f81611323565b9050919050565b61136f81610ce1565b82525050565b600060608201905061138a6000830186611366565b6113976020830185611366565b6113a46040830184610b68565b949350505050565b60008115159050919050565b6113c1816113ac565b81146113cc57600080fd5b50565b6000815190506113de816113b8565b92915050565b6000602082840312156113fa576113f9610b9c565b5b6000611408848285016113cf565b9150509291505056fea2646970667358221220e1f0be1e70041ed0c3c32bd324436992034a660ef9c29f49973c7b23ecb1012764736f6c63430008120033",
					"opcodes": "PUSH1 0x80 PUSH1 0x40 MSTORE CALLVALUE DUP1 ISZERO PUSH3 0x11 JUMPI PUSH1 0x0 DUP1 REVERT JUMPDEST POP PUSH1 0x40 MLOAD PUSH3 0x16FD CODESIZE SUB DUP1 PUSH3 0x16FD DUP4 CODECOPY DUP2 DUP2 ADD PUSH1 0x40 MSTORE DUP2 ADD SWAP1 PUSH3 0x37 SWAP2 SWAP1 PUSH3 0x234 JUMP JUMPDEST DUP4 PUSH1 0x0 DUP1 PUSH2 0x100 EXP DUP2 SLOAD DUP2 PUSH20 0xFFFFFFFFFFFFFFFFFFFFFFFFFFFFFFFFFFFFFFFF MUL NOT AND SWAP1 DUP4 PUSH20 0xFFFFFFFFFFFFFFFFFFFFFFFFFFFFFFFFFFFFFFFF AND MUL OR SWAP1 SSTORE POP DUP3 PUSH1 0x2 DUP2 SWAP1 SSTORE POP DUP2 PUSH1 0x5 PUSH1 0x0 PUSH2 0x100 EXP DUP2 SLOAD DUP2 PUSH20 0xFFFFFFFFFFFFFFFFFFFFFFFFFFFFFFFFFFFFFFFF MUL NOT AND SWAP1 DUP4 PUSH20 0xFFFFFFFFFFFFFFFFFFFFFFFFFFFFFFFFFFFFFFFF AND MUL OR SWAP1 SSTORE POP DUP1 PUSH1 0x6 PUSH1 0x0 PUSH2 0x100 EXP DUP2 SLOAD DUP2 PUSH20 0xFFFFFFFFFFFFFFFFFFFFFFFFFFFFFFFFFFFFFFFF MUL NOT AND SWAP1 DUP4 PUSH20 0xFFFFFFFFFFFFFFFFFFFFFFFFFFFFFFFFFFFFFFFF AND MUL OR SWAP1 SSTORE POP TIMESTAMP PUSH1 0x4 DUP2 SWAP1 SSTORE POP PUSH3 0x493E0 PUSH1 0x8 DUP2 SWAP1 SSTORE POP PUSH4 0x1E13380 PUSH1 0x9 PUSH1 0x0 PUSH1 0x1 DUP2 MSTORE PUSH1 0x20 ADD SWAP1 DUP2 MSTORE PUSH1 0x20 ADD PUSH1 0x0 KECCAK256 DUP2 SWAP1 SSTORE POP PUSH4 0x3C26700 PUSH1 0x9 PUSH1 0x0 PUSH1 0x2 DUP2 MSTORE PUSH1 0x20 ADD SWAP1 DUP2 MSTORE PUSH1 0x20 ADD PUSH1 0x0 KECCAK256 DUP2 SWAP1 SSTORE POP PUSH4 0x9660180 PUSH1 0x9 PUSH1 0x0 PUSH1 0x5 DUP2 MSTORE PUSH1 0x20 ADD SWAP1 DUP2 MSTORE PUSH1 0x20 ADD PUSH1 0x0 KECCAK256 DUP2 SWAP1 SSTORE POP PUSH4 0x12CC0300 PUSH1 0x9 PUSH1 0x0 PUSH1 0xA DUP2 MSTORE PUSH1 0x20 ADD SWAP1 DUP2 MSTORE PUSH1 0x20 ADD PUSH1 0x0 KECCAK256 DUP2 SWAP1 SSTORE POP POP POP POP POP PUSH3 0x2A6 JUMP JUMPDEST PUSH1 0x0 DUP1 REVERT JUMPDEST PUSH1 0x0 PUSH20 0xFFFFFFFFFFFFFFFFFFFFFFFFFFFFFFFFFFFFFFFF DUP3 AND SWAP1 POP SWAP2 SWAP1 POP JUMP JUMPDEST PUSH1 0x0 PUSH3 0x1C1 DUP3 PUSH3 0x194 JUMP JUMPDEST SWAP1 POP SWAP2 SWAP1 POP JUMP JUMPDEST PUSH3 0x1D3 DUP2 PUSH3 0x1B4 JUMP JUMPDEST DUP2 EQ PUSH3 0x1DF JUMPI PUSH1 0x0 DUP1 REVERT JUMPDEST POP JUMP JUMPDEST PUSH1 0x0 DUP2 MLOAD SWAP1 POP PUSH3 0x1F3 DUP2 PUSH3 0x1C8 JUMP JUMPDEST SWAP3 SWAP2 POP POP JUMP JUMPDEST PUSH1 0x0 DUP2 SWAP1 POP SWAP2 SWAP1 POP JUMP JUMPDEST PUSH3 0x20E DUP2 PUSH3 0x1F9 JUMP JUMPDEST DUP2 EQ PUSH3 0x21A JUMPI PUSH1 0x0 DUP1 REVERT JUMPDEST POP JUMP JUMPDEST PUSH1 0x0 DUP2 MLOAD SWAP1 POP PUSH3 0x22E DUP2 PUSH3 0x203 JUMP JUMPDEST SWAP3 SWAP2 POP POP JUMP JUMPDEST PUSH1 0x0 DUP1 PUSH1 0x0 DUP1 PUSH1 0x80 DUP6 DUP8 SUB SLT ISZERO PUSH3 0x251 JUMPI PUSH3 0x250 PUSH3 0x18F JUMP JUMPDEST JUMPDEST PUSH1 0x0 PUSH3 0x261 DUP8 DUP3 DUP9 ADD PUSH3 0x1E2 JUMP JUMPDEST SWAP5 POP POP PUSH1 0x20 PUSH3 0x274 DUP8 DUP3 DUP9 ADD PUSH3 0x21D JUMP JUMPDEST SWAP4 POP POP PUSH1 0x40 PUSH3 0x287 DUP8 DUP3 DUP9 ADD PUSH3 0x1E2 JUMP JUMPDEST SWAP3 POP POP PUSH1 0x60 PUSH3 0x29A DUP8 DUP3 DUP9 ADD PUSH3 0x1E2 JUMP JUMPDEST SWAP2 POP POP SWAP3 SWAP6 SWAP2 SWAP5 POP SWAP3 POP JUMP JUMPDEST PUSH2 0x1447 DUP1 PUSH3 0x2B6 PUSH1 0x0 CODECOPY PUSH1 0x0 RETURN INVALID PUSH1 0x80 PUSH1 0x40 MSTORE PUSH1 0x4 CALLDATASIZE LT PUSH2 0xAA JUMPI PUSH1 0x0 CALLDATALOAD PUSH1 0xE0 SHR DUP1 PUSH4 0x54E50FFD GT PUSH2 0x64 JUMPI DUP1 PUSH4 0x54E50FFD EQ PUSH2 0x1E3 JUMPI DUP1 PUSH4 0x5F631BA5 EQ PUSH2 0x20E JUMPI DUP1 PUSH4 0x6D93C3BA EQ PUSH2 0x24B JUMPI DUP1 PUSH4 0xABE0EE2E EQ PUSH2 0x274 JUMPI DUP1 PUSH4 0xEE7D72B4 EQ PUSH2 0x27E JUMPI DUP1 PUSH4 0xF46B8F82 EQ PUSH2 0x2A7 JUMPI PUSH2 0xFF JUMP JUMPDEST DUP1 PUSH3 0xE72C7 EQ PUSH2 0x104 JUMPI DUP1 PUSH4 0x41E7ADB EQ PUSH2 0x141 JUMPI DUP1 PUSH4 0x1A93D1C3 EQ PUSH2 0x16C JUMPI DUP1 PUSH4 0x2B445D78 EQ PUSH2 0x197 JUMPI DUP1 PUSH4 0x3E4EB36C EQ PUSH2 0x1A1 JUMPI DUP1 PUSH4 0x53A41B50 EQ PUSH2 0x1CC JUMPI PUSH2 0xFF JUMP JUMPDEST CALLDATASIZE PUSH2 0xFF JUMPI CALLER PUSH20 0xFFFFFFFFFFFFFFFFFFFFFFFFFFFFFFFFFFFFFFFF AND PUSH32 0xD34407217BC1188B69EDCF88532167050A4EE9FB14ED2EECD50166FB0CB19B64 CALLVALUE PUSH1 0x40 MLOAD PUSH2 0xF5 SWAP2 SWAP1 PUSH2 0xB77 JUMP JUMPDEST PUSH1 0x40 MLOAD DUP1 SWAP2 SUB SWAP1 LOG2 STOP JUMPDEST PUSH1 0x0 DUP1 REVERT JUMPDEST CALLVALUE DUP1 ISZERO PUSH2 0x110 JUMPI PUSH1 0x0 DUP1 REVERT JUMPDEST POP PUSH2 0x12B PUSH1 0x4 DUP1 CALLDATASIZE SUB DUP2 ADD SWAP1 PUSH2 0x126 SWAP2 SWAP1 PUSH2 0xBD2 JUMP JUMPDEST PUSH2 0x2D0 JUMP JUMPDEST PUSH1 0x40 MLOAD PUSH2 0x138 SWAP2 SWAP1 PUSH2 0xB77 JUMP JUMPDEST PUSH1 0x40 MLOAD DUP1 SWAP2 SUB SWAP1 RETURN JUMPDEST CALLVALUE DUP1 ISZERO PUSH2 0x14D JUMPI PUSH1 0x0 DUP1 REVERT JUMPDEST POP PUSH2 0x156 PUSH2 0x2ED JUMP JUMPDEST PUSH1 0x40 MLOAD PUSH2 0x163 SWAP2 SWAP1 PUSH2 0xB77 JUMP JUMPDEST PUSH1 0x40 MLOAD DUP1 SWAP2 SUB SWAP1 RETURN JUMPDEST CALLVALUE DUP1 ISZERO PUSH2 0x178 JUMPI PUSH1 0x0 DUP1 REVERT JUMPDEST POP PUSH2 0x181 PUSH2 0x2F7 JUMP JUMPDEST PUSH1 0x40 MLOAD PUSH2 0x18E SWAP2 SWAP1 PUSH2 0xB77 JUMP JUMPDEST PUSH1 0x40 MLOAD DUP1 SWAP2 SUB SWAP1 RETURN JUMPDEST PUSH2 0x19F PUSH2 0x301 JUMP JUMPDEST STOP JUMPDEST CALLVALUE DUP1 ISZERO PUSH2 0x1AD JUMPI PUSH1 0x0 DUP1 REVERT JUMPDEST POP PUSH2 0x1B6 PUSH2 0x3AD JUMP JUMPDEST PUSH1 0x40 MLOAD PUSH2 0x1C3 SWAP2 SWAP1 PUSH2 0xB77 JUMP JUMPDEST PUSH1 0x40 MLOAD DUP1 SWAP2 SUB SWAP1 RETURN JUMPDEST CALLVALUE DUP1 ISZERO PUSH2 0x1D8 JUMPI PUSH1 0x0 DUP1 REVERT JUMPDEST POP PUSH2 0x1E1 PUSH2 0x3B7 JUMP JUMPDEST STOP JUMPDEST CALLVALUE DUP1 ISZERO PUSH2 0x1EF JUMPI PUSH1 0x0 DUP1 REVERT JUMPDEST POP PUSH2 0x1F8 PUSH2 0x6DD JUMP JUMPDEST PUSH1 0x40 MLOAD PUSH2 0x205 SWAP2 SWAP1 PUSH2 0xB77 JUMP JUMPDEST PUSH1 0x40 MLOAD DUP1 SWAP2 SUB SWAP1 RETURN JUMPDEST CALLVALUE DUP1 ISZERO PUSH2 0x21A JUMPI PUSH1 0x0 DUP1 REVERT JUMPDEST POP PUSH2 0x235 PUSH1 0x4 DUP1 CALLDATASIZE SUB DUP2 ADD SWAP1 PUSH2 0x230 SWAP2 SWAP1 PUSH2 0xBD2 JUMP JUMPDEST PUSH2 0x6E7 JUMP JUMPDEST PUSH1 0x40 MLOAD PUSH2 0x242 SWAP2 SWAP1 PUSH2 0xB77 JUMP JUMPDEST PUSH1 0x40 MLOAD DUP1 SWAP2 SUB SWAP1 RETURN JUMPDEST CALLVALUE DUP1 ISZERO PUSH2 0x257 JUMPI PUSH1 0x0 DUP1 REVERT JUMPDEST POP PUSH2 0x272 PUSH1 0x4 DUP1 CALLDATASIZE SUB DUP2 ADD SWAP1 PUSH2 0x26D SWAP2 SWAP1 PUSH2 0xBD2 JUMP JUMPDEST PUSH2 0x6FF JUMP JUMPDEST STOP JUMPDEST PUSH2 0x27C PUSH2 0x7ED JUMP JUMPDEST STOP JUMPDEST CALLVALUE DUP1 ISZERO PUSH2 0x28A JUMPI PUSH1 0x0 DUP1 REVERT JUMPDEST POP PUSH2 0x2A5 PUSH1 0x4 DUP1 CALLDATASIZE SUB DUP2 ADD SWAP1 PUSH2 0x2A0 SWAP2 SWAP1 PUSH2 0xBD2 JUMP JUMPDEST PUSH2 0x7EF JUMP JUMPDEST STOP JUMPDEST CALLVALUE DUP1 ISZERO PUSH2 0x2B3 JUMPI PUSH1 0x0 DUP1 REVERT JUMPDEST POP PUSH2 0x2CE PUSH1 0x4 DUP1 CALLDATASIZE SUB DUP2 ADD SWAP1 PUSH2 0x2C9 SWAP2 SWAP1 PUSH2 0xE79 JUMP JUMPDEST PUSH2 0x887 JUMP JUMPDEST STOP JUMPDEST PUSH1 0x0 PUSH1 0x9 PUSH1 0x0 DUP4 DUP2 MSTORE PUSH1 0x20 ADD SWAP1 DUP2 MSTORE PUSH1 0x20 ADD PUSH1 0x0 KECCAK256 SLOAD SWAP1 POP SWAP2 SWAP1 POP JUMP JUMPDEST PUSH1 0x0 PUSH1 0x4 SLOAD SWAP1 POP SWAP1 JUMP JUMPDEST PUSH1 0x0 PUSH1 0x8 SLOAD SWAP1 POP SWAP1 JUMP JUMPDEST PUSH1 0x0 CALLVALUE GT PUSH2 0x344 JUMPI PUSH1 0x40 MLOAD PUSH32 0x8C379A000000000000000000000000000000000000000000000000000000000 DUP2 MSTORE PUSH1 0x4 ADD PUSH2 0x33B SWAP1 PUSH2 0xF74 JUMP JUMPDEST PUSH1 0x40 MLOAD DUP1 SWAP2 SUB SWAP1 REVERT JUMPDEST CALLVALUE PUSH1 0x1 PUSH1 0x0 DUP3 DUP3 SLOAD PUSH2 0x356 SWAP2 SWAP1 PUSH2 0xFC3 JUMP JUMPDEST SWAP3 POP POP DUP2 SWAP1 SSTORE POP CALLER PUSH20 0xFFFFFFFFFFFFFFFFFFFFFFFFFFFFFFFFFFFFFFFF AND PUSH32 0xD34407217BC1188B69EDCF88532167050A4EE9FB14ED2EECD50166FB0CB19B64 CALLVALUE PUSH1 0x40 MLOAD PUSH2 0x3A3 SWAP2 SWAP1 PUSH2 0xB77 JUMP JUMPDEST PUSH1 0x40 MLOAD DUP1 SWAP2 SUB SWAP1 LOG2 JUMP JUMPDEST PUSH1 0x0 PUSH1 0x2 SLOAD SWAP1 POP SWAP1 JUMP JUMPDEST PUSH1 0x0 DUP1 SLOAD SWAP1 PUSH2 0x100 EXP SWAP1 DIV PUSH20 0xFFFFFFFFFFFFFFFFFFFFFFFFFFFFFFFFFFFFFFFF AND PUSH20 0xFFFFFFFFFFFFFFFFFFFFFFFFFFFFFFFFFFFFFFFF AND CALLER PUSH20 0xFFFFFFFFFFFFFFFFFFFFFFFFFFFFFFFFFFFFFFFF AND EQ PUSH2 0x445 JUMPI PUSH1 0x40 MLOAD PUSH32 0x8C379A000000000000000000000000000000000000000000000000000000000 DUP2 MSTORE PUSH1 0x4 ADD PUSH2 0x43C SWAP1 PUSH2 0x1069 JUMP JUMPDEST PUSH1 0x40 MLOAD DUP1 SWAP2 SUB SWAP1 REVERT JUMPDEST PUSH1 0x9 PUSH1 0x0 PUSH1 0x7 SLOAD DUP2 MSTORE PUSH1 0x20 ADD SWAP1 DUP2 MSTORE PUSH1 0x20 ADD PUSH1 0x0 KECCAK256 SLOAD PUSH1 0x4 SLOAD PUSH2 0x468 SWAP2 SWAP1 PUSH2 0xFC3 JUMP JUMPDEST TIMESTAMP LT ISZERO PUSH2 0x4AA JUMPI PUSH1 0x40 MLOAD PUSH32 0x8C379A000000000000000000000000000000000000000000000000000000000 DUP2 MSTORE PUSH1 0x4 ADD PUSH2 0x4A1 SWAP1 PUSH2 0x10FB JUMP JUMPDEST PUSH1 0x40 MLOAD DUP1 SWAP2 SUB SWAP1 REVERT JUMPDEST PUSH1 0x0 PUSH2 0x2710 PUSH1 0x2 SLOAD PUSH1 0x1 SLOAD PUSH2 0x4BF SWAP2 SWAP1 PUSH2 0x111B JUMP JUMPDEST PUSH2 0x4C9 SWAP2 SWAP1 PUSH2 0x118C JUMP JUMPDEST SWAP1 POP PUSH1 0x0 DUP2 PUSH1 0x1 SLOAD PUSH2 0x4DB SWAP2 SWAP1 PUSH2 0x11BD JUMP JUMPDEST SWAP1 POP PUSH1 0x0 DUP2 SWAP1 POP PUSH1 0x0 JUMPDEST PUSH1 0xA DUP1 SLOAD SWAP1 POP DUP2 LT ISZERO PUSH2 0x638 JUMPI PUSH1 0x0 PUSH2 0x2710 PUSH1 0xA DUP4 DUP2 SLOAD DUP2 LT PUSH2 0x50B JUMPI PUSH2 0x50A PUSH2 0x11F1 JUMP JUMPDEST JUMPDEST SWAP1 PUSH1 0x0 MSTORE PUSH1 0x20 PUSH1 0x0 KECCAK256 SWAP1 PUSH1 0x2 MUL ADD PUSH1 0x1 ADD SLOAD DUP6 PUSH2 0x528 SWAP2 SWAP1 PUSH2 0x111B JUMP JUMPDEST PUSH2 0x532 SWAP2 SWAP1 PUSH2 0x118C JUMP JUMPDEST SWAP1 POP DUP1 DUP4 PUSH2 0x540 SWAP2 SWAP1 PUSH2 0x11BD JUMP JUMPDEST SWAP3 POP PUSH2 0x591 PUSH1 0xA DUP4 DUP2 SLOAD DUP2 LT PUSH2 0x559 JUMPI PUSH2 0x558 PUSH2 0x11F1 JUMP JUMPDEST JUMPDEST SWAP1 PUSH1 0x0 MSTORE PUSH1 0x20 PUSH1 0x0 KECCAK256 SWAP1 PUSH1 0x2 MUL ADD PUSH1 0x0 ADD PUSH1 0x0 SWAP1 SLOAD SWAP1 PUSH2 0x100 EXP SWAP1 DIV PUSH20 0xFFFFFFFFFFFFFFFFFFFFFFFFFFFFFFFFFFFFFFFF AND DUP3 PUSH2 0x9FB JUMP JUMPDEST PUSH1 0xA DUP3 DUP2 SLOAD DUP2 LT PUSH2 0x5A5 JUMPI PUSH2 0x5A4 PUSH2 0x11F1 JUMP JUMPDEST JUMPDEST SWAP1 PUSH1 0x0 MSTORE PUSH1 0x20 PUSH1 0x0 KECCAK256 SWAP1 PUSH1 0x2 MUL ADD PUSH1 0x0 ADD PUSH1 0x0 SWAP1 SLOAD SWAP1 PUSH2 0x100 EXP SWAP1 DIV PUSH20 0xFFFFFFFFFFFFFFFFFFFFFFFFFFFFFFFFFFFFFFFF AND PUSH20 0xFFFFFFFFFFFFFFFFFFFFFFFFFFFFFFFFFFFFFFFF AND PUSH32 0x2A3FC9F6AC009BB0B1A42D00609A0E83A548AA248A6F2A03F5B2AF26CAE17D9E DUP3 PUSH1 0x40 MLOAD PUSH2 0x61C SWAP2 SWAP1 PUSH2 0xB77 JUMP JUMPDEST PUSH1 0x40 MLOAD DUP1 SWAP2 SUB SWAP1 LOG2 POP DUP1 DUP1 PUSH2 0x630 SWAP1 PUSH2 0x1220 JUMP JUMPDEST SWAP2 POP POP PUSH2 0x4E5 JUMP JUMPDEST POP PUSH2 0x663 PUSH1 0x0 DUP1 SLOAD SWAP1 PUSH2 0x100 EXP SWAP1 DIV PUSH20 0xFFFFFFFFFFFFFFFFFFFFFFFFFFFFFFFFFFFFFFFF AND DUP3 PUSH2 0x9FB JUMP JUMPDEST PUSH1 0x0 DUP1 SLOAD SWAP1 PUSH2 0x100 EXP SWAP1 DIV PUSH20 0xFFFFFFFFFFFFFFFFFFFFFFFFFFFFFFFFFFFFFFFF AND PUSH20 0xFFFFFFFFFFFFFFFFFFFFFFFFFFFFFFFFFFFFFFFF AND PUSH32 0x2A3FC9F6AC009BB0B1A42D00609A0E83A548AA248A6F2A03F5B2AF26CAE17D9E DUP3 PUSH1 0x40 MLOAD PUSH2 0x6C9 SWAP2 SWAP1 PUSH2 0xB77 JUMP JUMPDEST PUSH1 0x40 MLOAD DUP1 SWAP2 SUB SWAP1 LOG2 TIMESTAMP PUSH1 0x4 DUP2 SWAP1 SSTORE POP POP POP POP JUMP JUMPDEST PUSH1 0x0 PUSH1 0x1 SLOAD SWAP1 POP SWAP1 JUMP JUMPDEST PUSH1 0x9 PUSH1 0x20 MSTORE DUP1 PUSH1 0x0 MSTORE PUSH1 0x40 PUSH1 0x0 KECCAK256 PUSH1 0x0 SWAP2 POP SWAP1 POP SLOAD DUP2 JUMP JUMPDEST PUSH1 0x0 DUP1 SLOAD SWAP1 PUSH2 0x100 EXP SWAP1 DIV PUSH20 0xFFFFFFFFFFFFFFFFFFFFFFFFFFFFFFFFFFFFFFFF AND PUSH20 0xFFFFFFFFFFFFFFFFFFFFFFFFFFFFFFFFFFFFFFFF AND CALLER PUSH20 0xFFFFFFFFFFFFFFFFFFFFFFFFFFFFFFFFFFFFFFFF AND EQ PUSH2 0x78D JUMPI PUSH1 0x40 MLOAD PUSH32 0x8C379A000000000000000000000000000000000000000000000000000000000 DUP2 MSTORE PUSH1 0x4 ADD PUSH2 0x784 SWAP1 PUSH2 0x1069 JUMP JUMPDEST PUSH1 0x40 MLOAD DUP1 SWAP2 SUB SWAP1 REVERT JUMPDEST PUSH1 0x0 PUSH1 0x9 PUSH1 0x0 DUP4 DUP2 MSTORE PUSH1 0x20 ADD SWAP1 DUP2 MSTORE PUSH1 0x20 ADD PUSH1 0x0 KECCAK256 SLOAD GT PUSH2 0x7E3 JUMPI PUSH1 0x40 MLOAD PUSH32 0x8C379A000000000000000000000000000000000000000000000000000000000 DUP2 MSTORE PUSH1 0x4 ADD PUSH2 0x7DA SWAP1 PUSH2 0x12B4 JUMP JUMPDEST PUSH1 0x40 MLOAD DUP1 SWAP2 SUB SWAP1 REVERT JUMPDEST DUP1 PUSH1 0x7 DUP2 SWAP1 SSTORE POP POP JUMP JUMPDEST JUMP JUMPDEST PUSH1 0x0 DUP1 SLOAD SWAP1 PUSH2 0x100 EXP SWAP1 DIV PUSH20 0xFFFFFFFFFFFFFFFFFFFFFFFFFFFFFFFFFFFFFFFF AND PUSH20 0xFFFFFFFFFFFFFFFFFFFFFFFFFFFFFFFFFFFFFFFF AND CALLER PUSH20 0xFFFFFFFFFFFFFFFFFFFFFFFFFFFFFFFFFFFFFFFF AND EQ PUSH2 0x87D JUMPI PUSH1 0x40 MLOAD PUSH32 0x8C379A000000000000000000000000000000000000000000000000000000000 DUP2 MSTORE PUSH1 0x4 ADD PUSH2 0x874 SWAP1 PUSH2 0x1069 JUMP JUMPDEST PUSH1 0x40 MLOAD DUP1 SWAP2 SUB SWAP1 REVERT JUMPDEST DUP1 PUSH1 0x8 DUP2 SWAP1 SSTORE POP POP JUMP JUMPDEST DUP1 MLOAD DUP3 MLOAD EQ PUSH2 0x8CB JUMPI PUSH1 0x40 MLOAD PUSH32 0x8C379A000000000000000000000000000000000000000000000000000000000 DUP2 MSTORE PUSH1 0x4 ADD PUSH2 0x8C2 SWAP1 PUSH2 0x1346 JUMP JUMPDEST PUSH1 0x40 MLOAD DUP1 SWAP2 SUB SWAP1 REVERT JUMPDEST PUSH1 0xA PUSH1 0x0 PUSH2 0x8D9 SWAP2 SWAP1 PUSH2 0xAC4 JUMP JUMPDEST PUSH1 0x0 JUMPDEST DUP3 MLOAD DUP2 LT ISZERO PUSH2 0x9F6 JUMPI PUSH2 0x8ED PUSH2 0xAE8 JUMP JUMPDEST DUP4 DUP3 DUP2 MLOAD DUP2 LT PUSH2 0x900 JUMPI PUSH2 0x8FF PUSH2 0x11F1 JUMP JUMPDEST JUMPDEST PUSH1 0x20 MUL PUSH1 0x20 ADD ADD MLOAD DUP2 PUSH1 0x0 ADD SWAP1 PUSH20 0xFFFFFFFFFFFFFFFFFFFFFFFFFFFFFFFFFFFFFFFF AND SWAP1 DUP2 PUSH20 0xFFFFFFFFFFFFFFFFFFFFFFFFFFFFFFFFFFFFFFFF AND DUP2 MSTORE POP POP DUP3 DUP3 DUP2 MLOAD DUP2 LT PUSH2 0x952 JUMPI PUSH2 0x951 PUSH2 0x11F1 JUMP JUMPDEST JUMPDEST PUSH1 0x20 MUL PUSH1 0x20 ADD ADD MLOAD DUP2 PUSH1 0x20 ADD DUP2 DUP2 MSTORE POP POP PUSH1 0xA DUP2 SWAP1 DUP1 PUSH1 0x1 DUP2 SLOAD ADD DUP1 DUP3 SSTORE DUP1 SWAP2 POP POP PUSH1 0x1 SWAP1 SUB SWAP1 PUSH1 0x0 MSTORE PUSH1 0x20 PUSH1 0x0 KECCAK256 SWAP1 PUSH1 0x2 MUL ADD PUSH1 0x0 SWAP1 SWAP2 SWAP1 SWAP2 SWAP1 SWAP2 POP PUSH1 0x0 DUP3 ADD MLOAD DUP2 PUSH1 0x0 ADD PUSH1 0x0 PUSH2 0x100 EXP DUP2 SLOAD DUP2 PUSH20 0xFFFFFFFFFFFFFFFFFFFFFFFFFFFFFFFFFFFFFFFF MUL NOT AND SWAP1 DUP4 PUSH20 0xFFFFFFFFFFFFFFFFFFFFFFFFFFFFFFFFFFFFFFFF AND MUL OR SWAP1 SSTORE POP PUSH1 0x20 DUP3 ADD MLOAD DUP2 PUSH1 0x1 ADD SSTORE POP POP POP DUP1 DUP1 PUSH2 0x9EE SWAP1 PUSH2 0x1220 JUMP JUMPDEST SWAP2 POP POP PUSH2 0x8DC JUMP JUMPDEST POP POP POP JUMP JUMPDEST PUSH1 0x5 PUSH1 0x0 SWAP1 SLOAD SWAP1 PUSH2 0x100 EXP SWAP1 DIV PUSH20 0xFFFFFFFFFFFFFFFFFFFFFFFFFFFFFFFFFFFFFFFF AND PUSH20 0xFFFFFFFFFFFFFFFFFFFFFFFFFFFFFFFFFFFFFFFF AND PUSH4 0x23B872DD PUSH1 0x6 PUSH1 0x0 SWAP1 SLOAD SWAP1 PUSH2 0x100 EXP SWAP1 DIV PUSH20 0xFFFFFFFFFFFFFFFFFFFFFFFFFFFFFFFFFFFFFFFF AND DUP5 DUP5 PUSH1 0x40 MLOAD DUP5 PUSH4 0xFFFFFFFF AND PUSH1 0xE0 SHL DUP2 MSTORE PUSH1 0x4 ADD PUSH2 0xA7C SWAP4 SWAP3 SWAP2 SWAP1 PUSH2 0x1375 JUMP JUMPDEST PUSH1 0x20 PUSH1 0x40 MLOAD DUP1 DUP4 SUB DUP2 PUSH1 0x0 DUP8 GAS CALL ISZERO DUP1 ISZERO PUSH2 0xA9B JUMPI RETURNDATASIZE PUSH1 0x0 DUP1 RETURNDATACOPY RETURNDATASIZE PUSH1 0x0 REVERT JUMPDEST POP POP POP POP PUSH1 0x40 MLOAD RETURNDATASIZE PUSH1 0x1F NOT PUSH1 0x1F DUP3 ADD AND DUP3 ADD DUP1 PUSH1 0x40 MSTORE POP DUP2 ADD SWAP1 PUSH2 0xABF SWAP2 SWAP1 PUSH2 0x13E4 JUMP JUMPDEST POP POP POP JUMP JUMPDEST POP DUP1 SLOAD PUSH1 0x0 DUP3 SSTORE PUSH1 0x2 MUL SWAP1 PUSH1 0x0 MSTORE PUSH1 0x20 PUSH1 0x0 KECCAK256 SWAP1 DUP2 ADD SWAP1 PUSH2 0xAE5 SWAP2 SWAP1 PUSH2 0xB18 JUMP JUMPDEST POP JUMP JUMPDEST PUSH1 0x40 MLOAD DUP1 PUSH1 0x40 ADD PUSH1 0x40 MSTORE DUP1 PUSH1 0x0 PUSH20 0xFFFFFFFFFFFFFFFFFFFFFFFFFFFFFFFFFFFFFFFF AND DUP2 MSTORE PUSH1 0x20 ADD PUSH1 0x0 DUP2 MSTORE POP SWAP1 JUMP JUMPDEST JUMPDEST DUP1 DUP3 GT ISZERO PUSH2 0xB5A JUMPI PUSH1 0x0 DUP1 DUP3 ADD PUSH1 0x0 PUSH2 0x100 EXP DUP2 SLOAD SWAP1 PUSH20 0xFFFFFFFFFFFFFFFFFFFFFFFFFFFFFFFFFFFFFFFF MUL NOT AND SWAP1 SSTORE PUSH1 0x1 DUP3 ADD PUSH1 0x0 SWAP1 SSTORE POP PUSH1 0x2 ADD PUSH2 0xB19 JUMP JUMPDEST POP SWAP1 JUMP JUMPDEST PUSH1 0x0 DUP2 SWAP1 POP SWAP2 SWAP1 POP JUMP JUMPDEST PUSH2 0xB71 DUP2 PUSH2 0xB5E JUMP JUMPDEST DUP3 MSTORE POP POP JUMP JUMPDEST PUSH1 0x0 PUSH1 0x20 DUP3 ADD SWAP1 POP PUSH2 0xB8C PUSH1 0x0 DUP4 ADD DUP5 PUSH2 0xB68 JUMP JUMPDEST SWAP3 SWAP2 POP POP JUMP JUMPDEST PUSH1 0x0 PUSH1 0x40 MLOAD SWAP1 POP SWAP1 JUMP JUMPDEST PUSH1 0x0 DUP1 REVERT JUMPDEST PUSH1 0x0 DUP1 REVERT JUMPDEST PUSH2 0xBAF DUP2 PUSH2 0xB5E JUMP JUMPDEST DUP2 EQ PUSH2 0xBBA JUMPI PUSH1 0x0 DUP1 REVERT JUMPDEST POP JUMP JUMPDEST PUSH1 0x0 DUP2 CALLDATALOAD SWAP1 POP PUSH2 0xBCC DUP2 PUSH2 0xBA6 JUMP JUMPDEST SWAP3 SWAP2 POP POP JUMP JUMPDEST PUSH1 0x0 PUSH1 0x20 DUP3 DUP5 SUB SLT ISZERO PUSH2 0xBE8 JUMPI PUSH2 0xBE7 PUSH2 0xB9C JUMP JUMPDEST JUMPDEST PUSH1 0x0 PUSH2 0xBF6 DUP5 DUP3 DUP6 ADD PUSH2 0xBBD JUMP JUMPDEST SWAP2 POP POP SWAP3 SWAP2 POP POP JUMP JUMPDEST PUSH1 0x0 DUP1 REVERT JUMPDEST PUSH1 0x0 PUSH1 0x1F NOT PUSH1 0x1F DUP4 ADD AND SWAP1 POP SWAP2 SWAP1 POP JUMP JUMPDEST PUSH32 0x4E487B7100000000000000000000000000000000000000000000000000000000 PUSH1 0x0 MSTORE PUSH1 0x41 PUSH1 0x4 MSTORE PUSH1 0x24 PUSH1 0x0 REVERT JUMPDEST PUSH2 0xC4D DUP3 PUSH2 0xC04 JUMP JUMPDEST DUP2 ADD DUP2 DUP2 LT PUSH8 0xFFFFFFFFFFFFFFFF DUP3 GT OR ISZERO PUSH2 0xC6C JUMPI PUSH2 0xC6B PUSH2 0xC15 JUMP JUMPDEST JUMPDEST DUP1 PUSH1 0x40 MSTORE POP POP POP JUMP JUMPDEST PUSH1 0x0 PUSH2 0xC7F PUSH2 0xB92 JUMP JUMPDEST SWAP1 POP PUSH2 0xC8B DUP3 DUP3 PUSH2 0xC44 JUMP JUMPDEST SWAP2 SWAP1 POP JUMP JUMPDEST PUSH1 0x0 PUSH8 0xFFFFFFFFFFFFFFFF DUP3 GT ISZERO PUSH2 0xCAB JUMPI PUSH2 0xCAA PUSH2 0xC15 JUMP JUMPDEST JUMPDEST PUSH1 0x20 DUP3 MUL SWAP1 POP PUSH1 0x20 DUP2 ADD SWAP1 POP SWAP2 SWAP1 POP JUMP JUMPDEST PUSH1 0x0 DUP1 REVERT JUMPDEST PUSH1 0x0 PUSH20 0xFFFFFFFFFFFFFFFFFFFFFFFFFFFFFFFFFFFFFFFF DUP3 AND SWAP1 POP SWAP2 SWAP1 POP JUMP JUMPDEST PUSH1 0x0 PUSH2 0xCEC DUP3 PUSH2 0xCC1 JUMP JUMPDEST SWAP1 POP SWAP2 SWAP1 POP JUMP JUMPDEST PUSH2 0xCFC DUP2 PUSH2 0xCE1 JUMP JUMPDEST DUP2 EQ PUSH2 0xD07 JUMPI PUSH1 0x0 DUP1 REVERT JUMPDEST POP JUMP JUMPDEST PUSH1 0x0 DUP2 CALLDATALOAD SWAP1 POP PUSH2 0xD19 DUP2 PUSH2 0xCF3 JUMP JUMPDEST SWAP3 SWAP2 POP POP JUMP JUMPDEST PUSH1 0x0 PUSH2 0xD32 PUSH2 0xD2D DUP5 PUSH2 0xC90 JUMP JUMPDEST PUSH2 0xC75 JUMP JUMPDEST SWAP1 POP DUP1 DUP4 DUP3 MSTORE PUSH1 0x20 DUP3 ADD SWAP1 POP PUSH1 0x20 DUP5 MUL DUP4 ADD DUP6 DUP2 GT ISZERO PUSH2 0xD55 JUMPI PUSH2 0xD54 PUSH2 0xCBC JUMP JUMPDEST JUMPDEST DUP4 JUMPDEST DUP2 DUP2 LT ISZERO PUSH2 0xD7E JUMPI DUP1 PUSH2 0xD6A DUP9 DUP3 PUSH2 0xD0A JUMP JUMPDEST DUP5 MSTORE PUSH1 0x20 DUP5 ADD SWAP4 POP POP PUSH1 0x20 DUP2 ADD SWAP1 POP PUSH2 0xD57 JUMP JUMPDEST POP POP POP SWAP4 SWAP3 POP POP POP JUMP JUMPDEST PUSH1 0x0 DUP3 PUSH1 0x1F DUP4 ADD SLT PUSH2 0xD9D JUMPI PUSH2 0xD9C PUSH2 0xBFF JUMP JUMPDEST JUMPDEST DUP2 CALLDATALOAD PUSH2 0xDAD DUP5 DUP3 PUSH1 0x20 DUP7 ADD PUSH2 0xD1F JUMP JUMPDEST SWAP2 POP POP SWAP3 SWAP2 POP POP JUMP JUMPDEST PUSH1 0x0 PUSH8 0xFFFFFFFFFFFFFFFF DUP3 GT ISZERO PUSH2 0xDD1 JUMPI PUSH2 0xDD0 PUSH2 0xC15 JUMP JUMPDEST JUMPDEST PUSH1 0x20 DUP3 MUL SWAP1 POP PUSH1 0x20 DUP2 ADD SWAP1 POP SWAP2 SWAP1 POP JUMP JUMPDEST PUSH1 0x0 PUSH2 0xDF5 PUSH2 0xDF0 DUP5 PUSH2 0xDB6 JUMP JUMPDEST PUSH2 0xC75 JUMP JUMPDEST SWAP1 POP DUP1 DUP4 DUP3 MSTORE PUSH1 0x20 DUP3 ADD SWAP1 POP PUSH1 0x20 DUP5 MUL DUP4 ADD DUP6 DUP2 GT ISZERO PUSH2 0xE18 JUMPI PUSH2 0xE17 PUSH2 0xCBC JUMP JUMPDEST JUMPDEST DUP4 JUMPDEST DUP2 DUP2 LT ISZERO PUSH2 0xE41 JUMPI DUP1 PUSH2 0xE2D DUP9 DUP3 PUSH2 0xBBD JUMP JUMPDEST DUP5 MSTORE PUSH1 0x20 DUP5 ADD SWAP4 POP POP PUSH1 0x20 DUP2 ADD SWAP1 POP PUSH2 0xE1A JUMP JUMPDEST POP POP POP SWAP4 SWAP3 POP POP POP JUMP JUMPDEST PUSH1 0x0 DUP3 PUSH1 0x1F DUP4 ADD SLT PUSH2 0xE60 JUMPI PUSH2 0xE5F PUSH2 0xBFF JUMP JUMPDEST JUMPDEST DUP2 CALLDATALOAD PUSH2 0xE70 DUP5 DUP3 PUSH1 0x20 DUP7 ADD PUSH2 0xDE2 JUMP JUMPDEST SWAP2 POP POP SWAP3 SWAP2 POP POP JUMP JUMPDEST PUSH1 0x0 DUP1 PUSH1 0x40 DUP4 DUP6 SUB SLT ISZERO PUSH2 0xE90 JUMPI PUSH2 0xE8F PUSH2 0xB9C JUMP JUMPDEST JUMPDEST PUSH1 0x0 DUP4 ADD CALLDATALOAD PUSH8 0xFFFFFFFFFFFFFFFF DUP2 GT ISZERO PUSH2 0xEAE JUMPI PUSH2 0xEAD PUSH2 0xBA1 JUMP JUMPDEST JUMPDEST PUSH2 0xEBA DUP6 DUP3 DUP7 ADD PUSH2 0xD88 JUMP JUMPDEST SWAP3 POP POP PUSH1 0x20 DUP4 ADD CALLDATALOAD PUSH8 0xFFFFFFFFFFFFFFFF DUP2 GT ISZERO PUSH2 0xEDB JUMPI PUSH2 0xEDA PUSH2 0xBA1 JUMP JUMPDEST JUMPDEST PUSH2 0xEE7 DUP6 DUP3 DUP7 ADD PUSH2 0xE4B JUMP JUMPDEST SWAP2 POP POP SWAP3 POP SWAP3 SWAP1 POP JUMP JUMPDEST PUSH1 0x0 DUP3 DUP3 MSTORE PUSH1 0x20 DUP3 ADD SWAP1 POP SWAP3 SWAP2 POP POP JUMP JUMPDEST PUSH32 0x496E6865726974616E636520616D6F756E74206D757374206265206772656174 PUSH1 0x0 DUP3 ADD MSTORE PUSH32 0x6572207468616E207A65726F2E00000000000000000000000000000000000000 PUSH1 0x20 DUP3 ADD MSTORE POP JUMP JUMPDEST PUSH1 0x0 PUSH2 0xF5E PUSH1 0x2D DUP4 PUSH2 0xEF1 JUMP JUMPDEST SWAP2 POP PUSH2 0xF69 DUP3 PUSH2 0xF02 JUMP JUMPDEST PUSH1 0x40 DUP3 ADD SWAP1 POP SWAP2 SWAP1 POP JUMP JUMPDEST PUSH1 0x0 PUSH1 0x20 DUP3 ADD SWAP1 POP DUP2 DUP2 SUB PUSH1 0x0 DUP4 ADD MSTORE PUSH2 0xF8D DUP2 PUSH2 0xF51 JUMP JUMPDEST SWAP1 POP SWAP2 SWAP1 POP JUMP JUMPDEST PUSH32 0x4E487B7100000000000000000000000000000000000000000000000000000000 PUSH1 0x0 MSTORE PUSH1 0x11 PUSH1 0x4 MSTORE PUSH1 0x24 PUSH1 0x0 REVERT JUMPDEST PUSH1 0x0 PUSH2 0xFCE DUP3 PUSH2 0xB5E JUMP JUMPDEST SWAP2 POP PUSH2 0xFD9 DUP4 PUSH2 0xB5E JUMP JUMPDEST SWAP3 POP DUP3 DUP3 ADD SWAP1 POP DUP1 DUP3 GT ISZERO PUSH2 0xFF1 JUMPI PUSH2 0xFF0 PUSH2 0xF94 JUMP JUMPDEST JUMPDEST SWAP3 SWAP2 POP POP JUMP JUMPDEST PUSH32 0x4F6E6C79206F776E65722063616E2063616C6C20746869732066756E6374696F PUSH1 0x0 DUP3 ADD MSTORE PUSH32 0x6E2E000000000000000000000000000000000000000000000000000000000000 PUSH1 0x20 DUP3 ADD MSTORE POP JUMP JUMPDEST PUSH1 0x0 PUSH2 0x1053 PUSH1 0x22 DUP4 PUSH2 0xEF1 JUMP JUMPDEST SWAP2 POP PUSH2 0x105E DUP3 PUSH2 0xFF7 JUMP JUMPDEST PUSH1 0x40 DUP3 ADD SWAP1 POP SWAP2 SWAP1 POP JUMP JUMPDEST PUSH1 0x0 PUSH1 0x20 DUP3 ADD SWAP1 POP DUP2 DUP2 SUB PUSH1 0x0 DUP4 ADD MSTORE PUSH2 0x1082 DUP2 PUSH2 0x1046 JUMP JUMPDEST SWAP1 POP SWAP2 SWAP1 POP JUMP JUMPDEST PUSH32 0x446973747269627574696F6E206379636C65206E6F742079657420636F6D706C PUSH1 0x0 DUP3 ADD MSTORE PUSH32 0x657465642E000000000000000000000000000000000000000000000000000000 PUSH1 0x20 DUP3 ADD MSTORE POP JUMP JUMPDEST PUSH1 0x0 PUSH2 0x10E5 PUSH1 0x25 DUP4 PUSH2 0xEF1 JUMP JUMPDEST SWAP2 POP PUSH2 0x10F0 DUP3 PUSH2 0x1089 JUMP JUMPDEST PUSH1 0x40 DUP3 ADD SWAP1 POP SWAP2 SWAP1 POP JUMP JUMPDEST PUSH1 0x0 PUSH1 0x20 DUP3 ADD SWAP1 POP DUP2 DUP2 SUB PUSH1 0x0 DUP4 ADD MSTORE PUSH2 0x1114 DUP2 PUSH2 0x10D8 JUMP JUMPDEST SWAP1 POP SWAP2 SWAP1 POP JUMP JUMPDEST PUSH1 0x0 PUSH2 0x1126 DUP3 PUSH2 0xB5E JUMP JUMPDEST SWAP2 POP PUSH2 0x1131 DUP4 PUSH2 0xB5E JUMP JUMPDEST SWAP3 POP DUP3 DUP3 MUL PUSH2 0x113F DUP2 PUSH2 0xB5E JUMP JUMPDEST SWAP2 POP DUP3 DUP3 DIV DUP5 EQ DUP4 ISZERO OR PUSH2 0x1156 JUMPI PUSH2 0x1155 PUSH2 0xF94 JUMP JUMPDEST JUMPDEST POP SWAP3 SWAP2 POP POP JUMP JUMPDEST PUSH32 0x4E487B7100000000000000000000000000000000000000000000000000000000 PUSH1 0x0 MSTORE PUSH1 0x12 PUSH1 0x4 MSTORE PUSH1 0x24 PUSH1 0x0 REVERT JUMPDEST PUSH1 0x0 PUSH2 0x1197 DUP3 PUSH2 0xB5E JUMP JUMPDEST SWAP2 POP PUSH2 0x11A2 DUP4 PUSH2 0xB5E JUMP JUMPDEST SWAP3 POP DUP3 PUSH2 0x11B2 JUMPI PUSH2 0x11B1 PUSH2 0x115D JUMP JUMPDEST JUMPDEST DUP3 DUP3 DIV SWAP1 POP SWAP3 SWAP2 POP POP JUMP JUMPDEST PUSH1 0x0 PUSH2 0x11C8 DUP3 PUSH2 0xB5E JUMP JUMPDEST SWAP2 POP PUSH2 0x11D3 DUP4 PUSH2 0xB5E JUMP JUMPDEST SWAP3 POP DUP3 DUP3 SUB SWAP1 POP DUP2 DUP2 GT ISZERO PUSH2 0x11EB JUMPI PUSH2 0x11EA PUSH2 0xF94 JUMP JUMPDEST JUMPDEST SWAP3 SWAP2 POP POP JUMP JUMPDEST PUSH32 0x4E487B7100000000000000000000000000000000000000000000000000000000 PUSH1 0x0 MSTORE PUSH1 0x32 PUSH1 0x4 MSTORE PUSH1 0x24 PUSH1 0x0 REVERT JUMPDEST PUSH1 0x0 PUSH2 0x122B DUP3 PUSH2 0xB5E JUMP JUMPDEST SWAP2 POP PUSH32 0xFFFFFFFFFFFFFFFFFFFFFFFFFFFFFFFFFFFFFFFFFFFFFFFFFFFFFFFFFFFFFFFF DUP3 SUB PUSH2 0x125D JUMPI PUSH2 0x125C PUSH2 0xF94 JUMP JUMPDEST JUMPDEST PUSH1 0x1 DUP3 ADD SWAP1 POP SWAP2 SWAP1 POP JUMP JUMPDEST PUSH32 0x496E76616C6964206379636C652073656C656374696F6E2E0000000000000000 PUSH1 0x0 DUP3 ADD MSTORE POP JUMP JUMPDEST PUSH1 0x0 PUSH2 0x129E PUSH1 0x18 DUP4 PUSH2 0xEF1 JUMP JUMPDEST SWAP2 POP PUSH2 0x12A9 DUP3 PUSH2 0x1268 JUMP JUMPDEST PUSH1 0x20 DUP3 ADD SWAP1 POP SWAP2 SWAP1 POP JUMP JUMPDEST PUSH1 0x0 PUSH1 0x20 DUP3 ADD SWAP1 POP DUP2 DUP2 SUB PUSH1 0x0 DUP4 ADD MSTORE PUSH2 0x12CD DUP2 PUSH2 0x1291 JUMP JUMPDEST SWAP1 POP SWAP2 SWAP1 POP JUMP JUMPDEST PUSH32 0x526563697069656E7420616E6420726174696F206C656E6774687320646F206E PUSH1 0x0 DUP3 ADD MSTORE PUSH32 0x6F74206D61746368000000000000000000000000000000000000000000000000 PUSH1 0x20 DUP3 ADD MSTORE POP JUMP JUMPDEST PUSH1 0x0 PUSH2 0x1330 PUSH1 0x28 DUP4 PUSH2 0xEF1 JUMP JUMPDEST SWAP2 POP PUSH2 0x133B DUP3 PUSH2 0x12D4 JUMP JUMPDEST PUSH1 0x40 DUP3 ADD SWAP1 POP SWAP2 SWAP1 POP JUMP JUMPDEST PUSH1 0x0 PUSH1 0x20 DUP3 ADD SWAP1 POP DUP2 DUP2 SUB PUSH1 0x0 DUP4 ADD MSTORE PUSH2 0x135F DUP2 PUSH2 0x1323 JUMP JUMPDEST SWAP1 POP SWAP2 SWAP1 POP JUMP JUMPDEST PUSH2 0x136F DUP2 PUSH2 0xCE1 JUMP JUMPDEST DUP3 MSTORE POP POP JUMP JUMPDEST PUSH1 0x0 PUSH1 0x60 DUP3 ADD SWAP1 POP PUSH2 0x138A PUSH1 0x0 DUP4 ADD DUP7 PUSH2 0x1366 JUMP JUMPDEST PUSH2 0x1397 PUSH1 0x20 DUP4 ADD DUP6 PUSH2 0x1366 JUMP JUMPDEST PUSH2 0x13A4 PUSH1 0x40 DUP4 ADD DUP5 PUSH2 0xB68 JUMP JUMPDEST SWAP5 SWAP4 POP POP POP POP JUMP JUMPDEST PUSH1 0x0 DUP2 ISZERO ISZERO SWAP1 POP SWAP2 SWAP1 POP JUMP JUMPDEST PUSH2 0x13C1 DUP2 PUSH2 0x13AC JUMP JUMPDEST DUP2 EQ PUSH2 0x13CC JUMPI PUSH1 0x0 DUP1 REVERT JUMPDEST POP JUMP JUMPDEST PUSH1 0x0 DUP2 MLOAD SWAP1 POP PUSH2 0x13DE DUP2 PUSH2 0x13B8 JUMP JUMPDEST SWAP3 SWAP2 POP POP JUMP JUMPDEST PUSH1 0x0 PUSH1 0x20 DUP3 DUP5 SUB SLT ISZERO PUSH2 0x13FA JUMPI PUSH2 0x13F9 PUSH2 0xB9C JUMP JUMPDEST JUMPDEST PUSH1 0x0 PUSH2 0x1408 DUP5 DUP3 DUP6 ADD PUSH2 0x13CF JUMP JUMPDEST SWAP2 POP POP SWAP3 SWAP2 POP POP JUMP INVALID LOG2 PUSH5 0x6970667358 0x22 SLT KECCAK256 0xE1 CREATE 0xBE 0x1E PUSH17 0x41ED0C3C32BD324436992034A660EF9C2 SWAP16 0x49 SWAP8 EXTCODECOPY PUSH28 0x23ECB1012764736F6C63430008120033000000000000000000000000 "
				},
				"gasEstimates": {
					"creation": {
						"codeDepositCost": "1038200",
						"executionCost": "infinite",
						"totalCost": "infinite"
					},
					"external": {
						"cycleDurations(uint256)": "infinite",
						"distributeInheritance()": "infinite",
						"fullback()": "186",
						"getCommissionRate()": "2526",
						"getCycleDuration(uint256)": "infinite",
						"getGasLimit()": "2482",
						"getLastDistributionTimestamp()": "2460",
						"getTotalInheritance()": "2437",
						"inherit()": "infinite",
						"setCycle(uint256)": "26932",
						"setGasLimit(uint256)": "24775",
						"setHeirs(address[],uint256[])": "infinite"
					},
					"internal": {
						"distributeTokens(address,uint256)": "infinite"
					}
				},
				"methodIdentifiers": {
					"cycleDurations(uint256)": "5f631ba5",
					"distributeInheritance()": "53a41b50",
					"fullback()": "abe0ee2e",
					"getCommissionRate()": "3e4eb36c",
					"getCycleDuration(uint256)": "000e72c7",
					"getGasLimit()": "1a93d1c3",
					"getLastDistributionTimestamp()": "041e7adb",
					"getTotalInheritance()": "54e50ffd",
					"inherit()": "2b445d78",
					"setCycle(uint256)": "6d93c3ba",
					"setGasLimit(uint256)": "ee7d72b4",
					"setHeirs(address[],uint256[])": "f46b8f82"
				}
			},
			"storageLayout": {
				"storage": [
					{
						"astId": 87,
						"contract": "chainlink.sol:EstateInheritance",
						"label": "owner",
						"offset": 0,
						"slot": "0",
						"type": "t_address"
					},
					{
						"astId": 89,
						"contract": "chainlink.sol:EstateInheritance",
						"label": "totalInheritance",
						"offset": 0,
						"slot": "1",
						"type": "t_uint256"
					},
					{
						"astId": 91,
						"contract": "chainlink.sol:EstateInheritance",
						"label": "commissionRate",
						"offset": 0,
						"slot": "2",
						"type": "t_uint256"
					},
					{
						"astId": 93,
						"contract": "chainlink.sol:EstateInheritance",
						"label": "cycleDuration",
						"offset": 0,
						"slot": "3",
						"type": "t_uint256"
					},
					{
						"astId": 95,
						"contract": "chainlink.sol:EstateInheritance",
						"label": "lastDistributionTimestamp",
						"offset": 0,
						"slot": "4",
						"type": "t_uint256"
					},
					{
						"astId": 97,
						"contract": "chainlink.sol:EstateInheritance",
						"label": "linkTokenAddress",
						"offset": 0,
						"slot": "5",
						"type": "t_address"
					},
					{
						"astId": 99,
						"contract": "chainlink.sol:EstateInheritance",
						"label": "uniswapAddress",
						"offset": 0,
						"slot": "6",
						"type": "t_address"
					},
					{
						"astId": 101,
						"contract": "chainlink.sol:EstateInheritance",
						"label": "selectedCycle",
						"offset": 0,
						"slot": "7",
						"type": "t_uint256"
					},
					{
						"astId": 103,
						"contract": "chainlink.sol:EstateInheritance",
						"label": "gasLimit",
						"offset": 0,
						"slot": "8",
						"type": "t_uint256"
					},
					{
						"astId": 107,
						"contract": "chainlink.sol:EstateInheritance",
						"label": "cycleDurations",
						"offset": 0,
						"slot": "9",
						"type": "t_mapping(t_uint256,t_uint256)"
					},
					{
						"astId": 111,
						"contract": "chainlink.sol:EstateInheritance",
						"label": "heirs",
						"offset": 0,
						"slot": "10",
						"type": "t_array(t_struct(Heir)85_storage)dyn_storage"
					}
				],
				"types": {
					"t_address": {
						"encoding": "inplace",
						"label": "address",
						"numberOfBytes": "20"
					},
					"t_array(t_struct(Heir)85_storage)dyn_storage": {
						"base": "t_struct(Heir)85_storage",
						"encoding": "dynamic_array",
						"label": "struct EstateInheritance.Heir[]",
						"numberOfBytes": "32"
					},
					"t_mapping(t_uint256,t_uint256)": {
						"encoding": "mapping",
						"key": "t_uint256",
						"label": "mapping(uint256 => uint256)",
						"numberOfBytes": "32",
						"value": "t_uint256"
					},
					"t_struct(Heir)85_storage": {
						"encoding": "inplace",
						"label": "struct EstateInheritance.Heir",
						"members": [
							{
								"astId": 82,
								"contract": "chainlink.sol:EstateInheritance",
								"label": "heirAddress",
								"offset": 0,
								"slot": "0",
								"type": "t_address"
							},
							{
								"astId": 84,
								"contract": "chainlink.sol:EstateInheritance",
								"label": "ratio",
								"offset": 0,
								"slot": "1",
								"type": "t_uint256"
							}
						],
						"numberOfBytes": "64"
					},
					"t_uint256": {
						"encoding": "inplace",
						"label": "uint256",
						"numberOfBytes": "32"
					}
				}
			},
			"userdoc": {
				"kind": "user",
				"methods": {},
				"version": 1
			}
		}
	}
}